S01100007378313237365F6E732E7372656318
S31508020000E8A40220AB7B0208F67B0208F67B02080C
S31508020010F67B0208B0B582B000AFC7F804C004F098
S3150802002041FA04460D464FF47A7004F06BFA02461A
S315080200300B462046294604F001FA03460C461846A2
S31508020040214604F083FA0837BD46B0BD80B5ADF542
S31508020050067D00AF07F508723B1D1A6007F1080313
S31508020060C7F810323B1D9C4600F042F809F08CF99D
S315080200700123C7F81432D7F81432052B21DCD7F836
S315080200801422D7F8143219490A4412F8011C07F542
S31508020090867213440A4603F8012CD7F81422D7F8B5
S315080200A0143212490A4412F8011C07F10C021344CD
S315080200B00A4603F8012CD7F814320133C7F814326A
S315080200C0D9E707F586730521184609F059F907F1A4
S315080200D00C03D7F81012184609F05AF90346C7F85E
S315080200E00C323B1D9C46FFF795FFEAE770A2020811
S315080200F090B583B000AFC7F804C01E4B1B781946EB
S31508020100002002F015F86FF303046FF30714214673
S31508020110012002F00DF8184B1B781946022002F04E
S3150802012007F80023154A4FF04051002001F0B8FFA6
S315080201300023124A4FF00051012001F0B1FF0123BA
S315080201406FF070424FF08041032001F0A9FF0123AE
S315080201506FF070424FF06041042001F0A1FF0223C4
S31508020160064A0749052001F09BFF02F025F80C37DD
S31508020170BD4690BD68A202086CA20208FFFF0300F2
S3150802018000000208F0B583B000AFC7E900017B683A
S315080201901B681E467B681C687B685D68AC4210DC7F
S315080201A0396823469A1B13465B0113441B010B4409
S315080201B04FF40071184607F069F9AC4201D00134D0
S315080201C0EEE70C37BD46F0BD80B500AF084B1B788D
S315080201D083F00103DBB2002B07D1054B00221A700C
S315080201E006F0F4FF07F04CFA00E000BF80BD00BF3E
S315080201F00000022080B500AF834B1B78002B40F02D
S315080202000081814B01221A70804B4FF0FF321A602F
S315080202107F4B00221A607F4B62221A707E4B432262
S315080202201A707E4B20221A707D4B46221A707D4B1D
S315080202307D4A1A607D4B00221A607D4B4FF0FF32D1
S315080202401A607C4B7C4A1A607C4B00221A607C4BF3
S3150802025000221A607B4B01221A607B4B4FF0FF3259
S315080202601A607A4B00221A6000F03CF9784B4FF478
S3150802027000721A60774B01221A60774A774B1A6026
S31508020280012006F077FF04F04DFD754B1B881BB263
S3150802029001331AB2724B1A8007F0E6F906F06EF8C5
S315080202A0704B1B881BB201331AB26E4B1A8006F0CA
S315080202B093FC6D4B1B881BB201331AB26A4B1A8028
S315080202C06A4B1B881BB201331AB2684B1A8005F0B7
S315080202D0ABFF674B1B881BB201331AB2644B1A80F9
S315080202E006F024FF634B1B881BB201331AB2614B1B
S315080202F01A8005F085FF604B1B881BB201331AB2C0
S315080203005D4B1A8007F0D0F95C4B1B881BB2013390
S315080203101AB25A4B1A8006F0D9FE06F0CBFE584B93
S315080203201B881BB201331AB2554B1A8004F00CF91A
S31508020330544B1B881BB201331AB2524B1A8007F070
S3150802034093F8514B1B881BB201331AB24E4B1A80D3
S3150802035004F00CF84D4B1B881BB201331AB24B4BF7
S315080203601A8004F043F84A4B1B881BB201331AB2AF
S31508020370474B1A80474B1B881BB201331AB2454BAF
S315080203801A80454B1B881BB201331AB2424B1A809C
S31508020390424B1B881BB201331AB2404B1A8003F038
S315080203A01DFF03F093FE3E4B1B881BB201331AB2A4
S315080203B03B4B1A8001F056FE00F00CF900F0E2F809
S315080203C0384B1B881BB201331AB2364B1A80364B8E
S315080203D01B881BB201331AB2334B1A8001F00EFE88
S315080203E0324B1B881BB201331AB2304B1A8000F00B
S315080203F087F82F4B1B881BB201331AB22C4B1A8073
S3150802040000E000BF80BD00BF000002209800022065
S315080204103801022040010220240102203401022070
S31508020420350102203001022090A202082C01022086
S31508020430940002201C01022094A20208280102202C
S315080204403C01022014010220100102202001022090
S31508020450381B0220301B022030020220341B0220E5
S315080204606C000220CC00022000010220500102206A
S31508020470C400022008010220BA0002200402022057
S315080204800201022054000220420102203E000220FC
S315080204904800022006000220180002201A00022044
S315080204A01C000220040002203C0002200800022050
S315080204B00200022080B584B000AF094B7B6007F1C9
S315080204C00803184606F054FEFFF794FEFFF7BEFD32
S315080204D0FFF77AFE06F04AFE1037BD4680BD00BF1A
S315080204E080A2020898B500AF034B044C1846214671
S315080204F0FFF748FE98BD00BF3002022078A2020824
S3150802050098B500AF094B0A4C1846214601F06CF81B
S315080205100849064801F030F80749084801F02CF85E
S315080205200749084801F028F898BD00BF4004022090
S3150802053098A20208D8040220880502204C04022048
S31508020540500602205804022080B485B000AF7860B5
S3150802055007F10803FB607B68BB60094B1B68002B2D
S3150802056005D0FB681B6803F18052FB681A60BB68FA
S3150802057000BF18461437BD465DF8047B704700BFB6
S31508020580A67B020880B582B000AF0E48FFF7DCFFF3
S3150802059003467B600C4A3B1D13600B4B1B681B68AA
S315080205A01A460A4B1A60084B1B681B6803F00303BA
S315080205B0002B03D03121064805F098FD0837BD46C1
S315080205C080BD00BF001002407C080220800802207D
S315080205D0D0A2020880B588B000AF6D48FFF7B4FF15
S315080205E003463B606B4A3B4613606A4B1B681B68B3
S315080205F01A46694B1A60674B1B681B6803F00303AC
S31508020600002B03D04F21654805F070FD624B1B682D
S31508020610634A5360624B01221A81624A604B1A602E
S315080206205D4B1B68604A53605F4B02221A815D4A22
S315080206305D4B1A60584B1B685C4A53605B4B04223D
S315080206401A81584A594B1A60534B1B68584A5360C9
S31508020650574B08221A81534A554B1A604E4B1B6850
S31508020660544A5360534B10221A814E4A514B1A6010
S31508020670494B1B68504A53604F4B20221A81494AFC
S315080206804D4B1A60444B1B684C4A53604B4B4022F5
S315080206901A81444A494B1A603F4B1B68484A5360C1
S315080206A0474B80221A813F4A454B1A603A4B1B68D0
S315080206B0444A5360434B4FF480721A81394A414B7C
S315080206C01A60354B1B68404A53603F4B4FF4007221
S315080206D01A81344A3C4B1A602F4B1B683B4A5360BB
S315080206E03A4B4FF480621A812E4A384B1A602A4BCB
S315080206F01B68374A5360364B4FF400621A81294AFF
S31508020700334B1A60244B1B68324A5360314B4FF401
S3150802071080521A81234A2F4B1A601F4B1B682E4A96
S3150802072053602D4B4FF400521A811E4A2A4B1A6007
S31508020730194B1B68294A5360284B4FF480421A8189
S31508020740184A264B1A60144B1B68254A5360244BD9
S315080207504FF400421A81134A214B1A602148FFF7C7
S31508020760F3FE03467B60204A3B1D13601E4B1B6843
S315080207701B681A461D4B1A601B4B1B681B6803F045
S315080207800303002B34D05021044805F0AFFC00BF08
S3150802079000000242640402206804022034A302080C
S315080207A06C04022028A50208780402208404022088
S315080207B0900402209C040220A8040220B404022009
S315080207C0C0040220CC040220D8040220E404022039
S315080207D0F0040220FC040220080502201405022067
S315080207E020050220000402422C05022030050220C0
S315080207F0604B1B68604A53605F4B01221A815F4A4D
S315080208005D4B1A605B4B1B685D4A53605C4B022268
S315080208101A815A4A5A4B1A60564B1B68594A5360F0
S31508020820584B04221A81554A564B1A60514B1B687B
S31508020830554A5360544B08221A81504A524B1A6041
S315080208404C4B1B68514A5360504B10221A814B4A33
S315080208504E4B1A60474B1B684D4A53604C4B20223D
S315080208601A81464A4A4B1A60424B1B68494A5360E8
S31508020870484B40221A81414A464B1A603D4B1B6837
S31508020880454A5360444B80221A813C4A424B1A60BD
S31508020890384B1B68414A5360404B4FF480721A81A9
S315080208A0364A3E4B1A60334B1B683D4A53603C4BF3
S315080208B04FF400721A81314A394B1A602D4B1B6864
S315080208C0384A5360374B4FF480621A812B4A354BAC
S315080208D01A60284B1B68344A5360334B4FF4006244
S315080208E01A81264A304B1A60224B1B682F4A5360DC
S315080208F02E4B4FF480521A81204A2C4B1A601D4BFC
S315080209001B682B4A53602A4B4FF400521A811B4A22
S31508020910274B1A60174B1B68264A5360254B4FF420
S3150802092080421A81154A234B1A60124B1B68224AC7
S315080209305360214B4FF400421A81104A1E4B1A602B
S315080209401E48FFF701FE0346BB601D4A07F108036E
S3150802095013601B4B1B681B681A461A4B1A60184B06
S315080209601B681B6803F00303002B2FD0512116487E
S3150802097005F0BCFB300502203405022028A5020832
S31508020980400502204C050220580502206405022073
S31508020990700502207C0502208805022094050220A3
S315080209A0A0050220AC050220B8050220C4050220D3
S315080209B0D0050220DC050220E805022000080242D2
S315080209C0F4050220F805022034A30208604B1B68CE
S315080209D0604A53605F4B01221A815F4A5D4B1A6077
S315080209E05B4B1B685D4A53605C4B02221A815A4A6A
S315080209F05A4B1A60564B1B68594A5360584B042285
S31508020A001A81554A564B1A60514B1B68554A536010
S31508020A10544B08221A81504A524B1A604C4B1B6897
S31508020A20514A5360504B10221A814B4A4E4B1A6058
S31508020A30474B1B684D4A53604C4B20221A81464A43
S31508020A404A4B1A60424B1B68494A5360484B40223C
S31508020A501A81414A464B1A603D4B1B68454A536008
S31508020A60444B80221A813C4A424B1A60384B1B6817
S31508020A70414A5360404B4FF480721A81364A3E4BC4
S31508020A801A60334B1B683D4A53603C4B4FF4007265
S31508020A901A81314A394B1A602D4B1B68384A536002
S31508020AA0374B4FF480621A812B4A354B1A60284B12
S31508020AB01B68344A5360334B4FF400621A81264A44
S31508020AC0304B1A60224B1B682F4A53602E4B4FF449
S31508020AD080521A81204A2C4B1A601D4B1B682B4ADE
S31508020AE053602A4B4FF400521A811B4A274B1A604D
S31508020AF0174B1B68264A5360254B4FF480421A81CE
S31508020B00154A234B1A60124B1B68224A5360214B23
S31508020B104FF400421A81104A1E4B1A601E48FFF70C
S31508020B2013FD0346FB601D4A07F10C0313601B4BBA
S31508020B301B681B681A461A4B1A60184B1B681B68F7
S31508020B4003F00303002B2FD05221164805F0CEFAE4
S31508020B50F8050220FC05022028A50208080602203C
S31508020B6014060220200602202C060220380602203D
S31508020B7044060220500602205C060220680602206D
S31508020B8074060220800602208C060220980602209D
S31508020B90A4060220B0060220000C0242BC0602206D
S31508020BA0C006022034A30208604B1B68604A5360E1
S31508020BB05F4B01221A815F4A5D4B1A605B4B1B68C9
S31508020BC05D4A53605C4B02221A815A4A5A4B1A6092
S31508020BD0564B1B68594A5360584B04221A81554A88
S31508020BE0564B1A60514B1B68554A5360544B0822A0
S31508020BF01A81504A524B1A604C4B1B68514A536031
S31508020C00504B10221A814B4A4E4B1A60474B1B68AF
S31508020C104D4A53604C4B20221A81464A4A4B1A6067
S31508020C20424B1B68494A5360484B40221A81414A43
S31508020C30464B1A603D4B1B68454A5360444B80221B
S31508020C401A813C4A424B1A60384B1B68414A536028
S31508020C50404B4FF480721A81364A3E4B1A60334B28
S31508020C601B683D4A53603C4B4FF400721A81314A65
S31508020C70394B1A602D4B1B68384A5360374B4FF471
S31508020C8080621A812B4A354B1A60284B1B68344AF4
S31508020C905360334B4FF400621A81264A304B1A606E
S31508020CA0224B1B682F4A53602E4B4FF480521A81EF
S31508020CB0204A2C4B1A601D4B1B682B4A53602A4B41
S31508020CC04FF400521A811B4A274B1A60174B1B68AE
S31508020CD0264A5360254B4FF480421A81154A234B04
S31508020CE01A60124B1B68224A5360214B4FF400428A
S31508020CF01A81104A1E4B1A601E48FFF725FC034646
S31508020D003B611D4A07F1100313601B4B1B681B68E6
S31508020D101A461A4B1A60184B1B681B6803F0030322
S31508020D20002B2FD05321164805F0E0F9C006022001
S31508020D30C406022028A50208D0060220DC060220E4
S31508020D40E8060220F4060220000702200C07022009
S31508020D501807022024070220300702203C07022037
S31508020D604807022054070220600702206C07022067
S31508020D707807022000100242840702208807022010
S31508020D8034A30208864B1B68864A5360854B0122A8
S31508020D901A81854A834B1A60814B1B68834A5360C2
S31508020DA0824B02221A81804A804B1A607C4B1B684E
S31508020DB07F4A53607E4B04221A817B4A7C4B1A6017
S31508020DC0774B1B687B4A53607A4B08221A81764A0C
S31508020DD0784B1A60724B1B68774A5360764B10221F
S31508020DE01A81714A744B1A606D4B1B68734A5360B9
S31508020DF0724B20221A816C4A704B1A60684B1B6828
S31508020E006F4A53606E4B40221A81674A6C4B1A60CE
S31508020E10634B1B686B4A53606A4B80221A81624A8B
S31508020E20684B1A605E4B1B68674A5360664B4FF401
S31508020E3080721A815C4A644B1A60594B1B68634A72
S31508020E405360624B4FF400721A81574A5F4B1A601D
S31508020E50534B1B685E4A53605D4B4FF480621A819E
S31508020E60514A5B4B1A604E4B1B685A4A5360594BA0
S31508020E704FF400621A814C4A564B1A60484B1B685B
S31508020E80554A5360544B4FF480521A81464A524B84
S31508020E901A60434B1B68514A5360504B4FF4005239
S31508020EA01A81414A4D4B1A603D4B1B684C4A5360A6
S31508020EB04B4B4FF480421A813B4A494B1A60384BD6
S31508020EC01B68484A5360474B4FF400421A81364A18
S31508020ED0444B1A604448FFF737FB03467B61434A93
S31508020EE007F114031360414B1B681B681A46404BF3
S31508020EF01A603E4B1B681B6803F00303002B03D0E2
S31508020F00D3213C4805F0F2F8394B1B6801221946F1
S31508020F10394801F063F93948FFF716FB0346BB6106
S31508020F20374A07F118031360354B1B681B681A46C4
S31508020F30344B1A60324B1B681B6803F00303002B01
S31508020F4003D0D5212B4805F0D1F82E4B1B68012278
S31508020F5019462D4801F042F92C48FFF7F5FA0346DF
S31508020F60FB612B4A07F11C031360294B1B681B689C
S31508020F701A46284B1A60264B1B681B6803F00303A4
S31508020F80002B03D0D7211B4805F0B0F8214B1B686C
S31508020F9001221946204801F021F92037BD4680BDB5
S31508020FA0880702208C07022028A502089807022033
S31508020FB0A4070220B0070220BC070220C8070220A5
S31508020FC0D4070220E0070220EC070220F8070220D5
S31508020FD004080220100802201C0802202808022001
S31508020FE03408022040080220003001404C08022042
S31508020FF05008022034A30208540802200038004090
S315080210005C0802206008022064080220003C0040B6
S315080210106C080220700802207408022080B588B085
S3150802102000AF03460A46FB711346BB71FB79FB61A7
S31508021030FB691F2B03DD3B21804805F02BF8804B0B
S3150802104080331B68BB61BA69FB69012101FA03F3A4
S315080210507B498031096813431946794B80330A461E
S315080210601A60FB69112B40F38280FB69142B02DD9F
S31508021070FB69162B03DD3D21704805F00BF8704B12
S315080210801B68C3F34153DAB23B7D62F301033B7536
S315080210903B7DC3F30103DBB21A46FB69153B1946CE
S315080210A001238B40DBB2DB43DBB21340DAB2BB79F6
S315080210B0002B02D0BB79022B01D1012300E00023C9
S315080210C003F00303DBB21946FB69153B01FA03F386
S315080210D0DBB21343DAB25A4B1B6802F00302D2B2EE
S315080210E062F35653564A1360FB69142B02DDFB69F9
S315080210F0162B03DD3F21514804F0CCFF504B043335
S315080211001B68C3F34153DAB23B7C62F301033B74B7
S315080211103B7CC3F30103DBB21A46FB69153B19464E
S3150802112001238B40DBB2DB43DBB21340DAB2BB7975
S31508021130012B02D0BB79022B01D1012300E0002347
S3150802114003F00303DBB21946FB69153B01FA03F305
S31508021150DBB21343DAB23A4B04331B6802F00302DA
S31508021160D2B262F35653364A0432136062E0FB691E
S31508021170102B03DD4221314804F08CFF304B1B68EB
S31508021180C3F31002FB6862F31003FB60FB68C3F348
S3150802119010031946FB69012202FA03F3DB4301EA4B
S315080211A00302BB79002B02D0BB79022B01D10123A2
S315080211B000E000231946FB6901FA03F31A43204BA0
S315080211C01B68C2F3100262F310031D4A1360FB691F
S315080211D0102B03DD4421194804F05CFF184B043335
S315080211E01B68C3F31002BB6862F31003BB60BB68DB
S315080211F0C3F310031946FB69012202FA03F3DB4320
S3150802120001EA0302BB79012B02D0BB79022B01D179
S31508021210012300E000231946FB6901FA03F31A4386
S31508021220074B04331B68C2F3100262F31003044A25
S31508021230043213602037BD4680BD00BF48A30208AA
S3150802124000F4024080B586B000AF03460A46FB7139
S315080212501346BB71FB797B617B691F2B03DD642116
S315080212603D4804F017FF3D4B84331B683B613A69DE
S315080212707B69012101FA03F338498431096813436A
S315080212801946364B84330A461A607B69102B03DDEE
S315080212906521314804F0FEFE304B1B68C3F3100289
S315080212A0FB6862F31003FB60FB68C3F3100319467D
S315080212B07B69012202FA03F3DB4301EA0302BB79E3
S315080212C0002B02D0BB79022B01D1012300E00023B7
S315080212D019467B6901FA03F31A43204B1B68C2F3CA
S315080212E0100262F310031D4A13607B69102B03DD9B
S315080212F06721194804F0CEFE184B04331B68C3F362
S315080213001002BB6862F31003BB60BB68C3F3100329
S3150802131019467B69012202FA03F3DB4301EA030257
S31508021320BB79012B02D0BB79022B01D1012300E044
S31508021330002319467B6901FA03F31A43074B043360
S315080213401B68C2F3100262F31003044A04321360E4
S315080213501837BD4680BD00BF48A3020800F4024004
S3150802136080B582B000AF03460A46FB8013467B71FE
S31508021370FB88802B42D0802B11D8082B36D0082B1D
S3150802138006D8022B2ED0042B2ED0012B28D047E0CC
S31508021390202B2FD0402B2FD0102B29D040E0B3F58D
S315080213A0006F33D0B3F5006F09D8B3F5007F29D0A3
S315080213B0B3F5806F28D0B3F5807F21D030E0B3F53E
S315080213C0005F27D0B3F5005F03D8B3F5805F1FD05F
S315080213D026E0B3F5804F1FD0B3F5004F1ED01FE0AD
S315080213E0002326E0012324E0022322E0032320E04F
S315080213F004231EE005231CE006231AE0072318E04F
S31508021400082316E0092314E00A2312E00B2310E04E
S315080214100C230EE00D230CE00E230AE00F2308E04E
S315080214207B79002B03D03521044804F03BFE4FF0AC
S31508021430FF3318460837BD4680BD00BF58A30208C9
S3150802144080B483B000AF78600B46FB70FB78002B44
S3150802145002D0054A7B681A607B6800225A600C37FC
S31508021460BD465DF8047B704728A5020890B482B091
S3150802147000AF78604FF060034FF00004184621462B
S315080214800837BD4690BC704780B584B000AFF86097
S31508021490B9607A60F86806F00DF903461A46BB6821
S315080214A05A60F86806F022F903461A46BB681A819A
S315080214B01037BD4680BD00BF80B584B000AFF86066
S315080214C0B9607A60BB685968F86806F02DF9BB6896
S315080214D01B891946F86806F037F91037BD4680BDEC
S315080214E0B0B586B000AF7860396007F10C03012108
S315080214F01846FFF7A5FF07F10C033A6819467868FC
S31508021500FFF7C2FF0C2005F0C3FF05462B461C4613
S3150802151007F10C0393E8070084E807002B461846F0
S315080215201837BD46B0BD00BF80B584B000AFF860BD
S31508021530B9607A607A68B968F868FFF7BDFF10374C
S31508021540BD4680BD80B483B000AF786039607B68E1
S315080215505A683B685B689A4207D17B681A893B6876
S315080215601B899A4201D1012300E0002318460C3751
S31508021570BD465DF8047B704790B4ECB000AF3B1DE6
S3150802158018603B4619603B1D1A683B461B689A421F
S315080215900DD03B1D1B681C683B1D19683B461A6823
S315080215A00B4607CA83E807003B1D1B681C6007F544
S315080215B0D877BD4690BC704780B483B000AF7860D8
S315080215C00B46FB700C37BD465DF8047B704700BFBF
S315080215D080B483B000AF78600B46FB700C37BD460B
S315080215E05DF8047B704700BFF0B583B000AFC7E96A
S315080215F000017B681B681E467B681C687B685D6801
S31508021600AC420FDC396823469A1B13465B00134427
S315080216109B000B4401211846FFF712FFAC4201D08A
S315080216200134EFE70C37BD46F0BD00BF80B584B084
S3150802163000AF7860214B1B7883F00103DBB2002BE5
S3150802164003D052211E4804F045FD7B681B890121FF
S315080216501846FFF785FE0346002B01DB0F2B03DD39
S315080216605321174804F02EFDFB607B685B68002B4C
S3150802167003D15521124804F0FDFC7B685B681B68A0
S315080216801A46FB685B0022FA03F3DBB203F0030394
S31508021690DBB2032B03D95521094804F003FD002BBD
S315080216A003D0012B03D1022302E0012300E0002329
S315080216B000BF18461037BD4680BD00BF0A0002208B
S315080216C068A3020880B586B000AF78600B46FB7047
S315080216D0354B1B7883F00103DBB2002B03D0612163
S315080216E0324804F0F7FC7B681B8901211846FFF78C
S315080216F037FE0346002B01DB0F2B03DD66212B4841
S3150802170004F0E0FC7B61FB78002B02D0FB78022B0D
S3150802171003D96821254804F0C5FCFB78022B21D1A0
S315080217207B685B68002B03D16A21204804F0A2FC7F
S315080217307B6859680B461B683B613A697B695B00A3
S31508021740184603238340DB431A407B695B0018462D
S315080217500123834008460068134318460B4602468F
S315080217601A601AE07B685B68002B03D16C210F486C
S3150802177004F080FC7B6859680B461B68FB60FA68B4
S315080217807B695B00184603238340DB4308460068EF
S31508021790134018460B4602461A60012300BF184634
S315080217A01837BD4680BD00BF0B00022068A3020899
S315080217B080B584B000AF7860294B1B7883F00103AB
S315080217C0DBB2002B03D07621264804F083FC7B6823
S315080217D01B8901211846FFF7C3FD0346002B01DBCF
S315080217E00F2B03DD7A211F4804F06CFCFB607B6833
S315080217F05B68002B03D17C211A4804F03BFC7B680A
S315080218005B680C331B681A46FB685B0022FA03F313
S31508021810DBB203F00303DBB2002B01D1002319E08C
S315080218207B685B68002B03D17E210E4804F022FCFC
S315080218307B685B680C331B681A46FB685B0022FAF6
S3150802184003F3DBB203F00303DBB2012B01D101235D
S3150802185000E0022300BF18461037BD4680BD00BF10
S315080218600C00022068A3020880B586B000AF786033
S315080218700B46FB70494B1B7883F00103DBB2002B46
S3150802188003D08A21464804F025FC7B681B8901217E
S315080218901846FFF765FD0346002B01DB0F2B03DD18
S315080218A08F213F4804F00EFC7B61FB78022B03D99B
S315080218B091213B4804F0F6FBFB78002B02D0012B62
S315080218C01ED041E07B685B68002B03D19321344824
S315080218D004F0D0FB7B685B6803F10C0212683A617C
S315080218E039697A695200104603228240D24303F1CB
S315080218F00C0000680A4010460C3302461A6046E09D
S315080219007B685B68002B03D19521254804F0B2FB5E
S315080219107B685B6803F10C021268FA60F9687A69F7
S315080219205200104603228240D24311407A6952007D
S3150802193010460122824003F10C0000680A43104651
S315080219400C3302461A6022E07B685B68002B03D1DF
S315080219509721134804F08EFB7B685B6803F10C023F
S315080219601268BA60B9687A69520010460322824040
S31508021970D24311407A69520010460222824003F18C
S315080219800C0000680A4310460C3302461A6000BF70
S31508021990012300BF18461837BD4680BD0D00022038
S315080219A068A3020880B584B000AF78607B681B899B
S315080219B0FB817B685B68002B03D1A4210A4804F0EB
S315080219C059FB7B685B6810331B689AB2FB89134024
S315080219D09BB2FA899A420CBF01230023DBB200BFED
S315080219E018461037BD4680BD68A30208B0B582B056
S315080219F000AF78607868FFF719FE0346022B05D018
S31508021A000E4C0F4D2046294605F040F87B685B6868
S31508021A10002B03D1BD210B4804F02CFB7B685B68C5
S31508021A2018331B687A68128962F30F037A68526858
S31508021A30183213600837BD46B0BD00BF78A3020846
S31508021A40ACA3020868A30208B0B582B000AF7860FA
S31508021A507868FFF7EBFD0346022B05D00E4C0F4DB7
S31508021A602046294605F012F87B685B68002B03D1ED
S31508021A70D4210B4804F0FEFA7B685B6818331B68AE
S31508021A807A68128962F31F437A68526818321360B9
S31508021A900837BD46B0BD00BFB4A30208ACA302080E
S31508021AA068A30208B0B582B000AF78607868FFF71D
S31508021AB0BDFD0346022B05D0154C164D2046294678
S31508021AC004F0E4FF7B685B68002B03D1EB21124824
S31508021AD004F0D0FA7B685B68002B03D1EB210E4831
S31508021AE004F0C8FA7B685B6814331B6899B27B6892
S31508021AF01A897B685B6814331B684A4092B262F3A0
S31508021B000F037A685268143213600837BD46B0BDAF
S31508021B10E8A30208ACA3020868A3020880B584B049
S31508021B2000AF78607B681B89FB817B685B68002B4A
S31508021B3004D14FF480710B4804F09CFA7B685B6809
S31508021B401C331B689AB2FB8913409BB2FA899A42E4
S31508021B500CBF01230023DBB200BF18461037BD466F
S31508021B6080BD00BF68A3020880B485B000AF786064
S31508021B700B467B807968788840F48033FB60FB6883
S31508021B80CB61C861FB68CB61CB69FB60CB69FB6043
S31508021B901437BD465DF8047B704700BFB0B582B006
S31508021BA000AF6346C7F804C01B681846FFF7B6FFBE
S31508021BB0034683F00103DBB2002B05D0044C054D26
S31508021BC02046294604F062FF0837BD46B0BD00BF6D
S31508021BD01CA402084CA40208B0B584B000AF786011
S31508021BE007F12003FB607B68BB60194B1B7883F007
S31508021BF00103DBB2002B04D04FF4A171154804F09F
S31508021C0069FABB681846FFF789FF0346002B05D019
S31508021C10114C124D2046294604F038FFBB685B6812
S31508021C20002B04D14FF4A2710A4804F023FABB68C8
S31508021C305A68BB681B8919461046FFF795FF07F1D4
S31508021C4008039C46FFF7AAFF1037BD46B0BD00BF82
S31508021C500E00022068A3020854A4020880A40208FF
S31508021C6080B588B000AF78603960614B1B7883F025
S31508021C700103DBB2002B04D04FF4AC715D4804F0CB
S31508021C8029FA7B681B8901211846FFF769FB034677
S31508021C90002B01DB0F2B04DD4FF4AE71554804F01F
S31508021CA011FAFB617B685B68002B04D14FF4AF71B4
S31508021CB0504804F0DFF97B685B681B68BB61BA6948
S31508021CC0FB695B00194603238B40DB431A403B78CA
S31508021CD01946FB695B0001FA03F3796849680968E2
S31508021CE0134319467B685B680A461A607B685B6819
S31508021CF0002B04D140F25F113E4804F0BBF97B6821
S31508021D005B6804331B689BB2BB82BA8AFB690121F2
S31508021D1001FA03F39BB2DB439BB2134099B27B7879
S31508021D20012B0CBF01230023DBB29AB2FB6902FA2C
S31508021D3003F39AB27B685B6804331B680A4392B260
S31508021D4062F30F037A685268043213607B685B6831
S31508021D50002B04D14FF4B071264804F08BF97B6846
S31508021D605B6808331B683B613A69FB695B00194685
S31508021D7003238B40DB431A40BB781946FB695B0099
S31508021D8001FA03F379684968083109681343194661
S31508021D907B685B6808330A461A607B685B68002BB7
S31508021DA004D140F26111134804F064F97B685B6858
S31508021DB00C331B68FB60FA68FB695B001946032350
S31508021DC08B40DB431A40FB781946FB695B0001FA34
S31508021DD003F3796849680C310968134319467B6825
S31508021DE05B680C330A461A602037BD4680BD00BFC1
S31508021DF00F00022068A3020880B586B000AF78609B
S31508021E000B46FB703F4B1B7883F00103DBB2002BBA
S31508021E1004D04FF4BB713C4804F05CF97B681B891B
S31508021E2001211846FFF79CFA0346002B01DB0F2B0C
S31508021E3004DD4FF4BD71344804F044F97B617B69D3
S31508021E40072B2DDC7B685B68002B04D140F27D11E1
S31508021E502D4804F00FF97B69072B04DD40F27D114A
S31508021E60294804F017F97B685B6820331B683B61D5
S31508021E703A697B699B0019460F238B40DB431A405C
S31508021E80FB78796989008B40796849682031096845
S31508021E90134319467B685B6820330A461A602EE0AC
S31508021EA07B685B68002B04D140F27F11164804F068
S31508021EB0E1F87B69072B04DC40F27F11124804F033
S31508021EC0E9F87B685B6824331B68FB60FA687B6900
S31508021ED0083B9B0019460F238B40DB431A40FB78CD
S31508021EE07969083989008B40796849682431096813
S31508021EF0134319467B685B6824330A461A60183707
S31508021F00BD4680BD1200022068A3020890B583B0C0
S31508021F1000AF7860134B1B7883F00103DBB2002B0A
S31508021F2004D040F29511104804F0D4F87B681B8956
S31508021F3001211846FFF714FA03464FEAE374002B09
S31508021F4074F1000203DB172B74F1000204DB40F282
S31508021F509911054804F0B6F8DBB200BF18460C37EB
S31508021F60BD4690BD1000022068A3020890B585B050
S31508021F7000AF78600B46FB701E4B1B7883F001039B
S31508021F80DBB2002B04D04FF4D0711B4804F0A2F840
S31508021F907B681B8901211846FFF7E2F903464FEAD7
S31508021FA0E374002B74F1000203DB172B74F10002B1
S31508021FB004DB40F2A511104804F084F8FB73FB78A1
S31508021FC0022B06D8FA78FB7B11461846FFF726F845
S31508021FD00DE0FB78022B04D84FF4D771064804F0BB
S31508021FE071F8FA78FB7B11461846FFF72BF9143776
S31508021FF0BD4690BD1100022068A3020880B400AF56
S315080220000F4B01221A700F4B01221A700E4B012236
S315080220101A700E4B01221A700D4B01221A700D4BC3
S3150802202001221A700C4B01221A700C4B01221A70EB
S315080220300B4B01221A70BD465DF8047B704700BF40
S315080220400A0002200B0002200C0002200D000220CA
S315080220500E0002200F0002201200022010000220A9
S315080220601100022080B500AF034804F03DF9034B86
S31508022070184604F081F980BDB8A4020828A502080A
S3150802208080B582B000AF78600B46FB70FB78002BF8
S3150802209003D07B68184602F0D5F80837BD4680BDDE
S315080220A080B588B000AFB9607A601A460346FB73FA
S315080220B01346BB7307F1140300211846FFF7E0FF26
S315080220C007F11803FB61F86902F096F8BB68BB6171
S315080220D0164B08331B68FA7B62F30703134A083266
S315080220E01360FB691A68114B0C331B68C2F35A1248
S315080220F062F35F130D4A0C321360BB687B617A691F
S315080221007B6813447B617B69BA7B02F00702D2B211
S3150802211062F343037B617B6943F001037B61034BF3
S3150802212010337A691A602037BD4680BD90ED00E00B
S3150802213080B586B000AF03463971FB713B793B72B5
S3150802214007F108037B61FB79032B17D8FB79032B6D
S3150802215003D92C21164803F09DFF164B30331B6812
S31508022160FB60FB797A69127807F118010B4403F8C8
S315080221700C2C104B3033FA681A6016E0FB79032BE5
S3150802218003D82E210A4803F085FF0A4B34331B680D
S315080221903B61FB797A69127807F118010B4403F857
S315080221A00C2C044B34333A691A601837BD4680BD85
S315080221B060A5020890ED00E080B400AF064B043338
S315080221C01B681A46134643F00102034B04331A608E
S315080221D0BD465DF8047B704790ED00E080B485B09B
S315080221E000AFF860B9601346FB71FB79002B02D089
S315080221F0054AFB681A60FB68BA685A601437BD4616
S315080222005DF8047B704700BF28A7020890B482B025
S3150802221000AF78604FF040034FF00004184621469D
S315080222200837BD4690BC704780B483B000AF78606B
S315080222300B46FB700C37BD465DF8047B704700BF42
S3150802224080B582B000AF786039604E4B1B7883F058
S315080222500103DBB2002B03D048214B4803F03AFFB7
S315080222603B685B78012B03D94A21474803F01AFFDA
S315080222703B685B78002B14D17B685B681B681A463F
S31508022280134643F004027B685B681A607B685B68E6
S315080222901B681A46134643F480727B685B681A60A9
S315080222A00FE07B685B681B686FF382037A68526883
S315080222B013607B685B681B686FF308237A68526849
S315080222C013603B681B78032B03D953212E4803F06E
S315080222D0E9FE3B681B78012B1DD0012B02D3022B8A
S315080222E034D053E07B685B681B686FF3CF337A6838
S315080222F0526813607B685B681B686FF38E337A6873
S31508022300526813607B685B681B686FF38A237A6876
S315080223105268136056E07B685B681B686FF3CF33BD
S315080223207A68526813607B685B681B686FF38E3342
S315080223307A68526813607B685B681B681A4613469C
S3150802234043F480627B685B681A603BE07B685B6883
S315080223501B681A46134643F400427B685B681A6098
S315080223607B685B681B686FF38E337A685268136002
S315080223707B685B681B686FF38A237A685268136006
S3150802238020E000BF1E00022070A502087B685B6879
S315080223901B681A46134643F400427B685B681A6058
S315080223A07B685B681B681A46134643F480427B685F
S315080223B05B681A607B685B681B686FF38A237A68B6
S315080223C05268136000BF3B689B78012B0CBF012340
S315080223D00023DAB27B685B681B6802F00102D2B29C
S315080223E062F3CB237A68526813603B68DB78002B6A
S315080223F00CBF01230023DAB27B685B681B6802F014
S315080224000102D2B262F341037A68526813603B68EA
S315080224101B79012B0CBF01230023DAB27B685B68A8
S315080224201B6802F00102D2B262F300037A685268AC
S3150802243013603B685B79002B0CBF01230023DAB2D9
S315080224407B685B681B6802F00102D2B262F3492319
S315080224507A68526813603B689B791A463C4B9A5CC9
S315080224607B685B681B6802F00702D2B262F3C50397
S315080224707A68526813603B68DB79012B0CBF01232B
S315080224800023DAB27B685B681B6802F00102D2B2EB
S3150802249062F3C7137A68526813603B689A7A7B6854
S315080224A05B6804331B6802F00102D2B262F341038D
S315080224B07A685268043213603B689A7A7B685B686A
S315080224C004331B6802F00102D2B262F3C7137A68B8
S315080224D05268043213603B68DA7A7B685B680433B5
S315080224E01B6802F00102D2B262F300037A685268EC
S315080224F0043213603B68DA7A7B685B6804331B68CC
S3150802250002F00102D2B262F386137A685268043282
S3150802251013603B681A7B7B685B6804331B6802F0AE
S315080225200102D2B262F30C337A685268043213603B
S315080225307B685B6810331B683A68128962F30F037B
S315080225407A685268103213600837BD4680BD00BFEC
S31508022550C0A7020880B582B000AF78600B4B1B7823
S3150802256083F00103DBB2002B03D07D21084803F078
S31508022570B1FD7B685B681B681A46134643F0400246
S315080225807B685B681A600837BD4680BD1F0002205B
S3150802259070A5020880B582B000AF78600A4B1B7836
S315080225A083F00103DBB2002B03D08621074803F030
S315080225B091FD7B685B681B686FF386137A685268BD
S315080225C013600837BD4680BD2000022070A50208A8
S315080225D080B582B000AF78600A4B1B7883F001039E
S315080225E0DBB2002B03D08F21074803F073FD7B680B
S315080225F05B681B68C3F38013DBB200BF1846083753
S31508022600BD4680BD2100022070A5020880B582B0B1
S3150802261000AF78600B467B800C4B1B7883F0010376
S31508022620DBB2002B03D09821094803F053FD7B68DF
S315080226305B680C331B687A8862F30F037A68526800
S315080226400C3213600837BD4680BD00BF2200022047
S3150802265070A5020880B483B000AF78607B685B68B7
S315080226600C331B689BB200BF18460C37BD465DF893
S31508022670047B704780B584B000AF78600B46FB7068
S315080226800A4B1B7883F00103DBB2002B03D0AC2183
S31508022690074803F01FFD7B685B680C33FB60FB6829
S315080226A0FA781A701037BD4680BD00BF2300022093
S315080226B070A5020880B582B000AF78607868FFF727
S315080226C0C9FF0346FF2B03D9B921044803F0FAFCD4
S315080226D0DBB200BF18460837BD4680BD70A50208A2
S315080226E080B582B000AF7860786800F02DF80346AE
S315080226F0002B08D0786800F015F8034683F001032A
S31508022700DBB2002B05D1786800F036F80346002BB9
S3150802271001D0012300E0002300BF18460837BD4652
S3150802272080BD00BF80B483B000AF78607B685B6809
S3150802273008331B68C3F34003DBB200BF18460C37E5
S31508022740BD465DF8047B704780B483B000AF7860FD
S315080227507B685B6808331B68DBB203F00103DBB2F4
S31508022760002B0CBF01230023DBB200BF18460C372F
S31508022770BD465DF8047B704780B483B000AF7860CD
S315080227807B685B6808331B68C3F3C013DBB200BF00
S3150802279018460C37BD465DF8047B704780B582B093
S315080227A000AF7860184B1B7883F00103DBB2002B6D
S315080227B003D0E621154803F08DFC7B685B681B682D
S315080227C0DBB203F00403DBB2002B14BF01230023A0
S315080227D0DAB27B685B681B68C3F30723DBB203F0D4
S315080227E00103DBB2002B14BF01230023DBB2134023
S315080227F0DBB2002B01D0002300E0012300BF1846FC
S315080228000837BD4680BD00BF2600022070A5020813
S3150802281080B582B000AF78601A4B1B7883F001034B
S31508022820DBB2002B03D0F321174803F053FC7B6875
S315080228305B681B68C3F30723DBB25BB2002B0EDBB4
S315080228407B685B681B68C3F30723DBB203F00403E8
S31508022850DBB2002B01D100230FE001230DE07B68D8
S315080228605B681B68C3F30723DBB203F04003DBB2E2
S31508022870002B01D1022300E0032300BF18460837C4
S31508022880BD4680BD2700022070A5020880B483B029
S3150802289000AF78607B685B681B68C3F34033DBB2C2
S315080228A000BF18460C37BD465DF8047B704700BF6B
S315080228B080B483B000AF78607B685B6808331B68B6
S315080228C0C3F30013DBB200BF18460C37BD465DF8EA
S315080228D0047B704780B483B000AF78607B685B681E
S315080228E008331B68C3F34013DBB200BF18460C3724
S315080228F0BD465DF8047B704780B483B000AF78604C
S315080229007B685B6808331B68C3F38013DBB200BFBE
S3150802291018460C37BD465DF8047B704780B483B011
S3150802292000AF78607B685B6808331B68C3F30023D3
S31508022930DBB200BF18460C37BD465DF8047B70470C
S3150802294080B584B000AF78600E4B1B7883F0010324
S31508022950DBB2002B04D04FF49E710B4803F0BAFB8E
S3150802296007F10803184601F093FC7B685B680C3391
S315080229701B68FB817B685B6808331B68BB60103782
S31508022980BD4680BD2400022070A5020880B582B02B
S3150802299000AF7860104B1B7883F00103DBB2002B83
S315080229A004D04FF4A4710D4803F094FB7B685B686E
S315080229B01B686FF34D337A68526813607B685B68ED
S315080229C01B681A46134643F400527B685B681A6012
S315080229D00837BD4680BD00BF2500022070A5020843
S315080229E080B483B000AF78607B685B681B68C3F30A
S315080229F0C023DBB200BF18460C37BD465DF8047B20
S31508022A00704700BF80B582B000AF78600F4B1B7865
S31508022A1083F00103DBB2002B04D04FF4AD710C48EE
S31508022A2003F058FB7B685B681B68C3F30723DBB2BA
S31508022A3003F00803DBB2002B01D0012300E00023D8
S31508022A4000BF18460837BD4680BD00BF28000220D1
S31508022A5070A50208B0B586B000AFF860C7E90012E3
S31508022A60BB60354B1B7883F00103DBB2002B04D025
S31508022A704FF4B471314803F02DFBF868FFF7C2FF33
S31508022A800346002B05D02E4C2E4D2046294603F030
S31508022A90FDFFF868FFF7FAFE0346002B02D0F86836
S31508022AA0FFF774FFF868FFF7B3FE0346032B09D155
S31508022AB0FB685B681B681A46134643F48042FB6848
S31508022AC05B681A60F868FFF73BFFF868FFF780FD56
S31508022AD0034683F00103DBB2002B02D0F868FFF746
S31508022AE039FDD7E90012F86801F046F8F868FFF7E9
S31508022AF019FE0346002B01D100BFF7E7F868FFF776
S31508022B003BFE034683F00103DBB2002B01D100BF73
S31508022B10F4E7F868FFF77CFE0346012B01D0002B89
S31508022B2002D1F868FFF70CFF0023FB75FB7D00BF97
S31508022B3018461837BD46B0BD2900022070A50208FE
S31508022B4080A50208B4A50208B0B586B000AFF86041
S31508022B50C7E90012BB60364B1B7883F00103DBB270
S31508022B60002B04D040F29911324803F0B3FAF86800
S31508022B70FFF748FF0346012B05D02F4C2F4D204661
S31508022B80294603F083FFF868FFF780FE0346002B09
S31508022B9002D0F868FFF7FAFEF868FFF739FE03462F
S31508022BA0032B09D1FB685B681B681A46134643F474
S31508022BB08042FB685B681A60F868FFF7C1FEF8682E
S31508022BC0FFF706FD034683F00103DBB2002B02D0B2
S31508022BD0F868FFF7BFFCD7E90012F86800F0CAFEEA
S31508022BE0F868FFF79FFD0346002B01D100BFF7E700
S31508022BF0F868FFF7C1FD034683F00103DBB2002B39
S31508022C0001D100BFF4E7F868FFF702FE0346012B7D
S31508022C1001D0002B04D1F868FFF792FE0123FB7559
S31508022C200023FB75FB7D00BF18461837BD46B0BDAD
S31508022C302A00022070A50208BCA50208B4A502084B
S31508022C4080B584B000AF78600B46FB70364B1B78B4
S31508022C5083F00103DBB2002B04D04FF4E57133484D
S31508022C6003F038FA7B685B680C33FB607868FFF719
S31508022C700DFE0346002B02D07868FFF787FE7868B8
S31508022C80FFF7C6FD0346032B09D17B685B681B6801
S31508022C901A46134643F480427B685B681A60786872
S31508022CA0FFF796FC034683F00103DBB2002B02D042
S31508022CB07868FFF74FFC7B685B681B68C3F30723DA
S31508022CC0DBB223F07F03DBB2002B09D07B685B689B
S31508022CD01B681A46134643F480427B685B681A608F
S31508022CE0FB68FA781A707868FFF71CFD0346002B12
S31508022CF001D100BFF7E77868FFF73EFD034683F088
S31508022D000103DBB2002B01D100BFF4E77868FFF7B5
S31508022D107FFD0346012B01D0002B02D17868FFF70D
S31508022D200FFE1037BD4680BD2B00022070A5020893
S31508022D30B0B588B000AFF860C7E90012BB60544B63
S31508022D401B7883F00103DBB2002B04D04FF4FC712D
S31508022D50504803F0BFF9F868FFF754FE0346002B04
S31508022D6005D04D4C4D4D2046294603F08FFEFB6893
S31508022D705B680C33FB61F868FFF7E6FC0346002B39
S31508022D8004D1FB691B78DBB2FB76F4E7F868FFF738
S31508022D907DFD0346002B02D0F868FFF7F7FDF868B9
S31508022DA0FFF716FC034683F00103DBB2002B02D0C1
S31508022DB0F868FFF7CFFBFB685B681B68C3F307235A
S31508022DC0DBB223F07F03DBB2002B0DD0F868FFF7E6
S31508022DD0E1FBFB685B681B686FF38E33FA6852681F
S31508022DE01360F868FFF7B6FBD7E90012F86800F037
S31508022DF0F5FFFB685B681B68C3F30723DBB223F0A6
S31508022E007F03DBB2002B1ED0F868FFF7C3FBFB6813
S31508022E105B681B681A46134643F48042FB685B6884
S31508022E201A60F868FFF796FBFB685B680C337B61F0
S31508022E30F868FFF789FC0346002B04D17B691B78E7
S31508022E40DBB2FB74F4E7F868FFF796FC034683F0F7
S31508022E500103DBB2002B01D100BFF4E7F868FFF7E4
S31508022E6015FD03461C46F868FFF722FD0346234074
S31508022E70DBB2002B04D0F868FFF788FD0123BB7488
S31508022E800023BB74BB7C00BF18462037BD46B0BDC5
S31508022E902C00022070A50208F0A50208B4A50208B3
S31508022EA0B0B586B000AFF860C7E90012BB602B4B1D
S31508022EB01B7883F00103DBB2002B04D040F23E21DB
S31508022EC0274803F007F9F868FFF79CFD0346012B2C
S31508022ED005D0244C244D2046294603F0D7FDF86830
S31508022EE0FFF7D4FC0346002B02D0F868FFF74EFD25
S31508022EF0F868FFF76DFB034683F00103DBB2002B8C
S31508022F0002D0F868FFF726FBD7E90012F86800F046
S31508022F100BFFF868FFF730FC034683F00103DBB2C8
S31508022F20002B01D100BFF4E7F868FFF7AFFC0346B0
S31508022F301C46F868FFF7BCFC03462340DBB2002BAD
S31508022F4004D0F868FFF722FD0123FB750023FB7501
S31508022F50FB7D00BF18461837BD46B0BD2E000220BD
S31508022F6070A5020824A60208B4A5020890B585B081
S31508022F7000AF7860364B1B7883F00103DBB2002B77
S31508022F8004D040F25F21334803F0A4F87B685B68FB
S31508022F900C33FB607868FFF779FC0346002B02D0F6
S31508022FA07868FFF7F3FC7868FFF712FB034683F0AD
S31508022FB00103DBB2002B02D07868FFF7CBFAFB6875
S31508022FC000221A707868FFF7BFFB034683F00103F5
S31508022FD0DBB2002B01D100BFF4E7FB681B78DBB23A
S31508022FE07B727868FFF752FC0346002B0FD078688D
S31508022FF0FFF7AAFB034683F00103DBB2002B01D1DC
S3150802300000BFF4E77B685B680C331B687B817868D2
S31508023010FFF7B2FB034683F00103DBB2002B01D1B3
S3150802302000BFF4E77868FFF731FC03461C46786868
S31508023030FFF73EFC03462340DBB2002B02D078683A
S31508023040FFF7A4FC7B7A00BF18461437BD4690BD2D
S315080230502F00022070A5020882B090B58FB002AF89
S315080230607861C7E902127B643B4607F1440292E89B
S31508023070030083E80300FB681B68FA68526845493F
S31508023080097881F00101C9B2002904D040F28D21E4
S31508023090414803F01FF879680968F962796848684F
S315080230A079680968884203DB79684968B96203E086
S315080230B0796809680139B9627B629A4201DB3A6228
S315080230C001E0013B3B627869FFF7E0FB0346002B10
S315080230D002D07869FFF75AFC7869FFF779FA03464E
S315080230E083F00103DBB2002B02D07869FFF732FACC
S315080230F07869FFF775FC0346002B0AD0FB6C01932F
S315080231007B6800933B68D7E90212786900F0DAF81F
S3150802311009E0FB6C01937B6800933B68D7E90212CE
S31508023120786900F09BFA7869FFF7B0FB0346002B33
S315080231300FD07869FFF708FB034683F00103DBB279
S31508023140002B01D100BFF4E77B695B680C331B686F
S31508023150FB837869FFF710FB034683F00103DBB2B2
S31508023160002B01D100BFF4E77869FFF78FFB03460E
S315080231701C467869FFF79CFB03462340DBB2002B0B
S3150802318002D07869FFF702FC3437BD46BDE89040A5
S3150802319002B070473000022070A5020890B585B0CB
S315080231A000AF78600B46FB70444B1B7883F0010333
S315080231B0DBB2002B04D04FF42F71414802F08AFF8C
S315080231C07B685B680C33FB607868FFF75FFB034636
S315080231D0002B02D07868FFF7D9FB7868FFF7F8F971
S315080231E0034683F00103DBB2002B02D07868FFF7AF
S315080231F0B1F97868FFF7F4FB0346002B04D04FF4C5
S3150802320033712F4802F06CFFFB68FA781A707868F7
S31508023210FFF73CFB0346002B09D07B685B681B68FB
S315080232201A46134643F480527B685B681A607868CC
S31508023230FFF78AFA034683F00103DBB2002B01D1BA
S3150802324000BFF4E7FB681B78DBB27B727868FFF78E
S315080232501DFB0346002B0FD07868FFF775FA034665
S3150802326083F00103DBB2002B01D100BFF4E77B68D0
S315080232705B680C331B687B817868FFF77DFA034627
S3150802328083F00103DBB2002B01D100BFF4E77868B3
S31508023290FFF7FCFA03461C467868FFF709FB034664
S315080232A02340DBB2002B02D07868FFF76FFB7B7AEC
S315080232B000BF18461437BD4690BD00BF3100022034
S315080232C070A5020882B0F0B58FB000AF7861C7E981
S315080232D002127B653B4607F1540292E8030083E833
S315080232E00300FB681C68FB685D68A44B1B7883F0C7
S315080232F00103DBB2002B04D040F2F721A04802F00A
S31508023300E9FE7B681B68BB627B685A687B681B6838
S315080233109A4203DB7B685B687B6203E07B681B6817
S31508023320013B7B623C62A54201DBFD6102E023466A
S31508023330013BFB61FB6D3B63002C04DA40F2FE2184
S315080233408F4802F0BFFE7C637B681B68002B04DA99
S3150802335040F2FF218A4802F0B5FE7B681B68FB62D1
S315080233607869FFF71BFA0346012B0CBF01230023DA
S31508023370DBB2002B02D13B6B012B3CD17B6B9C420F
S3150802338002DC7B6B9D4204DA40F203317C4802F090
S3150802339081FEBA687B6B21465B1A1344002B04D163
S315080233A040F20331764802F065FEBA687B6B214625
S315080233B05B1A1A447B695B680C331B68128862F3D2
S315080233C00F037A6952680C3213607B6B6D4A93421B
S315080233D004DD4FF441716A4802F06CFE7B6B0233DE
S315080233E07B633B6B013B002B04DA40F205316448F0
S315080233F002F068FE3B633B6B002B43D17869FFF70B
S3150802340045FA0346002B09D07B695B681B681A4696
S31508023410134643F480527B695B681A607869FFF742
S3150802342093F9034683F00103DBB2002B01D100BFF7
S31508023430F4E77B681B68FA6A9A4204DB7B685B6876
S31508023440FA6A9A4204DD4FF445714D4802F022FEAB
S315080234503A68FB6A796809685B1A1344002B04D137
S315080234604FF44571464802F005FE7B695B680C33EA
S3150802347018683A68FB6A796809685B1A134482B263
S315080234801A80E0E03B6B002B40F3A4807869FFF7D3
S3150802349049F90346002B01D100BFF7E77B6B9C4233
S315080234A002DC7B6B9D4204DA40F22131344802F099
S315080234B0F1FDBA687B6B21465B1A1344002B04D1D3
S315080234C040F221312E4802F0D5FDBA687B6B2146BF
S315080234D05B1A1A447B695B680C331B68128862F3B1
S315080234E00F037A6952680C3213607B6B254A934242
S315080234F004DD40F22231224802F0DCFD7B6B023306
S315080235007B633B6B013B002B04DA40F223311C48F8
S3150802351002F0D8FD3B633B6B002B0CBF0123002353
S31508023520DEB27869FFF7B2F903463340DBB2002B05
S3150802353009D07B695B681B681A46134643F48052B6
S315080235407B695B681A607869FFF7FEF8034683F0C1
S315080235500103DBB2002B01D100BFF4E77B681B68CD
S31508023560FA6A9A4204DB7B685B68FA6A9A420BDD5E
S3150802357040F22F31024802F08DFD00BF32000220D0
S3150802358070A50208FDFFFF7F3A68FB6A7968096839
S315080235905B1A1344002B04D140F22F312D4802F056
S315080235A069FD7B695B680C3318683A68FB6A796857
S315080235B009685B1A134482B21A80FB6A264A934246
S315080235C004DD40F23131234802F074FDFB6A02330E
S315080235D0FB6257E77869FFF7E1F80346012B32D118
S315080235E07869FFF7B1F8034683F00103DBB2002BD3
S315080235F001D100BFF4E77B681B68FA6A9A4204DBCA
S315080236007B685B68FA6A9A4204DD40F23B311148EC
S3150802361002F040FD3A68FB6A796809685B1A134446
S31508023620002B04D140F23B310A4802F023FD7B69A4
S315080236305B680C3318683A68FB6A796809685B1A2A
S31508023640134482B21A803C37BD46BDE8F04002B048
S31508023650704700BF70A50208FDFFFF7F82B0F0B574
S315080236608FB000AF7861C7E902127B653B4607F166
S31508023670540292E8030083E80300FB681C68FB68AF
S315080236805D68A54B1B7883F00103DBB2002B04D0DF
S315080236904FF45171A14802F01DFD7B681B68BB629D
S315080236A07B685A687B681B689A4203DB7B685B689F
S315080236B07B6203E07B681B68013B7B623C62A54236
S315080236C001DBFD6102E02346013BFB61FB6D3B63C7
S315080236D0002C04DA40F24B31904802F0F3FC7C638A
S315080236E07B681B68002B04DA4FF453718B4802F08F
S315080236F0E9FC7B681B68FB627B695B680C33BB6110
S315080237007869FFF74BF80346012B0CBF0123002308
S31508023710DBB2002B02D13B6B012B28D17B6B9C427F
S3150802372002DC7B6B9D4204DA4FF454717B4802F04B
S31508023730B1FCBA68796B3B6ACB1AD25CBB691A7060
S315080237407B6B6FF00042934204D140F251317348C9
S3150802375002F0B0FC7B6B01337B633B6B013B002BB6
S3150802376004DA40F252316D4802F0ACFC3B633B6B23
S31508023770002B3AD17869FFF789F80346002B09D05E
S315080237807B695B681B681A46134643F480527B6959
S315080237905B681A607869FEF7D7FF034683F0010370
S315080237A0DBB2002B01D100BFF4E77B681B68FA6A1B
S315080237B09A4204DB7B685B68FA6A9A4204DD4FF434
S315080237C05871564802F066FCFB6A002B04DA4FF47D
S315080237D05871524802F066FC3A681846BB691B786B
S315080237E0D9B2BB6AC31AD154BBE03B6B002B40F378
S315080237F081807869FEF796FF0346002B01D100BF48
S31508023800F7E77B6B9C4202DC7B6B9D4204DA40F253
S315080238106A31424802F03EFCBA68796B3B6ACB1AB7
S31508023820D25CBB691A707B6B6FF00042934204D17B
S3150802383040F26B31394802F03DFC7B6B01337B6306
S315080238403B6B013B002B04DA4FF45B71334802F001
S3150802385039FC3B633B6B002B0CBF01230023DEB212
S315080238607869FFF713F803463340DBB2002B09D019
S315080238707B695B681B681A46134643F480527B6968
S315080238805B681A607869FEF75FFF034683F00103F7
S31508023890DBB2002B01D100BFF4E77B681B68FA6A2A
S315080238A09A4204DB7B685B68FA6A9A4204DD4FF443
S315080238B05E711A4802F0EEFBFB6A002B04DA4FF43B
S315080238C05E71164802F0EEFB3A681846BB691B7829
S315080238D0D9B2BB6AC31AD154FB6A6FF0004293424B
S315080238E004D140F279310D4802F0E4FBFB6A013358
S315080238F0FB627AE77869FEF751FF0346012B30D15E
S315080239007869FEF721FF034683F00103DBB2002B39
S3150802391006D100BFF4E700BF3300022070A50208F3
S315080239207B681B68FA6A9A4204DB7B685B68FA6AF8
S315080239309A4204DD40F282310D4802F0ABFBFB6A83
S31508023940002B04DA40F28231094802F0ABFB3C68EC
S315080239501D467869FEF7AEFE03461A46BB6AEB1A9F
S31508023960E2543C37BD46BDE8F04002B0704700BF9E
S3150802397070A502082DE9B04B87B000AFF860C7E919
S3150802398000127B681C687B685D68A54210DB2846C6
S315080239904FEAE071A0464FEAE87902460B46B2EBD7
S315080239A0080263EB090312F1010843F1000903E077
S315080239B04FF000084FF000096B4B1B7883F00103A8
S315080239C0DBB2002B04D040F28A31684802F082FB4F
S315080239D022464FEAE27366484FF0000110EB020BEB
S315080239E041EB030C2A464FEAE27393457CEB030349
S315080239F004DA40F28E315D4802F064FB43467B618D
S31508023A00002C04DA40F28F31584802F05BFB3C6125
S31508023A10F868FEF7C3FE0346012B0CBF01230023F9
S31508023A20DBB2002B02D17B69012B3ED13B699C425A
S31508023A3002DC3B699D4204DA40F293314B4802F0BC
S31508023A4029FB3A683B6921465B1A5B001344002B43
S31508023A5004D140F29331454802F00CFB3A683B69BF
S31508023A6021465B1A5B001A44FB685B680C331B68C9
S31508023A70128862F30F03FA6852680C3213603B69C4
S31508023A803C4A934204DD4FF46571384802F012FB52
S31508023A903B6902333B617B69013B002B04DA40F246
S31508023AA09531324802F00EFB7B617B69002B47DDBC
S31508023AB0F868FEF737FE0346002B01D100BFF7E789
S31508023AC03B699C4202DC3B699D4204DA40F29F3123
S31508023AD0264802F0DFFA3A683B6921465B1A5B0020
S31508023AE01344002B04D140F29F31204802F0C2FA57
S31508023AF03A683B6921465B1A5B001A44FB685B68B5
S31508023B000C331B68128862F30F03FA6852680C3288
S31508023B1013603B69174A934204DD4FF468711348F0
S31508023B2002F0C8FA3B6902333B617B69013B002B11
S31508023B3004DA40F2A1310D4802F0C4FA7B61B4E717
S31508023B40F868FEF7A3FE0346002B09D0FB685B68FC
S31508023B501B681A46134643F48052FB685B681A6070
S31508023B601C37BD46BDE8B08B3400022070A502089A
S31508023B70FEFFFF7FFDFFFF7F2DE9F04B88B000AF08
S31508023B80F860C7E900127B681C687B685D68A54215
S31508023B9010DB28464FEAE071A0464FEAE87902466A
S31508023BA00B46B2EB080263EB090312F1010843F173
S31508023BB0000903E04FF000084FF00009574B1B7845
S31508023BC083F00103DBB2002B04D040F2AD31544836
S31508023BD002F080FA264622464FEAE27351484FF02F
S31508023BE0000110EB020B41EB030C2A464FEAE27383
S31508023BF093457CEB030304DA40F2B131484802F0FC
S31508023C0061FA4346FB61002C04DA40F2B2314448B9
S31508023C1002F058FABC61FB685B680C337B61F86892
S31508023C20FEF7BCFD0346012B0CBF01230023DBB2C2
S31508023C30002B02D1FB69012B27D1BB699C4202DC0E
S31508023C40BB699D4204DA40F2B631354802F022FADF
S31508023C503A68BB699B1BD25C7B691A70BB696FF0B9
S31508023C600042934204D140F2B7312D4802F022FABB
S31508023C70BB690133BB61FB69013B002B04DA4FF4D4
S31508023C806E71274802F01EFAFB61FB69002B30DDD4
S31508023C90F868FEF747FD0346002B01D100BFF7E798
S31508023CA0BB699C4202DCBB699D4204DA40F2C1311F
S31508023CB01B4802F0EFF93A68BB699B1BD25C7B6929
S31508023CC01A70BB696FF00042934204D140F2C231C6
S31508023CD0134802F0EFF9BB690133BB61FB69013B8B
S31508023CE0002B04DA40F2C3310D4802F0EBF9FB610E
S31508023CF0CBE7F868FEF7CAFD0346002B09D0FB6836
S31508023D005B681B681A46134643F48052FB685B6875
S31508023D101A602037BD46BDE8F08B00BF3500022089
S31508023D2070A50208FEFFFF7F2DE9F04186B000AFBD
S31508023D30F860C7E90012274B1B7883F00103DBB250
S31508023D40002B04D040F2CF31234802F0C3F97B6836
S31508023D501B681E46F868FEF721FD0346002B0CBFBA
S31508023D6001230023FB757B681C687B685D68AC428F
S31508023D702CDC3A68A046A8EB06035B0013443B61B9
S31508023D80FB7D002B09D0FB685B680C331B686FF35D
S31508023D900F03FA6852680C321360F868FEF7D4FC0F
S31508023DA0034683F00103DBB2002B01D100BFF4E71F
S31508023DB0FB685B680C331A683B6891B2A8EB06028B
S31508023DC023F81210AC4201D00134D2E71837BD46A7
S31508023DD0BDE8F0813600022070A502082DE9F041FF
S31508023DE088B000AFF860C7E900122A4B1B7883F047
S31508023DF00103DBB2002B04D04FF47971264802F096
S31508023E0069F97B681B681E46F868FEF7C7FC034615
S31508023E10002B0CBF01230023DAB2FB685B681B6820
S31508023E20C3F30723DBB25BB2DB43DBB2DB09DBB2EC
S31508023E301340FB77FB685B680C33BB617B681C68C5
S31508023E407B685D68AC4221DC3A68A046A8EB0603AB
S31508023E5013447B61FB7F002B02D0BB6900221A70D8
S31508023E60F868FEF771FC034683F00103DBB2002B08
S31508023E7001D100BFF4E73A68BB691B78D9B2A8EB4F
S31508023E800603D154AC4201D00134DDE72037BD46E2
S31508023E90BDE8F0813700022070A5020882B02DE93C
S31508023EA0F04F97B002AF7863C7E90A12FB6707F1CA
S31508023EB0200307F17C0292E8030083E80300FB6A09
S31508023EC01B683B63FB6A5B687B60FB6A5A68FB6A32
S31508023ED01B689A4212DBFB6A5B6819464FEAE17273
S31508023EE0FB6A1B681D464FEAE5760B4614465B1BC2
S31508023EF064EB06045D1C44F1000603E04FF000057E
S31508023F004FF000066C4B1B7883F00103DBB2002BE3
S31508023F1004D040F2F731694802F0DCF8786BFEF714
S31508023F2071FD0346002B14BF01230023D8B27B6A16
S31508023F305A687B6A1B689A4218DB7B6A5B68194671
S31508023F404FEAE172C7E902127B6A1B6819464FEA11
S31508023F50E1720B461446D7E90212C91A62EB040249
S31508023F600B461446591C44F1000203E04FF00001C7
S31508023F704FF0000296420ABF8D4201230023DBB2AC
S31508023F800343DBB2002B07D04D4B3B614D4B7B61A4
S31508023F90D7E9040102F07AFD3B6B002B04DA4FF4F1
S31508023FA08061464802F08EF87B6A1B68002B04DAA9
S31508023FB04FF48061414802F085F87B6A5A687B6A49
S31508023FC01B689A422EDB7B6A5B6819464FEAE172E6
S31508023FD07B6A1B681D464FEAE5760B4614465B1B51
S31508023FE064EB0604002B74F100031BDB7B6A5A6838
S31508023FF07B6A1B689A421ADB7B6A5B6819464FEA38
S31508024000E1727B6A1B681D464FEAE5760B46144643
S315080240105B1B64EB06042C494FF00002994272EBD3
S31508024020040304DA4FF48061244802F04BF87B6AF1
S315080240301B68002B04DA4FF48061204802F042F82C
S31508024040BB6A9A463B6B3B647B687B6407F1400319
S315080240509B463B6A98467B6A1B68BB647B6A5B68BD
S31508024060FB6407F1480399467B6A5A687B6A1B68B0
S315080240709A4207DB7B6A5B681A467B6A1B68D31A15
S31508024080013300E000230193C7E90689FB6900931F
S31508024090434651465A46786BFFF7E0FA002387F8FB
S315080240A03F3097F83F3000BF18465437BD46BDE843
S315080240B0F04F02B0704700BF2D00022070A502081B
S315080240C058A60208B4A50208FEFFFF7F80B400AF17
S315080240D0284B01221A70284B01221A70274B0122FB
S315080240E01A70274B01221A70264B01221A70264B88
S315080240F001221A70254B01221A70254B01221A70C9
S31508024100244B01221A70244B01221A70234B0122D6
S315080241101A70234B01221A70224B01221A70224B63
S3150802412001221A70214B01221A70214B01221A70A0
S31508024130204B01221A70204B01221A701F4B0122B2
S315080241401A701F4B01221A701E4B01221A701E4B3F
S3150802415001221A701D4B01221A701D4B01221A7078
S315080241601C4B01221A701C4B01221A70BD465DF8BF
S31508024170047B70471E0002201F0002202000022036
S31508024180210002202200022023000220260002200B
S3150802419027000220240002202500022028000220EF
S315080241A0290002202A0002202B0002202C000220CD
S315080241B02E0002202F0002203000022031000220A9
S315080241C03200022033000220340002203500022089
S315080241D036000220370002202D00022080B500AFEB
S315080241E0034802F081F8034B184602F0C5F880BD71
S315080241F0B8A6020828A7020880B483B000AF786080
S315080242007B681B686FF300031A467B681A607B6833
S315080242101B686FF342031A467B681A607B681B6841
S315080242206FF3C4031A467B681A607B681B686FF3D0
S315080242305F131A467B681A600C37BD465DF8047B25
S31508024240704700BF80B483B000AF78607B681B6894
S315080242506FF300031A467B681A607B681B686FF364
S3150802426043031A467B681A607B681B686FF304135C
S315080242701A467B681A607B681B686FF35F131A46D7
S315080242807B681A600C37BD465DF8047B704700BF31
S3150802429080B483B000AF78607B681B686FF3000355
S315080242A01A467B681A607B681B6843F002031A4643
S315080242B07B681A607B681B686FF383031A467B6800
S315080242C01A607B681B686FF304131A467B681A60C8
S315080242D07B681B686FF345131A467B681A607B680E
S315080242E01B686FF386131A467B681A607B681B681D
S315080242F06FF3C7131A467B681A607B681B686FF3ED
S3150802430008231A467B681A607B681B686FF34A2380
S315080243101A467B681A607B681B686FF3CC231A46B9
S315080243207B681A607B681B686FF35F331A467B6883
S315080243301A600C37BD465DF8047B704780B586B0B7
S3150802434000AF78607B681B687B617B693B613A6971
S315080243500C23FB60FB68D31A1B681B6A7A68012167
S31508024360104698471837BD4680BD00BF80B500AFD6
S3150802437001210C4802F0D8FD0A4802F07DFC0A4BDE
S3150802438001221A600949074802F080FC08490548D3
S3150802439002F07EFC074801F0A7FF074B184601F01A
S315080243A0EBFF80BD84080220400002202C1B02205D
S315080243B03D430208DCA702080CA8020880B586B0AD
S315080243C000AF78607B681B687B617B693B613A69F1
S315080243D00C23FB60FB68D31A1B681B6A7A680121E7
S315080243E0104698471837BD4680BD00BF80B500AF56
S315080243F001210C4802F098FD0A4802F03DFC0A4BDE
S3150802440001221A600949074802F040FC0849054892
S3150802441002F03EFC074801F067FF074B184601F019
S31508024420ABFF80BDA00802204C0002202C1B0220F4
S31508024430BD43020824A8020854A80208002A8C468A
S3150802444073F100012DE93048834618DB6FEA0C0543
S31508024450C4439D4208BF94420BD2B3F1004F08BF32
S31508024460012A15D3544263EB4305AC4508BFA3455D
S315080244700ED31BEB02004CEB0301BDE83088B3F107
S31508024480004F08BF002AE8D100287CF1000303DBAD
S31508024490D421034801F0F6FD00304CF10041ECE767
S315080244A058A802082DE9F843154E002406F1040817
S315080244B03568D8F8007000F079F833689D42A5EBA4
S315080244C0090204F101040FD0012C0BD0012A03D8EA
S315080244D0032C01D00224EBE700262F463046394644
S315080244E0BDE8F883A946E3E70022874294BF2B4634
S315080244F06B1C161843F1000730463946BDE8F883A7
S315080245008C0002200F4B2DE9004880FB03BCBBF14F
S31508024510000F7CF100030ADB1BF5FA704CF100016F
S315080245204FF47A72002303F0F5FDBDE80088BBF567
S31508024530FA704CF1FF314FF47A72002303F0EAFD68
S31508024540BDE8008880778E0600F094BD094B10B549
S315080245501A68926A1269002A08DC1B689C6A072391
S31508024560237200F09BFC0123237210BD33210248FB
S3150802457001F0B6FD5C00022068A802084FF0FF3081
S3150802458000F07EB9EFF30580C0B2103800F078B9B2
S31508024590044B054A4FF000711960136843F0020391
S315080245A01360704704ED00E010E000E0EFF31082BC
S315080245B0012383F310880C4B99681B68DB0306D426
S315080245C00A4B1868401A82F3108800217047074977
S315080245D008680B6803F5D63303F5D8730B6082F3C4
S315080245E010880021704700BF10E000E0C0080220D2
S315080245F010B4EFF31081012383F31088114A9468EB
S315080246001268D30319D5104C2368226802F5D632EC
S3150802461002F5D872226081F310886FF000410B4AC6
S31508024620884294BF1B185B18136018B9084B4FF0E1
S3150802463080621A605DF8044B7047034B1B681B1BAC
S31508024640E9E700BF10E000E0C0080220BC0802202B
S3150802465004ED00E0014B1860FFF79ABF0C0902202F
S3150802466038B572B61D4A1E491E4D1F4B04201060EE
S31508024670002405205560946010600B60EFF31080EB
S31508024680012383F31088946812680B68D2031ED438
S315080246901B1B80F31088154A1549164803F1004377
S315080246A0013B4FF0007413600C6000220F2100F0EA
S315080246B0E1F800221021104800F0DCF8002383F309
S315080246C0118862B6BFF34F8FBFF36F8F38BD0A6882
S315080246D002F5D63202F5D8720A60DAE710E000E08F
S315080246E0C0080220AFAD0100B0AD0100BC0802202F
S315080246F004ED00E07D45020885450208013808B543
S3150802470005281DD8DFE800F0080D121C17030F490B
S315080247100F4A104801F070FC0F49104A104801F080
S315080247206BFC1049104A0E4801F066FC0F49104A04
S315080247300B4801F061FC0F490F4A094801F05CFC7D
S315080247400E490F4A064801F057FC00BF9CA9020809
S3150802475098A8020880010220A8A8020878A80208D8
S31508024760B0010220E8A8020880A802082CA90208BB
S3150802477088A8020864A9020890A80208D8A902080B
S31508024780A0A8020838B57346144D154A154C126C82
S31508024790C3F380132B7010209047134B19682268B5
S315080247A0914202D02A781B6892B123685B6BA3F107
S315080247B0F1020E2A9DBFC3EB03131B01DBB20023D2
S315080247C083F3118862B6BFF34F8FBFF36F8F38BD7D
S315080247D0002BEAD002F068F9E7E700BF560002208C
S315080247E0C40802205C0002206000022008B50B20E3
S315080247F0FFF784FF38B57346194CC3F38013237049
S31508024800FFF7D4FE174A13681B1A002B22DA00F1A7
S3150802481000400138144B1060DB6B144D0F2098478B
S31508024820134B19682A68914202D022781B6892B102
S315080248302B685B6BA3F1F1020E2A9DBFC3EB031330
S315080248401B01DBB2002383F3118862B6BFF34F8FD5
S31508024850BFF36F8F38BD002BEAD002F025F9E7E7E0
S3150802486056000220BC080220C40802205C0002206E
S3150802487060000220014B43F821007047C408022059
S315080248802DE9F84F364BDFF8E4901E68D9F8002078
S31508024890756BDFF8DC808346013006D0314B13F89E
S315080248A00B3003F0FF04002B43D1D8F800A096F88A
S315080248B05570FF24FFB2002A46D0904701232146AD
S315080248C0C8F800B0304686F8553000F05BF8B4F503
S315080248D0807F1DBFC4EB04142401E4B2002484F3D0
S315080248E0118862B6BFF34F8FBFF36F8F1E4B0BF162
S315080248F00102584653F82230984772B6D9F8003062
S3150802490003B198472946304600F03CF8A5F1F10371
S315080249100E2B9CBFC5EB05152D01C8F800A098BF44
S31508024920EDB286F8557088BF002585F31188BDE873
S31508024930F88FD8F800A096F855702409C4F5807443
S31508024940FFB2002AB9D1B9E70123C8F800B0FF219E
S3150802495086F85530304600F015F81024BFE700BF38
S315080249605C00022000E400E00C0902208800022014
S3150802497058000220014B024A1A60704708090220B1
S31508024980E0240220436B8B4219D070B4184E41635F
S315080249903468A0420CD04CB1236C984210D02BB18B
S315080249A01A6C82420DD01346002BF9D170BC70479F
S315080249B0046C002CFAD0636B8B4204DCF6E7704772
S315080249C02346026C1A64636B8B420BDD224603E0B4
S315080249D05D6B8D4203DD1A46136C002BF8D1036416
S315080249E0106401E004640446346070BC704700BF7A
S315080249F06000022092F92C30002B08BF012303F134
S31508024A008043F0B4013B104F57F82360C2E9120104
S31508024A102EB1D6E91245A94208BFA0420CD21665A4
S31508024A2047F823200120F0BC7047D3E912458D428E
S31508024A3008BF844203D21E46336D002BF5D1136597
S31508024A4000203265F0BC7047640002202DE9F04F61
S31508024A50394B3A4C1B68002283B006460F46154668
S31508024A604FF0FF384FF0FF396FF0404C002B39D02A
S31508024A70D3E912018F4208BF86423BD393F92C2011
S31508024A80D3F850A083F85450002A08BF012202EB3B
S31508024A900C01C3E9128954F821001D6598424FF0AA
S31508024AA0010231D054F8212042B3586B54F8212020
S31508024AB0526B904222DC54F82110CDE9006706E0D9
S31508024AC09A4223D0576B586B874203DB11460A6C0E
S31508024AD0002AF5D1DDE900671A640B645346012200
S31508024AE0002BC5D14FF0FF314FF0FF308F4208BF80
S31508024AF08642C3D2EAB903B0BDE8F08F54F8212042
S31508024B001A6444F82130E9E75346AFE7186C08649B
S31508024B10DDE9006796469B4640B1436BDEF83420D2
S31508024B20934203DB0146006C0028F6D15B46024637
S31508024B30D2E7014A1360DEE7640002206000022021
S31508024B4090F92C30026C416B002B08BF0123DAB1B5
S31508024B5010B4546B8C4202D05DF8044B704703F1D3
S31508024B608043013B094941F8232051F8232003E0F9
S31508024B70596B8C4203D11A46136C002BF8D1036485
S31508024B805DF8044B10647047704700BF600002204E
S31508024B904FF4807000217047704700BF036913B154
S31508024BA0D0E9020170470020002170472DE9F84339
S31508024BB01F4603691646089A002B3ED0234C4369C2
S31508024BC02168814236D081694B61436900250BB160
S31508024BD0816999610023C0E90423836132B321689C
S31508024BE00123C0E90267037700292CD0D1E9022301
S31508024BF09F4208BF964210D2416188612060012017
S31508024C0000F096F8BDE8F84300F0FCB8D3E902894B
S31508024C104F4508BF464503D319464B69002BF5D1C4
S31508024C2043614B69816103B198614861002DE6D100
S31508024C30BDE8F88323600125C9E70261002AF7D097
S31508024C40024C1D46CBE74161D8E700BF700002203F
S31508024C5008B5036993B1144A1368834210D0D0E9A0
S31508024C6005325361436933B100219A61C0E90511DE
S31508024C700161012008BD83610361FAE7184608BD90
S31508024C805969116061B19A698A610022C3E90522EC
S31508024C901A61012000F04CF800F0B4F8012008BDB2
S31508024CA099611961F5E700BF700002202DE9F04706
S31508024CB0DFF86CA0DAF8004074B3184BD3F800801A
S31508024CC006460F464046FF21D8F83490FFF75AFEAB
S31508024CD00025D4E902239F4208BF964216D3DAF882
S31508024CE00020D4E90413A24217BFA269CAF8003009
S31508024CF05361636920460BB1A2699A61C4E90555F5
S31508024D0025618847DAF80040002CE2D14946404638
S31508024D10BDE8F047FFF736BEBDE8F0875C00022023
S31508024D2070000220014801F027BB00BFA8AA0208AA
S31508024D3000F18043013B0C4A52F8232072B1D2E9B2
S31508024D4012010A4A52F823303BB1D3E902238B42B5
S31508024D5008BF82423CBF1046194670474FF0FF30E3
S31508024D604FF0FF31EDE700BF640002207000022019
S31508024D702DE9F8431E4A1F4F1F48204D0023C7E955
S31508024D800023FFF767FCFFF711FC002468602E6812
S31508024D90D5F80480FFF70AFC2B689E42A6EB0902A7
S31508024DA004F1010419D0012C15D0012A03D8032CC9
S31508024DB001D00224EBE74FF00008B146D7E900011B
S31508024DC00F4C18EB000249EB0103C4E90023BDE8C6
S31508024DD0F843FFF70DBCB146D9E70022804594BFD8
S31508024DE03346731C12EB000843F10009E6E700BFDD
S31508024DF0F9FFFFDF780002207D4F02088C000220AF
S31508024E00800002202DE9F047214E8046894600247B
S31508024E1035687768FFF7CAFB33689D42A5EB0A0235
S31508024E2004F101042BD0012C24D0012A03D8032C27
S31508024E3001D00224ECE700262F464F4508BF464517
S31508024E401AD2B8EB060269EB0703124CD4E9000141
S31508024E50894508BF80450BD20F49D1E900018B422B
S31508024E6008BF824238BF1046FFF7C2FBC4E9008971
S31508024E70BDE8F087AA46CBE701220023E5E7002230
S31508024E80874294BF2B466B1C161843F10007D4E7DA
S31508024E908C00022080000220780002202DE9F047CB
S31508024EA08046894672B6304E002435687768FFF721
S31508024EB07DFB33689D42A5EB0A0204F1010444D046
S31508024EC0012C39D0012A03D8032C01D00224ECE79D
S31508024ED000262F46254B4F4508BF46451A682DD250
S31508024EE092F92C30224C156C002B08BF012302269E
S31508024EF003F18043013B82F8546000264046494646
S31508024F00166444F82350FFF775FD88B1194B1B68E0
S31508024F1023B3D3E91201184B1B683BB1D3E9022329
S31508024F208B4208BF82423CBF10461946FFF76AFF0A
S31508024F30BDE8F04700F03AB9AA46B6E71046FFF7C9
S31508024F40FFFDBDE8F04700F031B90022874294BF61
S31508024F502B466B1C161843F10007BBE74FF0FF30D0
S31508024F604FF0FF31D7E700BF8C0002205C00022019
S31508024F706000022064000220700002202DE9F84336
S31508024F80264B4FF000721A6072B6254B254C4FF02D
S31508024F90FF304FF0FF31C3E9000126686568FFF765
S31508024FA005FB854233D860601F4B35460024D3E99A
S31508024FB0006714EB000845F10009404616EB0804A1
S31508024FC0494647EB0905FFF771FE40464946FFF792
S31508024FD03DFD164B1B683BB1D3E91223AB4208BF12
S31508024FE0A2423CBF14461D46114B1B683BB1D3E98E
S31508024FF00223AB4208BFA2423CBF14461D462046C6
S315080250002946FFF7FFFEBDE8F84300F0CFB80136A0
S315080250100023236060602660C6E700BF04ED00E057
S31508025020800002208C000220780002206400022000
S3150802503070000220024B1B689B6AD3F898007047DF
S315080250405C000220F8B5099C9DF81870079E002599
S315080250502572E26063722561C4E9221084F84872F7
S31508025060C4F89060089802F0C9F9C4F894000120BF
S31508025070F8BD00BF3D4B1A78002A6DD1F0B53C4AFF
S315080250803C4C116885B00120187001314FF00005BB
S315080250904FF0020318BF1268009308BF7822294608
S315080250A001230394CDE901552846FFF7CBFF04F106
S315080250B01803C4F88030E168D4F88000C4F8445272
S315080250C000F0A4F82C4BD4F880101A688C62C4F845
S315080250D08450002A41D0C2F844421C6072B6274B5B
S315080250E0E1681868264EFFF74DFC00F05FF825497F
S315080250F0254B264A1A60012035460C6000F0F8F95D
S31508025100A6F16803336055F880092149D5E92432A6
S315080251100127029201932A464FF0FF33009700F0C7
S315080251203FF9336800269D624FF0004127723046E8
S31508025130C4F85042C4F8986002F0DAF9154A164BD8
S315080251401168C4F898000131C3E9006602D01368F1
S31508025150BB4205D105B0F0BD7047104A1460BCE7E2
S315080251600F49104A104800F047FF00BFA40002206A
S3150802517098000220C00A0220B00002205C00022029
S31508025180B0150220A8000220280D022030150220A0
S31508025190DD540208940002209C000220AC00022082
S315080251A0BCAA0208B4AA0208EC01022038B5134DBB
S315080251B0134C2A6823689A4207D0124B1B6803B11C
S315080251C09847114B2A681B7893B123685B6BA3F146
S315080251D0F1020E2A9DBFC3EB03131B01DBB20023A8
S315080251E083F3118862B6BFF34F8FBFF36F8F38BD53
S315080251F0002AEAD001F058FCE7E700BF6000022067
S315080252005C0002208800022056000220F8B50446F7
S315080252100D46FFF7AFFBEFF3088080F30988EFF33B
S315080252201480022140EA010080F31488EFF3148007
S315080252303A4B1B6883F30888394B3A4A3A4919604C
S3150802524013683A493A483B4E43F4047343F0010360
S31508025250136000234FF47F020B6033600260364B03
S31508025260364A41F80C3C136843F4E023136001F014
S3150802527019FC61B6FFF7F4F9FFF77AFD72B6304BFF
S315080252806563304A1968106825638C424FF0010538
S3150802529084F82C50A06514602B4D2C4E14D01A6835
S315080252A06AB3616B1A68526B914228DC1A6806E087
S315080252B09C4228D0586B616B884203DB1A46136CF2
S315080252C0002BF5D12364146400232149214A84F86A
S315080252D05530C4E90E564FF0FF374FF0FF3684F8C3
S315080252E0543084F856302365C4E917330123C4E9D8
S315080252F012670C601370BDE8F840FFF757BF1A68CB
S3150802530022641C60E0E7236C1364002BDAD0586B26
S31508025310616B8842D6DB1A461B6CF6E7080902203F
S3150802532008ED00E014ED00E00064020818ED00E064
S3150802533020ED00E01CED00E00003FA0524ED00E094
S315080253406000022068000220E8A40220E824022065
S315080253505C000220A50002200F4B1A6872B692F86A
S315080253605610A1B992F92C300C48002B08BF01231C
S3150802537003F18043013B10B4146C1164012140F817
S31508025380234082F854105DF8044BFFF70FBF002341
S3150802539082F85630FFF70ABF5C000220600002203E
S315080253A02DE9F04188B0DDE90FC59DF9384072B69E
S315080253B0002C80F82C4008BF0124374F374E436330
S315080253C004F18044013C03633B68836556F8243044
S315080253D038606544984225F0070518D056F82430F7
S315080253E0002B47D0476B56F824305B6B9F4241DC53
S315080253F056F8244006E0984242D05F6B466BB742A5
S3150802540003DB1C46236C002BF5D1036420640024BD
S315080254104FF0FF364FF0FF37C0E90E5C80F8544074
S3150802542080F8554080F856400465C0E91744C0E93B
S315080254301267D1B14FF08073CDE90444CDE9061362
S31508025440CDE90024CDE902446F4680460FCF203DC0
S315080254502E460FC697E80F0086E80F002146282237
S31508025460404601F0C1FFC8F8205008B0BDE8F04137
S31508025470FFF79CBE56F82430036446F82400C6E7B4
S31508025480036C2364002BC0D05F6B466BB742BCDB50
S315080254901C461B6CF6E700BF68000220600002206B
S315080254A008B50B4B1A680021C0F8841062B1C2F81D
S315080254B04402186072B6074BC1681868FFF762FAA9
S315080254C0BDE80840FFF772BE034A1060F1E700BF65
S315080254D0B00002205C000220AC00022008B5034B93
S315080254E01B68986AFFF7DCFF30BFFDE75C00022005
S315080254F0F0B503464FF41A741349144D144A154865
