S01100007378313237365F6E732E7372656318
S3152002000050740320B1890220DE890220DE89022073
S31520020010DE890220B0B582B000AF7860C7F800C092
S3152002002004F0A8FE04460D46786804F0D3FE024684
S315200200300B462046294604F069FE03460C4618461E
S31520020040214604F0EBFE0837BD46B0BD80B5ADF5BE
S31520020050067D00AF07F508723B1D5A6001223B1D43
S315200200601A6007F10C03C7F810323B1D9C4600F0BC
S3152002007043F80AF07DF80123C7F81432D7F8143270
S31520020080052B21DCD7F81422D7F8143218490A4452
S3152002009012F8011C07F5887213440A4603F8012C4C
S315200200A0D7F81422D7F8143211490A4412F8011C3F
S315200200B007F1100213440A4603F8012CD7F814322A
S315200200C00133C7F81432D9E70A4802F0C5F83B1DB6
S315200200D09C464FF47A70FFF79DFF064802F0EAF835
S315200200E03B1D9C464FF47A70FFF794FFECE700BF66
S315200200F060B1022090D2022090B583B000AFC7F83B
S3152002010004C01E4B1B781946002002F079FC6FF3BF
S3152002011003046FF307142146012002F071FC184BE9
S315200201201B781946022002F06BFC0023154A4FF079
S315200201304051002002F01CFC0023124A4FF00051CD
S31520020140012002F015FC01236FF070424FF080412E
S31520020150032002F00DFC01236FF070424FF0604144
S31520020160042002F005FC0223064A0749052002F074
S31520020170FFFB02F089FC0C37BD4690BD58B1022028
S315200201805CB10220FFFF030000000208F0B583B035
S3152002019000AFC7E900017B681B681E467B681C68A6
S315200201A07B685D68AC4210DC396823469A1B13468D
S315200201B05B0113441B010B444FF40071184608F0EF
S315200201C065F8AC4201D00134EEE70C37BD46F0BDEE
S315200201D080B500AF084B1B7883F00103DBB2002BFE
S315200201E007D1054B00221A7007F0F0FE08F048F9F5
S315200201F000E000BF80BD00BFC0C7022080B500AFAF
S31520020200984B1B78002B40F02B81964B01221A70BB
S31520020210954B4FF0FF321A60944B00221A60944B92
S3152002022062221A70934B43221A70934B20221A7021
S31520020230924B46221A70924B53221A70914B924A33
S315200202401A60924B00221A60914B4FF0FF321A60CD
S31520020250904B914A1A60914B00221A60904B0022D1
S315200202601A60904B01221A608F4B4FF0FF321A60B0
S315200202708E4B00221A6000F06DF98D4B4FF40072FE
S315200202801A608C4B01221A608B4A8C4B1A60012011
S3152002029007F070FE05F0DCF9894B1B881BB201338F
S315200202A01AB2874B1A8008F0DFF806F021FF854B39
S315200202B01B881BB201331AB2824B1A8007F08CFBC1
S315200202C0814B1B881BB201331AB27F4B1A807F4B9C
S315200202D01B881BB201331AB27C4B1A8006F05EFED3
S315200202E07B4B1B881BB201331AB2794B1A8007F05B
S315200202F01DFE784B1B881BB201331AB2754B1A802E
S3152002030006F038FE744B1B881BB201331AB2724BAD
S315200203101A8008F0C9F8714B1B881BB201331AB236
S315200203206E4B1A8007F0D2FD07F0C4FD6C4B1B887A
S315200203301BB201331AB26A4B1A8004F06DFD694B67
S315200203401B881BB201331AB2664B1A8007F08CFF48
S31520020350654B1B881BB201331AB2634B1A8005F018
S31520020360EDFB624B1B881BB201331AB25F4B1A801C
S3152002037005F07CFD5E4B1B881BB201331AB25C4B27
S315200203801A8005F083FC5B4B1B881BB201331AB221
S31520020390584B1A8004F052FC574B1B881BB2013370
S315200203A01AB2554B1A8004F089FC544B1B881BB297
S315200203B001331AB2514B1A80514B1B881BB201339F
S315200203C01AB24F4B1A804F4B1B881BB201331AB2FB
S315200203D04C4B1A804C4B1B881BB201331AB24A4B28
S315200203E01A8004F063FB04F0D9FA484B1B881BB22F
S315200203F001331AB2454B1A8002F09CFA00F096F9A4
S3152002040000F06CF9424B1B881BB201331AB2404BE7
S315200204101A80404B1B881BB201331AB23D4B1A80FD
S3152002042002F054FA3C4B1B881BB201331AB23A4BE8
S315200204301A8000F011F9394B1B881BB201331AB20C
S31520020440364B1A8000F0FAF8354B1B881BB2013363
S315200204501AB2334B1A8005F0F1FA05F00DFC00E0D2
S3152002046000BF80BDC0C7022090CD022030CE022020
S3152002047038CE02201CCE02202CCE02202DCE0220E7
S315200204807ACD022028CE022080B1022024CE02205C
S315200204908CCD022014CE022084B1022020CE02204E
S315200204A034CE02200CCE022008CE022018CE022004
S315200204B0A0EA022098EA022028CF02209CEA022003
S315200204C034C80220C4CD0220F8CD022048CE022014
S315200204D0BCCD022000CE0220B2CD0220FCCE0220CC
S315200204E0FACD02201CC802203ACE022078CD022064
S315200204F09ECD02207CCD022006C8022010C80220F2
S31520020500CCC70220E0C70220E2C70220E4C70220AD
S31520020510CAC7022004C80220CEC70220C8C70220AA
S31520020520C2C7022080B584B000AF094B7B6007F1B9
S315200205300803184607F01CFDFFF760FEFFF786FD4D
S31520020540FFF746FE07F012FD1037BD4680BD00BFFD
S3152002055070B1022098B500AF034B044C18462146D1
S31520020560FFF714FE98BD00BF28CF022068B10220F3
S31520020570B0B586B000AF78607B68FF21184605F0DB
S3152002058095FA1823FB607B683B61074B7B6107F179
S315200205900C031C46054D21462A46FF2005F00EFA7D
S315200205A01837BD46B0BD00BFF105022088B1022032
S315200205B080B584B000AF78607B68FB600D2001F0C7
S315200205C069FA0346002B02D00D2001F0A1FA10375A
S315200205D0BD4680BD80B582B000AF6346C7F804C071
S315200205E01B68184605F094FA0837BD4680BD00BF41
S315200205F0B0B584B000AF786007F12003FB607B685A
S31520020600BB60BB68184605F05BFABB681846FFF765
S31520020610CFFF012407F108039C46FFF7DBFF012CDD
S3152002062007D002E005460024F4E72B46184609F0D7
S3152002063099FB00BF1037BD46B0BD00BF80B500AFE5
S315200206400348FFF795FF034B01221A6080BD00BFC6
S3152002065038D10220C4C7022098B500AF094B0A4CF4
S315200206601846214601F0F6FB0849064801F0BAFB76
S315200206700749084801F0B6FB0749084801F0B2FBD2
S3152002068098BD00BF48D1022090B10220E0D10220BD
S3152002069090D2022054D1022058D3022060D10220C7
S315200206A080B485B000AF786007F10803FB607B68F1
S315200206B0BB60094B1B68002B05D0FB681B6803F146
S315200206C08052FB681A60BB6800BF18461437BD46C5
S315200206D05DF8047B704700BFA689022080B582B0F0
S315200206E000AF0E48FFF7DCFF03467B600C4A3B1D3A
S315200206F013600B4B1B681B681A460A4B1A60084B81
S315200207001B681B6803F00303002B03D03121064824
S3152002071006F0A6FB0837BD4680BD00BF001002408A
S31520020720DCD70220E0D70220C8B1022080B58CB0E7
S3152002073000AF6D48FFF7B4FF03467B606B4A3B1D53
S3152002074013606A4B1B681B681A46694B1A60674B13
S315200207501B681B6803F00303002B03D04F21654857
S3152002076006F07EFB624B1B68634A5360624B012292
S315200207701A81624A604B1A605D4B1B68604A53605D
S315200207805F4B02221A815D4A5D4B1A60584B1B68E9
S315200207905C4A53605B4B04221A81584A594B1A60B1
S315200207A0534B1B68584A5360574B08221A81534AA7
S315200207B0554B1A604E4B1B68544A5360534B1022BA
S315200207C01A814E4A514B1A60494B1B68504A536054
S315200207D04F4B20221A81494A4D4B1A60444B1B68C3
S315200207E04C4A53604B4B40221A81444A494B1A6069
S315200207F03F4B1B68484A5360474B80221A813F4A27
S31520020800454B1A603A4B1B68444A5360434B4FF49C
S3152002081080721A81394A414B1A60354B1B68404A0D
S3152002082053603F4B4FF400721A81344A3C4B1A6094
S315200208302F4B1B683B4A53603A4B4FF480621A8116
S315200208402E4A384B1A602A4B1B68374A5360364B5E
S315200208504FF400621A81294A334B1A60244B1B68D3
S31520020860324A5360314B4FF480521A81234A2F4B1E
S315200208701A601F4B1B682E4A53602D4B4FF40052B1
S315200208801A811E4A2A4B1A60194B1B68294A536041
S31520020890284B4FF480421A81184A264B1A60144B71
S315200208A01B68254A5360244B4FF400421A81134A8F
S315200208B0214B1A602148FFF7F3FE0346BB60204A0C
S315200208C007F1080313601E4B1B681B681A461D4B53
S315200208D01A601B4B1B681B6803F00303002B33D0E3
S315200208E05021044806F0BCFA000002426CD10220D4
S315200208F070D102202CB2022074D1022020B4022010
S3152002090080D102208CD1022098D10220A4D10220AB
S31520020910B0D10220BCD10220C8D10220D4D10220DB
S31520020920E0D10220ECD10220F8D1022004D202200A
S3152002093010D202201CD2022028D202200004024217
S3152002094034D2022038D20220604B1B68604A5360A0
S315200209505F4B01221A815F4A5D4B1A605B4B1B6813
S315200209605D4A53605C4B02221A815A4A5A4B1A60DC
S31520020970564B1B68594A5360584B04221A81554AD2
S31520020980564B1A60514B1B68554A5360544B0822EA
S315200209901A81504A524B1A604C4B1B68514A53607B
S315200209A0504B10221A814B4A4E4B1A60474B1B68FA
S315200209B04D4A53604C4B20221A81464A4A4B1A60B2
S315200209C0424B1B68494A5360484B40221A81414A8E
S315200209D0464B1A603D4B1B68454A5360444B802266
S315200209E01A813C4A424B1A60384B1B68414A536073
S315200209F0404B4FF480721A81364A3E4B1A60334B73
S31520020A001B683D4A53603C4B4FF400721A81314AAF
S31520020A10394B1A602D4B1B68384A5360374B4FF4BB
S31520020A2080621A812B4A354B1A60284B1B68344A3E
S31520020A305360334B4FF400621A81264A304B1A60B8
S31520020A40224B1B682F4A53602E4B4FF480521A8139
S31520020A50204A2C4B1A601D4B1B682B4A53602A4B8B
S31520020A604FF400521A811B4A274B1A60174B1B68F8
S31520020A70264A5360254B4FF480421A81154A234B4E
S31520020A801A60124B1B68224A5360214B4FF40042D4
S31520020A901A81104A1E4B1A601E48FFF701FE0346B2
S31520020AA0FB601D4A07F10C0313601B4B1B681B6876
S31520020AB01A461A4B1A60184B1B681B6803F003036D
S31520020AC0002B2FD05121164806F0CAF938D202201F
S31520020AD03CD2022020B4022048D2022054D2022044
S31520020AE060D202206CD2022078D2022084D2022046
S31520020AF090D202209CD20220A8D20220B4D2022076
S31520020B00C0D20220CCD20220D8D20220E4D20220A5
S31520020B10F0D2022000080242FCD2022000D3022098
S31520020B202CB20220604B1B68604A53605F4B012245
S31520020B301A815F4A5D4B1A605B4B1B685D4A5360A4
S31520020B405C4B02221A815A4A5A4B1A60564B1B6830
S31520020B50594A5360584B04221A81554A564B1A60F9
S31520020B60514B1B68554A5360544B08221A81504AEE
S31520020B70524B1A604C4B1B68514A5360504B102201
S31520020B801A814B4A4E4B1A60474B1B684D4A53609B
S31520020B904C4B20221A81464A4A4B1A60424B1B680A
S31520020BA0494A5360484B40221A81414A464B1A60B1
S31520020BB03D4B1B68454A5360444B80221A813C4A6E
S31520020BC0424B1A60384B1B68414A5360404B4FF4E4
S31520020BD080721A81364A3E4B1A60334B1B683D4A55
S31520020BE053603C4B4FF400721A81314A394B1A60DA
S31520020BF02D4B1B68384A5360374B4FF480621A815B
S31520020C002B4A354B1A60284B1B68344A5360334BA8
S31520020C104FF400621A81264A304B1A60224B1B6817
S31520020C202F4A53602E4B4FF480521A81204A2C4B66
S31520020C301A601D4B1B682B4A53602A4B4FF40052F5
S31520020C401A811B4A274B1A60174B1B68264A536088
S31520020C50254B4FF480421A81154A234B1A60124BB8
S31520020C601B68224A5360214B4FF400421A81104AD4
S31520020C701E4B1A601E48FFF713FD03463B611D4AB1
S31520020C8007F1100313601B4B1B681B681A461A4B8D
S31520020C901A60184B1B681B6803F00303002B2FD026
S31520020CA05221164806F0DCF800D3022004D3022093
S31520020CB020B4022010D302201CD3022028D30220E3
S31520020CC034D3022040D302204CD3022058D3022010
S31520020CD064D3022070D302207CD3022088D3022040
S31520020CE094D30220A0D30220ACD30220B8D3022070
S31520020CF0000C0242C4D30220C8D302202CB2022006
S31520020D00604B1B68604A53605F4B01221A815F4A1F
S31520020D105D4B1A605B4B1B685D4A53605C4B02223B
S31520020D201A815A4A5A4B1A60564B1B68594A5360C3
S31520020D30584B04221A81554A564B1A60514B1B684E
S31520020D40554A5360544B08221A81504A524B1A6014
S31520020D504C4B1B68514A5360504B10221A814B4A06
S31520020D604E4B1A60474B1B684D4A53604C4B202210
S31520020D701A81464A4A4B1A60424B1B68494A5360BB
S31520020D80484B40221A81414A464B1A603D4B1B680A
S31520020D90454A5360444B80221A813C4A424B1A6090
S31520020DA0384B1B68414A5360404B4FF480721A817C
S31520020DB0364A3E4B1A60334B1B683D4A53603C4BC6
S31520020DC04FF400721A81314A394B1A602D4B1B6837
S31520020DD0384A5360374B4FF480621A812B4A354B7F
S31520020DE01A60284B1B68344A5360334B4FF4006217
S31520020DF01A81264A304B1A60224B1B682F4A5360AF
S31520020E002E4B4FF480521A81204A2C4B1A601D4BCE
S31520020E101B682B4A53602A4B4FF400521A811B4AF5
S31520020E20274B1A60174B1B68264A5360254B4FF4F3
S31520020E3080421A81154A234B1A60124B1B68224A9A
S31520020E405360214B4FF400421A81104A1E4B1A60FE
S31520020E501E48FFF725FC03467B611D4A07F1140352
S31520020E6013601B4B1B681B681A461A4B1A60184BD9
S31520020E701B681B6803F00303002B2FD0532116484F
S31520020E8005F0EEFFC8D30220CCD3022020B40220E4
S31520020E90D8D30220E4D30220F0D30220FCD30220AE
S31520020EA008D4022014D4022020D402202CD40220DA
S31520020EB038D4022044D4022050D402205CD402200A
S31520020EC068D4022074D4022080D402200010024268
S31520020ED08CD4022090D402202CB20220604B1B68B4
S31520020EE0604A53605F4B01221A815F4A5D4B1A604A
S31520020EF05B4B1B685D4A53605C4B02221A815A4A3D
S31520020F005A4B1A60564B1B68594A5360584B042257
S31520020F101A81554A564B1A60514B1B68554A5360E3
S31520020F20544B08221A81504A524B1A604C4B1B686A
S31520020F30514A5360504B10221A814B4A4E4B1A602B
S31520020F40474B1B684D4A53604C4B20221A81464A16
S31520020F504A4B1A60424B1B68494A5360484B40220F
S31520020F601A81414A464B1A603D4B1B68454A5360DB
S31520020F70444B80221A813C4A424B1A60384B1B68EA
S31520020F80414A5360404B4FF480721A81364A3E4B97
S31520020F901A60334B1B683D4A53603C4B4FF4007238
S31520020FA01A81314A394B1A602D4B1B68384A5360D5
S31520020FB0374B4FF480621A812B4A354B1A60284BE5
S31520020FC01B68344A5360334B4FF400621A81264A17
S31520020FD0304B1A60224B1B682F4A53602E4B4FF41C
S31520020FE080521A81204A2C4B1A601D4B1B682B4AB1
S31520020FF053602A4B4FF400521A811B4A274B1A6020
S31520021000174B1B68264A5360254B4FF480421A81A0
S31520021010154A234B1A60124B1B68224A5360214BF6
S315200210204FF400421A81104A1E4B1A601E48FFF7DF
S3152002103037FB0346BB611D4A07F1180313601B4B9E
S315200210401B681B681A461A4B1A60184B1B681B68CA
S3152002105003F00303002B2FD05421164805F000FF7E
S3152002106090D4022094D4022020B40220A0D40220BC
S31520021070ACD40220B8D40220C4D40220D0D4022078
S31520021080DCD40220E8D40220F4D4022000D50220A7
S315200210900CD5022018D5022024D5022030D50220D4
S315200210A03CD5022048D502200014024254D5022003
S315200210B058D502202CB20220604B1B68604A53602E
S315200210C05F4B01221A815F4A5D4B1A605B4B1B689C
S315200210D05D4A53605C4B02221A815A4A5A4B1A6065
S315200210E0564B1B68594A5360584B04221A81554A5B
S315200210F0564B1A60514B1B68554A5360544B082273
S315200211001A81504A524B1A604C4B1B68514A536003
S31520021110504B10221A814B4A4E4B1A60474B1B6882
S315200211204D4A53604C4B20221A81464A4A4B1A603A
S31520021130424B1B68494A5360484B40221A81414A16
S31520021140464B1A603D4B1B68454A5360444B8022EE
S315200211501A813C4A424B1A60384B1B68414A5360FB
S31520021160404B4FF480721A81364A3E4B1A60334BFB
S315200211701B683D4A53603C4B4FF400721A81314A38
S31520021180394B1A602D4B1B68384A5360374B4FF444
S3152002119080621A812B4A354B1A60284B1B68344AC7
S315200211A05360334B4FF400621A81264A304B1A6041
S315200211B0224B1B682F4A53602E4B4FF480521A81C2
S315200211C0204A2C4B1A601D4B1B682B4A53602A4B14
S315200211D04FF400521A811B4A274B1A60174B1B6881
S315200211E0264A5360254B4FF480421A81154A234BD7
S315200211F01A60124B1B68224A5360214B4FF400425D
S315200212001A81104A1E4B1A601E48FFF749FA0346F6
S31520021210FB611D4A07F11C0313601B4B1B681B68ED
S315200212201A461A4B1A60184B1B681B6803F00303F5
S31520021230002B2FD05521164805F012FE58D5022034
S315200212405CD5022020B4022068D5022074D5022063
S3152002125080D502208CD5022098D50220A4D5022042
S31520021260B0D50220BCD50220C8D50220D4D5022072
S31520021270E0D50220ECD50220F8D5022004D60220A1
S3152002128010D60220001802421CD6022020D60220A6
S315200212902CB20220604B1B68604A53605F4B0122CE
S315200212A01A815F4A5D4B1A605B4B1B685D4A53602D
S315200212B05C4B02221A815A4A5A4B1A60564B1B68B9
S315200212C0594A5360584B04221A81554A564B1A6082
S315200212D0514B1B68554A5360544B08221A81504A77
S315200212E0524B1A604C4B1B68514A5360504B10228A
S315200212F01A814B4A4E4B1A60474B1B684D4A536024
S315200213004C4B20221A81464A4A4B1A60424B1B6892
S31520021310494A5360484B40221A81414A464B1A6039
S315200213203D4B1B68454A5360444B80221A813C4AF6
S31520021330424B1A60384B1B68414A5360404B4FF46C
S3152002134080721A81364A3E4B1A60334B1B683D4ADD
S3152002135053603C4B4FF400721A81314A394B1A6062
S315200213602D4B1B68384A5360374B4FF480621A81E3
S315200213702B4A354B1A60284B1B68344A5360334B31
S315200213804FF400621A81264A304B1A60224B1B68A0
S315200213902F4A53602E4B4FF480521A81204A2C4BEF
S315200213A01A601D4B1B682B4A53602A4B4FF400527E
S315200213B01A811B4A274B1A60174B1B68264A536011
S315200213C0254B4FF480421A81154A234B1A60124B41
S315200213D01B68224A5360214B4FF400421A81104A5D
S315200213E01E4B1A601E48FFF75BF903463B621D4AF5
S315200213F007F1200313601B4B1B681B681A461A4B06
S315200214001A60184B1B681B6803F00303002B2FD0AE
S315200214105621164805F024FD20D6022024D6022085
S3152002142020B4022030D602203CD6022048D6022002
S3152002143054D6022060D602206CD6022078D602200C
S3152002144084D6022090D602209CD60220A8D602203C
S31520021450B4D60220C0D60220CCD60220D8D602206C
S31520021460001C0242E4D60220E8D602202CB2022038
S31520021470884B1B68884A5360874B01221A81874A08
S31520021480854B1A60834B1B68854A5360844B022224
S315200214901A81824A824B1A607E4B1B68814A5360AC
S315200214A0804B04221A817D4A7E4B1A60794B1B6837
S315200214B07D4A53607C4B08221A81784A7A4B1A60FD
S315200214C0744B1B68794A5360784B10221A81734AEF
S315200214D0764B1A606F4B1B68754A5360744B2022F9
S315200214E01A816E4A724B1A606A4B1B68714A5360A4
S315200214F0704B40221A81694A6E4B1A60654B1B68F3
S315200215006D4A53606C4B80221A81644A6A4B1A6078
S31520021510604B1B68694A5360684B4FF480721A818C
S315200215205E4A664B1A605B4B1B68654A5360644B86
S315200215304FF400721A81594A614B1A60554B1B6847
S31520021540604A53605F4B4FF480621A81534A5D4B67
S315200215501A60504B1B685C4A53605B4B4FF4006227
S315200215601A814E4A584B1A604A4B1B68574A536097
S31520021570564B4FF480521A81484A544B1A60454BB7
S315200215801B68534A5360524B4FF400521A81434A06
S315200215904F4B1A603F4B1B684E4A53604D4B4FF4DC
S315200215A080421A813D4A4B4B1A603A4B1B684A4A83
S315200215B05360494B4FF400421A81384A464B1A600F
S315200215C04648FFF76DF803467B62454A07F1240336
S315200215D01360434B1B681B681A46424B1A60404BEA
S315200215E01B681B6803F00303002B04D04FF483719E
S315200215F03D4805F035FC3B4B1B68012219463B480A
S3152002160001F054FA3A48FFF74BF80346BB62394ACF
S3152002161007F128031360374B1B681B681A46364BA3
S315200216201A60344B1B681B6803F00303002B04D09B
S315200216304FF484712C4805F013FC2F4B1B680122B2
S3152002164019462E4801F032FA2D48FFF729F80346AB
S31520021650FB622C4A07F12C0313602A4B1B681B687A
S315200216601A46294B1A60274B1B681B6803F0030393
S31520021670002B04D04FF485711B4805F0F1FB224B59
S315200216801B6801221946214801F010FA3037BD465F
S3152002169080BD00BFE8D60220ECD6022020B402206C
S315200216A0F8D6022004D7022010D702201CD7022007
S315200216B028D7022034D7022040D702204CD7022036
S315200216C058D7022064D7022070D702207CD7022066
S315200216D088D7022094D70220A0D7022000300140CA
S315200216E0ACD70220B0D702202CB20220B4D70220D7
S315200216F000380040BCD70220C0D70220C4D702201F
S31520021700003C0040CCD70220D0D70220D4D70220DA
S3152002171080B58AB000AF0346FB710B46BB711346F8
S315200217207B71FB797B627B6A1F2B03DD3C21904810
S3152002173005F06AFB8F4B80331B683B623A6A7B6AF1
S31520021740012101FA03F38B498031096813431946B3
S31520021750884B80330A461A607B6A1F2B03DD3D21A4
S31520021760834805F051FB834B14331B68FB61FA69EE
S315200217707B6A012101FA03F3DB431A4079797B6AFA
S3152002178001FA03F37B491431096813431946794B4D
S3152002179014330A461A607B6A112B40F382807B6AD5
S315200217A0142B02DD7B6A162B03DD3F21704805F0E0
S315200217B02BFB704B1B68C3F34153DAB23B7E62F3B9
S315200217C001033B763B7EC3F30103DBB21A467B6AF7
S315200217D0153B194601238B40DBB2DB43DBB21340B8
S315200217E0DAB2BB79002B02D0BB79022B01D10123BD
S315200217F000E0002303F00303DBB219467B6A153BA4
S3152002180001FA03F3DBB21343DAB25A4B1B6802F036
S315200218100302D2B262F35653564A13607B6A142BE2
S3152002182002DD7B6A162B03DD4121514805F0ECFAD5
S31520021830504B04331B68C3F34153DAB23B7D62F348
S3152002184001033B753B7DC3F30103DBB21A467B6A78
S31520021850153B194601238B40DBB2DB43DBB2134037
S31520021860DAB2BB79012B02D0BB79022B01D101233B
S3152002187000E0002303F00303DBB219467B6A153B23
S3152002188001FA03F3DBB21343DAB23A4B04331B6891
S3152002189002F00302D2B262F35653364A043213607E
S315200218A062E07B6A102B03DD4421314805F0ACFA55
S315200218B0304B1B68C3F310023B6962F310033B6192
S315200218C03B69C3F3100319467B6A012202FA03F32A
S315200218D0DB4301EA0302BB79002B02D0BB79022B40
S315200218E001D1012300E0002319467B6A01FA03F3A2
S315200218F01A43204B1B68C2F3100262F310031D4ADF
S3152002190013607B6A102B03DD4621194805F07CFA09
S31520021910184B04331B68C3F31002FB6862F31003EF
S31520021920FB60FB68C3F3100319467B6A012202FAA5
S3152002193003F3DB4301EA0302BB79012B02D0BB7915
S31520021940022B01D1012300E0002319467B6A01FA0A
S3152002195003F31A43074B04331B68C2F3100262F3E4
S315200219601003044A043213602837BD4680BD00BFE7
S3152002197040B2022000F4024080B586B000AF034692
S315200219800A46FB711346BB71FB797B617B691F2B70
S3152002199003DD66213D4805F037FA3D4B84331B684B
S315200219A03B613A697B69012101FA03F338498431A3
S315200219B0096813431946364B84330A461A607B69F3
S315200219C0102B03DD6721314805F01EFA304B1B68C8
S315200219D0C3F31002FB6862F31003FB60FB68C3F3D8
S315200219E0100319467B69012202FA03F3DB4301EA5B
S315200219F00302BB79002B02D0BB79022B01D1012332
S31520021A0000E0002319467B6901FA03F31A43204BAF
S31520021A101B68C2F3100262F310031D4A13607B692E
S31520021A20102B03DD6921194805F0EEF9184B043312
S31520021A301B68C3F31002BB6862F31003BB60BB686A
S31520021A40C3F3100319467B69012202FA03F3DB432F
S31520021A5001EA0302BB79012B02D0BB79022B01D109
S31520021A60012300E0002319467B6901FA03F31A4396
S31520021A70074B04331B68C2F3100262F31003044AB5
S31520021A80043213601837BD4680BD00BF40B2022023
S31520021A9000F4024080B582B000AF0346FB71FB79A9
S31520021AA0112B14D8FB79102B03D98921164805F05E
S31520021AB0C3F9164B0C331B68C3F310031A46FB7982
S31520021AC022FA03F3DBB203F00103DBB216E0FB7961
S31520021AD0142B03D88B210C4805F0AEF90B4B0C3393
S31520021AE01B68C3F34153DBB21A46FB79153B22FA34
S31520021AF003F3DBB203F00103DBB200BF00BF1846DB
S31520021B000837BD4680BD00BF40B2022000F4024025
S31520021B1080B584B000AF0346FB71FB79112B24D824
S31520021B20FB79102B03D99721264805F085F9264BF8
S31520021B300C331B68C3F31002FB6862F31003FB60CD
S31520021B40FB68C3F310031946FB79012202FA03F359
S31520021B5041EA03021C4B0C331B68C2F3100262F3E8
S31520021B601003194A0C32136028E0FB79142B03D890
S31520021B709921144805F060F9134B0C331B68C3F303
S31520021B804153DAB23B7A62F301033B723B7AC3F3E7
S31520021B900103DBB21A46FB79153B194601238B401A
S31520021BA0DBB21343DAB2084B0C331B6802F0030292
S31520021BB0D2B262F35653044A0C3213601037BD4632
S31520021BC080BD00BF40B2022000F4024080B582B040
S31520021BD000AF03460A46FB8013467B71FB88802BA7
S31520021BE042D0802B11D8082B36D0082B06D8022BB0
S31520021BF02ED0042B2ED0012B28D047E0202B2FD0FD
S31520021C00402B2FD0102B29D040E0B3F5006F33D0D4
S31520021C10B3F5006F09D8B3F5007F29D0B3F5806FED
S31520021C2028D0B3F5807F21D030E0B3F5005F27D0EE
S31520021C30B3F5005F03D8B3F5805F1FD026E0B3F576
S31520021C40804F1FD0B3F5004F1ED01FE0002326E0A1
S31520021C50012324E0022322E0032320E004231EE0C2
S31520021C6005231CE006231AE0072318E0082316E0C2
S31520021C70092314E00A2312E00B2310E00C230EE0C2
S31520021C800D230CE00E230AE00F2308E07B79002BBC
S31520021C9003D03521044805F0BFF84FF0FF3318462C
S31520021CA00837BD4680BD00BF50B2022080B483B043
S31520021CB000AF78600B46FB70FB78002B02D0054AFA
S31520021CC07B681A607B6800225A600C37BD465DF835
S31520021CD0047B704720B4022090B482B000AF7860B3
S31520021CE04FF060034FF00004184621460837BD46E0
S31520021CF090BC704780B584B000AFF860B9607A6056
S31520021D00F86806F0D7FB03461A46BB685A60F8689D
S31520021D1006F0ECFB03461A46BB681A811037BD460D
S31520021D2080BD00BF80B584B000AFF860B9607A602C
S31520021D30BB685968F86806F0F7FBBB681B89194629
S31520021D40F86806F001FC1037BD4680BDB0B586B0F6
S31520021D5000AF7860396007F10C0301211846FFF7BE
S31520021D60A5FF07F10C033A6819467868FFF7C2FF08
S31520021D700C2006F08DFA05462B461C4607F10C036D
S31520021D8093E8070084E807002B4618461837BD4615
S31520021D90B0BD00BF80B584B000AFF860B9607A608C
S31520021DA07A68B968F868FFF7BDFF1037BD4680BD6F
S31520021DB080B483B000AF786039607B685A683B682C
S31520021DC05B689A4207D17B681A893B681B899A42CB
S31520021DD001D1012300E0002318460C37BD465DF8E9
S31520021DE0047B704790B4ECB000AF3B1D18603B46B5
S31520021DF019603B1D1A683B461B689A420DD03B1D53
S31520021E001B681C683B1D19683B461A680B4607CAA5
S31520021E1083E807003B1D1B681C6007F5D877BD4683
S31520021E2090BC704780B483B000AF78600B46FB70DD
S31520021E300C37BD465DF8047B704700BF80B483B083
S31520021E4000AF78600B46FB700C37BD465DF8047B0D
S31520021E50704700BFF0B583B000AFC7E900017B68C9
S31520021E601B681E467B681C687B685D68AC420FDC7B
S31520021E70396823469A1B13465B0013449B000B4486
S31520021E8001211846FFF712FFAC4201D00134EFE7D9
S31520021E900C37BD46F0BD00BF80B584B000AF786078
S31520021EA0214B1B7883F00103DBB2002B03D0522196
S31520021EB01E4804F0C9FF7B681B8901211846FFF7DB
S31520021EC085FE0346002B01DB0F2B03DD532117482A
S31520021ED004F0B2FFFB607B685B68002B03D15521BF
S31520021EE0124804F081FF7B685B681B681A46FB6810
S31520021EF05B0022FA03F3DBB203F00303DBB2032B0C
S31520021F0003D95521094804F087FF002B03D0012B62
S31520021F1003D1022302E0012300E0002300BF18467A
S31520021F201037BD4680BD00BFD0C7022060B2022056
S31520021F3080B586B000AF78600B46FB70354B1B78B8
S31520021F4083F00103DBB2002B03D06121324804F077
S31520021F507BFF7B681B8901211846FFF737FE034664
S31520021F60002B01DB0F2B03DD66212B4804F064FFD7
S31520021F707B61FB78002B02D0FB78022B03D96821E8
S31520021F80254804F049FFFB78022B21D17B685B6848
S31520021F90002B03D16A21204804F026FF7B6859686A
S31520021FA00B461B683B613A697B695B001846032333
S31520021FB08340DB431A407B695B001846012383403A
S31520021FC008460068134318460B4602461A601AE072
S31520021FD07B685B68002B03D16C210F4804F004FF59
S31520021FE07B6859680B461B68FB60FA687B695B0055
S31520021FF0184603238340DB430846006813401846ED
S315200220000B4602461A60012300BF18461837BD4602
S3152002201080BD00BFD1C7022060B2022080B584B045
S3152002202000AF7860294B1B7883F00103DBB2002BCB
S3152002203003D07621264804F007FF7B681B890121FD
S315200220401846FFF7C3FD0346002B01DB0F2B03DDEA
S315200220507A211F4804F0F0FEFB607B685B68002B48
S3152002206003D17C211A4804F0BFFE7B685B680C33DF
S315200220701B681A46FB685B0022FA03F3DBB203F005
S315200220800303DBB2002B01D1002319E07B685B68D6
S31520022090002B03D17E210E4804F0A6FE7B685B68E6
S315200220A00C331B681A46FB685B0022FA03F3DBB289
S315200220B003F00303DBB2012B01D1012300E002234B
S315200220C000BF18461037BD4680BD00BFD2C70220CA
S315200220D060B2022080B586B000AF78600B46FB70F6
S315200220E0494B1B7883F00103DBB2002B03D08A21F4
S315200220F0464804F0A9FE7B681B8901211846FFF792
S3152002210065FD0346002B01DB0F2B03DD8F213F48A4
S3152002211004F092FE7B61FB78022B03D991213B4886
S3152002212004F07AFEFB78002B02D0012B1ED041E070
S315200221307B685B68002B03D19321344804F054FE5C
S315200221407B685B6803F10C0212683A6139697A6925
S315200221505200104603228240D24303F10C0000684B
S315200221600A4010460C3302461A6046E07B685B68DA
S31520022170002B03D19521254804F036FE7B685B6847
S3152002218003F10C021268FA60F9687A695200104665
S3152002219003228240D24311407A695200104601221C
S315200221A0824003F10C0000680A4310460C330246B3
S315200221B01A6022E07B685B68002B03D197211348C3
S315200221C004F012FE7B685B6803F10C021268BA60A7
S315200221D0B9687A695200104603228240D2431140DE
S315200221E07A69520010460222824003F10C000068EE
S315200221F00A4310460C3302461A6000BF012300BF71
S3152002220018461837BD4680BDD3C7022060B20220C9
S3152002221080B584B000AF78607B681B89FB817B68C0
S315200222205B68002B03D1A4210A4804F0DDFD7B68FC
S315200222305B6810331B689AB2FB8913409BB2FA89FA
S315200222409A420CBF01230023DBB200BF1846103787
S31520022250BD4680BD60B20220B0B582B000AF7860C4
S315200222607868FFF719FE0346022B05D00E4C0F4D58
S315200222702046294605F00AFB7B685B68002B03D1C2
S31520022280BD210B4804F0B0FD7B685B6818331B68E0
S315200222907A68128962F30F037A68526818321360D9
S315200222A00837BD46B0BD00BF70B20220A4B20220DC
S315200222B060B20220B0B582B000AF78607868FFF7CE
S315200222C0EBFD0346022B05D00E4C0F4D2046294628
S315200222D005F0DCFA7B685B68002B03D1D4210B481E
S315200222E004F082FD7B685B6818331B687A68128962
S315200222F062F31F437A685268183213600837BD4664
S31520022300B0BD00BFACB20220A4B2022060B202204D
S31520022310B0B582B000AF78607868FFF7BDFD03469E
S31520022320022B05D0154C164D2046294605F0AEFA4D
S315200223307B685B68002B03D1EB21124804F054FD25
S315200223407B685B68002B03D1EB210E4804F04CFD21
S315200223507B685B6814331B6899B27B681A897B6831
S315200223605B6814331B684A4092B262F30F037A68A1
S315200223705268143213600837BD46B0BDE0B202205F
S31520022380A4B2022060B2022080B584B000AF786089
S315200223907B681B89FB817B685B68002B04D14FF429
S315200223A080710B4804F020FD7B685B681C331B6838
S315200223B09AB2FB8913409BB2FA899A420CBF012337
S315200223C00023DBB200BF18461037BD4680BD00BFD2
S315200223D060B2022080B485B000AF78600B467B8065
S315200223E07968788840F48033FB60FB68CB61C861EA
S315200223F0FB68CB61CB69FB60CB69FB601437BD46BA
S315200224005DF8047B704700BFB0B582B000AF63466B
S31520022410C7F804C01B681846FFF7B6FF034683F0C9
S315200224200103DBB2002B05D0044C054D204629467C
S3152002243005F02CFA0837BD46B0BD00BF14B3022002
S3152002244044B30220B0B584B000AF786007F1200310
S31520022450FB607B68BB60194B1B7883F00103DBB200
S31520022460002B04D04FF4A171154804F0EDFCBB6893
S315200224701846FFF789FF0346002B05D0114C124D53
S315200224802046294605F002FABB685B68002B04D178
S315200224904FF4A2710A4804F0A7FCBB685A68BB68CD
S315200224A01B8919461046FFF795FF07F108039C463C
S315200224B0FFF7AAFF1037BD46B0BD00BFD4C7022022
S315200224C060B202204CB3022078B3022080B588B0D5
S315200224D000AF78603960794B1B7883F00103DBB259
S315200224E0002B04D04FF4AC71754804F0ADFC7B6828
S315200224F01B8901211846FFF769FB0346002B01DBE6
S315200225000F2B04DD4FF4AE716D4804F095FCFB6190
S315200225107B685B68002B04D14FF4AF71684804F0E6
S3152002252063FC7B685B6830331B689BB23B833A8BC8
S31520022530FB69012101FA03F39BB2DB439BB21340F1
S3152002254099B23B681B799AB2FB6902FA03F39AB2F3
S315200225507B685B6830331B680A4392B262F30F03CF
S315200225607A685268303213607B685B68002B04D12C
S3152002257040F25F11524804F037FC7B685B681B68A7
S315200225807B617A69FB695B00194603238B40DB4337
S315200225901A403B681B781946FB695B0001FA03F374
S315200225A0796849680968134319467B685B680A4655
S315200225B01A607B685B68002B04D14FF4B0714048E7
S315200225C004F012FC7B685B6804331B689BB23B8277
S315200225D03A8AFB69012101FA03F39BB2DB439BB2E0
S315200225E0134099B23B685B78012B0CBF0123002371
S315200225F0DBB29AB2FB6902FA03F39AB27B685B6892
S3152002260004331B680A4392B262F30F037A68526854
S31520022610043213607B685B68002B04D140F261119F
S31520022620274804F0E1FB7B685B6808331B68FB6084
S31520022630FA68FB695B00194603238B40DB431A4089
S315200226403B689B781946FB695B0001FA03F37968BC
S31520022650496808310968134319467B685B68083361
S315200226600A461A607B685B68002B04D14FF4B1716D
S31520022670134804F0B9FB7B685B680C331B68BB60AC
S31520022680BA68FB695B00194603238B40DB431A4079
S315200226903B68DB781946FB695B0001FA03F379682C
S315200226A049680C310968134319467B685B680C3309
S315200226B00A461A602037BD4680BD00BFD5C7022014
S315200226C060B2022080B586B000AF78600B46FB7000
S315200226D03F4B1B7883F00103DBB2002B04D040F280
S315200226E077113C4804F0B0FB7B681B890121184610
S315200226F0FFF76CFA0346002B01DB0F2B04DD40F2B9
S315200227007B11344804F098FB7B617B69072B2DDC17
S315200227107B685B68002B04D14FF4BF712D4804F00F
S3152002272063FB7B69072B04DD4FF4BF71294804F054
S315200227306BFB7B685B6820331B683B613A697B696C
S315200227409B0019460F238B40DB431A40FB7879699D
S3152002275089008B40796849682031096813431946F4
S315200227607B685B6820330A461A602EE07B685B68CA
S31520022770002B04D14FF4C071164804F035FB7B6957
S31520022780072B04DC4FF4C071124804F03DFB7B6832
S315200227905B6824331B68FB60FA687B69083B9B00F5
S315200227A019460F238B40DB431A40FB787969083997
S315200227B089008B4079684968243109681343194690
S315200227C07B685B6824330A461A601837BD4680BD8B
S315200227D0D8C7022060B2022090B583B000AF7860DD
S315200227E0134B1B7883F00103DBB2002B04D04FF48A
S315200227F0CB71104804F028FB7B681B8901211846FF
S31520022800FFF7E4F903464FEAE374002B74F1000262
S3152002281003DB172B74F1000204DB4FF4CD7105485C
S3152002282004F00AFBDBB200BF18460C37BD4690BD4A
S31520022830D6C7022060B2022090B585B000AF78607C
S315200228400B46FB701346BB701E4B1B7883F00103AD
S31520022850DBB2002B04D040F2A1111B4804F0F4FA9B
S315200228607B681B8901211846FFF7B0F903464FEA18
S31520022870E374002B74F1000203DB172B74F10002C0
S3152002288004DB40F2A711104804F0D6FAFB73FB785A
S31520022890022B06D8BA78F978FB7B1846FEF738FF62
S315200228A00DE0FB78022B04D84FF4D871064804F0C9
S315200228B0C3FAFA78FB7B11461846FFF75DF8143700
S315200228C0BD4690BDD7C7022060B2022080B400AFB9
S315200228D00F4B01221A700F4B01221A700E4B012246
S315200228E01A700E4B01221A700D4B01221A700D4BD3
S315200228F001221A700C4B01221A700C4B01221A70FB
S315200229000B4B01221A70BD465DF8047B704700BF4F
S31520022910D0C70220D1C70220D2C70220D3C70220A5
S31520022920D4C70220D5C70220D8C70220D6C7022084
S31520022930D7C7022080B500AF034804F08FFB034BB4
S31520022940184604F0D3FB80BDB0B3022020B4022087
S3152002295080B582B000AF78600B46FB70FB78002B07
S3152002296003D07B68184602F0D5F80837BD4680BDED
S3152002297080B588B000AFB9607A601A460346FB7309
S315200229801346BB7307F1140300211846FFF7E0FF35
S3152002299007F11803FB61F86902F096F8BB68BB6180
S315200229A0164B08331B68FA7B62F30703134A083275
S315200229B01360FB691A68114B0C331B68C2F35A1257
S315200229C062F35F130D4A0C321360BB687B617A692E
S315200229D07B6813447B617B69BA7B02F00702D2B221
S315200229E062F343037B617B6943F001037B61034B03
S315200229F010337A691A602037BD4680BD90ED00E01B
S31520022A0080B586B000AF03463971FB713B793B72C4
S31520022A1007F108037B61FB79032B17D8FB79032B7C
S31520022A2003D92C21164804F0EFF9164B30331B68D4
S31520022A30FB60FB797A69127807F118010B4403F8D7
S31520022A400C2C104B3033FA681A6016E0FB79032BF4
S31520022A5003D82E210A4804F0D7F90A4B34331B68CF
S31520022A603B61FB797A69127807F118010B4403F866
S31520022A700C2C044B34333A691A601837BD4680BD94
S31520022A8058B4022090ED00E080B400AF064B043328
S31520022A901B681A46134643F00102034B04331A609D
S31520022AA0BD465DF8047B704790ED00E080B485B0AA
S31520022AB000AFF860B9601346FB71FB79002B02D098
S31520022AC0054AFB681A60FB68BA685A601437BD4625
S31520022AD05DF8047B704700BF20B6022090B482B016
S31520022AE000AF78604FF040034FF0000418462146AD
S31520022AF00837BD4690BC704780B483B000AF78607B
S31520022B000B46FB700C37BD465DF8047B704700BF51
S31520022B1080B582B000AF786039604E4B1B7883F067
S31520022B200103DBB2002B03D048214B4804F08CF979
S31520022B303B685B78012B03D94A21474804F06CF99C
S31520022B403B685B78002B14D17B685B681B681A464E
S31520022B50134643F004027B685B681A607B685B68F5
S31520022B601B681A46134643F480727B685B681A60B8
S31520022B700FE07B685B681B686FF382037A68526892
S31520022B8013607B685B681B686FF308237A68526858
S31520022B9013603B681B78032B03D953212E4804F07C
S31520022BA03BF93B681B78012B1DD0012B02D3022B4C
S31520022BB034D053E07B685B681B686FF3CF337A6847
S31520022BC0526813607B685B681B686FF38E337A6882
S31520022BD0526813607B685B681B686FF38A237A6886
S31520022BE05268136056E07B685B681B686FF3CF33CD
S31520022BF07A68526813607B685B681B686FF38E3352
S31520022C007A68526813607B685B681B681A461346AB
S31520022C1043F480627B685B681A603BE07B685B6892
S31520022C201B681A46134643F400427B685B681A60A7
S31520022C307B685B681B686FF38E337A685268136011
S31520022C407B685B681B686FF38A237A685268136015
S31520022C5020E000BFE6C7022068B402207B685B68DA
S31520022C601B681A46134643F400427B685B681A6067
S31520022C707B685B681B681A46134643F480427B686E
S31520022C805B681A607B685B681B686FF38A237A68C5
S31520022C905268136000BF3B689B78012B0CBF01234F
S31520022CA00023DAB27B685B681B6802F00102D2B2AB
S31520022CB062F3CB237A68526813603B68DB78002B79
S31520022CC00CBF01230023DAB27B685B681B6802F023
S31520022CD00102D2B262F341037A68526813603B68FA
S31520022CE01B79012B0CBF01230023DAB27B685B68B8
S31520022CF01B6802F00102D2B262F300037A685268BC
S31520022D0013603B685B79002B0CBF01230023DAB2E8
S31520022D107B685B681B6802F00102D2B262F3492328
S31520022D207A68526813603B689B791A463C4B9A5CD8
S31520022D307B685B681B6802F00702D2B262F3C503A6
S31520022D407A68526813603B68DB79012B0CBF01233A
S31520022D500023DAB27B685B681B6802F00102D2B2FA
S31520022D6062F3C7137A68526813603B689A7A7B6863
S31520022D705B6804331B6802F00102D2B262F341039C
S31520022D807A685268043213603B689A7A7B685B6879
S31520022D9004331B6802F00102D2B262F3C7137A68C7
S31520022DA05268043213603B68DA7A7B685B680433C4
S31520022DB01B6802F00102D2B262F300037A685268FB
S31520022DC0043213603B68DA7A7B685B6804331B68DB
S31520022DD002F00102D2B262F386137A685268043292
S31520022DE013603B681A7B7B685B6804331B6802F0BE
S31520022DF00102D2B262F30C337A685268043213604B
S31520022E007B685B6810331B683A68128962F30F038A
S31520022E107A685268103213600837BD4680BD00BFFB
S31520022E20B8B6022080B582B000AF78600B4B1B7813
S31520022E3083F00103DBB2002B03D07D21084804F086
S31520022E4003F87B685B681B681A46134643F0400208
S31520022E507B685B681A600837BD4680BDE7C70220DB
S31520022E6068B4022080B582B000AF78600A4B1B7826
S31520022E7083F00103DBB2002B03D08621074803F03F
S31520022E80E3FF7B685B681B686FF386137A68526878
S31520022E9013600837BD4680BDE8C7022068B4022009
S31520022EA080B582B000AF78600A4B1B7883F00103AD
S31520022EB0DBB2002B03D08F21074803F0C5FF7B68C6
S31520022EC05B681B68C3F38013DBB200BF1846083762
S31520022ED0BD4680BDE9C7022068B4022080B582B013
S31520022EE000AF78600B467B800C4B1B7883F0010386
S31520022EF0DBB2002B03D09821094803F0A5FF7B689B
S31520022F005B680C331B687A8862F30F037A6852680F
S31520022F100C3213600837BD4680BD00BFEAC70220C7
S31520022F2068B4022080B483B000AF78607B685B68A7
S31520022F300C331B689BB200BF18460C37BD465DF8A2
S31520022F40047B704780B584B000AF78600B46FB7077
S31520022F500A4B1B7883F00103DBB2002B03D0AC2192
S31520022F60074803F071FF7B685B680C33FB60FB68E4
S31520022F70FA781A701037BD4680BD00BFEBC7022013
S31520022F8068B4022080B582B000AF78607868FFF717
S31520022F90C9FF0346FF2B03D9B921044803F04CFF8E
S31520022FA0DBB200BF18460837BD4680BD68B4022092
S31520022FB080B582B000AF7860786800F02DF80346BD
S31520022FC0002B08D0786800F015F8034683F0010339
S31520022FD0DBB2002B05D1786800F036F80346002BC9
S31520022FE001D0012300E0002300BF18460837BD4662
S31520022FF080BD00BF80B483B000AF78607B685B6819
S3152002300008331B68C3F34003DBB200BF18460C37F4
S31520023010BD465DF8047B704780B483B000AF78600C
S315200230207B685B6808331B68DBB203F00103DBB203
S31520023030002B0CBF01230023DBB200BF18460C373E
S31520023040BD465DF8047B704780B483B000AF7860DC
S315200230507B685B6808331B68C3F3C013DBB200BF0F
S3152002306018460C37BD465DF8047B704780B582B0A2
S3152002307000AF7860184B1B7883F00103DBB2002B7C
S3152002308003D0E621154803F0DFFE7B685B681B68E8
S31520023090DBB203F00403DBB2002B14BF01230023AF
S315200230A0DAB27B685B681B68C3F30723DBB203F0E3
S315200230B00103DBB2002B14BF01230023DBB2134032
S315200230C0DBB2002B01D0002300E0012300BF18460B
S315200230D00837BD4680BD00BFEEC7022068B4022075
S315200230E080B582B000AF78601A4B1B7883F001035B
S315200230F0DBB2002B03D0F321174803F0A5FE7B6831
S315200231005B681B68C3F30723DBB25BB2002B0EDBC3
S315200231107B685B681B68C3F30723DBB203F00403F7
S31520023120DBB2002B01D100230FE001230DE07B68E7
S315200231305B681B68C3F30723DBB203F04003DBB2F1
S31520023140002B01D1022300E0032300BF18460837D3
S31520023150BD4680BDEFC7022068B4022080B483B08A
S3152002316000AF78607B685B681B68C3F34033DBB2D1
S3152002317000BF18460C37BD465DF8047B704700BF7A
S3152002318080B483B000AF78607B685B6808331B68C5
S31520023190C3F30013DBB200BF18460C37BD465DF8F9
S315200231A0047B704780B483B000AF78607B685B682D
S315200231B008331B68C3F34013DBB200BF18460C3733
S315200231C0BD465DF8047B704780B483B000AF78605B
S315200231D07B685B6808331B68C3F38013DBB200BFCE
S315200231E018460C37BD465DF8047B704780B483B021
S315200231F000AF78607B685B6808331B68C3F30023E3
S31520023200DBB200BF18460C37BD465DF8047B70471B
S3152002321080B584B000AF78600E4B1B7883F0010333
S31520023220DBB2002B04D04FF49E710B4803F00CFE48
S3152002323007F10803184601F093FC7B685B680C33A0
S315200232401B68FB817B685B6808331B68BB60103791
S31520023250BD4680BDECC7022068B4022080B582B08C
S3152002326000AF7860104B1B7883F00103DBB2002B92
S3152002327004D04FF4A4710D4803F0E6FD7B685B6829
S315200232801B686FF34D337A68526813607B685B68FC
S315200232901B681A46134643F400527B685B681A6021
S315200232A00837BD4680BD00BFEDC7022068B40220A4
S315200232B080B483B000AF78607B685B681B68C3F319
S315200232C0C023DBB200BF18460C37BD465DF8047B2F
S315200232D0704700BF80B582B000AF78600F4B1B7875
S315200232E083F00103DBB2002B04D04FF4AD710C48FE
S315200232F003F0AAFD7B685B681B68C3F30723DBB276
S3152002330003F00803DBB2002B01D0012300E00023E7
S3152002331000BF18460837BD4680BD00BFF0C7022051
S3152002332068B40220B0B586B000AFF860C7E90012D3
S31520023330BB60354B1B7883F00103DBB2002B04D034
S315200233404FF4B471314803F07FFDF868FFF7C2FFEE
S315200233500346002B05D02E4C2E4D2046294604F03E
S3152002336095FAF868FFF7FAFE0346002B02D0F868B2
S31520023370FFF774FFF868FFF7B3FE0346032B09D164
S31520023380FB685B681B681A46134643F48042FB6857
S315200233905B681A60F868FFF73BFFF868FFF780FD65
S315200233A0034683F00103DBB2002B02D0F868FFF755
S315200233B039FDD7E90012F86801F046F8F868FFF7F8
S315200233C019FE0346002B01D100BFF7E7F868FFF785
S315200233D03BFE034683F00103DBB2002B01D100BF83
S315200233E0F4E7F868FFF77CFE0346012B01D0002B99
S315200233F002D1F868FFF70CFF0023FB75FB7D00BFA7
S3152002340018461837BD46B0BDF1C7022068B402205F
S3152002341078B40220ACB40220B0B586B000AFF86012
S31520023420C7E90012BB60364B1B7883F00103DBB27F
S31520023430002B04D040F29911324803F005FDF868BA
S31520023440FFF748FF0346012B05D02F4C2F4D204670
S31520023450294604F01BFAF868FFF780FE0346002B84
S3152002346002D0F868FFF7FAFEF868FFF739FE03463E
S31520023470032B09D1FB685B681B681A46134643F483
S315200234808042FB685B681A60F868FFF7C1FEF8683D
S31520023490FFF706FD034683F00103DBB2002B02D0C1
S315200234A0F868FFF7BFFCD7E90012F86800F0CAFEF9
S315200234B0F868FFF79FFD0346002B01D100BFF7E70F
S315200234C0F868FFF7C1FD034683F00103DBB2002B48
S315200234D001D100BFF4E7F868FFF702FE0346012B8D
S315200234E001D0002B04D1F868FFF792FE0123FB7569
S315200234F00023FB75FB7D00BF18461837BD46B0BDBD
S31520023500F2C7022068B40220B4B40220ACB402206E
S3152002351080B584B000AF78600B46FB70364B1B78C3
S3152002352083F00103DBB2002B04D04FF4E57133485C
S3152002353003F08AFC7B685B680C33FB607868FFF7D4
S315200235400DFE0346002B02D07868FFF787FE7868C7
S31520023550FFF7C6FD0346032B09D17B685B681B6810
S315200235601A46134643F480427B685B681A60786881
S31520023570FFF796FC034683F00103DBB2002B02D051
S315200235807868FFF74FFC7B685B681B68C3F30723E9
S31520023590DBB223F07F03DBB2002B09D07B685B68AA
S315200235A01B681A46134643F480427B685B681A609E
S315200235B0FB68FA781A707868FFF71CFD0346002B21
S315200235C001D100BFF7E77868FFF73EFD034683F097
S315200235D00103DBB2002B01D100BFF4E77868FFF7C5
S315200235E07FFD0346012B01D0002B02D17868FFF71D
S315200235F00FFE1037BD4680BDF3C7022068B40220F5
S31520023600B0B588B000AFF860C7E90012BB60544B72
S315200236101B7883F00103DBB2002B04D04FF4FC713C
S31520023620504803F011FCF868FFF754FE0346002BBE
S3152002363005D04D4C4D4D2046294604F027F9FB680E
S315200236405B680C33FB61F868FFF7E6FC0346002B48
S3152002365004D1FB691B78DBB2FB76F4E7F868FFF747
S315200236607DFD0346002B02D0F868FFF7F7FDF868C8
S31520023670FFF716FC034683F00103DBB2002B02D0D0
S31520023680F868FFF7CFFBFB685B681B68C3F3072369
S31520023690DBB223F07F03DBB2002B0DD0F868FFF7F5
S315200236A0E1FBFB685B681B686FF38E33FA6852682E
S315200236B01360F868FFF7B6FBD7E90012F86800F046
S315200236C0F5FFFB685B681B68C3F30723DBB223F0B5
S315200236D07F03DBB2002B1ED0F868FFF7C3FBFB6823
S315200236E05B681B681A46134643F48042FB685B6894
S315200236F01A60F868FFF796FBFB685B680C337B6100
S31520023700F868FFF789FC0346002B04D17B691B78F6
S31520023710DBB2FB74F4E7F868FFF796FC034683F006
S315200237200103DBB2002B01D100BFF4E7F868FFF7F3
S3152002373015FD03461C46F868FFF722FD0346234083
S31520023740DBB2002B04D0F868FFF788FD0123BB7497
S315200237500023BB74BB7C00BF18462037BD46B0BDD4
S31520023760F4C7022068B40220E8B40220ACB40220D6
S31520023770B0B586B000AFF860C7E90012BB602B4B2C
S315200237801B7883F00103DBB2002B04D040F23E21EA
S31520023790274803F059FBF868FFF79CFD0346012BE7
S315200237A005D0244C244D2046294604F06FF8F868AB
S315200237B0FFF7D4FC0346002B02D0F868FFF74EFD34
S315200237C0F868FFF76DFB034683F00103DBB2002B9B
S315200237D002D0F868FFF726FBD7E90012F86800F056
S315200237E00BFFF868FFF730FC034683F00103DBB2D8
S315200237F0002B01D100BFF4E7F868FFF7AFFC0346C0
S315200238001C46F868FFF7BCFC03462340DBB2002BBC
S3152002381004D0F868FFF722FD0123FB750023FB7510
S31520023820FB7D00BF18461837BD46B0BDF6C702203D
S3152002383068B402201CB50220ACB4022090B585B033
S3152002384000AF7860364B1B7883F00103DBB2002B86
S3152002385004D040F25F21334803F0F6FA7B685B68B6
S315200238600C33FB607868FFF779FC0346002B02D005
S315200238707868FFF7F3FC7868FFF712FB034683F0BC
S315200238800103DBB2002B02D07868FFF7CBFAFB6884
S3152002389000221A707868FFF7BFFB034683F0010304
S315200238A0DBB2002B01D100BFF4E7FB681B78DBB249
S315200238B07B727868FFF752FC0346002B0FD078689C
S315200238C0FFF7AAFB034683F00103DBB2002B01D1EB
S315200238D000BFF4E77B685B680C331B687B817868E2
S315200238E0FFF7B2FB034683F00103DBB2002B01D1C3
S315200238F000BFF4E77868FFF731FC03461C46786878
S31520023900FFF73EFC03462340DBB2002B02D0786849
S31520023910FFF7A4FC7B7A00BF18461437BD4690BD3C
S31520023920F7C7022068B4022082B090B58FB002AFEA
S315200239307861C7E902127B643B4607F1440292E8AA
S31520023940030083E80300FB681B68FA68526845494E
S31520023950097881F00101C9B2002904D040F28D21F3
S31520023960414803F071FA79680968F962796848680A
S3152002397079680968884203DB79684968B96203E095
S31520023980796809680139B9627B629A4201DB3A6237
S3152002399001E0013B3B627869FFF7E0FB0346002B1F
S315200239A002D07869FFF75AFC7869FFF779FA03465D
S315200239B083F00103DBB2002B02D07869FFF732FADB
S315200239C07869FFF775FC0346002B0AD0FB6C01933E
S315200239D07B6800933B68D7E90212786900F0DAF82F
S315200239E009E0FB6C01937B6800933B68D7E90212DE
S315200239F0786900F09BFA7869FFF7B0FB0346002B43
S31520023A000FD07869FFF708FB034683F00103DBB288
S31520023A10002B01D100BFF4E77B695B680C331B687E
S31520023A20FB837869FFF710FB034683F00103DBB2C1
S31520023A30002B01D100BFF4E77869FFF78FFB03461D
S31520023A401C467869FFF79CFB03462340DBB2002B1A
S31520023A5002D07869FFF702FC3437BD46BDE89040B4
S31520023A6002B07047F8C7022068B4022090B585B02C
S31520023A7000AF78600B46FB70444B1B7883F0010342
S31520023A80DBB2002B04D04FF42F71414803F0DCF94E
S31520023A907B685B680C33FB607868FFF75FFB034645
S31520023AA0002B02D07868FFF7D9FB7868FFF7F8F980
S31520023AB0034683F00103DBB2002B02D07868FFF7BE
S31520023AC0B1F97868FFF7F4FB0346002B04D04FF4D4
S31520023AD033712F4803F0BEF9FB68FA781A707868BA
S31520023AE0FFF73CFB0346002B09D07B685B681B680B
S31520023AF01A46134643F480527B685B681A607868DC
S31520023B00FFF78AFA034683F00103DBB2002B01D1C9
S31520023B1000BFF4E7FB681B78DBB27B727868FFF79D
S31520023B201DFB0346002B0FD07868FFF775FA034674
S31520023B3083F00103DBB2002B01D100BFF4E77B68DF
S31520023B405B680C331B687B817868FFF77DFA034636
S31520023B5083F00103DBB2002B01D100BFF4E77868C2
S31520023B60FFF7FCFA03461C467868FFF709FB034673
S31520023B702340DBB2002B02D07868FFF76FFB7B7AFB
S31520023B8000BF18461437BD4690BD00BFF9C70220B4
S31520023B9068B4022082B0F0B58FB000AF7861C7E971
S31520023BA002127B653B4607F1540292E8030083E842
S31520023BB00300FB681C68FB685D68A44B1B7883F0D6
S31520023BC00103DBB2002B04D040F2F721A04803F018
S31520023BD03BF97B681B68BB627B685A687B681B68FB
S31520023BE09A4203DB7B685B687B6203E07B681B6827
S31520023BF0013B7B623C62A54201DBFD6102E023467A
S31520023C00013BFB61FB6D3B63002C04DA40F2FE2193
S31520023C108F4803F011F97C637B681B68002B04DA5A
S31520023C2040F2FF218A4803F007F97B681B68FB6292
S31520023C307869FFF71BFA0346012B0CBF01230023E9
S31520023C40DBB2002B02D13B6B012B3CD17B6B9C421E
S31520023C5002DC7B6B9D4204DA40F203317C4803F09E
S31520023C60D3F8BA687B6B21465B1A1344002B04D126
S31520023C7040F20331764803F0B7F8BA687B6B2146E7
S31520023C805B1A1A447B695B680C331B68128862F3E1
S31520023C900F037A6952680C3213607B6B6D4A93422A
S31520023CA004DD4FF441716A4803F0BEF87B6B0233A0
S31520023CB07B633B6B013B002B04DA40F205316448FF
S31520023CC003F0BAF83B633B6B002B43D17869FFF7CD
S31520023CD045FA0346002B09D07B695B681B681A46A6
S31520023CE0134643F480527B695B681A607869FFF752
S31520023CF093F9034683F00103DBB2002B01D100BF07
S31520023D00F4E77B681B68FA6A9A4204DB7B685B6885
S31520023D10FA6A9A4204DD4FF445714D4803F074F86D
S31520023D203A68FB6A796809685B1A1344002B04D146
S31520023D304FF44571464803F057F87B695B680C33AC
S31520023D4018683A68FB6A796809685B1A134482B272
S31520023D501A80E0E03B6B002B40F3A4807869FFF7E2
S31520023D6049F90346002B01D100BFF7E77B6B9C4242
S31520023D7002DC7B6B9D4204DA40F22131344803F0A7
S31520023D8043F8BA687B6B21465B1A1344002B04D195
S31520023D9040F221312E4803F027F8BA687B6B214680
S31520023DA05B1A1A447B695B680C331B68128862F3C0
S31520023DB00F037A6952680C3213607B6B254A934251
S31520023DC004DD40F22231224803F02EF87B6B0233C7
S31520023DD07B633B6B013B002B04DA40F223311C4808
S31520023DE003F02AF83B633B6B002B0CBF0123002315
S31520023DF0DEB27869FFF7B2F903463340DBB2002B15
S31520023E0009D07B695B681B681A46134643F48052C5
S31520023E107B695B681A607869FFF7FEF8034683F0D0
S31520023E200103DBB2002B01D100BFF4E77B681B68DC
S31520023E30FA6A9A4204DB7B685B68FA6A9A420BDD6D
S31520023E4040F22F31024802F0DFFF00BFFAC70220FC
S31520023E5068B40220FDFFFF7F3A68FB6A7968096829
S31520023E605B1A1344002B04D140F22F312D4802F065
S31520023E70BBFF7B695B680C3318683A68FB6A796812
S31520023E8009685B1A134482B21A80FB6A264A934255
S31520023E9004DD40F23131234802F0C6FFFB6A0233C9
S31520023EA0FB6257E77869FFF7E1F80346012B32D127
S31520023EB07869FFF7B1F8034683F00103DBB2002BE2
S31520023EC001D100BFF4E77B681B68FA6A9A4204DBD9
S31520023ED07B685B68FA6A9A4204DD40F23B311148FC
S31520023EE002F092FF3A68FB6A796809685B1A134402
S31520023EF0002B04D140F23B310A4802F075FF7B6960
S31520023F005B680C3318683A68FB6A796809685B1A39
S31520023F10134482B21A803C37BD46BDE8F04002B057
S31520023F20704700BF68B40220FDFFFF7F82B0F0B564
S31520023F308FB000AF7861C7E902127B653B4607F175
S31520023F40540292E8030083E80300FB681C68FB68BE
S31520023F505D68A54B1B7883F00103DBB2002B04D0EE
S31520023F604FF45171A14802F06FFF7B681B68BB6258
S31520023F707B685A687B681B689A4203DB7B685B68AE
S31520023F807B6203E07B681B68013B7B623C62A54245
S31520023F9001DBFD6102E02346013BFB61FB6D3B63D6
S31520023FA0002C04DA40F24B31904802F045FF7C6344
S31520023FB07B681B68002B04DA4FF453718B4802F09E
S31520023FC03BFF7B681B68FB627B695B680C33BB61CA
S31520023FD07869FFF74BF80346012B0CBF0123002318
S31520023FE0DBB2002B02D13B6B012B28D17B6B9C428F
S31520023FF002DC7B6B9D4204DA4FF454717B4802F05B
S3152002400003FFBA68796B3B6ACB1AD25CBB691A701A
S315200240107B6B6FF00042934204D140F251317348D8
S3152002402002F002FF7B6B01337B633B6B013B002B70
S3152002403004DA40F252316D4802F0FEFE3B633B6BDE
S31520024040002B3AD17869FFF789F80346002B09D06D
S315200240507B695B681B681A46134643F480527B6968
S315200240605B681A607869FEF7D7FF034683F001037F
S31520024070DBB2002B01D100BFF4E77B681B68FA6A2A
S315200240809A4204DB7B685B68FA6A9A4204DD4FF443
S315200240905871564802F0B8FEFB6A002B04DA4FF438
S315200240A05871524802F0B8FE3A681846BB691B7826
S315200240B0D9B2BB6AC31AD154BBE03B6B002B40F387
S315200240C081807869FEF796FF0346002B01D100BF57
S315200240D0F7E77B6B9C4202DC7B6B9D4204DA40F263
S315200240E06A31424802F090FEBA68796B3B6ACB1A73
S315200240F0D25CBB691A707B6B6FF00042934204D18B
S3152002410040F26B31394802F08FFE7B6B01337B63C1
S315200241103B6B013B002B04DA4FF45B71334802F010
S315200241208BFE3B633B6B002B0CBF01230023DEB2CD
S315200241307869FFF713F803463340DBB2002B09D028
S315200241407B695B681B681A46134643F480527B6977
S315200241505B681A607869FEF75FFF034683F0010306
S31520024160DBB2002B01D100BFF4E77B681B68FA6A39
S315200241709A4204DB7B685B68FA6A9A4204DD4FF452
S315200241805E711A4802F040FEFB6A002B04DA4FF4F5
S315200241905E71164802F040FE3A681846BB691B78E3
S315200241A0D9B2BB6AC31AD154FB6A6FF0004293425A
S315200241B004D140F279310D4802F036FEFB6A013312
S315200241C0FB627AE77869FEF751FF0346012B30D16D
S315200241D07869FEF721FF034683F00103DBB2002B49
S315200241E006D100BFF4E700BFFBC7022068B4022055
S315200241F07B681B68FA6A9A4204DB7B685B68FA6A08
S315200242009A4204DD40F282310D4802F0FDFDFB6A3E
S31520024210002B04DA40F28231094802F0FDFD3C68A7
S315200242201D467869FEF7AEFE03461A46BB6AEB1AAE
S31520024230E2543C37BD46BDE8F04002B0704700BFAD
S3152002424068B402202DE9B04B87B000AFF860C7E909
S3152002425000127B681C687B685D68A54210DB2846D5
S315200242604FEAE071A0464FEAE87902460B46B2EBE6
S31520024270080263EB090312F1010843F1000903E086
S315200242804FF000084FF000096B4B1B7883F00103B7
S31520024290DBB2002B04D040F28A31684802F0D4FD0A
S315200242A022464FEAE27366484FF0000110EB020BFA
S315200242B041EB030C2A464FEAE27393457CEB030358
S315200242C004DA40F28E315D4802F0B6FD43467B6148
S315200242D0002C04DA40F28F31584802F0ADFD3C61E1
S315200242E0F868FEF7C3FE0346012B0CBF0123002309
S315200242F0DBB2002B02D17B69012B3ED13B699C426A
S3152002430002DC3B699D4204DA40F293314B4802F0CB
S315200243107BFD3A683B6921465B1A5B001344002BFE
S3152002432004D140F29331454802F05EFD3A683B697A
S3152002433021465B1A5B001A44FB685B680C331B68D8
S31520024340128862F30F03FA6852680C3213603B69D3
S315200243503C4A934204DD4FF46571384802F064FD0D
S315200243603B6902333B617B69013B002B04DA40F255
S315200243709531324802F060FD7B617B69002B47DD77
S31520024380F868FEF737FE0346002B01D100BFF7E798
S315200243903B699C4202DC3B699D4204DA40F29F3132
S315200243A0264802F031FD3A683B6921465B1A5B00DA
S315200243B01344002B04D140F29F31204802F014FD11
S315200243C03A683B6921465B1A5B001A44FB685B68C4
S315200243D00C331B68128862F30F03FA6852680C3298
S315200243E013603B69174A934204DD4FF46871134800
S315200243F002F01AFD3B6902333B617B69013B002BCC
S3152002440004DA40F2A1310D4802F016FD7B61B4E7D1
S31520024410F868FEF7A3FE0346002B09D0FB685B680B
S315200244201B681A46134643F48052FB685B681A607F
S315200244301C37BD46BDE8B08BFCC7022068B40220FB
S31520024440FEFFFF7FFDFFFF7F2DE9F04B88B000AF17
S31520024450F860C7E900127B681C687B685D68A54224
S3152002446010DB28464FEAE071A0464FEAE879024679
S315200244700B46B2EB080263EB090312F1010843F182
S31520024480000903E04FF000084FF00009574B1B7854
S3152002449083F00103DBB2002B04D040F2AD31544845
S315200244A002F0D2FC264622464FEAE27351484FF0EA
S315200244B0000110EB020B41EB030C2A464FEAE27392
S315200244C093457CEB030304DA40F2B131484802F00B
S315200244D0B3FC4346FB61002C04DA40F2B231444875
S315200244E002F0AAFCBC61FB685B680C337B61F8684E
S315200244F0FEF7BCFD0346012B0CBF01230023DBB2D2
S31520024500002B02D1FB69012B27D1BB699C4202DC1D
S31520024510BB699D4204DA40F2B631354802F074FC9A
S315200245203A68BB699B1BD25C7B691A70BB696FF0C8
S315200245300042934204D140F2B7312D4802F074FC76
S31520024540BB690133BB61FB69013B002B04DA4FF4E3
S315200245506E71274802F070FCFB61FB69002B30DD8F
S31520024560F868FEF747FD0346002B01D100BFF7E7A7
S31520024570BB699C4202DCBB699D4204DA40F2C1312E
S315200245801B4802F041FC3A68BB699B1BD25C7B69E3
S315200245901A70BB696FF00042934204D140F2C231D5
S315200245A0134802F041FCBB690133BB61FB69013B45
S315200245B0002B04DA40F2C3310D4802F03DFCFB61C8
S315200245C0CBE7F868FEF7CAFD0346002B09D0FB6845
S315200245D05B681B681A46134643F48052FB685B6885
S315200245E01A602037BD46BDE8F08B00BFFDC702200A
S315200245F068B40220FEFFFF7F2DE9F04186B000AFAE
S31520024600F860C7E90012274B1B7883F00103DBB25F
S31520024610002B04D040F2CF31234802F015FC7B68F0
S315200246201B681E46F868FEF721FD0346002B0CBFC9
S3152002463001230023FB757B681C687B685D68AC429E
S315200246402CDC3A68A046A8EB06035B0013443B61C8
S31520024650FB7D002B09D0FB685B680C331B686FF36C
S315200246600F03FA6852680C321360F868FEF7D4FC1E
S31520024670034683F00103DBB2002B01D100BFF4E72E
S31520024680FB685B680C331A683B6891B2A8EB06029A
S3152002469023F81210AC4201D00134D2E71837BD46B6
S315200246A0BDE8F081FEC7022068B402202DE9F04160
S315200246B088B000AFF860C7E900122A4B1B7883F056
S315200246C00103DBB2002B04D04FF47971264802F0A5
S315200246D0BBFB7B681B681E46F868FEF7C7FC0346D1
S315200246E0002B0CBF01230023DAB2FB685B681B6830
S315200246F0C3F30723DBB25BB2DB43DBB2DB09DBB2FC
S315200247001340FB77FB685B680C33BB617B681C68D4
S315200247107B685D68AC4221DC3A68A046A8EB0603BA
S3152002472013447B61FB7F002B02D0BB6900221A70E7
S31520024730F868FEF771FC034683F00103DBB2002B17
S3152002474001D100BFF4E73A68BB691B78D9B2A8EB5E
S315200247500603D154AC4201D00134DDE72037BD46F1
S31520024760BDE8F081FFC7022068B4022082B02DE99D
S31520024770F04F97B002AF7863C7E90A12FB6707F1D9
S31520024780200307F17C0292E8030083E80300FB6A18
S315200247901B683B63FB6A5B687B60FB6A5A68FB6A41
S315200247A01B689A4212DBFB6A5B6819464FEAE17282
S315200247B0FB6A1B681D464FEAE5760B4614465B1BD1
S315200247C064EB06045D1C44F1000603E04FF000058D
S315200247D04FF000066C4B1B7883F00103DBB2002BF3
S315200247E004D040F2F731694802F02EFB786BFEF7CF
S315200247F071FD0346002B14BF01230023D8B27B6A26
S315200248005A687B6A1B689A4218DB7B6A5B68194680
S315200248104FEAE172C7E902127B6A1B6819464FEA20
S31520024820E1720B461446D7E90212C91A62EB040258
S315200248300B461446591C44F1000203E04FF00001D6
S315200248404FF0000296420ABF8D4201230023DBB2BB
S315200248500343DBB2002B07D04D4B3B614D4B7B61B3
S31520024860D7E9040103F012F83B6B002B04DA4FF46C
S315200248708061464802F0E0FA7B6A1B68002B04DA64
S315200248804FF48061414802F0D7FA7B6A5A687B6A04
S315200248901B689A422EDB7B6A5B6819464FEAE172F5
S315200248A07B6A1B681D464FEAE5760B4614465B1B60
S315200248B064EB0604002B74F100031BDB7B6A5A6847
S315200248C07B6A1B689A421ADB7B6A5B6819464FEA47
S315200248D0E1727B6A1B681D464FEAE5760B46144653
S315200248E05B1B64EB06042C494FF00002994272EBE3
S315200248F0040304DA4FF48061244802F09DFA7B6AAD
S315200249001B68002B04DA4FF48061204802F094FAE7
S31520024910BB6A9A463B6B3B647B687B6407F1400328
S315200249209B463B6A98467B6A1B68BB647B6A5B68CC
S31520024930FB6407F1480399467B6A5A687B6A1B68BF
S315200249409A4207DB7B6A5B681A467B6A1B68D31A24
S31520024950013300E000230193C7E90689FB6900932E
S31520024960434651465A46786BFFF7E0FA002387F80A
S315200249703F3097F83F3000BF18465437BD46BDE852
S31520024980F04F02B0704700BFF5C7022068B402207C
S3152002499050B50220ACB40220FEFFFF7F80B400AFE8
S315200249A0284B01221A70284B01221A70274B01220A
S315200249B01A70274B01221A70264B01221A70264B97
S315200249C001221A70254B01221A70254B01221A70D8
S315200249D0244B01221A70244B01221A70234B0122E6
S315200249E01A70234B01221A70224B01221A70224B73
S315200249F001221A70214B01221A70214B01221A70B0
S31520024A00204B01221A70204B01221A701F4B0122C1
S31520024A101A701F4B01221A701E4B01221A701E4B4E
S31520024A2001221A701D4B01221A701D4B01221A7087
S31520024A301C4B01221A701C4B01221A70BD465DF8CE
S31520024A40047B7047E6C70220E7C70220E8C7022098
S31520024A50E9C70220EAC70220EBC70220EEC70220DE
S31520024A60EFC70220ECC70220EDC70220F0C70220C2
S31520024A70F1C70220F2C70220F3C70220F4C70220A0
S31520024A80F6C70220F7C70220F8C70220F9C702207C
S31520024A90FAC70220FBC70220FCC70220FDC702205C
S31520024AA0FEC70220FFC70220F5C7022080B500AF4D
S31520024AB0034802F0D3FA034B184602F017FB80BDD7
S31520024AC0B0B5022020B6022080B483B000AF786051
S31520024AD07B681B686FF300031A467B681A607B6843
S31520024AE01B686FF342031A467B681A607B681B6851
S31520024AF06FF3C4031A467B681A607B681B686FF3E0
S31520024B005F131A467B681A600C37BD465DF8047B34
S31520024B10704700BF80B483B000AF78607B681B68A3
S31520024B206FF300031A467B681A607B681B686FF373
S31520024B3043031A467B681A607B681B686FF304136B
S31520024B401A467B681A607B681B686FF35F131A46E6
S31520024B507B681A600C37BD465DF8047B704700BF40
S31520024B6080B483B000AF78607B681B686FF3000364
S31520024B701A467B681A607B681B6843F002031A4652
S31520024B807B681A607B681B686FF383031A467B680F
S31520024B901A607B681B686FF304131A467B681A60D7
S31520024BA07B681B686FF345131A467B681A607B681D
S31520024BB01B686FF386131A467B681A607B681B682C
S31520024BC06FF3C7131A467B681A607B681B686FF3FC
S31520024BD008231A467B681A607B681B686FF34A2390
S31520024BE01A467B681A607B681B686FF3CC231A46C9
S31520024BF07B681A607B681B686FF35F331A467B6893
S31520024C001A600C37BD465DF8047B704780B586B0C6
S31520024C1000AF78607B681B687B617B693B613A6980
S31520024C200C23FB60FB68D31A1B681B6A7A68012176
S31520024C30104698471837BD4680BD00BF80B500AFE5
S31520024C4001210C4803F070F80A4802F015FF0A4BBE
S31520024C5001221A600949074802F018FF0849054847
S31520024C6002F016FF074802F0F9F9074B184602F040
S31520024C703DFA80BDE4D7022008C8022094EA022029
S31520024C800D4C0220D4B6022004B7022080B586B08D
S31520024C9000AF78607B681B687B617B693B613A6900
S31520024CA00C23FB60FB68D31A1B681B6A7A680121F6
S31520024CB0104698471837BD4680BD00BF80B500AF65
S31520024CC001210C4803F030F80A4802F0D5FE0A4BBF
S31520024CD001221A600949074802F0D8FE0849054808
S31520024CE002F0D6FE074802F0B9F9074B184602F041
S31520024CF0FDF980BD00D8022014C8022094EA0220C1
S31520024D008D4C02201CB702204CB70220002A8C466A
S31520024D1073F100012DE93048834618DB6FEA0C0552
S31520024D20C4439D4208BF94420BD2B3F1004F08BF41
S31520024D30012A15D3544263EB4305AC4508BFA3456C
S31520024D400ED31BEB02004CEB0301BDE83088B3F116
S31520024D50004F08BF002AE8D100287CF1000303DBBC
S31520024D60D421034802F048F800304CF10041ECE728
S31520024D7050B702202DE9F843154E002406F1040807
S31520024D803568D8F8007000F079F833689D42A5EBB3
S31520024D90090204F101040FD0012C0BD0012A03D8F9
S31520024DA0032C01D00224EBE700262F463046394653
S31520024DB0BDE8F883A946E3E70022874294BF2B4643
S31520024DC06B1C161843F1000730463946BDE8F883B6
S31520024DD054C802200F4B2DE9004880FB03BCBBF1CF
S31520024DE0000F7CF100030ADB1BF5FA704CF100017F
S31520024DF04FF47A72002304F083F8BDE80088BBF5ED
S31520024E00FA704CF1FF314FF47A72002304F078F8ED
S31520024E10BDE8008880778E0600F05ABF094B10B590
S31520024E201A68926A1269002A08DC1B689C6A0723A0
S31520024E30237200F0C9FC0123237210BD33210248DC
S31520024E4002F008F824C8022060B702204FF0FF3093
S31520024E5000F0ACB9EFF30580C0B2103800F0A6B965
S31520024E60044B054A4FF000711960136843F00203A0
S31520024E701360704704ED00E010E000E0EFF31082CB
S31520024E80012383F310880C4B99681B68DB0306D435
S31520024E900A4B1868401A82F3108800217047074986
S31520024EA008680B6803F5D63303F5D8730B6082F3D3
S31520024EB010880021704700BF10E000E020D80220B1
S31520024EC010B4EFF31081012383F31088114A9468FA
S31520024ED01268D30319D5104C2368226802F5D632FC
S31520024EE002F5D872226081F310886FF000410B4AD6
S31520024EF0884294BF1B185B18136018B9084B4FF0F1
S31520024F0080621A605DF8044B7047034B1B681B1BBB
S31520024F10E9E700BF10E000E020D802201CD80220DA
S31520024F2004ED00E0014B1860FFF79ABF6CD802200F
S31520024F30431C24D0A1F1F1030E2B9CBFC1EB01111E
S31520024F400901104A94BFC9B2002100280346115410
S31520024F50B8BF00F11F03424202F01F0200F01F00F9
S31520024F6058BF50421F289CBF012202FA00F04FEA86
S31520024F706313054A88BF002042F823007047FFF7D3
S31520024F806FBF00BF00E400E000E100E038B572B672
S31520024F901D4A1E491E4D1F4B042010600024052069
S31520024FA05560946010600B60EFF31080012383F349
S31520024FB01088946812680B68D2031ED41B1B80F3D8
S31520024FC01088154A1549164803F10043013B4FF054
S31520024FD0007413600C6000220F2100F0E1F8002219
S31520024FE01021104800F0DCF8002383F3118862B602
S31520024FF0BFF34F8FBFF36F8F38BD0A6802F5D632E3
S3152002500002F5D8720A60DAE710E000E020D8022022
S31520025010AFAD0100B0AD01001CD8022004ED00E0C6
S315200250204D4E0220554E0220013808B505281DD8BE
S31520025030DFE800F0080D121C17030F490F4A10482B
S3152002504001F094FE0F49104A104801F08FFE1049D4
S31520025050104A0E4801F08AFE0F49104A0B4801F009
S3152002506085FE0F490F4A094801F080FE0E490F4A74
S31520025070064801F07BFE00BF94B8022090B70220BA
S3152002508078CE0220A0B7022070B70220A8CE022036
S31520025090E0B7022078B7022024B8022080B7022087
S315200250A05CB8022088B70220D0B8022098B7022026
S315200250B038B57346144D154A154C126CC3F380133A
S315200250C02B7010209047134B19682268914202D008
S315200250D02A781B6892B123685B6BA3F1F1020E2A30
S315200250E09DBFC3EB03131B01DBB2002383F311889D
S315200250F062B6BFF34F8FBFF36F8F38BD002BEAD056
S3152002510002F0D2FBE7E700BF1EC8022024D8022005
S3152002511024C8022028C8022008B50B20FFF784FFE6
S3152002512038B57346194CC3F380132370FFF7A6FED6
S31520025130174A13681B1A002B22DA00F100400138A5
S31520025140144B1060DB6B144D0F209847134B1968D4
S315200251502A68914202D022781B6892B12B685B6B37
S31520025160A3F1F1020E2A9DBFC3EB03131B01DBB28F
S31520025170002383F3118862B6BFF34F8FBFF36F8F7D
S3152002518038BD002BEAD002F08FFBE7E71EC80220CB
S315200251901CD8022024D8022024C8022028C8022093
S315200251A0014B43F82100704724D802202DE9F84FFD
S315200251B0364BDFF8E4901E68D9F80020756BDFF8CD
S315200251C0DC808346013006D0314B13F80B3003F0D6
S315200251D0FF04002B43D1D8F800A096F85570FF247F
S315200251E0FFB2002A46D0904701232146C8F800B0D4
S315200251F0304686F8553000F05BF8B4F5807F1DBF47
S31520025200C4EB04142401E4B2002484F3118862B6A8
S31520025210BFF34F8FBFF36F8F1E4B0BF10102584620
S3152002522053F82230984772B6D9F8003003B198471E
S315200252302946304600F03CF8A5F1F1030E2B9CBF1F
S31520025240C5EB05152D01C8F800A098BFEDB286F86A
S31520025250557088BF002585F31188BDE8F88FD8F8E8
S3152002526000A096F855702409C4F58074FFB2002A6E
S31520025270B9D1B9E70123C8F800B0FF2186F8553025
S31520025280304600F015F81024BFE700BF24C80220DC
S3152002529000E400E06CD8022050C8022020C8022078
S315200252A0014B024A1A60704768D8022048F402204D
S315200252B0436B8B4219D070B4184E41633468A042B6
S315200252C00CD04CB1236C984210D02BB11A6C82426E
S315200252D00DD01346002BF9D170BC7047046C002CFC
S315200252E0FAD0636B8B4204DCF6E770472346026CE6
S315200252F01A64636B8B420BDD224603E05D6B8D42A3
S3152002530003DD1A46136C002BF8D10364106401E006
S3152002531004640446346070BC704700BF28C802206B
S3152002532092F92C30002B08BF012303F18043F0B4FD
S31520025330013B104F57F82360C2E912012EB1D6E97C
S315200253401245A94208BFA0420CD2166547F823206F
S315200253500120F0BC7047D3E912458D4208BF844232
S3152002536003D21E46336D002BF5D11365002032651C
S31520025370F0BC70472CC802202DE9F04F394B3A4C2D
S315200253801B68002283B006460F4615464FF0FF38AB
S315200253904FF0FF396FF0404C002B39D0D3E9120180
S315200253A08F4208BF86423BD393F92C20D3F850A0D4
S315200253B083F85450002A08BF012202EB0C01C3E9EC
S315200253C0128954F821001D6598424FF0010231D00E
S315200253D054F8212042B3586B54F82120526B904244
S315200253E022DC54F82110CDE9006706E09A4223D048
S315200253F0576B586B874203DB11460A6C002AF5D19C
S31520025400DDE900671A640B6453460122002BC5D1DD
S315200254104FF0FF314FF0FF308F4208BF8642C3D292
S31520025420EAB903B0BDE8F08F54F821201A6444F893
S315200254302130E9E75346AFE7186C0864DDE90067D7
S3152002544096469B4640B1436BDEF83420934203DBFB
S315200254500146006C0028F6D15B460246D2E7014A95
S315200254601360DEE72CC8022028C8022090F92C30CF
S31520025470026C416B002B08BF0123DAB110B4546BC6
S315200254808C4202D05DF8044B704703F18043013B06
S31520025490094941F8232051F8232003E0596B8C4215
S315200254A003D11A46136C002BF8D103645DF8044B22
S315200254B010647047704700BF28C802204FF48070DE
S315200254C000217047704700BF036913B1D0E902017A
S315200254D070470020002170472DE9F8431F460369D3
S315200254E01646089A002B3ED0234C436921688142F6
S315200254F036D081694B61436900250BB18169996177
