:020000040800F2
:1000000000000120850F0008150F0008190F0008D7
:100010001D0F0008210F0008250F00080000000038
:10002000000000000000000000000000290F000890
:100030002D0F000800000000310F0008350F0008E8
:10004000D50F0008D50F0008D50F0008D50F000800
:10005000D50F0008D50F0008D50F0008D50F0008F0
:10006000D50F0008D50F0008D50F0008D50F0008E0
:10007000D50F0008D50F0008D50F0008D50F0008D0
:10008000D50F0008D50F0008D50F0008D50F0008C0
:10009000D50F0008D50F0008D50F0008D50F0008B0
:1000A000D50F0008D50F0008D50F0008D50F0008A0
:1000B000D50F00080000000000000000D50F000868
:1000C000D50F0008D50F0008D50F0008D50F000880
:1000D000D50F0008D50F0008D50F0008D50F000870
:1000E000D50F0008D50F0008000000000000000038
:1000F0000000000000000000000000000000000000
:1001000000000000D50F000800000000D50F000817
:100110000000000000000000D50F0008D50F000807
:10012000D50F0008D50F0008D50F0008D50F00081F
:10013000D50F0008000000000000000000000000D3
:10014000D50F0008D50F0008D50F0008D50F0008FF
:10015000D50F0008D50F0008D50F0008D50F0008EF
:10016000D50F0008D50F0008D50F000800000000CB
:10017000D50F0008D50F0008D50F0008D50F0008CF
:10018000D50F0008D50F0008D50F000800000000AB
:1001900010B5054C237833B9044B13B10448AFF3C1
:1001A00000800123237010BD080000200000000023
:1001B00034100008084B10B51BB108490848AFF3CC
:1001C00000800848036803B910BD074B002BFBD023
:1001D000BDE81040184700BF000000000C000020E0
:1001E00034100008080000200000000010B504468C
:1001F000094B1B680948A0FB0330800900F070F828
:1002000038B9002221464FF0FF3000F037F80020C7
:1002100010BD012010BD00BF00000020D34D6210B2
:1002200008B5032000F018F80020FFF7DFFF18B929
:1002300000F058FE002008BD012008BD024A1368E6
:1002400001331360704700BF24000020014B186881
:10025000704700BF24000020074AD36823F4E063FE
:100260001B041B0C000200F4E060184340F0BF6068
:1002700040F40030D060704700ED00E030B4164B21
:10028000DB68C3F30223C3F10704042C28BF042452
:100290001D1D062D01D9DD1E00E00025012303FAF6
:1002A00004F4013C2140A940AB40013B1A400A4301
:1002B000002806DA00F00F001201D2B2074B1A54E0
:1002C00007E01201D2B200F1604000F5614080F811
:1002D000002330BC704700BF00ED00E014ED00E0EB
:1002E0000138B0F1807F0AD2064B5860F021064AEF
:1002F00082F823100020986007221A6070470120BE
:10030000704700BF10E000E000ED00E0F0B583B002
:100310000023B5E001249C40224000F0B0804D68ED
:10032000022D01D0122D10D1DE08083650F826C05B
:1003300003F00705AF000F25BD402CEA050E0D693F
:10034000BD404EEA050540F8265005685F000326CB
:10035000BE40F64305EA060E4D6805F00305BD40B4
:100360004EEA050505604D6805F1FF3EBEF1010F3F
:1003700003D9112D01D0122D10D1856806EA050E82
:10038000CD68BD404EEA05058560456825EA040450
:100390004D68C5F300159D4025434560C46826405F
:1003A0008C68BC403443C4604C6814F0805F66D0F5
:1003B000374C256E45F001052566246E04F00104D6
:1003C0000194019C9E08B51C324C54F8255003F052
:1003D0000304A4000F27A74025EA0707B0F1904FB8
:1003E00010D02D4DA8420FD005F58065A8420DD044
:1003F00005F58065A8420BD005F58065A84209D1B6
:10040000042508E0002506E0012504E0022502E0BD
:10041000032500E0072505FA04F43C4302361D4D90
:1004200045F826401D4C2568D44305EA04064F686C
:1004300017F4803F01D042EA0506184D2E606D6822
:1004400004EA05064F6817F4003F01D042EA0506AA
:10045000124D6E60AD6804EA05064F6817F4801F00
:1004600001D042EA05060D4DAE60ED682C404E68A5
:1004700016F4001F01D042EA0504084AD460013393
:100480000A6832FA03F47FF445AF03B0F0BD00BF51
:100490000010024000000140000400480004014038
:1004A0000AB1816170478162704700BF024B1868D2
:1004B00000F4C060704700BF00700040B0F5007FDE
:1004C00027D11F4B1B6803F4C063B3F5007F30D006
:1004D0001B4A136823F4C06343F400731360194B81
:1004E0001A68322303FB02F3174AA2FB03239B0C77
:1004F000013300E0013B124A526912F4806F01D0CF
:10050000002BF7D10E4B5B6913F4806F13D00320DF
:1005100070470B4B1B6803F4C063B3F5806F0CD0BE
:10052000074A136823F4C06343F480631360002018
:10053000704700207047002070470020704700BFC0
:10054000007000400000002083DE1B4330B583B004
:100550000546204B9B6D13F0805F02D0FFF7A6FF8E
:100560000FE01C4CA36D43F08053A365A36D03F013
:1005700080530193019BFFF799FFA36D23F08053F4
:10058000A365B0F5007F05D1802D0AD9A02D0AD929
:1005900002210FE0802D08D809D0702D09D000214C
:1005A00008E0002106E0012104E0032102E002212D
:1005B00000E00121084A136823F007030B4313608E
:1005C000136803F00703994201D0012000E00020E6
:1005D00003B030BD0010024000200240314A936851
:1005E000D26802F0030213F00C0303D00C2B16D1D7
:1005F000012A14D12B4A126812F0080F05D1294A9A
:10060000D2F89420C2F3032203E0264A1268C2F310
:100610000312254951F8221043B100200DE0042BAC
:1006200006D0082B07D00020014606E0084604E06B
:100630001E48002101E01E4800210C2B30D1194B2F
:10064000DA6802F00302DB68C3F302130133022A03
:1006500002D0032A0AD013E01448B0FBF3F0114B88
:10066000DB68C3F3062303FB00F311E01048B0FB83
:10067000F3F30C4AD268C2F3062202FB03F307E04D
:10068000B1FBF3F3074AD268C2F3062202FB03F37D
:10069000044AD068C0F3416001304000B3FBF0F081
:1006A000704700BF00100240501000080024F40002
:1006B00000127A00002800F0BB82F0B583B0044637
:1006C000A34B9D6805F00C05DE6806F00306036881
:1006D00013F0100F00F0A1801DB10C2D60D1012E80
:1006E0005ED19B4B1B6813F0020F03D0A369002B54
:1006F00000F0A082206A964B1B6813F0080F04D00C
:10070000934B1B6803F0F00305E0914BD3F8943052
:100710001B0903F0F003834217D2FFF717FF0028ED
:1007200040F08A828A4B1A6842F008021A601A68FE
:1007300022F0F001226A0A431A605A6822F47F42CA
:10074000E16942EA01225A6017E0814B1A6842F0DF
:1007500008021A601A6822F0F001226A0A431A603D
:100760005A6822F47F42E16942EA01225A60206A13
:10077000FFF7ECFE002840F06182FFF72FFF744B7B
:100780009B68C3F30313734AD35C03F01F03D84081
:10079000714B18600020FFF729FD00283DD04FE283
:1007A000A36933B36A4A136843F001031360FFF788
:1007B0004DFD074605E0FFF749FDC01B022800F28A
:1007C0004082634B1B6813F0020FF4D0604B1A6831
:1007D00042F008021A601A6822F0F001226A0A4305
:1007E0001A605A6822F47F42E16942EA01225A60A3
:1007F00013E0574A136823F001031360FFF726FD47
:10080000074605E0FFF722FDC01B022800F21B820D
:100810004F4B1B6813F0020FF4D1236813F0010F44
:1008200052D0082D03D00C2D0AD1032E08D1484BED
:100830001B6813F4003F47D06368002B44D104E2E7
:100840006368B3F5803F05D1414A136843F48033B0
:10085000136018E0B3F5A02F0CD103F18043A3F58A
:100860003C331A6842F480221A601A6842F48032DB
:100870001A6008E0364B1A6822F480321A601A684F
:1008800022F480221A6063687BB1FFF7DFFC074621
:1008900005E0FFF7DBFCC01B642800F2D8812C4B7D
:1008A0001B6813F4003FF4D00EE0FFF7CFFC0746BF
:1008B00005E0FFF7CBFCC01B642800F2CF81244B7E
:1008C0001B6813F4003FF4D1236813F0020F50D0DB
:1008D000042D03D00C2D13D1022E11D11C4B1B68FB
:1008E00013F4806F03D0E368002B00F0B981184A3D
:1008F000536823F0F853216943EA0163536038E0F9
:10090000E368E3B1124A136843F480731360FFF79E
:100910009DFC064605E0FFF799FC801B022800F2CB
:10092000A1810B4B1B6813F4806FF4D0084A536805
:1009300023F0F853216943EA0163536019E0044A44
:10094000136823F480731360FFF780FC06460BE006
:10095000001002408010000800000020FFF776FC25
:10096000801B022800F28081BA4B1B6813F4806F51
:10097000F4D1236813F0080F30D06369BBB1B54AD6
:10098000D2F8943043F00103C2F89430FFF75EFCD4
:10099000064605E0FFF75AFC801B022800F266813C
:1009A000AC4BD3F8943013F0020FF3D016E0A94A01
:1009B000D2F8943023F00103C2F89430FFF746FCDC
:1009C000064605E0FFF742FC801B022800F250813A
:1009D000A04BD3F8943013F0020FF3D1236813F037
:1009E000040F7FD09B4B9B6D13F0805F0BD1994B15
:1009F0009A6D42F080529A659B6D03F0805301938B
:100A0000019B012600E00026934B1B6813F4807FB6
:100A100013D1914A136843F480731360FFF716FCF7
:100A2000074605E0FFF712FCC01B022800F22281F6
:100A3000894B1B6813F4807FF4D0A368012B07D186
:100A4000844AD2F8903043F00103C2F890301CE0A1
:100A5000052B0DD17F4BD3F8902042F00402C3F850
:100A60009020D3F8902042F00102C3F890200CE0CF
:100A7000784BD3F8902022F00102C3F89020D3F8ED
:100A8000902022F00402C3F89020A36893B1FFF7EE
:100A9000DDFB074607E0FFF7D9FBC01B41F28833B7
:100AA000984200F2E9806B4BD3F8903013F0020FBC
:100AB000F1D011E0FFF7CAFB074607E0FFF7C6FBDE
:100AC000C01B41F28833984200F2D880614BD3F8C2
:100AD000903013F0020FF1D126B15E4A936D23F0EE
:100AE00080539365236813F0200F30D0636ABBB145
:100AF000584AD2F8983043F00103C2F89830FFF713
:100B0000A5FB064605E0FFF7A1FB801B022800F2CB
:100B1000B780504BD3F8983013F0020FF3D016E0A3
:100B20004C4AD2F8983023F00103C2F89830FFF70E
:100B30008DFB064605E0FFF789FB801B022800F2CB
:100B4000A180444BD3F8983013F0020FF3D1A36A7D
:100B5000002B00F099800C2D00F09880022B42D1E0
:100B60003C4A136823F080731360FFF76FFB054660
:100B700005E0FFF76BFB401B022800F28980354B34
:100B80001B6813F0007FF4D1236B5A1E636B1B02AA
:100B900043EA0212E36A1343E26B5208013A43EA62
:100BA0004253226C5208013A43EA4263A26B43EA81
:100BB000C263284AD360136843F080731360D3681C
:100BC00043F08073D360FFF741FB044604E0FFF776
:100BD0003DFB001B02285DD81E4B1B6813F0007FF5
:100BE000F5D0002059E01B4B1A6822F080721A6081
:100BF0001B6813F0006F04D1164AD36823F0030377
:100C0000D360144AD36823F0887323F48033D3600D
:100C1000FFF71CFB044604E0FFF718FB001B02284B
:100C20003AD80C4B1B6813F0007FF5D1002034E05C
:100C300001207047012030E001202EE001202CE04F
:100C40002BE0032029E0032027E0012025E00320FA
:100C500023E000BF001002400070004003201CE0B1
:100C600001201AE0032018E0032016E0032014E01E
:100C7000032012E0032010E003200EE003200CE02C
:100C800003200AE0032008E0002006E0012004E041
:100C9000032002E0032000E0032003B0F0BD00BF0A
:100CA000002800F0938070B50446504B1B6803F099
:100CB00007038B420BD24D4A136823F007030B4303
:100CC0001360136803F00703994240F081800D46DA
:100CD000236813F0010F35D06368032B05D1444A14
:100CE000126812F0007F14D174E0022B05D1404A43
:100CF000126812F4003F0CD16EE02BB93C4A126826
:100D000012F0020F05D169E0394A126812F4806FBF
:100D100066D037498A6822F0030213438B60FFF7DD
:100D200095FA064606E0FFF791FA801B41F28833F8
:100D3000984257D82E4B9B6803F00C036268B3EBC4
:100D4000820FF0D1236813F0020F06D028498B6878
:100D500023F0F002A36813438B60244B1B6803F05D
:100D600007039D420AD2214A136823F007032B434D
:100D70001360136803F007039D4235D1236813F015
:100D8000040F06D01A498B6823F4E062E36813432A
:100D90008B60236813F0080F07D0154A936823F47B
:100DA0006053216943EAC1039360FFF717FC104BBE
:100DB0009B68C3F303130F4AD35C03F01F03D840AF
:100DC0000D4B18600020FFF711FA70BD012070472D
:100DD000012070BD012070BD012070BD012070BDDB
:100DE000012070BD032070BD012070BD00200240B5
:100DF00000100240801000080000002030B589B0CB
:100E0000002403940494059406940794174BDA6C19
:100E100042F00402DA64DA6C02F004020092009AF2
:100E2000DA6C42F08002DA64DA6C02F0800201923D
:100E3000019ADA6C42F00102DA64DB6C03F0010320
:100E40000293029B0A4D22464FF400512846FFF7B9
:100E500027FB4FF400530393012304930594069456
:100E600003A92846FFF752FA09B030BD001002402E
:100E70000008004830B597B04422002105A800F0D2
:100E8000D1F8002400940194029403940494012264
:100E900005924FF48033069302230F930325109598
:100EA000119214221292072213921493159305A8FB
:100EB000FFF700FC0F230093019502940394049420
:100EC00004216846FFF7ECFE4FF40070FFF7F6FAD6
:100ED00017B030BD08B5FFF7A3F9FFF7CBFFFFF759
:100EE0008DFFFEE782B00A4B1A6E42F001021A66CD
:100EF0001A6E02F001020092009A9A6D42F080523E
:100F00009A659B6D03F080530193019B02B070477B
:100F100000100240704700BFFEE700BFFEE700BFC1
:100F2000FEE700BFFEE700BF704700BF704700BF8D
:100F3000704700BF08B5FFF781F908BD0F49D1F828
:100F4000883043F47003C1F888300D4B1A6842F0C2
:100F500001021A60002098601A6822F0A85222F458
:100F600010221A604FF48052DA601A6822F480224C
:100F70001A6098614FF000638B60704700ED00E0ED
:100F800000100240DFF834D0002103E00C4B5B5826
:100F9000435004310B480C4B42189A42F6D30B4A8B
:100FA00002E0002342F8043B094B9A42F9D3FFF7D1
:100FB000C5FF00F011F8FFF78DFFFEE700000120EC
:100FC000A8100008000000200800002008000020F1
:100FD00028000020FEE7000070B50E4B0E4CE41A0E
:100FE000A41000251E46A54204D056F82530984787
:100FF0000135F8E700F01EF8084C094BE41AA4107C
:1010000000251E46A54204D056F8253098470135E4
:10101000F8E770BD98100008981000089C100008B0
:101020009810000802440346934202D003F8011BC3
:10103000FAE77047F8B500BFF8BC08BC9E46704799
:10104000F8B500BFF8BC08BC9E4670470000000021
:10105000A0860100400D0300801A060000350C0038
:1010600040420F0080841E0000093D0000127A00FB
:101070000024F40000366E010048E801006CDC0238
:101080000000000000000000010203040607080938
:0810900000000000010203044E
:08109800B50100080000000092
:0810A0009101000800000000AE
:0810A80000093D0000000000FA
:0400000508000F855B
:00000001FF
