S01100007378313237365F6E732E7372656318
S31508020000B8C10220AB930208F6930208F6930208D7
S31508020010F693020880B582B000AF07F110033B6081
S3150802002001237B603B469C4600F006F80AF0B0FDC9
S3150802003000F088FB00BFFDE790B583B000AFC7F8B4
S3150802004004C01E4B1B781946002003F04DF86FF3C7
S3150802005003046FF307142146012003F045F8184BF1
S315080200601B781946022003F03FF80023154A4FF081
S315080200704051002002F0F0FF0023124A4FF00051CF
S31508020080012002F0E9FF01236FF070424FF0804130
S31508020090032002F0E1FF01236FF070424FF0604146
S315080200A0042002F0D9FF0223064A0749052002F076
S315080200B0D3FF03F05DF80C37BD4690BDD0BD0208EC
S315080200C0D4BD0208FFFF030000000208F0B583B0A2
S315080200D000AFC7E900017B681B681E467B681C687F
S315080200E07B685D68AC4210DC396823469A1B134666
S315080200F05B0113441B010B444FF40071184608F0C8
S31508020100C5FDAC4201D00134EEE70C37BD46F0BD61
S3150802011080B500AF084B1B7883F00103DBB2002BD6
S3150802012007D1054B00221A7008F050FC08F0A8FE09
S3150802013000E000BF80BD00BF0000022080B500AF0E
S315080201409B4B1B78002B40F0B181994B01221A7008
S31508020150984B4FF0FF321A60974B00221A60974B62
S3150802016062221A70964B43221A70964B20221A70F4
S31508020170954B46221A70954B53221A70944B954A00
S315080201801A60954B00221A60944B4FF0FF321A60A0
S31508020190934B944A1A60944B00221A60934B00229E
S315080201A01A60934B01221A60924B4FF0FF321A6083
S315080201B0914B00221A6000F099F9904B4FF40072A5
S315080201C01A608F4B02221A608E4A8F4B1A600120E0
S315080201D008F0D0FB05F0F6FD8C4B1B881BB20133E9
S315080201E01AB28A4B1A8008F03FFE07F035FC884B94
S315080201F01B881BB201331AB2854B1A8008F0ECF839
S31508020200844B1B881BB201331AB2824B1A80824B6B
S315080202101B881BB201331AB27F4B1A8007F072FB96
S315080202207E4B1B881BB201331AB27C4B1A8008F02C
S315080202307DFB7B4B1B881BB201331AB2784B1A80A3
S3150802024007F04CFB774B1B881BB201331AB2754B6E
S315080202501A8008F029FE744B1B881BB201331AB2A6
S31508020260714B1A8008F032FB08F024FB6F4B1B888F
S315080202701BB201331AB26D4B1A8005F065F96C4B45
S315080202801B881BB201331AB2694B1A8008F0ECFCC0
S31508020290684B1B881BB201331AB2664B1A8006F0EA
S315080202A007F8654B1B881BB201331AB2624B1A80D8
S315080202B006F000FA614B1B881BB201331AB25F4B78
S315080202C01A8006F007F95E4B1B881BB201331AB275
S315080202D05B4B1A8005F026F85A4B1B881BB2013372
S315080202E01AB2584B1A8005F05DF8574B1B881BB299
S315080202F001331AB2544B1A80544B1B881BB2013372
S315080203001AB2524B1A80524B1B881BB201331AB2CD
S315080203104F4B1A804F4B1B881BB201331AB24D4BF7
S315080203201A8004F037FF04F0ADFE4B4B1B881BB254
S3150802033001331AB2484B1A8002F070FE01F038F8FF
S3150802034001F00EF8454B1B881BB201331AB2434B18
S315080203501A80434B1B881BB201331AB2404B1A80D0
S3150802036002F028FE3F4B1B881BB201331AB23D4BE3
S315080203701A8000F0B3FF3C4B1B881BB201331AB23A
S31508020380394B1A80394B1B881BB201331AB2374BC9
S315080203901A80374B1B881BB201331AB2344B1A80A8
S315080203A000F00AFF00F022FA00F014FA62E000BF39
S315080203B000000220E8050220880602209006022094
S315080203C0740602208406022085060220D20502202F
S315080203D080060220F0BD02087C060220E4050220FF
S315080203E06C060220F4BD0208780602208C0602205A
S315080203F064060220600602207006022008380220DF
S3150802040000380220800702200438022088000220D1
S315080204101C06022050060220A0060220140602200C
S31508020420580602200A060220540702205206022013
S315080204307000022092060220D0050220F60502204C
S31508020440D40502205A00022064000220200002205D
S315080204503400022036000220380002201E00022044
S3150802046058000220220002201C000220020002205C
S31508020470040002200E4B1B881BB201331AB20C4B26
S315080204801A800C4B1B881BB201331AB2094B1A800D
S3150802049000F016FF084B1B881BB201331AB2064B33
S315080204A01A8005F085FE05F0E7FF00E000BF80BD73
S315080204B0060002200A0002201600022080B584B037
S315080204C000AF094B7B6007F10803184608F050FA9B
S315080204D0FFF734FEFFF79EFDFFF71AFE08F046FA0D
S315080204E01037BD4680BD00BFE0BD020898B500AF13
S315080204F0034B044C18462146FFF7E8FD98BD00BF9A
S3150802050080070220D8BD020880B483B000AF7860A5
S315080205107B6883F311880C37BD465DF8047B704708
S3150802052080B582B000AFEFF311837B602020FFF71E
S31508020530EBFF7B6800BF18460837BD4680BD00BF83
S31508020540B0B582B000AF786004F0ACFF04460D4641
S31508020550786804F0D7FF02460B462046294604F07F
S3150802056049FF03460C461846214604F0EFFF0837B2
S31508020570BD46B0BDF0B58FB00AAFF860B960C7E93D
S315080205800023FB6800221A60FB6803F593531033B5
S31508020590F0221A60FB6803F5935314334FF4805222
S315080205A01A60FB6803F10802FB681A60FB6803F528
S315080205B0935310331D68FB6803F51C739C46FB684E
S315080205C003F5935314331E68FB68FA681268089297
S315080205D006AC3A4692E8030084E803000A4A059202
S315080205E004930A4B03934FF0FF33029302230193BA
S315080205F04FF000430093002332466146284605F031
S315080206004FFF1437BD46F0BD090002202506020831
S3150802061080B582B000AFC7F804C005F039FF0837C5
S31508020620BD4680BDB0B584B000AF786007F120033F
S31508020630BB6005F02BFF124804F0BEFF00F006FD72
S3150802064000F028FB0346FB730E4B1B78002BF5D0F4
S3150802065000F01AF80B4B00221A70EFE70546012440
S3150802066000BF07F108039C46FFF7D2FF012C03D10E
S315080206702B4618460AF080F800BF1037BD46B0BDB3
S31508020680A00B02200800022090B589B000AF07F13E
S315080206900803184600F0EEF90023BB760C4B1B78CC
S315080206A0FB76022363F307046FF30B246FF30F340D
S315080206B0BC8302233B7102237B71BB88FB8307F150
S315080206C008030021184600F005FA2437BD4690BDF6
S315080206D0401E022080B584B000AF78607B68002B8C
S315080206E003D12F21154807F033F87B68DB8ABB81D3
S315080206F00223FB730123BB733B7B03F00103DBB2CB
S31508020700002B0CD07B7B03F00103DBB2002B03D05A
S315080207100B4802F015F902E0094802F03FF9C82031
S31508020720FFF70EFF786800F047FB03467B607B689D
S3150802073000BF18461037BD4680BD00BFF8BD020887
S315080207405022022080B582B000AF0AF01DFA034695
S31508020750DBB2FF2B03D94221184807F021F8DAB297
S31508020760174B1A70174B1B68184600F055F80246C5
S31508020770144B1A60144B1B68184600F04DF80246D3
S31508020780114B1A6001237B607B68052B10DC0D4B2D
S3150802079018687A6813465B001344DB00183B0B4A59
S315080207A01344194600F076F87B6801337B60EBE761
S315080207B0074804F0F3FE0837BD4680BDF8BD0208B7
S315080207C0401E02200C00022010000220481E0220B1
S315080207D0A00B022080B400AF034B01221A70BD465B
S315080207E05DF8047B704700BF09000220B0B500AF70
S315080207F0054804F0C9FE054C054D22462B46032141
S315080208000448FFF7B7FEB0BDA00B022010BE0208CF
S3150802081008BE0208C80B022080B582B000AF786015
S315080208207B68002B03D10921074806F091FF7B68F4
S315080208307A681A607B687A685A607B6800BF1846CD
S315080208400837BD4680BD00BF1CBE020880B584B00D
S3150802085000AF7860FFF764FE0346BB607B68002B37
S3150802086003D113210A4806F073FF7B681B687A686E
S315080208709A4202D10123FB7301E00023FB73B86895
S31508020880FFF742FEFB7B00BF18461037BD4680BD08
S315080208901CBE020880B584B000AF78603960FFF7E5
S315080208A03FFE0346FB603B68002B03D12F211C4801
S315080208B006F04EFF3B687A681A603B68002B03D144
S315080208C03021174806F044FF7B68002B03D13021FC
S315080208D0134806F03DFF7B685A683B685A607B6896
S315080208E0002B03D131210E4806F032FF7B683A68A5
S315080208F05A603B68002B03D13221094806F028FFCB
S315080209003B685B68002B03D13221054806F020FFBD
S315080209103A681A60F868FFF7F7FD1037BD4680BDDA
S315080209201CBE020880B584B000AF7860FFF7F8FDF8
S315080209300346FB607B68002B03D13B21104806F077
S3150802094007FF7B685B68002B03D13B210C4806F046
S31508020950FFFE7A6812681A607B681B68002B03D14F
S315080209603C21074806F0F4FE7A6852685A60F8682D
S31508020970FFF7CAFD7B6800BF18461037BD4680BD23
S315080209801CBE020880B586B000AFF860B9607A600E
S31508020990FFF7C6FD03467B6100233B61BB68002B5C
S315080209A003D14721144806F0D3FEBB681B687B6057
S315080209B07B68002B03D148210F4806F0C9FE7B68E5
S315080209C01B683B613B69002B03D149210A4806F0A3
S315080209D0BFFE3B69BA685A60BB683A691A607869A9
S315080209E0FFF792FDFB68BA681A60FB687A685A6074
S315080209F0F8681837BD4680BD1CBE020880B586B0A9
S31508020A0000AF7860FFF78CFD0346FB6000237B612D
S31508020A1000233B617B68002B03D18121144806F031
S31508020A2097FE7B681B683B613A697B689A4216D0D7
S31508020A307B696FF00042934203D183210C4806F08A
S31508020A40A7FE7B6901337B613B69002B03D18421B5
S31508020A50074806F07DFE3B691B683B61E4E7F868D8
S31508020A60FFF752FD7B6900BF18461837BD4680BDA1
S31508020A701CBE020880B483B000AF78607B6800228F
S31508020A801A607B6800225A600C37BD465DF8047B03
S31508020A90704700BFF0B583B000AFC7E900017B68B5
S31508020AA01B681E467B681C687B685D68AC420EDC68
S31508020AB0396823469A1B13465B001344DB000B4432
S31508020AC01846FFF7D7FFAC4201D00134F0E70C37DE
S31508020AD0BD46F0BD90B5D1B000AF3B1D18600A46C1
S31508020AE0FB1C1A700023C7F83831654B1B68184679
S31508020AF0FFF7ACFE0346002B614B196807F58C73AA
S31508020B00D7F838211846FFF73DFFD7F818315C4A5F
S31508020B101360D7F81C31C7F838315A4B1B68D7F817
S31508020B2038111846FFF7B6FED7F83831002B03D12D
S31508020B303621554806F00CFE04F0B4FC03460C4672
S31508020B40D7F83821C2E90234D7F8383100221A74A4
S31508020B50D7F838313A1D1268528A5A82D7F838318C
S31508020B603A1D1268928A9A82FB1C1B78002B0CD0BB
S31508020B703B1D1B685B7DC3F30303D9B2D7F8382143
S31508020B80537D61F3030353750AE0404B1B7803F068
S31508020B900F03D9B2D7F83821537D61F3030353758E
S31508020BA0D7F838313A1D1268D28ADA820223C7F890
S31508020BB0343107F10C03364A18461146FF231A4602
S31508020BC007F07AFFD7F838315B8AA7F81431D7F8D5
S31508020BD038319B8AA7F810310223C7F8303104232B
S31508020BE0C7F83C31D7F83831DB8AA7F80C3102232B
S31508020BF0C7F82C3107F10C03C7F82831D7F8283182
S31508020C00B7F814211A8007F10C030233C7F8243106
S31508020C10D7F82431B7F810211A8007F10C030433E8
S31508020C20C7F82031D7F82031B7F80C211A803B1DB6
S31508020C301B681B7DDBB2022B02D0032B04D007E014
S31508020C400623C7F83C3106E00623C7F83C3102E022
S31508020C500423C7F83C3100BF07F10C03D7F83C114F
S31508020C60184609F08DFF094B1B780133DBB203F0F6
S31508020C700F03DAB2054B1A7007F5A277BD4690BD87
S31508020C800C000220100002202CBE020814000220CA
S31508020C90F01E022080B586B000AF00233B61002318
S31508020CA0FB75214A2149224809F076FF0346012BA2
S31508020CB034D11F4B1B78FF2B0CBF01230023DAB25A
S31508020CC01B4B19781B4B1B7899420CBF0123002337
S31508020CD0DBB21343DBB2002B20D0174B19683B1D3E
S31508020CE03A691846FFF74EFE7B68134A1360BB68DB
S31508020CF03B61124B1B6839691846FFF7CBFD0F4B50
S31508020D001B681846FFF77AFE0346FB6039690848EE
S31508020D1000F02EF903463B610123FB75FB7D00BFFC
S31508020D2018461837BD4680BDF4200220F02002205E
S31508020D30F01F0220401E02200C0002201000022092
S31508020D4090B589B000AF786007F108031846FFF737
S31508020D5091FE7B68002B03D17721154806F0F8FC33
S31508020D607B68DB7CDBB2BB76124B1B78FB760123F6
S31508020D7063F307046FF30B246FF30F34BC837B68AA
S31508020D80002B03D17A210A4806F0E2FC7B685B7DD8
S31508020D90C3F30303DAB27B7F62F303037B7707F1BC
S31508020DA0080301211846FFF795FE2437BD4690BD74
S31508020DB02CBE0208401E022090B589B000AF7860AA
S31508020DC007F108031846FFF755FE7B68002B03D187
S31508020DD082211A4806F0BCFC7B68DB7CDBB2BB7658
S31508020DE0174B1B78FB76032363F307046FF30B2475
S31508020DF06FF30F34BC837B685B7DC3F30303DAB2FC
S31508020E007B7F62F303037B777B68DB8AFB8307F1CD
S31508020E10080301211846FFF75DFE7868FFF782FD91
S31508020E2003467B60074B1B6879681846FFF732FD55
S31508020E307B6800BF18462437BD4690BD2CBE020803
S31508020E40401E02200C00022080B586B000AF7860F2
S31508020E5039800023FB6000237B61424B1B68FB60E1
S31508020E60F868FFF7F3FC034683F00103DBB2002BB5
S31508020E7075D0F868FFF7C2FD03463B61FB68002B95
S31508020E8003D19721384806F063FCFB681B687B612F
S31508020E903B69002B63DD7B69002B03D19A2132481B
S31508020EA006F056FC7B68002B03D19A212E4806F0E1
S31508020EB04FFC7B69002B03D19B212B4806F048FC8B
S31508020EC07B68002B03D19C21274806F041FC7B69ED
S31508020ED09B7CDAB27B68DB7CDBB29A420CBF0123CD
S31508020EE00023DAB27B691B7DDBB2022B0CBF01231E
S31508020EF00023DBB21340DAB27B695B7DC3F30303DB
S31508020F00D9B27B685B7DC3F30303DBB299420CBF9C
S31508020F1001230023DBB21340DBB2002B0BD0786926
S31508020F20FFF700FD03467B61104B1B68796918467B
S31508020F30FFF7B0FC13E03B69013B002B03DAA22161
S31508020F40094806F02DFC3B617B69002B03D1A321DE
S31508020F50054806F0FDFB7B691B687B6198E7183735
S31508020F60BD4680BD100002202CBE02080C000220DD
S31508020F7090B58BB000AF7860396002237B6202239A
S31508020F803B620423FB617B68BB617B6802337B613E
S31508020F903B68002B03D1B4212A4806F0D9FB04F09A
S31508020FA081FA03460C463A68C2E90234264B1B68A4
S31508020FB0002B03DB244B1B68FF2B03DDB5212148DD
S31508020FC006F0EEFB204B1B68DAB23B681A743B68E4
S31508020FD0BA6912885A823B687A6912889A827B6948
S31508020FE01B78032B26D801A252F823F0FD0F02081C
S31508020FF00510020809100208231002083868FFF7CC
S315080210009FFE18E000BF16E07B680433FB603B686E
S31508021010FA681288DA823868FFF75CFB03463B6097
S3150802102009E07B6804333B613B6919883868FFF736
S315080210300BFF00E000BF00BF3B6800BF18462C3715
S31508021040BD4690BD2CBE0208F4200220B0B584B07D
S3150802105000AF00237B600023FB604FF47A733B608A
S31508021060524B1B687B607868FFF7F0FB034683F0F8
S315080210700103DBB2002B00F095807868FFF7BEFC0F
S315080210800346BB607B68002B03D1DF21484806F084
S315080210905FFB7B681B68FB60BB68002B40F38280A2
S315080210A0FB68002B03D1E721414806F051FB04F007
S315080210B0F9F9FB68D3E902341A46234604F0CEF955
S315080210C004460D464FF47A7004F01CFA02460B46A3
S315080210D0A242AB4152DAFB68002B03D1E82134481D
S315080210E006F036FBFB681B7DDBB2022B3BD1FB68A5
S315080210F0002B03D1E9212E4806F02AFBFB685B7D0B
S31508021100C3F30313DBB2042B0BD1F868FFF70AFC0F
S315080211100346FB60274B1B68F9681846FFF7BAFBBC
S315080211202CE0FB68002B03D1ED21214806F010FBC9
S31508021130FB685B7DC3F30313DBB20133DBB203F057
S315080211400F03D9B2FA68537D61F307135375FB6827
S31508021150002B03D1EE21164806F0FAFA0121F868A7
S31508021160FFF7B8FC0AE0F868FFF7DCFB0346FB600A
S31508021170104B1B68F9681846FFF78CFBBB68013BE6
S31508021180002B03DAF6210A4806F00AFBBB60FB6865
S31508021190002B03D1F721064806F0DAFAFB681B682A
S315080211A0FB6079E71037BD46B0BD00BF10000220CC
S315080211B02CBE02080C00022098B500AF064B074C5D
S315080211C018462146FFF766FC0548FFF753FC054813
S315080211D0FFF750FC98BD00BF481E02203CBE02081D
S315080211E0C01E0220D81E0220B0B586B000AF7860B5
S315080211F07B68FF21184605F013F81823FB607B6805
S315080212003B61074B7B6107F10C031C46054D2146E2
S315080212102A46FF2004F08CFF1837BD46B0BD00BF32
S315080212207512020844BE020880B584B000AF786021
S315080212307B68FB600D2000F0A1FF0346002B05D05A
S315080212400D2000F0D9FF034B01221A701037BD4654
S3150802125080BD00BF0800022080B582B000AF634699
S31508021260C7F804C01B68184605F00CF80837BD46CF
S3150802127080BD00BFB0B584B000AF786007F1200327
S31508021280FB607B68BB60BB68184604F0D3FFBB688B
S315080212901846FFF7C9FF012407F108039C46FFF722
S315080212A0DBFF012C07D002E005460024F4E72B46B3
S315080212B0184609F061FA00BF1037BD46B0BD00BF37
S315080212C080B500AF0348FFF78FFF034B01221A6070
S315080212D080BD00BFF82002201800022098B500AF92
S315080212E0094B0A4C1846214601F028F908490648CE
S315080212F001F0ECF80749084801F0E8F807490848F8
S3150802130001F0E4F898BD00BF082102204CBE02088D
S31508021310A021022050220220142102201823022092
S315080213202021022080B485B000AF786007F1080357
S31508021330FB607B68BB60094B1B68002B05D0FB680A
S315080213401B6803F18052FB681A60BB6800BF184627
S315080213501437BD465DF8047B704700BFA6930208A2
S3150802136080B582B000AF0E48FFF7DCFF03467B600C
S315080213700C4A3B1D13600B4B1B681B681A460A4B2B
S315080213801A60084B1B681B6803F00303002B03D083
S315080213903121064806F018FA0837BD4680BD00BF57
S315080213A000100240442502204825022084BE020875
S315080213B080B588B000AF6D48FFF7B4FF03463B60BF
S315080213C06B4A3B4613606A4B1B681B681A46694B95
S315080213D01A60674B1B681B6803F00303002B03D0D4
S315080213E04F21654806F0F0F9624B1B68634A536061
S315080213F0624B01221A81624A604B1A605D4B1B6876
S31508021400604A53605F4B02221A815D4A5D4B1A603D
S31508021410584B1B685C4A53605B4B04221A81584A34
S31508021420594B1A60534B1B68584A5360574B08224C
S315080214301A81534A554B1A604E4B1B68544A5360DD
S31508021440534B10221A814E4A514B1A60494B1B685C
S31508021450504A53604F4B20221A81494A4D4B1A6013
S31508021460444B1B684C4A53604B4B40221A81444AF0
S31508021470494B1A603F4B1B68484A5360474B8022C8
S315080214801A813F4A454B1A603A4B1B68444A5360D5
S31508021490434B4FF480721A81394A414B1A60354BD5
S315080214A01B68404A53603F4B4FF400721A81344A14
S315080214B03C4B1A602F4B1B683B4A53603A4B4FF41E
S315080214C080621A812E4A384B1A602A4B1B68374AA1
S315080214D05360364B4FF400621A81294A334B1A601D
S315080214E0244B1B68324A5360314B4FF480521A819F
S315080214F0234A2F4B1A601F4B1B682E4A53602D4BEB
S315080215004FF400521A811E4A2A4B1A60194B1B685D
S31508021510294A5360284B4FF480421A81184A264BAF
S315080215201A60144B1B68254A5360244B4FF4004239
S315080215301A81134A214B1A602148FFF7F3FE034624
S315080215407B60204A3B1D13601E4B1B681B681A46AC
S315080215501D4B1A601B4B1B681B6803F00303002B09
S3150802156034D05021044806F02FF900BF0000024289
S315080215702C21022030210220E8BE02083421022052
S31508021580DCC00208402102204C21022058210220F8
S3150802159064210220702102207C2102208821022057
S315080215A094210220A0210220AC210220B821022087
S315080215B0C4210220D0210220DC210220E8210220B7
S315080215C000040242F4210220F8210220604B1B6823
S315080215D0604A53605F4B01221A815F4A5D4B1A606B
S315080215E05B4B1B685D4A53605C4B02221A815A4A5E
S315080215F05A4B1A60564B1B68594A5360584B042279
S315080216001A81554A564B1A60514B1B68554A536004
S31508021610544B08221A81504A524B1A604C4B1B688B
S31508021620514A5360504B10221A814B4A4E4B1A604C
S31508021630474B1B684D4A53604C4B20221A81464A37
S315080216404A4B1A60424B1B68494A5360484B402230
S315080216501A81414A464B1A603D4B1B68454A5360FC
S31508021660444B80221A813C4A424B1A60384B1B680B
S31508021670414A5360404B4FF480721A81364A3E4BB8
S315080216801A60334B1B683D4A53603C4B4FF4007259
S315080216901A81314A394B1A602D4B1B68384A5360F6
S315080216A0374B4FF480621A812B4A354B1A60284B06
S315080216B01B68344A5360334B4FF400621A81264A38
S315080216C0304B1A60224B1B682F4A53602E4B4FF43D
S315080216D080521A81204A2C4B1A601D4B1B682B4AD2
S315080216E053602A4B4FF400521A811B4A274B1A6041
S315080216F0174B1B68264A5360254B4FF480421A81C2
S31508021700154A234B1A60124B1B68224A5360214B17
S315080217104FF400421A81104A1E4B1A601E48FFF700
S3150802172001FE0346BB601D4A07F1080313601B4B03
S315080217301B681B681A461A4B1A60184B1B681B68EB
S3150802174003F00303002B2FD05121164806F03CF86C
S31508021750F8210220FC210220DCC00208082202200D
S3150802176014220220202202202C22022038220220C1
S3150802177044220220502202205C22022068220220F1
S3150802178074220220802202208C2202209822022021
S31508021790A4220220B022022000080242BC22022011
S315080217A0C0220220E8BE0208604B1B68604A5360EA
S315080217B05F4B01221A815F4A5D4B1A605B4B1B68BD
S315080217C05D4A53605C4B02221A815A4A5A4B1A6086
S315080217D0564B1B68594A5360584B04221A81554A7C
S315080217E0564B1A60514B1B68554A5360544B082294
S315080217F01A81504A524B1A604C4B1B68514A536025
S31508021800504B10221A814B4A4E4B1A60474B1B68A3
S315080218104D4A53604C4B20221A81464A4A4B1A605B
S31508021820424B1B68494A5360484B40221A81414A37
S31508021830464B1A603D4B1B68454A5360444B80220F
S315080218401A813C4A424B1A60384B1B68414A53601C
S31508021850404B4FF480721A81364A3E4B1A60334B1C
S315080218601B683D4A53603C4B4FF400721A81314A59
S31508021870394B1A602D4B1B68384A5360374B4FF465
S3150802188080621A812B4A354B1A60284B1B68344AE8
S315080218905360334B4FF400621A81264A304B1A6062
S315080218A0224B1B682F4A53602E4B4FF480521A81E3
S315080218B0204A2C4B1A601D4B1B682B4A53602A4B35
S315080218C04FF400521A811B4A274B1A60174B1B68A2
S315080218D0264A5360254B4FF480421A81154A234BF8
S315080218E01A60124B1B68224A5360214B4FF400427E
S315080218F01A81104A1E4B1A601E48FFF713FD03464B
S31508021900FB601D4A07F10C0313601B4B1B681B681F
S315080219101A461A4B1A60184B1B681B6803F0030316
S31508021920002B2FD05221164805F04EFFC022022066
S31508021930C4220220DCC00208D0220220DC220220B5
S31508021940E8220220F4220220002302200C2302208D
S315080219501823022024230220302302203C230220BB
S315080219604823022054230220602302206C230220EB
S3150802197078230220000C02428423022088230220B4
S31508021980E8BE0208604B1B68604A53605F4B01223F
S315080219901A815F4A5D4B1A605B4B1B685D4A53604E
S315080219A05C4B02221A815A4A5A4B1A60564B1B68DA
S315080219B0594A5360584B04221A81554A564B1A60A3
S315080219C0514B1B68554A5360544B08221A81504A98
S315080219D0524B1A604C4B1B68514A5360504B1022AB
S315080219E01A814B4A4E4B1A60474B1B684D4A536045
S315080219F04C4B20221A81464A4A4B1A60424B1B68B4
S31508021A00494A5360484B40221A81414A464B1A605A
S31508021A103D4B1B68454A5360444B80221A813C4A17
S31508021A20424B1A60384B1B68414A5360404B4FF48D
S31508021A3080721A81364A3E4B1A60334B1B683D4AFE
S31508021A4053603C4B4FF400721A81314A394B1A6083
S31508021A502D4B1B68384A5360374B4FF480621A8104
S31508021A602B4A354B1A60284B1B68344A5360334B52
S31508021A704FF400621A81264A304B1A60224B1B68C1
S31508021A802F4A53602E4B4FF480521A81204A2C4B10
S31508021A901A601D4B1B682B4A53602A4B4FF400529F
S31508021AA01A811B4A274B1A60174B1B68264A536032
S31508021AB0254B4FF480421A81154A234B1A60124B62
S31508021AC01B68224A5360214B4FF400421A81104A7E
S31508021AD01E4B1A601E48FFF725FC03463B611D4A4A
S31508021AE007F1100313601B4B1B681B681A461A4B37
S31508021AF01A60184B1B681B6803F00303002B2FD0D0
S31508021B005321164805F060FE882302208C23022002
S31508021B10DCC0020898230220A4230220B023022054
S31508021B20BC230220C8230220D4230220E023022059
S31508021B30EC230220F8230220042402201024022087
S31508021B401C240220282402203424022040240220B5
S31508021B50001002424C24022050240220E8BE020849
S31508021B60864B1B68864A5360854B01221A81854A31
S31508021B70834B1A60814B1B68834A5360824B02224D
S31508021B801A81804A804B1A607C4B1B687F4A5360D5
S31508021B907E4B04221A817B4A7C4B1A60774B1B6860
S31508021BA07B4A53607A4B08221A81764A784B1A6026
S31508021BB0724B1B68774A5360764B10221A81714A18
S31508021BC0744B1A606D4B1B68734A5360724B202222
S31508021BD01A816C4A704B1A60684B1B686F4A5360CD
S31508021BE06E4B40221A81674A6C4B1A60634B1B681C
S31508021BF06B4A53606A4B80221A81624A684B1A60A2
S31508021C005E4B1B68674A5360664B4FF480721A81B3
S31508021C105C4A644B1A60594B1B68634A5360624BB1
S31508021C204FF400721A81574A5F4B1A60534B1B686E
S31508021C305E4A53605D4B4FF480621A81514A5B4B90
S31508021C401A604E4B1B685A4A5360594B4FF400624E
S31508021C501A814C4A564B1A60484B1B68554A5360C0
S31508021C60544B4FF480521A81464A524B1A60434BE0
S31508021C701B68514A5360504B4FF400521A81414A2D
S31508021C804D4B1A603D4B1B684C4A53604B4B4FF405
S31508021C9080421A813B4A494B1A60384B1B68484AAC
S31508021CA05360474B4FF400421A81364A444B1A6036
S31508021CB04448FFF737FB03467B61434A07F114039F
S31508021CC01360414B1B681B681A46404B1A603E4B11
S31508021CD01B681B6803F00303002B03D0D3213C487F
S31508021CE005F072FD394B1B6801221946394801F085
S31508021CF051FA3948FFF716FB0346BB61374A07F123
S31508021D0018031360354B1B681B681A46344B1A6056
S31508021D10324B1B681B6803F00303002B03D0D52143
S31508021D202B4805F051FD2E4B1B68012219462D48FA
S31508021D3001F030FA2C48FFF7F5FA0346FB612B4A05
S31508021D4007F11C031360294B1B681B681A46284BAC
S31508021D501A60264B1B681B6803F00303002B03D08B
S31508021D60D7211B4805F030FD214B1B680122194675
S31508021D70204801F00FFA2037BD4680BD50240220C4
S31508021D8054240220DCC00208602402206C240220AB
S31508021D907824022084240220902402209C240220F3
S31508021DA0A8240220B4240220C0240220CC24022023
S31508021DB0D8240220E4240220F0240220FC24022053
S31508021DC00825022000300140142502201825022089
S31508021DD0E8BE02081C2502200038004024250220FD
S31508021DE0282502202C250220003C0040342502200A
S31508021DF0382502203C25022080B58AB000AF03466A
S31508021E00FB710B46BB7113467B71FB797B627B6A5E
S31508021E101F2B03DD3C21904805F0AAFC8F4B80332B
S31508021E201B683B623A6A7B6A012101FA03F38B4912
S31508021E308031096813431946884B80330A461A606B
S31508021E407B6A1F2B03DD3D21834805F091FC834BFA
S31508021E5014331B68FB61FA697B6A012101FA03F3F1
S31508021E60DB431A4079797B6A01FA03F37B49143119
S31508021E70096813431946794B14330A461A607B6A72
S31508021E80112B40F382807B6A142B02DD7B6A162BA8
S31508021E9003DD3F21704805F06BFC704B1B68C3F3EA
S31508021EA04153DAB23B7E62F301033B763B7EC3F3D0
S31508021EB00103DBB21A467B6A153B194601238B409E
S31508021EC0DBB2DB43DBB21340DAB2BB79002B02D0BA
S31508021ED0BB79022B01D1012300E0002303F003039F
S31508021EE0DBB219467B6A153B01FA03F3DBB21343ED
S31508021EF0DAB25A4B1B6802F00302D2B262F35653A5
S31508021F00564A13607B6A142B02DD7B6A162B03DDA5
S31508021F104121514805F02CFC504B04331B68C3F38E
S31508021F204153DAB23B7D62F301033B753B7DC3F352
S31508021F300103DBB21A467B6A153B194601238B401D
S31508021F40DBB2DB43DBB21340DAB2BB79012B02D038
S31508021F50BB79022B01D1012300E0002303F003031E
S31508021F60DBB219467B6A153B01FA03F3DBB213436C
S31508021F70DAB23A4B04331B6802F00302D2B262F3B6
S31508021F805653364A0432136062E07B6A102B03DD2D
S31508021F904421314805F0ECFB304B1B68C3F31002B1
S31508021FA03B6962F310033B613B69C3F310031946AD
S31508021FB07B6A012202FA03F3DB4301EA0302BB79D5
S31508021FC0002B02D0BB79022B01D1012300E00023AA
S31508021FD019467B6A01FA03F31A43204B1B68C2F3BC
S31508021FE0100262F310031D4A13607B6A102B03DD8D
S31508021FF04621194805F0BCFB184B04331B68C3F38A
S315080220001002FB6862F31003FB60FB68C3F310035C
S3150802201019467B6A012202FA03F3DB4301EA030249
S31508022020BB79012B02D0BB79022B01D1012300E037
S31508022030002319467B6A01FA03F31A43074B043352
S315080220401B68C2F3100262F31003044A04321360D7
S315080220502837BD4680BD00BFFCBE020800F4024018
S3150802206080B586B000AF03460A46FB711346BB71BC
S31508022070FB797B617B691F2B03DD66213D4805F0F1
S3150802208077FB3D4B84331B683B613A697B690121C7
S3150802209001FA03F338498431096813431946364B62
S315080220A084330A461A607B69102B03DD672131489F
S315080220B005F05EFB304B1B68C3F31002FB6862F344
S315080220C01003FB60FB68C3F3100319467B69012200
S315080220D002FA03F3DB4301EA0302BB79002B02D0BF
S315080220E0BB79022B01D1012300E0002319467B6943
S315080220F001FA03F31A43204B1B68C2F3100262F378
S3150802210010031D4A13607B69102B03DD69211948E8
S3150802211005F02EFB184B04331B68C3F31002BB6889
S3150802212062F31003BB60BB68C3F3100319467B69ED
S31508022130012202FA03F3DB4301EA0302BB79012B0C
S3150802214002D0BB79022B01D1012300E000231946F4
S315080221507B6901FA03F31A43074B04331B68C2F37C
S31508022160100262F31003044A043213601837BD469C
S3150802217080BD00BFFCBE020800F4024080B582B0F2
S3150802218000AF0346FB71FB79112B14D8FB79102B90
S3150802219003D98921164805F003FB164B0C331B6835
S315080221A0C3F310031A46FB7922FA03F3DBB203F0F0
S315080221B00103DBB216E0FB79142B03D88B210C48FA
S315080221C005F0EEFA0B4B0C331B68C3F34153DBB233
S315080221D01A46FB79153B22FA03F3DBB203F0010335
S315080221E0DBB200BF00BF18460837BD4680BD00BF38
S315080221F0FCBE020800F4024080B584B000AF034674
S31508022200FB71FB79112B24D8FB79102B03D9972163
S31508022210264805F0C5FA264B0C331B68C3F3100291
S31508022220FB6862F31003FB60FB68C3F310031946ED
S31508022230FB79012202FA03F341EA03021C4B0C332F
S315080222401B68C2F3100262F31003194A0C321360B8
S3150802225028E0FB79142B03D89921144805F0A0FA33
S31508022260134B0C331B68C3F34153DAB23B7A62F35E
S3150802227001033B723B7AC3F30103DBB21A46FB79CD
S31508022280153B194601238B40DBB21343DAB2084BDE
S315080222900C331B6802F00302D2B262F35653044AA5
S315080222A00C3213601037BD4680BD00BFFCBE020863
S315080222B000F4024080B582B000AF03460A46FB80AE
S315080222C013467B71FB88802B42D0802B11D8082BB2
S315080222D036D0082B06D8022B2ED0042B2ED0012B53
S315080222E028D047E0202B2FD0402B2FD0102B29D0D7
S315080222F040E0B3F5006F33D0B3F5006F09D8B3F5F4
S31508022300007F29D0B3F5806F28D0B3F5807F21D01E
S3150802231030E0B3F5005F27D0B3F5005F03D8B3F515
S31508022320805F1FD026E0B3F5804F1FD0B3F5004F6C
S315080223301ED01FE0002326E0012324E0022322E028
S31508022340032320E004231EE005231CE006231AE0EB
S31508022350072318E0082316E0092314E00A2312E0EB
S315080223600B2310E00C230EE00D230CE00E230AE0EB
S315080223700F2308E07B79002B03D03521044805F0AA
S31508022380FFF94FF0FF3318460837BD4680BD00BF38
S315080223900CBF020880B483B000AF78600B46FB70AE
S315080223A0FB78002B02D0054A7B681A607B680022FC
S315080223B05A600C37BD465DF8047B7047DCC00208DC
S315080223C090B482B000AF78604FF060034FF000041B
S315080223D0184621460837BD4690BC704780B584B07A
S315080223E000AFF860B9607A60F86806F063FD0346E4
S315080223F01A46BB685A60F86806F078FD03461A461C
S31508022400BB681A811037BD4680BD00BF80B584B04F
S3150802241000AFF860B9607A60BB685968F86806F078
S3150802242083FDBB681B891946F86806F08DFD1037CF
S31508022430BD4680BDB0B586B000AF7860396007F199
S315080224400C0301211846FFF7A5FF07F10C033A68AA
S3150802245019467868FFF7C2FF0C2006F019FC0546F4
S315080224602B461C4607F10C0393E8070084E807008D
S315080224702B4618461837BD46B0BD00BF80B584B096
S3150802248000AFF860B9607A607A68B968F868FFF7E9
S31508022490BDFF1037BD4680BD80B483B000AF7860FB
S315080224A039607B685A683B685B689A4207D17B68E1
S315080224B01A893B681B899A4201D1012300E000234D
S315080224C018460C37BD465DF8047B704790B4ECB0ED
S315080224D000AF3B1D18603B4619603B1D1A683B4618
S315080224E01B689A420DD03B1D1B681C683B1D196868
S315080224F03B461A680B4607CA83E807003B1D1B685A
S315080225001C6007F5D877BD4690BC704780B483B087
S3150802251000AF78600B46FB700C37BD465DF8047B4E
S31508022520704700BF80B483B000AF78600B46FB707B
S315080225300C37BD465DF8047B704700BFF0B583B023
S3150802254000AFC7E900017B681B681E467B681C68EA
S315080225507B685D68AC420FDC396823469A1B1346D2
S315080225605B0013449B000B4401211846FFF712FF38
S31508022570AC4201D00134EFE70C37BD46F0BD00BFCF
S3150802258080B584B000AF7860214B1B7883F00103D5
S31508022590DBB2002B03D052211E4805F009F97B68ED
S315080225A01B8901211846FFF785FE0346002B01DB2E
S315080225B00F2B03DD5321174805F0F2F8FB607B6801
S315080225C05B68002B03D15521124805F0C1F87B68D8
S315080225D05B681B681A46FB685B0022FA03F3DBB2E8
S315080225E003F00303DBB2032B03D95521094805F08F
S315080225F0C7F8002B03D0012B03D1022302E00123E3
S3150802260000E0002300BF18461037BD4680BD00BF54
S31508022610240002201CBF020880B586B000AF78608D
S315080226200B46FB70354B1B7883F00103DBB2002B9C
S3150802263003D06121324805F0BBF87B681B8901216A
S315080226401846FFF737FE0346002B01DB0F2B03DD87
S3150802265066212B4805F0A4F87B61FB78002B02D093
S31508022660FB78022B03D96821254805F089F8FB78FF
S31508022670022B21D17B685B68002B03D16A21204893
S3150802268005F066F87B6859680B461B683B613A6930
S315080226907B695B00184603238340DB431A407B6948
S315080226A05B00184601238340084600681343184610
S315080226B00B4602461A601AE07B685B68002B03D158
S315080226C06C210F4805F044F87B6859680B461B686D
S315080226D0FB60FA687B695B00184603238340DB4389
S315080226E008460068134018460B4602461A6001233C
S315080226F000BF18461837BD4680BD00BF2500022018
S315080227001CBF020880B584B000AF7860294B1B78DD
S3150802271083F00103DBB2002B03D07621264805F0AD
S3150802272047F87B681B8901211846FFF7C3FD034654
S31508022730002B01DB0F2B03DD7A211F4805F030F849
S31508022740FB607B685B68002B03D17C211A4804F086
S31508022750FFFF7B685B680C331B681A46FB685B00E5
S3150802276022FA03F3DBB203F00303DBB2002B01D137
S31508022770002319E07B685B68002B03D17E210E4893
S3150802278004F0E6FF7B685B680C331B681A46FB6835
S315080227905B0022FA03F3DBB203F00303DBB2012B7D
S315080227A001D1012300E0022300BF18461037BD46B7
S315080227B080BD00BF260002201CBF020880B586B075
S315080227C000AF78600B46FB70494B1B7883F0010318
S315080227D0DBB2002B03D08A21464804F0E9FF7B6866
S315080227E01B8901211846FFF765FD0346002B01DB0D
S315080227F00F2B03DD8F213F4804F0D2FF7B61FB7864
S31508022800022B03D991213B4804F0BAFFFB78002B2F
S3150802281002D0012B1ED041E07B685B68002B03D1F6
S315080228209321344804F094FF7B685B6803F10C0239
S3150802283012683A6139697A6952001046032282405F
S31508022840D24303F10C0000680A4010460C330246D4
S315080228501A6046E07B685B68002B03D19521254800
S3150802286004F076FF7B685B6803F10C021268FA6073
S31508022870F9687A695200104603228240D24311400F
S315080228807A69520010460122824003F10C00006860
S315080228900A4310460C3302461A6022E07B685B68DC
S315080228A0002B03D19721134804F052FF7B685B681B
S315080228B003F10C021268BA60B9687A6952001046C6
S315080228C003228240D24311407A69520010460222FC
S315080228D0824003F10C0000680A4310460C33024694
S315080228E01A6000BF012300BF18461837BD4680BDCF
S315080228F0270002201CBF020880B584B000AF7860AA
S315080229007B681B89FB817B685B68002B03D1A4214A
S315080229100A4804F01DFF7B685B6810331B689AB28D
S31508022920FB8913409BB2FA899A420CBF0123002302
S31508022930DBB200BF18461037BD4680BD1CBF020871
S31508022940B0B582B000AF78607868FFF719FE034623
S31508022950022B05D00E4C0F4D2046294605F096FC53
S315080229607B685B68002B03D1BD210B4804F0F0FE9F
S315080229707B685B6818331B687A68128962F30F03EF
S315080229807A685268183213600837BD46B0BD00BF70
S315080229902CBF020860BF02081CBF0208B0B582B08D
S315080229A000AF78607868FFF7EBFD0346022B05D087
S315080229B00E4C0F4D2046294605F068FC7B685B687D
S315080229C0002B03D1D4210B4804F0C2FE7B685B6856
S315080229D018331B687A68128962F31F437A68526849
S315080229E0183213600837BD46B0BD00BF68BF02087B
S315080229F060BF02081CBF0208B0B582B000AF78609B
S31508022A007868FFF7BDFD0346022B05D0154C164D17
S31508022A102046294605F03AFC7B685B68002B03D101
S31508022A20EB21124804F094FE7B685B68002B03D105
S31508022A30EB210E4804F08CFE7B685B6814331B6836
S31508022A4099B27B681A897B685B6814331B684A40AB
S31508022A5092B262F30F037A68526814321360083727
S31508022A60BD46B0BD9CBF020860BF02081CBF020873
S31508022A7080B584B000AF78607B681B89FB817B6870
S31508022A805B68002B04D14FF480710B4804F060FE9A
S31508022A907B685B681C331B689AB2FB8913409BB23E
S31508022AA0FA899A420CBF01230023DBB200BF1846FB
S31508022AB01037BD4680BD00BF1CBF020880B485B072
S31508022AC000AF78600B467B807968788840F480335B
S31508022AD0FB60FB68CB61C861FB68CB61CB69FB60B5
S31508022AE0CB69FB601437BD465DF8047B704700BFAF
S31508022AF0B0B582B000AF6346C7F804C01B68184673
S31508022B00FFF7B6FF034683F00103DBB2002B05D0BD
S31508022B10044C054D2046294605F0B8FB0837BD4644
S31508022B20B0BD00BFD0BF020800C00208B0B584B06D
S31508022B3000AF786007F12003FB607B68BB60194B26
S31508022B401B7883F00103DBB2002B04D04FF4A1718A
S31508022B50154804F02DFEBB681846FFF789FF0346A1
S31508022B60002B05D0114C124D2046294605F08EFB46
S31508022B70BB685B68002B04D14FF4A2710A4804F0C3
S31508022B80E7FDBB685A68BB681B8919461046FFF7FA
S31508022B9095FF07F108039C46FFF7AAFF1037BD46C3
S31508022BA0B0BD00BF280002201CBF020808C00208E8
S31508022BB034C0020880B588B000AF78603960794BB6
S31508022BC01B7883F00103DBB2002B04D04FF4AC71FF
S31508022BD0754804F0EDFD7B681B8901211846FFF74D
S31508022BE069FB0346002B01DB0F2B04DD4FF4AE71A4
S31508022BF06D4804F0D5FDFB617B685B68002B04D148
S31508022C004FF4AF71684804F0A3FD7B685B68303304
S31508022C101B689BB23B833A8BFB69012101FA03F3DA
S31508022C209BB2DB439BB2134099B23B681B799AB2BB
S31508022C30FB6902FA03F39AB27B685B6830331B6856
S31508022C400A4392B262F30F037A685268303213600B
S31508022C507B685B68002B04D140F25F11524804F08E
S31508022C6077FD7B685B681B687B617A69FB695B0039
S31508022C70194603238B40DB431A403B681B781946E7
S31508022C80FB695B0001FA03F379684968096813432B
S31508022C9019467B685B680A461A607B685B68002B84
S31508022CA004D14FF4B071404804F052FD7B685B686A
S31508022CB004331B689BB23B823A8AFB69012101FAFB
S31508022CC003F39BB2DB439BB2134099B23B685B7832
S31508022CD0012B0CBF01230023DBB29AB2FB6902FA6D
S31508022CE003F39AB27B685B6804331B680A4392B2A1
S31508022CF062F30F037A685268043213607B685B6872
S31508022D00002B04D140F26111274804F021FD7B68AB
S31508022D105B6808331B68FB60FA68FB695B00194647
S31508022D2003238B40DB431A403B689B781946FB69B1
S31508022D305B0001FA03F379684968083109681343A5
S31508022D4019467B685B6808330A461A607B685B68C3
S31508022D50002B04D14FF4B171134804F0F9FC7B68D7
S31508022D605B680C331B68BB60BA68FB695B00194673
S31508022D7003238B40DB431A403B68DB781946FB6921
S31508022D805B0001FA03F3796849680C310968134351
S31508022D9019467B685B680C330A461A602037BD46BB
S31508022DA080BD00BF290002201CBF020880B586B07C
S31508022DB000AF78600B46FB703F4B1B7883F001032C
S31508022DC0DBB2002B04D040F277113C4804F0F0FC49
S31508022DD07B681B8901211846FFF76CFA0346002B0C
S31508022DE001DB0F2B04DD40F27B11344804F0D8FCDA
S31508022DF07B617B69072B2DDC7B685B68002B04D122
S31508022E004FF4BF712D4804F0A3FC7B69072B04DD40
S31508022E104FF4BF71294804F0ABFC7B685B6820332A
S31508022E201B683B613A697B699B0019460F238B40F5
S31508022E30DB431A40FB78796989008B4079684968CF
S31508022E4020310968134319467B685B6820330A46B2
S31508022E501A602EE07B685B68002B04D14FF4C071C0
S31508022E60164804F075FC7B69072B04DC4FF4C07125
S31508022E70124804F07DFC7B685B6824331B68FB60A0
S31508022E80FA687B69083B9B0019460F238B40DB4394
S31508022E901A40FB787969083989008B40796849684C
S31508022EA024310968134319467B685B6824330A464A
S31508022EB01A601837BD4680BD2C0002201CBF0208C6
S31508022EC090B583B000AF7860134B1B7883F001038B
S31508022ED0DBB2002B04D04FF4CB71104804F068FC27
S31508022EE07B681B8901211846FFF7E4F903464FEA76
S31508022EF0E374002B74F1000203DB172B74F1000252
S31508022F0004DB4FF4CD71054804F04AFCDBB200BF7E
S31508022F1018460C37BD4690BD2A0002201CBF02087F
S31508022F2090B585B000AF78600B46FB701346BB7050
S31508022F301E4B1B7883F00103DBB2002B04D040F250
S31508022F40A1111B4804F034FC7B681B890121184631
S31508022F50FFF7B0F903464FEAE374002B74F1000257
S31508022F6003DB172B74F1000204DB40F2A7111048A9
S31508022F7004F016FCFB73FB78022B06D8BA78F978AC
S31508022F80FB7B1846FEF738FF0DE0FB78022B04D8C8
S31508022F904FF4D871064804F003FCFA78FB7B114615
S31508022FA01846FFF75DF81437BD4690BD2B00022080
S31508022FB01CBF020880B400AF0F4B01221A700F4BD8
S31508022FC001221A700E4B01221A700E4B01221A7038
S31508022FD00D4B01221A700D4B01221A700C4B01225D
S31508022FE01A700C4B01221A700B4B01221A70BD463D
S31508022FF05DF8047B704700BF2400022025000220EA
S31508023000260002202700022028000220290002208A
S315080230102C0002202A0002202B00022080B500AFD5
S31508023020034804F0CFFC034B184604F013FD80BD99
S315080230306CC00208DCC0020880B582B000AF7860B6
S315080230400B46FB70FB78002B03D07B68184602F010
S31508023050D5F80837BD4680BD80B588B000AFB960DF
S315080230607A601A460346FB731346BB7307F11403C9
S3150802307000211846FFF7E0FF07F11803FB61F8691C
S3150802308002F096F8BB68BB61164B08331B68FA7BDD
S3150802309062F30703134A08321360FB691A68114B75
S315080230A00C331B68C2F35A1262F35F130D4A0C32D1
S315080230B01360BB687B617A697B6813447B617B69B1
S315080230C0BA7B02F00702D2B262F343037B617B69E1
S315080230D043F001037B61034B10337A691A60203788
S315080230E0BD4680BD90ED00E080B586B000AF0346D0
S315080230F03971FB713B793B7207F108037B61FB79F6
S31508023100032B17D8FB79032B03D92C21164804F075
S315080231102FFB164B30331B68FB60FB797A691278F2
S3150802312007F118010B4403F80C2C104B3033FA68DC
S315080231301A6016E0FB79032B03D82E210A4804F0FD
S3150802314017FB0A4B34331B683B61FB797A691278A1
S3150802315007F118010B4403F80C2C044B34333A6973
S315080231601A601837BD4680BD14C1020890ED00E00A
S3150802317080B400AF064B04331B681A46134643F065
S315080231800102034B04331A60BD465DF8047B70479F
S3150802319090ED00E080B485B000AFF860B9601346E0
S315080231A0FB71FB79002B02D0054AFB681A60FB68A3
S315080231B0BA685A601437BD465DF8047B704700BF8B
S315080231C0DCC2020890B482B000AF78604FF04003C8
S315080231D04FF00004184621460837BD4690BC704792
S315080231E080B483B000AF78600B46FB700C37BD46DF
S315080231F05DF8047B704700BF80B582B000AF786087
S3150802320039604E4B1B7883F00103DBB2002B03D0E7
S3150802321048214B4804F0CCFA3B685B78012B03D96A
S315080232204A21474804F0ACFA3B685B78002B14D174
S315080232307B685B681B681A46134643F004027B6880
S315080232405B681A607B685B681B681A46134643F418
S3150802325080727B685B681A600FE07B685B681B6834
S315080232606FF382037A68526813607B685B681B682F
S315080232706FF308237A68526813603B681B78032B3E
S3150802328003D953212E4804F07BFA3B681B78012B9D
S315080232901DD0012B02D3022B34D053E07B685B6826
S315080232A01B686FF3CF337A68526813607B685B6872
S315080232B01B686FF38E337A68526813607B685B68A3
S315080232C01B686FF38A237A685268136056E07B6834
S315080232D05B681B686FF3CF337A68526813607B6842
S315080232E05B681B686FF38E337A68526813607B6873
S315080232F05B681B681A46134643F480627B685B6800
S315080233001A603BE07B685B681B681A46134643F4FF
S3150802331000427B685B681A607B685B681B686FF3B0
S315080233208E337A68526813607B685B681B686FF332
S315080233308A237A685268136020E000BF3A000220A6
S3150802334024C102087B685B681B681A46134643F465
S3150802335000427B685B681A607B685B681B681A4672
S31508023360134643F480427B685B681A607B685B6835
S315080233701B686FF38A237A685268136000BF3B683A
S315080233809B78012B0CBF01230023DAB27B685B68AA
S315080233901B6802F00102D2B262F3CB237A68526842
S315080233A013603B68DB78002B0CBF01230023DAB2DB
S315080233B07B685B681B6802F00102D2B262F34103C2
S315080233C07A68526813603B681B79012B0CBF01238C
S315080233D00023DAB27B685B681B6802F00102D2B28C
S315080233E062F300037A68526813603B685B79002BC4
S315080233F00CBF01230023DAB27B685B681B6802F004
S315080234000102D2B262F349237A68526813603B68B2
S315080234109B791A463C4B9A5C7B685B681B6802F090
S315080234200702D2B262F3C5037A68526813603B6830
S31508023430DB79012B0CBF01230023DAB27B685B68B8
S315080234401B6802F00102D2B262F3C7137A685268A5
S3150802345013603B689A7A7B685B6804331B6802F0E0
S315080234600102D2B262F341037A68526804321360E7
S315080234703B689A7A7B685B6804331B6802F0010230
S31508023480D2B262F3C7137A685268043213603B6891
S31508023490DA7A7B685B6804331B6802F00102D2B2EF
S315080234A062F300037A685268043213603B68DA7A78
S315080234B07B685B6804331B6802F00102D2B262F3CE
S315080234C086137A685268043213603B681A7B7B68F3
S315080234D05B6804331B6802F00102D2B262F30C3352
S315080234E07A685268043213607B685B6810331B681B
S315080234F03A68128962F30F037A68526810321360C7
S315080235000837BD4680BD00BF74C3020880B582B0C5
S3150802351000AF78600B4B1B7883F00103DBB2002BFC
S3150802352003D07D21084804F043F97B685B681B6871
S315080235301A46134643F040027B685B681A600837EE
S31508023540BD4680BD3B00022024C1020880B582B078
S3150802355000AF78600A4B1B7883F00103DBB2002BBD
S3150802356003D08621074804F023F97B685B681B6849
S315080235706FF386137A68526813600837BD4680BDB2
S315080235803C00022024C1020880B582B000AF7860F0
S315080235900A4B1B7883F00103DBB2002B03D08F2181
S315080235A0074804F005F97B685B681B68C3F3801358
S315080235B0DBB200BF18460837BD4680BD3D00022073
S315080235C024C1020880B582B000AF78600B467B80C2
S315080235D00C4B1B7883F00103DBB2002B03D0982136
S315080235E0094804F0E5F87B685B680C331B687A883F
S315080235F062F30F037A6852680C3213600837BD46C5
S3150802360080BD00BF3E00022024C1020880B483B0F8
S3150802361000AF78607B685B680C331B689BB200BF9F
S3150802362018460C37BD465DF8047B704780B584B0F2
S3150802363000AF78600B46FB700A4B1B7883F00103D8
S31508023640DBB2002B03D0AC21074804F0B1F87B6843
S315080236505B680C33FB60FB68FA781A701037BD4654
S3150802366080BD00BF3F00022024C1020880B582B097
S3150802367000AF78607868FFF7C9FF0346FF2B03D9C6
S31508023680B921044804F08CF8DBB200BF18460837A3
S31508023690BD4680BD24C1020880B582B000AF7860FD
S315080236A0786800F02DF80346002B08D0786800F0F9
S315080236B015F8034683F00103DBB2002B05D17868BF
S315080236C000F036F80346002B01D0012300E0002360
S315080236D000BF18460837BD4680BD00BF80B483B018
S315080236E000AF78607B685B6808331B68C3F34003E6
S315080236F0DBB200BF18460C37BD465DF8047B70473F
S3150802370080B483B000AF78607B685B6808331B6857
S31508023710DBB203F00103DBB2002B0CBF012300234B
S31508023720DBB200BF18460C37BD465DF8047B70470E
S3150802373080B483B000AF78607B685B6808331B6827
S31508023740C3F3C013DBB200BF18460C37BD465DF89B
S31508023750047B704780B582B000AF7860184B1B783F
S3150802376083F00103DBB2002B03D0E621154804F0EF
S315080237701FF87B685B681B68DBB203F00403DBB2E5
S31508023780002B14BF01230023DAB27B685B681B682F
S31508023790C3F30723DBB203F00103DBB2002B14BF2A
S315080237A001230023DBB21340DBB2002B01D0002336
S315080237B000E0012300BF18460837BD4680BD00BF9A
S315080237C04200022024C1020880B582B000AF7860A8
S315080237D01A4B1B7883F00103DBB2002B03D0F321CB
S315080237E0174803F0E5FF7B685B681B68C3F307238A
S315080237F0DBB25BB2002B0EDB7B685B681B68C3F32C
S315080238000723DBB203F00403DBB2002B01D100234A
S315080238100FE001230DE07B685B681B68C3F307238F
S31508023820DBB203F04003DBB2002B01D1022300E036
S31508023830032300BF18460837BD4680BD4300022051
S3150802384024C1020880B483B000AF78607B685B68E5
S315080238501B68C3F34033DBB200BF18460C37BD46BC
S315080238605DF8047B704700BF80B483B000AF786010
S315080238707B685B6808331B68C3F30013DBB200BFBF
S3150802388018460C37BD465DF8047B704780B483B092
S3150802389000AF78607B685B6808331B68C3F3401324
S315080238A0DBB200BF18460C37BD465DF8047B70478D
S315080238B080B483B000AF78607B685B6808331B68A6
S315080238C0C3F38013DBB200BF18460C37BD465DF85A
S315080238D0047B704780B483B000AF78607B685B680E
S315080238E008331B68C3F30023DBB200BF18460C3744
S315080238F0BD465DF8047B704780B584B000AF78603A
S315080239000E4B1B7883F00103DBB2002B04D04FF475
S315080239109E710B4803F04CFF07F10803184601F0A5
S3150802392093FC7B685B680C331B68FB817B685B686E
S3150802393008331B68BB601037BD4680BD40000220B5
S3150802394024C1020880B582B000AF7860104B1B789C
S3150802395083F00103DBB2002B04D04FF4A4710D48A7
S3150802396003F026FF7B685B681B686FF34D337A6842
S31508023970526813607B685B681B681A46134643F4F1
S3150802398000527B685B681A600837BD4680BD00BF77
S315080239904100022024C1020880B483B000AF7860D7
S315080239A07B685B681B68C3F3C023DBB200BF18469B
S315080239B00C37BD465DF8047B704700BF80B582B000
S315080239C000AF78600F4B1B7883F00103DBB2002B44
S315080239D004D04FF4AD710C4803F0EAFE7B685B68CD
S315080239E01B68C3F30723DBB203F00803DBB2002B21
S315080239F001D0012300E0002300BF18460837BD4660
S31508023A0080BD00BF4400022024C10208B0B586B0BA
S31508023A1000AFF860C7E90012BB60354B1B7883F02C
S31508023A200103DBB2002B04D04FF4B471314803F022
S31508023A30BFFEF868FFF7C2FF0346002B05D02E4CDF
S31508023A402E4D2046294604F021FCF868FFF7FAFEB7
S31508023A500346002B02D0F868FFF774FFF868FFF7F1
S31508023A60B3FE0346032B09D1FB685B681B681A463B
S31508023A70134643F48042FB685B681A60F868FFF7EE
S31508023A803BFFF868FFF780FD034683F00103DBB2CC
S31508023A90002B02D0F868FFF739FDD7E90012F8685B
S31508023AA001F046F8F868FFF719FE0346002B01D124
S31508023AB000BFF7E7F868FFF73BFE034683F001030A
S31508023AC0DBB2002B01D100BFF4E7F868FFF77CFEF2
S31508023AD00346012B01D0002B02D1F868FFF70CFF31
S31508023AE00023FB75FB7D00BF18461837BD46B0BDDF
S31508023AF04500022024C1020834C1020868C102082E
S31508023B00B0B586B000AFF860C7E90012BB60364BA5
S31508023B101B7883F00103DBB2002B04D040F2991123
S31508023B20324803F045FEF868FFF748FF0346012BC3
S31508023B3005D02F4C2F4D2046294604F0A7FBF868DE
S31508023B40FFF780FE0346002B02D0F868FFF7FAFE5D
S31508023B50F868FFF739FE0346032B09D1FB685B6851
S31508023B601B681A46134643F48042FB685B681A6070
S31508023B70F868FFF7C1FEF868FFF706FD034683F00B
S31508023B800103DBB2002B02D0F868FFF7BFFCD7E9C6
S31508023B900012F86800F0CAFEF868FFF79FFD0346B0
S31508023BA0002B01D100BFF7E7F868FFF7C1FD03460E
S31508023BB083F00103DBB2002B01D100BFF4E7F868FA
S31508023BC0FFF702FE0346012B01D0002B04D1F86849
S31508023BD0FFF792FE0123FB750023FB75FB7D00BFF1
S31508023BE018461837BD46B0BD4600022024C1020851
S31508023BF070C1020868C1020880B584B000AF786057
S31508023C000B46FB70364B1B7883F00103DBB2002BA5
S31508023C1004D04FF4E571334803F0CAFD7B685B684C
S31508023C200C33FB607868FFF70DFE0346002B02D0C3
S31508023C307868FFF787FE7868FFF7C6FD0346032B09
S31508023C4009D17B685B681B681A46134643F48042AF
S31508023C507B685B681A607868FFF796FC034683F010
S31508023C600103DBB2002B02D07868FFF74FFC7B68B2
S31508023C705B681B68C3F30723DBB223F07F03DBB25F
S31508023C80002B09D07B685B681B681A46134643F407
S31508023C9080427B685B681A60FB68FA781A707868F3
S31508023CA0FFF71CFD0346002B01D100BFF7E7786832
S31508023CB0FFF73EFD034683F00103DBB2002B01D179
S31508023CC000BFF4E77868FFF77FFD0346012B01D0B2
S31508023CD0002B02D17868FFF70FFE1037BD4680BD6C
S31508023CE04700022024C10208B0B588B000AFF860C8
S31508023CF0C7E90012BB60544B1B7883F00103DBB2A1
S31508023D00002B04D04FF4FC71504803F051FDF868BB
S31508023D10FFF754FE0346002B05D04D4C4D4D204669
S31508023D20294604F0B3FAFB685B680C33FB61F86852
S31508023D30FFF7E6FC0346002B04D1FB691B78DBB2CE
S31508023D40FB76F4E7F868FFF77DFD0346002B02D001
S31508023D50F868FFF7F7FDF868FFF716FC034683F0E5
S31508023D600103DBB2002B02D0F868FFF7CFFBFB6832
S31508023D705B681B68C3F30723DBB223F07F03DBB25E
S31508023D80002B0DD0F868FFF7E1FBFB685B681B6840
S31508023D906FF38E33FA6852681360F868FFF7B6FB5A
S31508023DA0D7E90012F86800F0F5FFFB685B681B6844
S31508023DB0C3F30723DBB223F07F03DBB2002B1ED04B
S31508023DC0F868FFF7C3FBFB685B681B681A4613466D
S31508023DD043F48042FB685B681A60F868FFF796FB53
S31508023DE0FB685B680C337B61F868FFF789FC03465E
S31508023DF0002B04D17B691B78DBB2FB74F4E7F86805
S31508023E00FFF796FC034683F00103DBB2002B01D1D0
S31508023E1000BFF4E7F868FFF715FD03461C46F86885
S31508023E20FFF722FD03462340DBB2002B04D0F868D5
S31508023E30FFF788FD0123BB740023BB74BB7C00BF5C
S31508023E4018462037BD46B0BD4800022024C10208E4
S31508023E50A4C1020868C10208B0B586B000AFF8600E
S31508023E60C7E90012BB602B4B1B7883F00103DBB258
S31508023E70002B04D040F23E21274803F099FCF8684B
S31508023E80FFF79CFD0346012B05D0244C244D204602
S31508023E90294604F0FBF9F868FFF7D4FC0346002B21
S31508023EA002D0F868FFF74EFDF868FFF76DFB034688
S31508023EB083F00103DBB2002B02D0F868FFF726FB7A
S31508023EC0D7E90012F86800F00BFFF868FFF730FC34
S31508023ED0034683F00103DBB2002B01D100BFF4E7EE
S31508023EE0F868FFF7AFFC03461C46F868FFF7BCFC08
S31508023EF003462340DBB2002B04D0F868FFF722FD05
S31508023F000123FB750023FB75FB7D00BF1846183796
S31508023F10BD46B0BD4A00022024C10208D8C1020823
S31508023F2068C1020890B585B000AF7860364B1B7839
S31508023F3083F00103DBB2002B04D040F25F21334841
S31508023F4003F036FC7B685B680C33FB607868FFF726
S31508023F5079FC0346002B02D07868FFF7F3FC7868F1
S31508023F60FFF712FB034683F00103DBB2002B02D0F4
S31508023F707868FFF7CBFAFB6800221A707868FFF7B1
S31508023F80BFFB034683F00103DBB2002B01D100BF5E
S31508023F90F4E7FB681B78DBB27B727868FFF752FCA2
S31508023FA00346002B0FD07868FFF7AAFB034683F077
S31508023FB00103DBB2002B01D100BFF4E77B685B6823
S31508023FC00C331B687B817868FFF7B2FB034683F0E4
S31508023FD00103DBB2002B01D100BFF4E77868FFF7D3
S31508023FE031FC03461C467868FFF73EFC034623402D
S31508023FF0DBB2002B02D07868FFF7A4FC7B7A00BFFD
S3150802400018461437BD4690BD4B00022024C102084B
S3150802401082B090B58FB002AF7861C7E902127B64AD
S315080240203B4607F1440292E8030083E80300FB6873
S315080240301B68FA6852684549097881F00101C9B2D4
S31508024040002904D040F28D21414803F0B1FB79687A
S315080240500968F9627968486879680968884203DBF9
S3150802406079684968B96203E0796809680139B96209
S315080240707B629A4201DB3A6201E0013B3B62786964
S31508024080FFF7E0FB0346002B02D07869FFF75AFCDC
S315080240907869FFF779FA034683F00103DBB2002B4E
S315080240A002D07869FFF732FA7869FFF775FC03469A
S315080240B0002B0AD0FB6C01937B6800933B68D7E917
S315080240C00212786900F0DAF809E0FB6C01937B6862
S315080240D000933B68D7E90212786900F09BFA78697F
S315080240E0FFF7B0FB0346002B0FD07869FFF708FBF2
S315080240F0034683F00103DBB2002B01D100BFF4E7CC
S315080241007B695B680C331B68FB837869FFF710FBD6
S31508024110034683F00103DBB2002B01D100BFF4E7AB
S315080241207869FFF78FFB03461C467869FFF79CFB05
S3150802413003462340DBB2002B02D07869FFF702FC64
S315080241403437BD46BDE8904002B070474C000220A5
S3150802415024C1020890B585B000AF78600B46FB70A3
S31508024160444B1B7883F00103DBB2002B04D04FF4D7
S315080241702F71414803F01CFB7B685B680C33FB60BC
S315080241807868FFF75FFB0346002B02D07868FFF7D3
S31508024190D9FB7868FFF7F8F9034683F00103DBB227
S315080241A0002B02D07868FFF7B1F97868FFF7F4FBBD
S315080241B00346002B04D04FF433712F4803F0FEFA5E
S315080241C0FB68FA781A707868FFF73CFB0346002BFF
S315080241D009D07B685B681B681A46134643F480520B
S315080241E07B685B681A607868FFF78AFA034683F089
S315080241F00103DBB2002B01D100BFF4E7FB681B7891
S31508024200DBB27B727868FFF71DFB0346002B0FD0E3
S315080242107868FFF775FA034683F00103DBB2002BD1
S3150802422001D100BFF4E77B685B680C331B687B81AE
S315080242307868FFF77DFA034683F00103DBB2002BA9
S3150802424001D100BFF4E77868FFF7FCFA03461C467B
S315080242507868FFF709FB03462340DBB2002B02D03E
S315080242607868FFF76FFB7B7A00BF18461437BD469E
S3150802427090BD00BF4D00022024C1020882B0F0B5ED
S315080242808FB000AF7861C7E902127B653B4607F13A
S31508024290540292E8030083E80300FB681C68FB6883
S315080242A05D68A44B1B7883F00103DBB2002B04D0B4
S315080242B040F2F721A04803F07BFA7B681B68BB62D1
S315080242C07B685A687B681B689A4203DB7B685B6873
S315080242D07B6203E07B681B68013B7B623C62A5420A
S315080242E001DBFD6102E02346013BFB61FB6D3B639B
S315080242F0002C04DA40F2FE218F4803F051FA7C635F
S315080243007B681B68002B04DA40F2FF218A4803F017
S3150802431047FA7B681B68FB627869FFF71BFA034654
S31508024320012B0CBF01230023DBB2002B02D13B6B0E
S31508024330012B3CD17B6B9C4202DC7B6B9D4204DAEF
S3150802434040F203317C4803F013FABA687B6B2146C4
S315080243505B1A1344002B04D140F20331764803F06A
S31508024360F7F9BA687B6B21465B1A1A447B695B6864
S315080243700C331B68128862F30F037A6952680C328F
S3150802438013607B6B6D4A934204DD4FF441716A48B0
S3150802439003F0FEF97B6B02337B633B6B013B002B1D
S315080243A004DA40F20531644803F0FAF93B633B6BE1
S315080243B0002B43D17869FFF745FA0346002B09D04B
S315080243C07B695B681B681A46134643F480527B690D
S315080243D05B681A607869FFF793F9034683F001036D
S315080243E0DBB2002B01D100BFF4E77B681B68FA6ACF
S315080243F09A4204DB7B685B68FA6A9A4204DD4FF4E8
S3150802440045714D4803F0B4F93A68FB6A7968096858
S315080244105B1A1344002B04D14FF44571464803F046
S3150802442097F97B695B680C3318683A68FB6A79689E
S3150802443009685B1A134482B21A80E0E03B6B002BD0
S3150802444040F3A4807869FFF749F90346002B01D1A6
S3150802445000BFF7E77B6B9C4202DC7B6B9D4204DA6A
S3150802446040F22131344803F083F9BA687B6B21465E
S315080244705B1A1344002B04D140F221312E4803F073
S3150802448067F9BA687B6B21465B1A1A447B695B68D3
S315080244900C331B68128862F30F037A6952680C326E
S315080244A013607B6B254A934204DD40F2223122488F
S315080244B003F06EF97B6B02337B633B6B013B002B8C
S315080244C004DA40F223311C4803F06AF93B633B6B7A
S315080244D0002B0CBF01230023DEB27869FFF7B2F97D
S315080244E003463340DBB2002B09D07B695B681B6845
S315080244F01A46134643F480527B695B681A607869E8
S31508024500FFF7FEF8034683F00103DBB2002B01D165
S3150802451000BFF4E77B681B68FA6A9A4204DB7B6889
S315080245205B68FA6A9A420BDD40F22F31024803F0C1
S315080245301FF900BF4E00022024C10208FDFFFF7FBB
S315080245403A68FB6A796809685B1A1344002B04D136
S3150802455040F22F312D4803F0FBF87B695B680C3378
S3150802456018683A68FB6A796809685B1A134482B262
S315080245701A80FB6A264A934204DD40F23131234807
S3150802458003F006F9FB6A0233FB6257E77869FFF71D
S31508024590E1F80346012B32D17869FFF7B1F80346F1
S315080245A083F00103DBB2002B01D100BFF4E77B687D
S315080245B01B68FA6A9A4204DB7B685B68FA6A9A4263
S315080245C004DD40F23B31114803F0D2F83A68FB6A3F
S315080245D0796809685B1A1344002B04D140F23B310F
S315080245E00A4803F0B5F87B695B680C3318683A68C1
S315080245F0FB6A796809685B1A134482B21A803C37E7
S31508024600BD46BDE8F04002B0704700BF24C10208AB
S31508024610FDFFFF7F82B0F0B58FB000AF7861C7E9C2
S3150802462002127B653B4607F1540292E8030083E8CF
S315080246300300FB681C68FB685D68A54B1B7883F062
S315080246400103DBB2002B04D04FF45171A14803F0E9
S31508024650AFF87B681B68BB627B685A687B681B6815
S315080246609A4203DB7B685B687B6203E07B681B68B4
S31508024670013B7B623C62A54201DBFD6102E0234607
S31508024680013BFB61FB6D3B63002C04DA40F24B31C4
S31508024690904803F085F87C637B681B68002B04DA74
S315080246A04FF453718B4803F07BF87B681B68FB62F7
S315080246B07B695B680C33BB617869FFF74BF8034685
S315080246C0012B0CBF01230023DBB2002B02D13B6B6B
S315080246D0012B28D17B6B9C4202DC7B6B9D4204DA60
S315080246E04FF454717B4803F043F8BA68796B3B6A16
S315080246F0CB1AD25CBB691A707B6B6FF0004293428D
S3150802470004D140F25131734803F042F87B6B01330E
S315080247107B633B6B013B002B04DA40F252316D4856
S3150802472003F03EF83B633B6B002B3AD17869FFF7FF
S3150802473089F80346002B09D07B695B681B681A4611
S31508024740134643F480527B695B681A607869FEF700
S31508024750D7FF034683F00103DBB2002B01D100BF6A
S31508024760F4E77B681B68FA6A9A4204DB7B685B6833
S31508024770FA6A9A4204DD4FF45871564802F0F8FF75
S31508024780FB6A002B04DA4FF45871524802F0F8FF1C
S315080247903A681846BB691B78D9B2BB6AC31AD154A0
S315080247A0BBE03B6B002B40F381807869FEF796FFEE
S315080247B00346002B01D100BFF7E77B6B9C4202DC64
S315080247C07B6B9D4204DA40F26A31424802F0D0FF1E
S315080247D0BA68796B3B6ACB1AD25CBB691A707B6B77
S315080247E06FF00042934204D140F26B31394802F02D
S315080247F0CFFF7B6B01337B633B6B013B002B04DAF8
S315080248004FF45B71334802F0CBFF3B633B6B002BE3
S315080248100CBF01230023DEB27869FFF713F80346BB
S315080248203340DBB2002B09D07B695B681B681A46EA
S31508024830134643F480527B695B681A607869FEF70F
S315080248405FFF034683F00103DBB2002B01D100BFF1
S31508024850F4E77B681B68FA6A9A4204DB7B685B6842
S31508024860FA6A9A4204DD4FF45E711A4802F080FF32
S31508024870FB6A002B04DA4FF45E71164802F080FFD9
S315080248803A681846BB691B78D9B2BB6AC31AD154AF
S31508024890FB6A6FF00042934204D140F279310D4827
S315080248A002F076FFFB6A0133FB627AE77869FEF764
S315080248B051FF0346012B30D17869FEF721FF0346E3
S315080248C083F00103DBB2002B06D100BFF4E700BF79
S315080248D04F00022024C102087B681B68FA6A9A42C2
S315080248E004DB7B685B68FA6A9A4204DD40F282312D
S315080248F00D4802F03DFFFB6A002B04DA40F28231D2
S31508024900094802F03DFF3C681D467869FEF7AEFE8F
S3150802491003461A46BB6AEB1AE2543C37BD46BDE863
S31508024920F04002B0704700BF24C102082DE9B04B1F
S3150802493087B000AFF860C7E900127B681C687B681D
S315080249405D68A54210DB28464FEAE071A0464FEAA9
S31508024950E87902460B46B2EB080263EB090312F149
S31508024960010843F1000903E04FF000084FF000097F
S315080249706B4B1B7883F00103DBB2002B04D040F2A9
S315080249808A31684802F014FF22464FEAE273664803
S315080249904FF0000110EB020B41EB030C2A464FEADB
S315080249A0E27393457CEB030304DA40F28E315D48E9
S315080249B002F0F6FE43467B61002C04DA40F28F31A0
S315080249C0584802F0EDFE3C61F868FEF7C3FE03465E
S315080249D0012B0CBF01230023DBB2002B02D17B691A
S315080249E0012B3ED13B699C4202DC3B699D4204DABB
S315080249F040F293314B4802F0BBFE3A683B692146C6
S31508024A005B1A5B001344002B04D140F293314548EC
S31508024A1002F09EFE3A683B6921465B1A5B001A441D
S31508024A20FB685B680C331B68128862F30F03FA682B
S31508024A3052680C3213603B693C4A934204DD4FF4D8
S31508024A406571384802F0A4FE3B6902333B617B6913
S31508024A50013B002B04DA40F29531324802F0A0FEFF
S31508024A607B617B69002B47DDF868FEF737FE034654
S31508024A70002B01D100BFF7E73B699C4202DC3B6988
S31508024A809D4204DA40F29F31264802F071FE3A68E6
S31508024A903B6921465B1A5B001344002B04D140F2A2
S31508024AA09F31204802F054FE3A683B6921465B1A58
S31508024AB05B001A44FB685B680C331B68128862F356
S31508024AC00F03FA6852680C3213603B69174A93421D
S31508024AD004DD4FF46871134802F05AFE3B6902334B
S31508024AE03B617B69013B002B04DA40F2A1310D4898
S31508024AF002F056FE7B61B4E7F868FEF7A3FE0346AA
S31508024B00002B09D0FB685B681B681A46134643F4F8
S31508024B108052FB685B681A601C37BD46BDE8B08BDD
S31508024B205000022024C10208FEFFFF7FFDFFFF7F1F
S31508024B302DE9F04B88B000AFF860C7E900127B6830
S31508024B401C687B685D68A54210DB28464FEAE0715F
S31508024B50A0464FEAE87902460B46B2EB080263EB37
S31508024B60090312F1010843F1000903E04FF00008B6
S31508024B704FF00009574B1B7883F00103DBB2002B79
S31508024B8004D040F2AD31544802F012FE26462246BF
S31508024B904FEAE27351484FF0000110EB020B41EB6A
S31508024BA0030C2A464FEAE27393457CEB030304DAC5
S31508024BB040F2B131484802F0F3FD4346FB61002C4E
S31508024BC004DA40F2B231444802F0EAFDBC61FB68FD
S31508024BD05B680C337B61F868FEF7BCFD0346012B64
S31508024BE00CBF01230023DBB2002B02D1FB69012B88
S31508024BF027D1BB699C4202DCBB699D4204DA40F2BA
S31508024C00B631354802F0B4FD3A68BB699B1BD25CE3
S31508024C107B691A70BB696FF00042934204D140F275
S31508024C20B7312D4802F0B4FDBB690133BB61FB699C
S31508024C30013B002B04DA4FF46E71274802F0B0FDEF
S31508024C40FB61FB69002B30DDF868FEF747FD03467A
S31508024C50002B01D100BFF7E7BB699C4202DCBB69A6
S31508024C609D4204DA40F2C1311B4802F081FD3A68DE
S31508024C70BB699B1BD25C7B691A70BB696FF00042E9
S31508024C80934204D140F2C231134802F081FDBB6956
S31508024C900133BB61FB69013B002B04DA40F2C331E5
S31508024CA00D4802F07DFDFB61CBE7F868FEF7CAFD09
S31508024CB00346002B09D0FB685B681B681A46134635
S31508024CC043F48052FB685B681A602037BD46BDE82C
S31508024CD0F08B00BF5100022024C10208FEFFFF7FAD
S31508024CE02DE9F04186B000AFF860C7E90012274BFC
S31508024CF01B7883F00103DBB2002B04D040F2CF31DC
S31508024D00234802F055FD7B681B681E46F868FEF7C5
S31508024D1021FD0346002B0CBF01230023FB757B688C
S31508024D201C687B685D68AC422CDC3A68A046A8EB36
S31508024D3006035B0013443B61FB7D002B09D0FB682D
S31508024D405B680C331B686FF30F03FA6852680C3200
S31508024D501360F868FEF7D4FC034683F00103DBB25E
S31508024D60002B01D100BFF4E7FB685B680C331A68B5
S31508024D703B6891B2A8EB060223F81210AC4201D0A6
S31508024D800134D2E71837BD46BDE8F0815200022049
S31508024D9024C102082DE9F04188B000AFF860C7E9DE
S31508024DA000122A4B1B7883F00103DBB2002B04D0D6
S31508024DB04FF47971264802F0FBFC7B681B681E4695
S31508024DC0F868FEF7C7FC0346002B0CBF0123002335
S31508024DD0DAB2FB685B681B68C3F30723DBB25BB214
S31508024DE0DB43DBB2DB09DBB21340FB77FB685B68AC
S31508024DF00C33BB617B681C687B685D68AC4221DC4E
S31508024E003A68A046A8EB060313447B61FB7F002B96
S31508024E1002D0BB6900221A70F868FEF771FC0346D5
S31508024E2083F00103DBB2002B01D100BFF4E73A6835
S31508024E30BB691B78D9B2A8EB0603D154AC4201D0A0
S31508024E400134DDE72037BD46BDE8F0815300022074
S31508024E5024C1020882B02DE9F04F97B002AF7863F9
S31508024E60C7E90A12FB6707F1200307F17C0292E8F9
S31508024E70030083E80300FB6A1B683B63FB6A5B6803
S31508024E807B60FB6A5A68FB6A1B689A4212DBFB6AFA
S31508024E905B6819464FEAE172FB6A1B681D464FEAD0
S31508024EA0E5760B4614465B1B64EB06045D1C44F16F
S31508024EB0000603E04FF000054FF000066C4B1B7826
S31508024EC083F00103DBB2002B04D040F2F7316948C4
S31508024ED002F06EFC786BFEF771FD0346002B14BFD9
S31508024EE001230023D8B27B6A5A687B6A1B689A42F6
S31508024EF018DB7B6A5B6819464FEAE172C7E9021258
S31508024F007B6A1B6819464FEAE1720B461446D7E9D3
S31508024F100212C91A62EB04020B461446591C44F1E2
S31508024F20000203E04FF000014FF0000296420ABF6A
S31508024F308D4201230023DBB20343DBB2002B07D0E9
S31508024F404D4B3B614D4B7B61D7E9040103F09EF95A
S31508024F503B6B002B04DA4FF48061464802F020FCD2
S31508024F607B6A1B68002B04DA4FF48061414802F021
S31508024F7017FC7B6A5A687B6A1B689A422EDB7B6A35
S31508024F805B6819464FEAE1727B6A1B681D464FEA5F
S31508024F90E5760B4614465B1B64EB0604002B74F19C
S31508024FA000031BDB7B6A5A687B6A1B689A421ADB18
S31508024FB07B6A5B6819464FEAE1727B6A1B681D4683
S31508024FC04FEAE5760B4614465B1B64EB06042C494E
S31508024FD04FF00002994272EB040304DA4FF480613F
S31508024FE0244802F0DDFB7B6A1B68002B04DA4FF4C7
S31508024FF08061204802F0D4FBBB6A9A463B6B3B644D
S315080250007B687B6407F140039B463B6A98467B6A4A
S315080250101B68BB647B6A5B68FB6407F148039946B5
S315080250207B6A5A687B6A1B689A4207DB7B6A5B68FB
S315080250301A467B6A1B68D31A013300E000230193E0
S31508025040C7E90689FB690093434651465A46786B77
S31508025050FFF7E0FA002387F83F3097F83F3000BFA2
S3150802506018465437BD46BDE8F04F02B0704700BF38
S315080250704900022024C102080CC2020868C10208BB
S31508025080FEFFFF7F80B400AF284B01221A70284B1F
S3150802509001221A70274B01221A70274B01221A7015
S315080250A0264B01221A70264B01221A70254B012221
S315080250B01A70254B01221A70244B01221A70244BAE
S315080250C001221A70234B01221A70234B01221A70ED
S315080250D0224B01221A70224B01221A70214B0122FD
S315080250E01A70214B01221A70204B01221A70204B8A
S315080250F001221A701F4B01221A701F4B01221A70C5
S315080251001E4B01221A701E4B01221A701D4B0122D8
S315080251101A701D4B01221A701C4B01221A701C4B65
S3150802512001221A70BD465DF8047B70473A000220D8
S315080251303B0002203C0002203D0002203E000220E5
S315080251403F000220420002204300022040000220C3
S3150802515041000220440002204500022046000220A7
S3150802516047000220480002204A0002204B00022083
S315080251704C0002204D0002204E0002204F00022061
S315080251805000022051000220520002205300022041
S315080251904900022080B500AF034802F013FC034B16
S315080251A0184602F057FC80BD6CC20208DCC202082F
S315080251B080B483B000AF78607B681B686FF3000326
S315080251C01A467B681A607B681B686FF342031A46A5
S315080251D07B681A607B681B686FF3C4031A467B6890
S315080251E01A607B681B686FF35F131A467B681A603E
S315080251F00C37BD465DF8047B704700BF80B483B0A8
S3150802520000AF78607B681B686FF300031A467B68F9
S315080252101A607B681B686FF343031A467B681A6039
S315080252207B681B686FF304131A467B681A607B68EF
S315080252301B686FF35F131A467B681A600C37BD4604
S315080252405DF8047B704700BF80B483B000AF786016
S315080252507B681B686FF300031A467B681A607B68D3
S315080252601B6843F002031A467B681A607B681B6850
S315080252706FF383031A467B681A607B681B686FF3B1
S3150802528004131A467B681A607B681B686FF345131A
S315080252901A467B681A607B681B686FF386131A4680
S315080252A07B681A607B681B686FF3C7131A467B68AC
S315080252B01A607B681B686FF308231A467B681A60B4
S315080252C07B681B686FF34A231A467B681A607B68F9
S315080252D01B686FF3CC231A467B681A607B681B68C7
S315080252E06FF35F331A467B681A600C37BD465DF862
S315080252F0047B704780B586B000AF78607B681B6810
S315080253007B617B693B613A690C23FB60FB68D31AB4
S315080253101B681B6A7A680121104698471837BD46EA
S3150802532080BD00BF80B500AF01210C4803F0FCF92F
S315080253300A4803F0A1F80A4B01221A6009490748EC
S3150802534003F0A4F80849054803F0A2F8074802F052
S3150802535039FB074B184602F07DFB80BD4C2502201F
S315080253605C000220FC370220F552020890C30208AC
S31508025370C0C3020880B586B000AF78607B681B6838
S315080253807B617B693B613A690C23FB60FB68D31A34
S315080253901B681B6A7A680121104698471837BD466A
S315080253A080BD00BF80B500AF01210C4803F0BCF9EF
S315080253B00A4803F061F80A4B01221A6009490748AC
S315080253C003F064F80849054803F062F8074802F052
S315080253D0F9FA074B184602F03DFB80BD6825022004
S315080253E068000220FC37022075530208D8C3020857
S315080253F008C40208002A8C4673F100012DE93048D8
S31508025400834618DB6FEA0C05C4439D4208BF9442E3
S315080254100BD2B3F1004F08BF012A15D3544263EBEE
S315080254204305AC4508BFA3450ED31BEB02004CEB64
S315080254300301BDE83088B3F1004F08BF002AE8D15E
S3150802544000287CF1000303DBD421034802F088F923
S3150802545000304CF10041ECE70CC40208994208BF3F
S3150802546090422DE9004808D3801A61EB030100280F
S3150802547071F100030EDBBDE80088121A63EB010323
S31508025480B3F1004F08BF012A04D2504263EB43012D
S31508025490BDE8008840F21111014802F061F900BF27
S315080254A00CC402082DE9F843154E002406F1040837
S315080254B03568D8F8007000F09BF833689D42A5EB72
S315080254C0090204F101040FD0012C0BD0012A03D8DA
S315080254D0032C01D00224EBE700262F463046394634
S315080254E0BDE8F883A946E3E70022874294BF2B4624
S315080254F06B1C161843F1000730463946BDE8F88397
