S01100007378313237365F6E732E7372656318
S31520020000008B0320B1870220DE870220DE870220B2
S31520020010DE87022080B582B000AF07F110037B6035
S3152002002001233B603B469C4600F006F809F0ACFFF4
S3152002003000F042FB00BFFDE790B583B000AFC7F8E2
S3152002004004C01E4B1B781946002002F01BFC6FF3DE
S3152002005003046FF307142146012002F013FC184B08
S315200200601B781946022002F00DFC0023154A4FF098
S315200200704051002002F0BEFB0023124A4FF00051ED
S31520020080012002F0B7FB01236FF070424FF080414E
S31520020090032002F0AFFB01236FF070424FF0604164
S315200200A0042002F0A7FB0223064A0749052002F094
S315200200B0A1FB02F02BFC0C37BD4690BD98B0022066
S315200200C09CB00220FFFF030000000208F0B583B0B7
S315200200D000AFC7E900017B681B681E467B681C6867
S315200200E07B685D68AC4210DC396823469A1B13464E
S315200200F05B0113441B010B444FF40071184607F0B1
S31520020100C5FFAC4201D00134EEE70C37BD46F0BD47
S3152002011080B500AF084B1B7883F00103DBB2002BBE
S3152002012007D1054B00221A7007F050FE08F0A8F8F6
S3152002013000E000BF80BD00BF00C8022080B500AF2E
S315200201409B4B1B78002B40F0AA81994B01221A70F7
S31520020150984B4FF0FF321A60974B00221A60974B4A
S3152002016062221A70964B43221A70964B20221A70DC
S31520020170954B46221A70954B53221A70944B954AE8
S315200201801A60954B00221A60944B4FF0FF321A6088
S31520020190934B944A1A60944B00221A60934B002286
S315200201A01A60934B01221A60924B4FF0FF321A606B
S315200201B0914B00221A6000F091F9904B4FF4007295
S315200201C01A608F4B02221A608E4A8F4B1A600120C8
S315200201D007F0D0FD05F024F98C4B1B881BB20133A6
S315200201E01AB28A4B1A8008F03FF806F0F3FE884BC3
S315200201F01B881BB201331AB2854B1A8007F0ECFA20
S31520020200844B1B881BB201331AB2824B1A80824B53
S315200202101B881BB201331AB27F4B1A8006F030FEBE
S315200202207E4B1B881BB201331AB27C4B1A8007F015
S315200202307DFD7B4B1B881BB201331AB2784B1A8089
S3152002024006F00AFE774B1B881BB201331AB2754B96
S315200202501A8008F029F8744B1B881BB201331AB294
S31520020260714B1A8007F032FD07F024FD6F4B1B8875
S315200202701BB201331AB26D4B1A8004F0FFFC6C4B91
S315200202801B881BB201331AB2694B1A8007F0ECFEA7
S31520020290684B1B881BB201331AB2664B1A8005F0D3
S315200202A0C5FA654B1B881BB201331AB2624B1A8000
S315200202B005F0BEFC614B1B881BB201331AB25F4BA1
S315200202C01A8005F0C5FB5E4B1B881BB201331AB29E
S315200202D05B4B1A805B4B1B881BB201331AB2594BFC
S315200202E01A8004F0EDFB584B1B881BB201331AB25D
S315200202F0554B1A8004F024FC544B1B881BB2013345
S315200203001AB2524B1A80524B1B881BB201331AB2B5
S315200203104F4B1A804F4B1B881BB201331AB24D4BDF
S315200203201A804D4B1B881BB201331AB24A4B1A80D4
S3152002033004F0FEFA04F074FA484B1B881BB2013310
S315200203401AB2464B1A8002F037FA00F0FFFB00F091
S31520020350D5FB434B1B881BB201331AB2404B1A8082
S31520020360404B1B881BB201331AB23E4B1A8002F055
S31520020370EFF93D4B1B881BB201331AB23A4B1A8056
S3152002038000F07AFB394B1B881BB201331AB2374B6A
S315200203901A8000F0C7F900F0B9F9354B1B881BB259
S315200203A001331AB2324B1A80324B1B8864E000BFEB
S315200203B000C80220D8CD022078CE022080CE02208C
S315200203C064CE022074CE022075CE0220C2CD022037
S315200203D070CE0220B8B002206CCE0220D4CD0220EC
S315200203E05CCE0220BCB0022068CE02207CCE022047
S315200203F054CE022050CE022060CE0220500103208D
S315200204004801032070CF02204C0103207CC8022021
S315200204100CCE022040CE022090CE022004CE022014
S3152002042048CE0220FACD022044CF022042CE02201C
S3152002043064C8022082CE0220C0CD0220E6CD022050
S31520020440C4CD022002C802204EC8022058C802206B
S3152002045014C8022028C802202AC802202CC802203A
S3152002046012C802204CC8022016C8022010C8022038
S3152002047004C8022008C802201BB201331AB2094B53
S315200204801A8000F0EBFA084B1B881BB201331AB212
S31520020490054B1A8005F04AF905F0ACFA00E000BFD8
S315200204A080BD00BF08C802200AC8022080B584B0D9
S315200204B000AF094B7B6007F10803184607F058FC8A
S315200204C0FFF73CFEFFF7A6FDFFF722FE07F04EFCE4
S315200204D01037BD4680BD00BFA8B0022098B500AF38
S315200204E0034B044C18462146FFF7F0FD98BD00BF8A
S315200204F070CF0220A0B0022080B485B000AF0023C6
S31520020500BB60BB68FF2B20DCBB68FB7300237B60D0
S315200205107B68072B11DC97F90F30002B06DAFB7B61
S315200205205B00DBB283F00703FB7302E0FB7B5B001D
S31520020530FB737B6801337B60EAE7BB680549FA7B7C
S31520020540CA54BB680133BB60DBE71437BD465DF88E
S31520020550047B704790D30220F0B58FB00AAFF860C3
S31520020560B960C7E90023FB6800221A60FB6803F51D
S3152002057093531033F0221A60FB6803F59353143316
S315200205804FF480521A60FB6803F10802FB681A6076
S31520020590FB6803F5935310331D68FB6803F51C7340
S315200205A09C46FB6803F5935314331E68FB68FA686E
S315200205B01268089206AC3A4692E8030084E80300E1
S315200205C00A4A059204930A4B03934FF0FF33029390
S315200205D0022301934FF000430093002332466146E3
S315200205E0284605F01BFA1437BD46F0BD07C802207F
S315200205F00906022080B582B000AFC7F804C005F014
S3152002060005FA0837BD4680BDB0B588B000AF786020
S3152002061007F13003FB604FF47A737B6105F0F4F93E
S31520020620234804F04BFB04F0D7FA03460C46C7E9ED
S31520020630063404F0D1FAD7E9062304F0A9FA0446CF
S315200206400D464FF47A7004F0F7FA02460B46A242A0
S31520020650AB4107DA00F07CF804F0BEFA03460C46FA
S31520020660C7E9063400F090F80346FB74FB7C002BA6
S3152002067001D000F027F90F4B1B78002BD9D000F0C0
S31520020680BFF80C4B00221A70D3E70546012400BF9F
S3152002069007F10C039C46FFF7ADFF012C03D12B4635
S315200206A0184609F05FFA00BF2037BD46B0BD00BF2D
S315200206B090D4022006C8022080B500AF09F060FC63
S315200206C00346DBB2FF2B03D931210C4806F026FB69
S315200206D0DAB20B4B1A700B4B00221A700123FE2B37
S315200206E005DC1946074A002050540133F7E7FFF785
S315200206F003FF054804F0D4FA80BD00BFC0B0022033
S3152002070030E7022034E7022090D4022080B400AFE2
S31520020710034B01221A70BD465DF8047B704700BF69
S3152002072007C80220B0B500AF054804F0AFFA054C61
S31520020730054D22462B4603210448FFF70DFFB0BD87
S3152002074090D40220D8B00220D0B00220B8D4022001
S3152002075080B500AFFF2000F001F880BD80B485B0DF
S3152002076000AF0346FB71FB793B73064B1B787B7309
S315200207700023BB730023FB731437BD465DF8047B4D
S31520020780704700BF30E7022080B582B000AF0A4A28
S315200207900A490B4809F0F0FB0346012B04D100F06D
S315200207A091F80123FB7101E00023FB71FB7900BF65
S315200207B018460837BD4680BD38EA022034EA0220B0
S315200207C034E9022080B584B000AF0346FB710A4BA0
S315200207D0FB600523BB60084AFB791370064B074A68
S315200207E012785A70044B01221A710521024809F027
S315200207F0BFFB1037BD4680BD34E8022030E7022019
S3152002080080B586B000AF144B7B6104233B61012384
S31520020810FB60124BBB6002237B6007233B60104BBD
S315200208201B78002B14D00C4B00221A700A4B0D4A4F
S3152002083012785A70084B02221A71084B02221A7039
S31520020840064B02225A700721034809F091FB00E069
S3152002085000BF1837BD4680BD34E8022039E80220A1
S3152002086034E7022030E7022080B586B000AF124B73
S315200208707B6104233B610123FB60104BBB60022397
S315200208807B6007233B600D4B1B7803F00103DBB231
S31520020890002B0DD0094B5B7803F00103DBB2002B52
S315200208A003D0074801F01AFC02E0054801F044FC97
S315200208B01837BD4680BD00BF34E9022039E902203F
S315200208C094EB022080B582B000AF294B7B600423D3
S315200208D03B60274B1B78FF2B0CBF01230023DAB288
S315200208E0234B1978234B1B7899420CBF01230023F3
S315200208F0DBB21343DBB2002B37D01D4B1B79032B04
S3152002090031D801A252F823F01909022059090220EE
S315200209105D09022063090220154B5B781A46FE2ADE
S3152002092003DD7A21144806F0E1F9144B1B68002BEB
S3152002093003DB124B1B68FF2B03DD7A210E4806F0E0
S31520020940EDF90E4B1B68D9B20D4B9954084B5B78C7
S315200209501846FFF737FF07E000BF05E0FFF784FFE1
S3152002096002E000BF00E000BF00BF0837BD4680BDE1
S3152002097034E9022030E70220E4B0022038EA0220DD
S3152002098034E70220B0B586B000AF78607B68FF21DD
S31520020990184604F003FF1823FB607B683B61074B74
S315200209A07B6107F10C031C46054D21462A46FF2092
S315200209B004F07CFE1837BD46B0BD00BF110A0220E6
S315200209C0F4B0022080B584B000AF78607B68FB600B
S315200209D00D2000F0A1FF0346002B05D00D2000F0CC
S315200209E0D9FF034B01221A701037BD4680BD00BFC6
S315200209F006C8022080B582B000AF6346C7F804C09D
S31520020A001B68184604F0FCFE0837BD4680BD00BFB1
S31520020A10B0B584B000AF786007F12003FB607B6835
S31520020A20BB60BB68184604F0C3FEBB681846FFF7D6
S31520020A30C9FF012407F108039C46FFF7DBFF012CBF
S31520020A4007D002E005460024F4E72B46184609F0B3
S31520020A5089F800BF1037BD46B0BD00BF80B500AFD4
S31520020A600348FFF78FFF034B01221A6080BD00BFA8
S31520020A703CEA02200CC8022098B500AF094B0A4C6A
S31520020A801846214601F028F90849064801F0ECF8F3
S31520020A900749084801F0E8F80749084801F0E4F850
S31520020AA098BD00BF4CEA0220FCB00220E4EA0220F4
S31520020AB094EB022058EA02205CEC022064EA02202F
S31520020AC080B485B000AF786007F10803FB607B68CD
S31520020AD0BB60094B1B68002B05D0FB681B6803F122
S31520020AE08052FB681A60BB6800BF18461437BD46A1
S31520020AF05DF8047B704700BFA687022080B582B0CE
S31520020B0000AF0E48FFF7DCFF03467B600C4A3B1D15
S31520020B1013600B4B1B681B681A460A4B1A60084B5C
S31520020B201B681B6803F00303002B03D03121064800
S31520020B3006F008F90837BD4680BD00BF0010024006
S31520020B4088EE02208CEE022034B1022080B588B0D5
S31520020B5000AF6D48FFF7B4FF03463B606B4A3B4646
S31520020B6013606A4B1B681B681A46694B1A60674BEF
S31520020B701B681B6803F00303002B03D04F21654833
S31520020B8006F0E0F8624B1B68634A5360624B01220F
S31520020B901A81624A604B1A605D4B1B68604A536039
S31520020BA05F4B02221A815D4A5D4B1A60584B1B68C5
S31520020BB05C4A53605B4B04221A81584A594B1A608D
S31520020BC0534B1B68584A5360574B08221A81534A83
S31520020BD0554B1A604E4B1B68544A5360534B102296
S31520020BE01A814E4A514B1A60494B1B68504A536030
S31520020BF04F4B20221A81494A4D4B1A60444B1B689F
S31520020C004C4A53604B4B40221A81444A494B1A6044
S31520020C103F4B1B68484A5360474B80221A813F4A02
S31520020C20454B1A603A4B1B68444A5360434B4FF478
S31520020C3080721A81394A414B1A60354B1B68404AE9
S31520020C4053603F4B4FF400721A81344A3C4B1A6070
S31520020C502F4B1B683B4A53603A4B4FF480621A81F2
S31520020C602E4A384B1A602A4B1B68374A5360364B3A
S31520020C704FF400621A81294A334B1A60244B1B68AF
S31520020C80324A5360314B4FF480521A81234A2F4BFA
S31520020C901A601F4B1B682E4A53602D4B4FF400528D
S31520020CA01A811E4A2A4B1A60194B1B68294A53601D
S31520020CB0284B4FF480421A81184A264B1A60144B4D
S31520020CC01B68254A5360244B4FF400421A81134A6B
S31520020CD0214B1A602148FFF7F3FE03467B60204A28
S31520020CE03B1D13601E4B1B681B681A461D4B1A6060
S31520020CF01B4B1B681B6803F00303002B34D05021C7
S31520020D00044806F01FF800BF0000024270EA0220E3
S31520020D1074EA022098B1022078EA02208CB30220DB
S31520020D2084EA022090EA02209CEA0220A8EA022013
S31520020D30B4EA0220C0EA0220CCEA0220D8EA022043
S31520020D40E4EA0220F0EA0220FCEA022008EB022072
S31520020D5014EB022020EB02202CEB0220000402429C
S31520020D6038EB02203CEB0220604B1B68604A536042
S31520020D705F4B01221A815F4A5D4B1A605B4B1B68EF
S31520020D805D4A53605C4B02221A815A4A5A4B1A60B8
S31520020D90564B1B68594A5360584B04221A81554AAE
S31520020DA0564B1A60514B1B68554A5360544B0822C6
S31520020DB01A81504A524B1A604C4B1B68514A536057
S31520020DC0504B10221A814B4A4E4B1A60474B1B68D6
S31520020DD04D4A53604C4B20221A81464A4A4B1A608E
S31520020DE0424B1B68494A5360484B40221A81414A6A
S31520020DF0464B1A603D4B1B68454A5360444B802242
S31520020E001A813C4A424B1A60384B1B68414A53604E
S31520020E10404B4FF480721A81364A3E4B1A60334B4E
S31520020E201B683D4A53603C4B4FF400721A81314A8B
S31520020E30394B1A602D4B1B68384A5360374B4FF497
S31520020E4080621A812B4A354B1A60284B1B68344A1A
S31520020E505360334B4FF400621A81264A304B1A6094
S31520020E60224B1B682F4A53602E4B4FF480521A8115
S31520020E70204A2C4B1A601D4B1B682B4A53602A4B67
S31520020E804FF400521A811B4A274B1A60174B1B68D4
S31520020E90264A5360254B4FF480421A81154A234B2A
S31520020EA01A60124B1B68224A5360214B4FF40042B0
S31520020EB01A81104A1E4B1A601E48FFF701FE03468E
S31520020EC0BB601D4A07F1080313601B4B1B681B6896
S31520020ED01A461A4B1A60184B1B681B6803F0030349
S31520020EE0002B2FD05121164805F02CFF3CEB022077
S31520020EF040EB02208CB302204CEB022058EB02205E
S31520020F0064EB022070EB02207CEB022088EB0220AD
S31520020F1094EB0220A0EB0220ACEB0220B8EB0220DD
S31520020F20C4EB0220D0EB0220DCEB0220E8EB02200D
S31520020F30F4EB02200008024200EC022004EC02201C
S31520020F4098B10220604B1B68604A53605F4B0122B6
S31520020F501A815F4A5D4B1A605B4B1B685D4A536080
S31520020F605C4B02221A815A4A5A4B1A60564B1B680C
S31520020F70594A5360584B04221A81554A564B1A60D5
S31520020F80514B1B68554A5360544B08221A81504ACA
S31520020F90524B1A604C4B1B68514A5360504B1022DD
S31520020FA01A814B4A4E4B1A60474B1B684D4A536077
S31520020FB04C4B20221A81464A4A4B1A60424B1B68E6
S31520020FC0494A5360484B40221A81414A464B1A608D
S31520020FD03D4B1B68454A5360444B80221A813C4A4A
S31520020FE0424B1A60384B1B68414A5360404B4FF4C0
S31520020FF080721A81364A3E4B1A60334B1B683D4A31
S3152002100053603C4B4FF400721A81314A394B1A60B5
S315200210102D4B1B68384A5360374B4FF480621A8136
S315200210202B4A354B1A60284B1B68344A5360334B84
S315200210304FF400621A81264A304B1A60224B1B68F3
S315200210402F4A53602E4B4FF480521A81204A2C4B42
S315200210501A601D4B1B682B4A53602A4B4FF40052D1
S315200210601A811B4A274B1A60174B1B68264A536064
S31520021070254B4FF480421A81154A234B1A60124B94
S315200210801B68224A5360214B4FF400421A81104AB0
S315200210901E4B1A601E48FFF713FD0346FB601D4ACE
S315200210A007F10C0313601B4B1B681B681A461A4B6D
S315200210B01A60184B1B681B6803F00303002B2FD002
S315200210C05221164805F03EFE04EC022008EC0220CE
S315200210D08CB3022014EC022020EC02202CEC0220FD
S315200210E038EC022044EC022050EC02205CEC022078
S315200210F068EC022074EC022080EC02208CEC0220A8
S3152002110098EC0220A4EC0220B0EC0220BCEC0220D7
S31520021110000C0242C8EC0220CCEC022098B102203C
S31520021120604B1B68604A53605F4B01221A815F4AFB
S315200211305D4B1A605B4B1B685D4A53605C4B022217
S315200211401A815A4A5A4B1A60564B1B68594A53609F
S31520021150584B04221A81554A564B1A60514B1B682A
S31520021160554A5360544B08221A81504A524B1A60F0
S315200211704C4B1B68514A5360504B10221A814B4AE2
S315200211804E4B1A60474B1B684D4A53604C4B2022EC
S315200211901A81464A4A4B1A60424B1B68494A536097
S315200211A0484B40221A81414A464B1A603D4B1B68E6
S315200211B0454A5360444B80221A813C4A424B1A606C
S315200211C0384B1B68414A5360404B4FF480721A8158
S315200211D0364A3E4B1A60334B1B683D4A53603C4BA2
S315200211E04FF400721A81314A394B1A602D4B1B6813
S315200211F0384A5360374B4FF480621A812B4A354B5B
S315200212001A60284B1B68344A5360334B4FF40062F2
S315200212101A81264A304B1A60224B1B682F4A53608A
S315200212202E4B4FF480521A81204A2C4B1A601D4BAA
S315200212301B682B4A53602A4B4FF400521A811B4AD1
S31520021240274B1A60174B1B68264A5360254B4FF4CF
S3152002125080421A81154A234B1A60124B1B68224A76
S315200212605360214B4FF400421A81104A1E4B1A60DA
S315200212701E48FFF725FC03463B611D4A07F1100372
S3152002128013601B4B1B681B681A461A4B1A60184BB5
S315200212901B681B6803F00303002B2FD0532116482B
S315200212A005F050FDCCEC0220D0EC02208CB30220BB
S315200212B0DCEC0220E8EC0220F4EC022000ED022015
S315200212C00CED022018ED022024ED022030ED022042
S315200212D03CED022048ED022054ED022060ED022072
S315200212E06CED022078ED022084ED022000100242ED
S315200212F090ED022094ED022098B10220864B1B68C5
S31520021300864A5360854B01221A81854A834B1A608D
S31520021310814B1B68834A5360824B02221A81804A80
S31520021320804B1A607C4B1B687F4A53607E4B04229B
S315200213301A817B4A7C4B1A60774B1B687B4A536027
S315200213407A4B08221A81764A784B1A60724B1B68AE
S31520021350774A5360764B10221A81714A744B1A606F
S315200213606D4B1B68734A5360724B20221A816C4A5A
S31520021370704B1A60684B1B686F4A53606E4B402253
S315200213801A81674A6C4B1A60634B1B686B4A53601F
S315200213906A4B80221A81624A684B1A605E4B1B682E
S315200213A0674A5360664B4FF480721A815C4A644BDB
S315200213B01A60594B1B68634A5360624B4FF40072A2
S315200213C01A81574A5F4B1A60534B1B685E4A536019
S315200213D05D4B4FF480621A81514A5B4B1A604E4B29
S315200213E01B685A4A5360594B4FF400621A814C4A81
S315200213F0564B1A60484B1B68554A5360544B4FF460
S3152002140080521A81464A524B1A60434B1B68514AF4
S315200214105360504B4FF400521A81414A4D4B1A6089
S315200214203D4B1B684C4A53604B4B4FF480421A810A
S315200214303B4A494B1A60384B1B68484A5360474B14
S315200214404FF400421A81364A444B1A604448FFF749
S3152002145037FB03467B61434A07F114031360414B72
S315200214601B681B681A46404B1A603E4B1B681B685A
S3152002147003F00303002B03D0D3213C4805F062FC82
S31520021480394B1B6801221946394801F051FA39486D
S31520021490FFF716FB0346BB61374A07F118031360B1
S315200214A0354B1B681B681A46344B1A60324B1B6835
S315200214B01B6803F00303002B03D0D5212B4805F02C
S315200214C041FC2E4B1B68012219462D4801F030FAA9
S315200214D02C48FFF7F5FA0346FB612B4A07F11C035A
S315200214E01360294B1B681B681A46284B1A60264B29
S315200214F01B681B6803F00303002B03D0D7211B486C
S3152002150005F020FC214B1B6801221946204801F0D8
S315200215100FFA2037BD4680BD94ED022098ED0220B9
S315200215208CB30220A4ED0220B0ED0220BCED0220F5
S31520021530C8ED0220D4ED0220E0ED0220ECED0220DF
S31520021540F8ED022004EE022010EE02201CEE02200C
S3152002155028EE022034EE022040EE02204CEE02203B
S315200215600030014058EE02205CEE022098B10220A3
S3152002157060EE02200038004068EE02206CEE022067
S3152002158070EE0220003C004078EE02207CEE022023
S3152002159080EE022080B58AB000AF0346FB710B466F
S315200215A0BB7113467B71FB797B627B6A1F2B03DD42
S315200215B03C21904805F09AFB8F4B80331B683B6297
S315200215C03A6A7B6A012101FA03F38B498031096861
S315200215D013431946884B80330A461A607B6A1F2BAF
S315200215E003DD3D21834805F081FB834B14331B68C1
S315200215F0FB61FA697B6A012101FA03F3DB431A4094
S3152002160079797B6A01FA03F37B491431096813431A
S315200216101946794B14330A461A607B6A112B40F31A
S3152002162082807B6A142B02DD7B6A162B03DD3F2127
S31520021630704805F05BFB704B1B68C3F34153DAB26B
S315200216403B7E62F301033B763B7EC3F30103DBB2AF
S315200216501A467B6A153B194601238B40DBB2DB43D4
S31520021660DBB21340DAB2BB79002B02D0BB79022B54
S3152002167001D1012300E0002303F00303DBB2194664
S315200216807B6A153B01FA03F3DBB21343DAB25A4BF8
S315200216901B6802F00302D2B262F35653564A136013
S315200216A07B6A142B02DD7B6A162B03DD412151480E
S315200216B005F01CFB504B04331B68C3F34153DAB2CB
S315200216C03B7D62F301033B753B7DC3F30103DBB232
S315200216D01A467B6A153B194601238B40DBB2DB4354
S315200216E0DBB21340DAB2BB79012B02D0BB79022BD3
S315200216F001D1012300E0002303F00303DBB21946E4
S315200217007B6A153B01FA03F3DBB21343DAB23A4B97
S3152002171004331B6802F00302D2B262F35653364AEE
S315200217200432136062E07B6A102B03DD44213148C8
S3152002173005F0DCFA304B1B68C3F310023B6962F3F7
S3152002174010033B613B69C3F3100319467B6A0122EE
S3152002175002FA03F3DB4301EA0302BB79002B02D030
S31520021760BB79022B01D1012300E0002319467B6AB3
S3152002177001FA03F31A43204B1B68C2F3100262F3E9
S3152002178010031D4A13607B6A102B03DD462119487C
S3152002179005F0ACFA184B04331B68C3F31002FB683E
S315200217A062F31003FB60FB68C3F3100319467B6ADE
S315200217B0012202FA03F3DB4301EA0302BB79012B7E
S315200217C002D0BB79022B01D1012300E00023194666
S315200217D07B6A01FA03F31A43074B04331B68C2F3ED
S315200217E0100262F31003044A043213602837BD46FE
S315200217F080BD00BFACB1022000F4024080B586B0A5
S3152002180000AF03460A46FB711346BB71FB797B6127
S315200218107B691F2B03DD66213D4805F067FA3D4BA8
S3152002182084331B683B613A697B69012101FA03F320
S3152002183038498431096813431946364B84330A469C
S315200218401A607B69102B03DD6721314805F04EFAB9
S31520021850304B1B68C3F31002FB6862F31003FB6074
S31520021860FB68C3F3100319467B69012202FA03F3CC
S31520021870DB4301EA0302BB79002B02D0BB79022BA0
S3152002188001D1012300E0002319467B6901FA03F303
S315200218901A43204B1B68C2F3100262F310031D4A3F
S315200218A013607B69102B03DD6921194805F01EFAA6
S315200218B0184B04331B68C3F31002BB6862F3100390
S315200218C0BB60BB68C3F3100319467B69012202FA87
S315200218D003F3DB4301EA0302BB79012B02D0BB7976
S315200218E0022B01D1012300E0002319467B6901FA6C
S315200218F003F31A43074B04331B68C2F3100262F345
S315200219001003044A043213601837BD4680BD00BF57
S31520021910ACB1022000F4024080B582B000AF03468B
S31520021920FB71FB79112B14D8FB79102B03D9892152
S31520021930164805F0F3F9164B0C331B68C3F3100354
S315200219401A46FB7922FA03F3DBB203F00103DBB278
S3152002195016E0FB79142B03D88B210C4805F0DEF90F
S315200219600B4B0C331B68C3F34153DBB21A46FB798C
S31520021970153B22FA03F3DBB203F00103DBB200BF0D
S3152002198000BF18460837BD4680BD00BFACB1022055
S3152002199000F4024080B584B000AF0346FB71FB79A8
S315200219A0112B24D8FB79102B03D99721264805F031
S315200219B0B5F9264B0C331B68C3F31002FB6862F39E
S315200219C01003FB60FB68C3F310031946FB7901225F
S315200219D002FA03F341EA03021C4B0C331B68C2F3DF
S315200219E0100262F31003194A0C32136028E0FB79C5
S315200219F0142B03D89921144805F090F9134B0C3374
S31520021A001B68C3F34153DAB23B7A62F301033B729A
S31520021A103B7AC3F30103DBB21A46FB79153B19461F
S31520021A2001238B40DBB21343DAB2084B0C331B681B
S31520021A3002F00302D2B262F35653044A0C32136006
S31520021A401037BD4680BD00BFACB1022000F4024073
S31520021A5080B582B000AF03460A46FB8013467B71EF
S31520021A60FB88802B42D0802B11D8082B36D0082B0E
S31520021A7006D8022B2ED0042B2ED0012B28D047E0BD
S31520021A80202B2FD0402B2FD0102B29D040E0B3F57E
S31520021A90006F33D0B3F5006F09D8B3F5007F29D094
S31520021AA0B3F5806F28D0B3F5807F21D030E0B3F52F
S31520021AB0005F27D0B3F5005F03D8B3F5805F1FD050
S31520021AC026E0B3F5804F1FD0B3F5004F1ED01FE09E
S31520021AD0002326E0012324E0022322E0032320E040
S31520021AE004231EE005231CE006231AE0072318E040
S31520021AF0082316E0092314E00A2312E00B2310E040
S31520021B000C230EE00D230CE00E230AE00F2308E03F
S31520021B107B79002B03D03521044805F0EFF84FF0EE
S31520021B20FF3318460837BD4680BD00BFBCB1022030
S31520021B3080B483B000AF78600B46FB70FB78002B35
S31520021B4002D0054A7B681A607B6800225A600C37ED
S31520021B50BD465DF8047B70478CB3022090B482B0F8
S31520021B6000AF78604FF060034FF00004184621461C
S31520021B700837BD4690BC704780B584B000AFF86088
S31520021B80B9607A60F86806F095FB03461A46BB6888
S31520021B905A60F86806F0AAFB03461A46BB681A8101
S31520021BA01037BD4680BD00BF80B584B000AFF86057
S31520021BB0B9607A60BB685968F86806F0B5FBBB68FD
S31520021BC01B891946F86806F0BFFB1037BD4680BD53
S31520021BD0B0B586B000AF7860396007F10C030121F9
S31520021BE01846FFF7A5FF07F10C033A6819467868ED
S31520021BF0FFF7C2FF0C2006F04BFA05462B461C4681
S31520021C0007F10C0393E8070084E807002B461846E1
S31520021C101837BD46B0BD00BF80B584B000AFF860AE
S31520021C20B9607A607A68B968F868FFF7BDFF10373D
S31520021C30BD4680BD80B483B000AF786039607B68D2
S31520021C405A683B685B689A4207D17B681A893B6867
S31520021C501B899A4201D1012300E0002318460C3742
S31520021C60BD465DF8047B704790B4ECB000AF3B1DD7
S31520021C7018603B4619603B1D1A683B461B689A4210
S31520021C800DD03B1D1B681C683B1D19683B461A6814
S31520021C900B4607CA83E807003B1D1B681C6007F535
S31520021CA0D877BD4690BC704780B483B000AF7860C9
S31520021CB00B46FB700C37BD465DF8047B704700BFB0
S31520021CC080B483B000AF78600B46FB700C37BD46FC
S31520021CD05DF8047B704700BFF0B583B000AFC7E95B
S31520021CE000017B681B681E467B681C687B685D68F2
S31520021CF0AC420FDC396823469A1B13465B00134419
S31520021D009B000B4401211846FFF712FFAC4201D07B
S31520021D100134EFE70C37BD46F0BD00BF80B584B075
S31520021D2000AF7860214B1B7883F00103DBB2002BD6
S31520021D3003D052211E4804F0F9FF7B681B8901213A
S31520021D401846FFF785FE0346002B01DB0F2B03DD2A
S31520021D505321174804F0E2FFFB607B685B68002B87
S31520021D6003D15521124804F0B1FF7B685B681B68DA
S31520021D701A46FB685B0022FA03F3DBB203F0030385
S31520021D80DBB2032B03D95521094804F0B7FF002BF8
S31520021D9003D0012B03D1022302E0012300E000231A
S31520021DA000BF18461037BD4680BD00BF18C80220A6
S31520021DB0CCB1022080B586B000AF78600B46FB70AE
S31520021DC0354B1B7883F00103DBB2002B03D0612154
S31520021DD0324804F0ABFF7B681B8901211846FFF7C6
S31520021DE037FE0346002B01DB0F2B03DD66212B4832
S31520021DF004F094FF7B61FB78002B02D0FB78022B48
S31520021E0003D96821254804F079FFFB78022B21D1DA
S31520021E107B685B68002B03D16A21204804F056FFB9
S31520021E207B6859680B461B683B613A697B695B0094
S31520021E30184603238340DB431A407B695B0018461E
S31520021E400123834008460068134318460B46024680
S31520021E501A601AE07B685B68002B03D16C210F485D
S31520021E6004F034FF7B6859680B461B68FB60FA68EE
S31520021E707B695B00184603238340DB4308460068E0
S31520021E80134018460B4602461A60012300BF184625
S31520021E901837BD4680BD00BF19C80220CCB102202A
S31520021EA080B584B000AF7860294B1B7883F001039C
S31520021EB0DBB2002B03D07621264804F037FF7B685D
S31520021EC01B8901211846FFF7C3FD0346002B01DBC0
S31520021ED00F2B03DD7A211F4804F020FFFB607B686D
S31520021EE05B68002B03D17C211A4804F0EFFE7B6845
S31520021EF05B680C331B681A46FB685B0022FA03F305
S31520021F00DBB203F00303DBB2002B01D1002319E07D
S31520021F107B685B68002B03D17E210E4804F0D6FE37
S31520021F207B685B680C331B681A46FB685B0022FAE7
S31520021F3003F3DBB203F00303DBB2012B01D101234E
S31520021F4000E0022300BF18461037BD4680BD00BF01
S31520021F501AC80220CCB1022080B586B000AF7860C4
S31520021F600B46FB70494B1B7883F00103DBB2002B37
S31520021F7003D08A21464804F0D9FE7B681B890121B9
S31520021F801846FFF765FD0346002B01DB0F2B03DD09
S31520021F908F213F4804F0C2FE7B61FB78022B03D9D6
S31520021FA091213B4804F0AAFEFB78002B02D0012B9C
S31520021FB01ED041E07B685B68002B03D19321344815
S31520021FC004F084FE7B685B6803F10C0212683A61B6
S31520021FD039697A695200104603228240D24303F1BC
S31520021FE00C0000680A4010460C3302461A6046E08E
S31520021FF07B685B68002B03D19521254804F066FE99
S315200220007B685B6803F10C021268FA60F9687A69E8
S315200220105200104603228240D24311407A6952006E
S3152002202010460122824003F10C0000680A43104642
S315200220300C3302461A6022E07B685B68002B03D1D0
S315200220409721134804F042FE7B685B6803F10C0279
S315200220501268BA60B9687A69520010460322824031
S31520022060D24311407A69520010460222824003F17D
S315200220700C0000680A4310460C3302461A6000BF61
S31520022080012300BF18461837BD4680BD1BC8022053
S31520022090CCB1022080B584B000AF78607B681B8902
S315200220A0FB817B685B68002B03D1A4210A4804F0DC
S315200220B00DFE7B685B6810331B689AB2FB8913405E
S315200220C09BB2FA899A420CBF01230023DBB200BFDE
S315200220D018461037BD4680BDCCB10220B0B582B0BD
S315200220E000AF78607868FFF719FE0346022B05D009
S315200220F00E4C0F4D2046294605F0C8FA7B685B68D0
S31520022100002B03D1BD210B4804F0E0FD7B685B6800
S3152002211018331B687A68128962F30F037A68526849
S31520022120183213600837BD46B0BD00BFDCB10220AD
S3152002213010B20220CCB10220B0B582B000AF7860D6
S315200221407868FFF7EBFD0346022B05D00E4C0F4DA8
S315200221502046294605F09AFA7B685B68002B03D154
S31520022160D4210B4804F0B2FD7B685B6818331B68E8
S315200221707A68128962F31F437A68526818321360AA
S315200221800837BD46B0BD00BF18B2022010B20220E9
S31520022190CCB10220B0B582B000AF78607868FFF784
S315200221A0BDFD0346022B05D0154C164D2046294669
S315200221B005F06CFA7B685B68002B03D1EB21124891
S315200221C004F084FD7B685B68002B03D1EB210E486B
S315200221D004F07CFD7B685B6814331B6899B27B68CC
S315200221E01A897B685B6814331B684A4092B262F391
S315200221F00F037A685268143213600837BD46B0BDA1
S315200222004CB2022010B20220CCB1022080B584B09A
S3152002221000AF78607B681B89FB817B685B68002B3B
S3152002222004D14FF480710B4804F050FD7B685B6843
S315200222301C331B689AB2FB8913409BB2FA899A42D5
S315200222400CBF01230023DBB200BF18461037BD4660
S3152002225080BD00BFCCB1022080B485B000AF7860CB
S315200222600B467B807968788840F48033FB60FB6874
S31520022270CB61C861FB68CB61CB69FB60CB69FB6034
S315200222801437BD465DF8047B704700BFB0B582B0F7
S3152002229000AF6346C7F804C01B681846FFF7B6FFAF
S315200222A0034683F00103DBB2002B05D0044C054D17
S315200222B02046294605F0EAF90837BD46B0BD00BFDB
S315200222C080B20220B0B20220B0B584B000AF7860EE
S315200222D007F12003FB607B68BB60194B1B7883F0F8
S315200222E00103DBB2002B04D04FF4A171154804F090
S315200222F01DFDBB681846FFF789FF0346002B05D054
S31520022300114C124D2046294605F0C0F9BB685B6880
S31520022310002B04D14FF4A2710A4804F0D7FCBB6803
S315200223205A68BB681B8919461046FFF795FF07F1C5
S3152002233008039C46FFF7AAFF1037BD46B0BD00BF73
S315200223401CC80220CCB10220B8B20220E4B202207C
S3152002235080B588B000AF78603960794B1B7883F0FE
S315200223600103DBB2002B04D04FF4AC71754804F0A4
S31520022370DDFC7B681B8901211846FFF769FB0346B2
S31520022380002B01DB0F2B04DD4FF4AE716D4804F0F8
S31520022390C5FCFB617B685B68002B04D14FF4AF71EF
S315200223A0684804F093FC7B685B6830331B689BB2F9
S315200223B03B833A8BFB69012101FA03F39BB2DB4390
S315200223C09BB2134099B23B681B799AB2FB6902FA17
S315200223D003F39AB27B685B6830331B680A4392B276
S315200223E062F30F037A685268303213607B685B6847
S315200223F0002B04D140F25F11524804F067FC7B683F
S315200224005B681B687B617A69FB695B00194603235B
S315200224108B40DB431A403B681B781946FB695B00FD
S3152002242001FA03F3796849680968134319467B68F8
S315200224305B680A461A607B685B68002B04D14FF4FE
S31520022440B071404804F042FC7B685B6804331B6829
S315200224509BB23B823A8AFB69012101FA03F39BB2C2
S31520022460DB439BB2134099B23B685B78012B0CBFCE
S3152002247001230023DBB29AB2FB6902FA03F39AB272
S315200224807B685B6804331B680A4392B262F30F03CC
S315200224907A685268043213607B685B68002B04D129
S315200224A040F26111274804F011FC7B685B6808330F
S315200224B01B68FB60FA68FB695B00194603238B40A5
S315200224C0DB431A403B689B781946FB695B0001FA9D
S315200224D003F37968496808310968134319467B680A
S315200224E05B6808330A461A607B685B68002B04D156
S315200224F04FF4B171134804F0E9FB7B685B680C3337
S315200225001B68BB60BA68FB695B00194603238B40D4
S31520022510DB431A403B68DB781946FB695B0001FA0C
S3152002252003F3796849680C310968134319467B68B5
S315200225305B680C330A461A602037BD4680BD00BF51
S315200225401DC80220CCB1022080B586B000AF7860CB
S315200225500B46FB703F4B1B7883F00103DBB2002B4B
S3152002256004D040F277113C4804F0E0FB7B681B89DB
S3152002257001211846FFF76CFA0346002B01DB0F2BCD
S3152002258004DD40F27B11344804F0C8FB7B617B6991
S31520022590072B2DDC7B685B68002B04D14FF4BF71BF
S315200225A02D4804F093FB7B69072B04DD4FF4BF71A2
S315200225B0294804F09BFB7B685B6820331B683B61E0
S315200225C03A697B699B0019460F238B40DB431A40ED
S315200225D0FB78796989008B407968496820310968D6
S315200225E0134319467B685B6820330A461A602EE03D
S315200225F07B685B68002B04D14FF4C071164804F047
S3152002260065FB7B69072B04DC4FF4C071124804F08A
S315200226106DFB7B685B6824331B68FB60FA687B6909
S31520022620083B9B0019460F238B40DB431A40FB785D
S315200226307969083989008B407968496824310968A3
S31520022640134319467B685B6824330A461A60183797
S31520022650BD4680BD20C80220CCB1022090B583B0F1
S3152002266000AF7860134B1B7883F00103DBB2002B9B
S3152002267004D04FF4CB71104804F058FB7B681B89B9
S3152002268001211846FFF7E4F903464FEAE374002BCB
S3152002269074F1000203DB172B74F1000204DB4FF402
S315200226A0CD71054804F03AFBDBB200BF18460C3761
S315200226B0BD4690BD1EC80220CCB1022090B585B081
S315200226C000AF78600B46FB701346BB701E4B1B781F
S315200226D083F00103DBB2002B04D040F2A1111B4888
S315200226E004F024FB7B681B8901211846FFF7B0F909
S315200226F003464FEAE374002B74F1000203DB172B27
S3152002270074F1000204DB40F2A711104804F006FB24
S31520022710FB73FB78022B06D8BA78F978FB7B18462E
S31520022720FEF738FF0DE0FB78022B04D84FF4D87160
S31520022730064804F0F3FAFA78FB7B11461846FFF7AF
S315200227405DF81437BD4690BD1FC80220CCB10220C9
S3152002275080B400AF0F4B01221A700F4B01221A7060
S315200227600E4B01221A700E4B01221A700D4B0122BA
S315200227701A700D4B01221A700C4B01221A700C4B47
S3152002278001221A700B4B01221A70BD465DF8047B9A
S31520022790704700BF18C8022019C802201AC8022092
S315200227A01BC802201CC802201DC8022020C80220E5
S315200227B01EC802201FC8022080B500AF034804F0BD
S315200227C0BFFB034B184604F003FC80BD1CB302205A
S315200227D08CB3022080B582B000AF78600B46FB70C6
S315200227E0FB78002B03D07B68184602F0D5F8083711
S315200227F0BD4680BD80B588B000AFB9607A601A4602
S315200228000346FB731346BB7307F1140300211846D4
S31520022810FFF7E0FF07F11803FB61F86902F096F86B
S31520022820BB68BB61164B08331B68FA7B62F307034E
S31520022830134A08321360FB691A68114B0C331B6862
S31520022840C2F35A1262F35F130D4A0C321360BB684D
S315200228507B617A697B6813447B617B69BA7B02F070
S315200228600702D2B262F343037B617B6943F0010321
S315200228707B61034B10337A691A602037BD4680BDCF
S3152002288090ED00E080B586B000AF03463971FB714A
S315200228903B793B7207F108037B61FB79032B17D83F
S315200228A0FB79032B03D92C21164804F01FFA164B69
S315200228B030331B68FB60FB797A69127807F11801BD
S315200228C00B4403F80C2C104B3033FA681A6016E0CE
S315200228D0FB79032B03D82E210A4804F007FA0A4B68
S315200228E034331B683B61FB797A69127807F1180148
S315200228F00B4403F80C2C044B34333A691A6018370C
S31520022900BD4680BDC4B3022090ED00E080B400AF86
S31520022910064B04331B681A46134643F00102034B47
S3152002292004331A60BD465DF8047B704790ED00E0E3
S3152002293080B485B000AFF860B9601346FB71FB79AD
S31520022940002B02D0054AFB681A60FB68BA685A60F7
S315200229501437BD465DF8047B704700BF8CB5022054
S3152002296090B482B000AF78604FF040034FF000047D
S31520022970184621460837BD4690BC704780B483B0BE
S3152002298000AF78600B46FB700C37BD465DF8047BC2
S31520022990704700BF80B582B000AF786039604E4B79
S315200229A01B7883F00103DBB2002B03D048214B486E
S315200229B004F0BCF93B685B78012B03D94A214748CE
S315200229C004F09CF93B685B78002B14D17B685B682A
S315200229D01B681A46134643F004027B685B681A603A
S315200229E07B685B681B681A46134643F480727B68D1
S315200229F05B681A600FE07B685B681B686FF3820373
S31520022A007A68526813607B685B681B686FF30823D9
S31520022A107A68526813603B681B78032B03D95321CB
S31520022A202E4804F06BF93B681B78012B1DD0012B35
S31520022A3002D3022B34D053E07B685B681B686FF3AA
S31520022A40CF337A68526813607B685B681B686FF3C2
S31520022A508E337A68526813607B685B681B686FF3F3
S31520022A608A237A685268136056E07B685B681B6823
S31520022A706FF3CF337A68526813607B685B681B6892
S31520022A806FF38E337A68526813607B685B681B68C3
S31520022A901A46134643F480627B685B681A603BE001
S31520022AA07B685B681B681A46134643F400427B68C0
S31520022AB05B681A607B685B681B686FF38E337A6883
S31520022AC0526813607B685B681B686FF38A237A6897
S31520022AD05268136020E000BF2EC80220D4B3022021
S31520022AE07B685B681B681A46134643F400427B6880
S31520022AF05B681A607B685B681B681A46134643F458
S31520022B0080427B685B681A607B685B681B686FF330
S31520022B108A237A685268136000BF3B689B78012B30
S31520022B200CBF01230023DAB27B685B681B6802F0C4
S31520022B300102D2B262F3CB237A68526813603B68F1
S31520022B40DB78002B0CBF01230023DAB27B685B689B
S31520022B501B6802F00102D2B262F341037A6852681C
S31520022B6013603B681B79012B0CBF01230023DAB2C9
S31520022B707B685B681B6802F00102D2B262F3000333
S31520022B807A68526813603B685B79002B0CBF01237D
S31520022B900023DAB27B685B681B6802F00102D2B2BC
S31520022BA062F349237A68526813603B689B791A4616
S31520022BB03C4B9A5C7B685B681B6802F00702D2B2C8
S31520022BC062F3C5037A68526813603B68DB79012B8E
S31520022BD00CBF01230023DAB27B685B681B6802F014
S31520022BE00102D2B262F3C7137A68526813603B6855
S31520022BF09A7A7B685B6804331B6802F00102D2B2C0
S31520022C0062F341037A685268043213603B689A7A07
S31520022C107B685B6804331B6802F00102D2B262F35E
S31520022C20C7137A685268043213603B68DA7A7B6883
S31520022C305B6804331B6802F00102D2B262F300031E
S31520022C407A685268043213603B68DA7A7B685B687A
S31520022C5004331B6802F00102D2B262F386137A6849
S31520022C605268043213603B681A7B7B685B680433C4
S31520022C701B6802F00102D2B262F30C337A68526800
S31520022C80043213607B685B6810331B683A681289CA
S31520022C9062F30F037A685268103213600837BD4612
S31520022CA080BD00BF24B6022080B582B000AF786016
S31520022CB00B4B1B7883F00103DBB2002B03D07D2163
S31520022CC0084804F033F87B685B681B681A4613468B
S31520022CD043F040027B685B681A600837BD4680BDB8
S31520022CE02FC80220D4B3022080B582B000AF78600C
S31520022CF00A4B1B7883F00103DBB2002B03D086211B
S31520022D00074804F013F87B685B681B686FF3861329
S31520022D107A68526813600837BD4680BD30C80220E3
S31520022D20D4B3022080B582B000AF78600A4B1B78FC
S31520022D3083F00103DBB2002B03D08F21074803F077
S31520022D40F5FF7B685B681B68C3F38013DBB200BFA9
S31520022D5018460837BD4680BD31C80220D4B30220AA
S31520022D6080B582B000AF78600B467B800C4B1B7817
S31520022D7083F00103DBB2002B03D09821094803F02C
S31520022D80D5FF7B685B680C331B687A8862F30F0376
S31520022D907A6852680C3213600837BD4680BD00BF80
S31520022DA032C80220D4B3022080B483B000AF786048
S31520022DB07B685B680C331B689BB200BF18460C37D6
S31520022DC0BD465DF8047B704780B584B000AF78605D
S31520022DD00B46FB700A4B1B7883F00103DBB2002BF8
S31520022DE003D0AC21074803F0A1FF7B685B680C3354
S31520022DF0FB60FB68FA781A701037BD4680BD00BFAB
S31520022E0033C80220D4B3022080B582B000AF7860E6
S31520022E107868FFF7C9FF0346FF2B03D9B921044877
S31520022E2003F07CFFDBB200BF18460837BD4680BDE3
S31520022E30D4B3022080B582B000AF7860786800F003
S31520022E402DF80346002B08D0786800F015F80346C3
S31520022E5083F00103DBB2002B05D1786800F036F847
S31520022E600346002B01D0012300E0002300BF1846B1
S31520022E700837BD4680BD00BF80B483B000AF7860FE
S31520022E807B685B6808331B68C3F34003DBB200BF71
S31520022E9018460C37BD465DF8047B704780B483B074
S31520022EA000AF78607B685B6808331B68DBB203F08F
S31520022EB00103DBB2002B0CBF01230023DBB200BFD0
S31520022EC018460C37BD465DF8047B704780B483B044
S31520022ED000AF78607B685B6808331B68C3F3C01356
S31520022EE0DBB200BF18460C37BD465DF8047B70473F
S31520022EF080B582B000AF7860184B1B7883F001034F
S31520022F00DBB2002B03D0E621154803F00FFF7B68C6
S31520022F105B681B68DBB203F00403DBB2002B14BF31
S31520022F2001230023DAB27B685B681B68C3F307239D
S31520022F30DBB203F00103DBB2002B14BF0123002313
S31520022F40DBB21340DBB2002B01D0002300E00123C9
S31520022F5000BF18460837BD4680BD00BF36C80220CE
S31520022F60D4B3022080B582B000AF78601A4B1B78AA
S31520022F7083F00103DBB2002B03D0F321174803F0C1
S31520022F80D5FE7B685B681B68C3F30723DBB25BB2A3
S31520022F90002B0EDB7B685B681B68C3F30723DBB25F
S31520022FA003F00403DBB2002B01D100230FE001233F
S31520022FB00DE07B685B681B68C3F30723DBB203F073
S31520022FC04003DBB2002B01D1022300E0032300BF22
S31520022FD018460837BD4680BD37C80220D4B3022022
S31520022FE080B483B000AF78607B685B681B68C3F3EC
S31520022FF04033DBB200BF18460C37BD465DF8047B72
S31520023000704700BF80B483B000AF78607B685B688E
S3152002301008331B68C3F30013DBB200BF18460C3714
S31520023020BD465DF8047B704780B483B000AF7860FC
S315200230307B685B6808331B68C3F34013DBB200BFAF
S3152002304018460C37BD465DF8047B704780B483B0C2
S3152002305000AF78607B685B6808331B68C3F3801314
S31520023060DBB200BF18460C37BD465DF8047B7047BD
S3152002307080B483B000AF78607B685B6808331B68D6
S31520023080C3F30023DBB200BF18460C37BD465DF8FA
S31520023090047B704780B584B000AF78600E4B1B78F6
S315200230A083F00103DBB2002B04D04FF49E710B4850
S315200230B003F03CFE07F10803184601F093FC7B68F7
S315200230C05B680C331B68FB817B685B6808331B6873
S315200230D0BB601037BD4680BD34C80220D4B302205F
S315200230E080B582B000AF7860104B1B7883F0010365
S315200230F0DBB2002B04D04FF4A4710D4803F016FE68
S315200231007B685B681B686FF34D337A68526813607D
S315200231107B685B681B681A46134643F400527B6839
S315200231205B681A600837BD4680BD00BF35C80220DD
S31520023130D4B3022080B483B000AF78607B685B682A
S315200231401B68C3F3C023DBB200BF18460C37BD464B
S315200231505DF8047B704700BF80B582B000AF78600F
S315200231600F4B1B7883F00103DBB2002B04D04FF404
S31520023170AD710C4803F0DAFD7B685B681B68C3F30C
S315200231800723DBB203F00803DBB2002B01D00123B5
S3152002319000E0002300BF18460837BD4680BD00BFA9
S315200231A038C80220D4B30220B0B586B000AFF8608A
S315200231B0C7E90012BB60354B1B7883F00103DBB2F3
S315200231C0002B04D04FF4B471314803F0AFFDF868F8
S315200231D0FFF7C2FF0346002B05D02E4C2E4D20466C
S315200231E0294604F053FAF868FFF7FAFE0346002B45
S315200231F002D0F868FFF774FFF868FFF7B3FE0346BC
S31520023200032B09D1FB685B681B681A46134643F4F5
S315200232108042FB685B681A60F868FFF73BFFF86834
S31520023220FFF780FD034683F00103DBB2002B02D0B9
S31520023230F868FFF739FDD7E90012F86801F046F879
S31520023240F868FFF719FE0346002B01D100BFF7E706
S31520023250F868FFF73BFE034683F00103DBB2002B3F
S3152002326001D100BFF4E7F868FFF77CFE0346012B85
S3152002327001D0002B02D1F868FFF70CFF0023FB7563
S31520023280FB7D00BF18461837BD46B0BD39C802209F
S31520023290D4B30220E4B3022018B40220B0B586B01B
S315200232A000AFF860C7E90012BB60364B1B7883F08B
S315200232B00103DBB2002B04D040F29911324803F00D
S315200232C035FDF868FFF748FF0346012B05D02F4C42
S315200232D02F4D2046294604F0D9F9F868FFF780FEDB
S315200232E00346002B02D0F868FFF7FAFEF868FFF7CC
S315200232F039FE0346032B09D1FB685B681B681A4615
S31520023300134643F48042FB685B681A60F868FFF74D
S31520023310C1FEF868FFF706FD034683F00103DBB220
S31520023320002B02D0F868FFF7BFFCD7E90012F86835
S3152002333000F0CAFEF868FFF79FFD0346002B01D175
S3152002334000BFF7E7F868FFF7C1FD034683F00103E4
S31520023350DBB2002B01D100BFF4E7F868FFF702FECB
S315200233600346012B01D0002B04D1F868FFF792FE09
S315200233700123FB750023FB75FB7D00BF184618371A
S31520023380BD46B0BD3AC80220D4B3022020B40220E2
S3152002339018B4022080B584B000AF78600B46FB706B
S315200233A0364B1B7883F00103DBB2002B04D04FF49B
S315200233B0E571334803F0BAFC7B685B680C33FB602B
S315200233C07868FFF70DFE0346002B02D07868FFF7D8
S315200233D087FE7868FFF7C6FD0346032B09D17B6873
S315200233E05B681B681A46134643F480427B685B6817
S315200233F01A607868FFF796FC034683F00103DBB276
S31520023400002B02D07868FFF74FFC7B685B681B684D
S31520023410C3F30723DBB223F07F03DBB2002B09D0F1
S315200234207B685B681B681A46134643F480427B68B6
S315200234305B681A60FB68FA781A707868FFF71CFDD9
S315200234400346002B01D100BFF7E77868FFF73EFD60
S31520023450034683F00103DBB2002B01D100BFF4E760
S315200234607868FFF77FFD0346012B01D0002B02D19E
S315200234707868FFF70FFE1037BD4680BD3BC8022095
S31520023480D4B30220B0B588B000AFF860C7E9001205
S31520023490BB60544B1B7883F00103DBB2002B04D0B4
S315200234A04FF4FC71504803F041FCF868FFF754FED4
S315200234B00346002B05D04D4C4D4D2046294604F09F
S315200234C0E5F8FB685B680C33FB61F868FFF7E6FCFE
S315200234D00346002B04D1FB691B78DBB2FB76F4E7AB
S315200234E0F868FFF77DFD0346002B02D0F868FFF748
S315200234F0F7FDF868FFF716FC034683F00103DBB2FB
S31520023500002B02D0F868FFF7CFFBFB685B681B68CD
S31520023510C3F30723DBB223F07F03DBB2002B0DD0EC
S31520023520F868FFF7E1FBFB685B681B686FF38E3375
S31520023530FA6852681360F868FFF7B6FBD7E90012FB
S31520023540F86800F0F5FFFB685B681B68C3F3072386
S31520023550DBB223F07F03DBB2002B1ED0F868FFF725
S31520023560C3FBFB685B681B681A46134643F480421A
S31520023570FB685B681A60F868FFF796FBFB685B6876
S315200235800C337B61F868FFF789FC0346002B04D1D4
S315200235907B691B78DBB2FB74F4E7F868FFF796FCCD
S315200235A0034683F00103DBB2002B01D100BFF4E70F
S315200235B0F868FFF715FD03461C46F868FFF722FD5B
S315200235C003462340DBB2002B04D0F868FFF788FDC0
S315200235D00123BB740023BB74BB7C00BF1846203773
S315200235E0BD46B0BD3CC80220D4B3022054B402204A
S315200235F018B40220B0B586B000AFF860C7E9001251
S31520023600BB602B4B1B7883F00103DBB2002B04D06B
S3152002361040F23E21274803F089FBF868FFF79CFD1C
S315200236200346012B05D0244C244D2046294604F07E
S315200236302DF8F868FFF7D4FC0346002B02D0F86871
S31520023640FFF74EFDF868FFF76DFB034683F0010393
S31520023650DBB2002B02D0F868FFF726FBD7E900126F
S31520023660F86800F00BFFF868FFF730FC034683F09A
S315200236700103DBB2002B01D100BFF4E7F868FFF7A4
S31520023680AFFC03461C46F868FFF7BCFC0346234002
S31520023690DBB2002B04D0F868FFF722FD0123FB756D
S315200236A00023FB75FB7D00BF18461837BD46B0BD0B
S315200236B03EC80220D4B3022088B4022018B40220C5
S315200236C090B585B000AF7860364B1B7883F0010346
S315200236D0DBB2002B04D040F25F21334803F026FBF5
S315200236E07B685B680C33FB607868FFF779FC0346DE
S315200236F0002B02D07868FFF7F3FC7868FFF712FBFD
S31520023700034683F00103DBB2002B02D07868FFF771
S31520023710CBFAFB6800221A707868FFF7BFFB0346D4
S3152002372083F00103DBB2002B01D100BFF4E7FB6873
S315200237301B78DBB27B727868FFF752FC0346002BBC
S315200237400FD07868FFF7AAFB034683F00103DBB2AA
S31520023750002B01D100BFF4E77B685B680C331B6842
S315200237607B817868FFF7B2FB034683F00103DBB265
S31520023770002B01D100BFF4E77868FFF731FC03463E
S315200237801C467868FFF73EFC03462340DBB2002B3B
S3152002379002D07868FFF7A4FC7B7A00BF184614375C
S315200237A0BD4690BD3FC80220D4B3022082B090B558
S315200237B08FB002AF7861C7E902127B643B4607F1FC
S315200237C0440292E8030083E80300FB681B68FA6858
S315200237D052684549097881F00101C9B2002904D00D
S315200237E040F28D21414803F0A1FA79680968F9620D
S315200237F07968486879680968884203DB7968496884
S31520023800B96203E0796809680139B9627B629A4232
S3152002381001DB3A6201E0013B3B627869FFF7E0FB9C
S315200238200346002B02D07869FFF75AFC7869FFF726
S3152002383079FA034683F00103DBB2002B02D07869C2
S31520023840FFF732FA7869FFF775FC0346002B0AD098
S31520023850FB6C01937B6800933B68D7E90212786977
S3152002386000F0DAF809E0FB6C01937B6800933B6871
S31520023870D7E90212786900F09BFA7869FFF7B0FB64
S315200238800346002B0FD07869FFF708FB034683F027
S315200238900103DBB2002B01D100BFF4E77B695B6831
S315200238A00C331B68FB837869FFF710FB034683F012
S315200238B00103DBB2002B01D100BFF4E77869FFF7E1
S315200238C08FFB03461C467869FFF79CFB0346234081
S315200238D0DBB2002B02D07869FFF702FC3437BD46F3
S315200238E0BDE8904002B0704740C80220D4B30220FF
S315200238F090B585B000AF78600B46FB70444B1B78C1
S3152002390083F00103DBB2002B04D04FF42F71414820
S3152002391003F00CFA7B685B680C33FB607868FFF770
S315200239205FFB0346002B02D07868FFF7D9FB786845
S31520023930FFF7F8F9034683F00103DBB2002B02D02E
S315200239407868FFF7B1F97868FFF7F4FB0346002B96
S3152002395004D04FF433712F4803F0EEF9FB68FA785E
S315200239601A707868FFF73CFB0346002B09D07B6868
S315200239705B681B681A46134643F480527B685B6871
S315200239801A607868FFF78AFA034683F00103DBB2EE
S31520023990002B01D100BFF4E7FB681B78DBB27B72F8
S315200239A07868FFF71DFB0346002B0FD07868FFF7D8
S315200239B075FA034683F00103DBB2002B01D100BF67
S315200239C0F4E77B685B680C331B687B817868FFF7BA
S315200239D07DFA034683F00103DBB2002B01D100BF3F
S315200239E0F4E77868FFF7FCFA03461C467868FFF787
S315200239F009FB03462340DBB2002B02D07868FFF78F
S31520023A006FFB7B7A00BF18461437BD4690BD00BFB8
S31520023A1041C80220D4B3022082B0F0B58FB000AFE5
S31520023A207861C7E902127B653B4607F1540292E8A8
S31520023A30030083E80300FB681C68FB685D68A44BEF
S31520023A401B7883F00103DBB2002B04D040F2F7216E
S31520023A50A04803F06BF97B681B68BB627B685A68D7
S31520023A607B681B689A4203DB7B685B687B6203E0A8
S31520023A707B681B68013B7B623C62A54201DBFD61E0
S31520023A8002E02346013BFB61FB6D3B63002C04DA1B
S31520023A9040F2FE218F4803F041F97C637B681B6864
S31520023AA0002B04DA40F2FF218A4803F037F97B68BB
S31520023AB01B68FB627869FFF71BFA0346012B0CBFD2
S31520023AC001230023DBB2002B02D13B6B012B3CD11D
S31520023AD07B6B9C4202DC7B6B9D4204DA40F2033113
S31520023AE07C4803F003F9BA687B6B21465B1A1344C0
S31520023AF0002B04D140F20331764803F0E7F8BA6886
S31520023B007B6B21465B1A1A447B695B680C331B6804
S31520023B10128862F30F037A6952680C3213607B6B48
S31520023B206D4A934204DD4FF441716A4803F0EEF880
S31520023B307B6B02337B633B6B013B002B04DA40F247
S31520023B400531644803F0EAF83B633B6B002B43D113
S31520023B507869FFF745FA0346002B09D07B695B6833
S31520023B601B681A46134643F480527B695B681A60C7
S31520023B707869FFF793F9034683F00103DBB2002B42
S31520023B8001D100BFF4E77B681B68FA6A9A4204DB1C
S31520023B907B685B68FA6A9A4204DD4FF445714D48A8
S31520023BA003F0A4F83A68FB6A796809685B1A134439
S31520023BB0002B04D14FF44571464803F087F87B6900
S31520023BC05B680C3318683A68FB6A796809685B1A7D
S31520023BD0134482B21A80E0E03B6B002B40F3A480B0
S31520023BE07869FFF749F90346002B01D100BFF7E7B1
S31520023BF07B6B9C4202DC7B6B9D4204DA40F22131D4
S31520023C00344803F073F8BA687B6B21465B1A134477
S31520023C10002B04D140F221312E4803F057F8BA681E
S31520023C207B6B21465B1A1A447B695B680C331B68E3
S31520023C30128862F30F037A6952680C3213607B6B27
S31520023C40254A934204DD40F22231224803F05EF8EF
S31520023C507B6B02337B633B6B013B002B04DA40F226
S31520023C6023311C4803F05AF83B633B6B002B0CBFF5
S31520023C7001230023DEB27869FFF7B2F90346334007
S31520023C80DBB2002B09D07B695B681B681A46134698
S31520023C9043F480527B695B681A607869FFF7FEF805
S31520023CA0034683F00103DBB2002B01D100BFF4E708
S31520023CB07B681B68FA6A9A4204DB7B685B68FA6A4D
S31520023CC09A420BDD40F22F31024803F00FF800BF73
S31520023CD042C80220D4B30220FDFFFF7F3A68FB6A66
S31520023CE0796809685B1A1344002B04D140F22F31FC
S31520023CF02D4802F0EBFF7B695B680C3318683A6843
S31520023D00FB6A796809685B1A134482B21A80FB6AD5
S31520023D10264A934204DD40F23131234802F0F6FF6F
S31520023D20FB6A0233FB6257E77869FFF7E1F803463D
S31520023D30012B32D17869FFF7B1F8034683F00103EC
S31520023D40DBB2002B01D100BFF4E77B681B68FA6A5D
S31520023D509A4204DB7B685B68FA6A9A4204DD40F287
S31520023D603B31114802F0C2FF3A68FB6A796809685A
S31520023D705B1A1344002B04D140F23B310A4802F06D
S31520023D80A5FF7B695B680C3318683A68FB6A796819
S31520023D9009685B1A134482B21A803C37BD46BDE8D5
S31520023DA0F04002B0704700BFD4B30220FDFFFF7F70
S31520023DB082B0F0B58FB000AF7861C7E902127B6599
S31520023DC03B4607F1540292E8030083E80300FB68AE
S31520023DD01C68FB685D68A54B1B7883F00103DBB288
S31520023DE0002B04D04FF45171A14802F09FFF7B684B
S31520023DF01B68BB627B685A687B681B689A4203DB36
S31520023E007B685B687B6203E07B681B68013B7B62A5
S31520023E103C62A54201DBFD6102E02346013BFB61D8
S31520023E20FB6D3B63002C04DA40F24B31904802F0E2
S31520023E3075FF7C637B681B68002B04DA4FF4537191
S31520023E408B4802F06BFF7B681B68FB627B695B68B1
S31520023E500C33BB617869FFF74BF80346012B0CBF85
S31520023E6001230023DBB2002B02D13B6B012B28D18D
S31520023E707B6B9C4202DC7B6B9D4204DA4FF45471CD
S31520023E807B4802F033FFBA68796B3B6ACB1AD25C65
S31520023E90BB691A707B6B6FF00042934204D140F2E9
S31520023EA05131734802F032FF7B6B01337B633B6BEC
S31520023EB0013B002B04DA40F252316D4802F02EFF0C
S31520023EC03B633B6B002B3AD17869FFF789F80346AF
S31520023ED0002B09D07B695B681B681A46134643F49C
S31520023EE080527B695B681A607869FEF7D7FF0346C2
S31520023EF083F00103DBB2002B01D100BFF4E77B681C
S31520023F001B68FA6A9A4204DB7B685B68FA6A9A4201
S31520023F1004DD4FF45871564802F0E8FEFB6A002B86
S31520023F2004DA4FF45871524802F0E8FE3A6818460D
S31520023F30BB691B78D9B2BB6AC31AD154BBE03B6BAF
S31520023F40002B40F381807869FEF796FF0346002B0B
S31520023F5001D100BFF7E77B6B9C4202DC7B6B9D4263
S31520023F6004DA40F26A31424802F0C0FEBA68796B3E
S31520023F703B6ACB1AD25CBB691A707B6B6FF000422C
S31520023F80934204D140F26B31394802F0BFFE7B6B7B
S31520023F9001337B633B6B013B002B04DA4FF45B71ED
S31520023FA0334802F0BBFE3B633B6B002B0CBF012365
S31520023FB00023DEB27869FFF713F803463340DBB2FB
S31520023FC0002B09D07B695B681B681A46134643F4AB
S31520023FD080527B695B681A607869FEF75FFF034649
S31520023FE083F00103DBB2002B01D100BFF4E77B682B
S31520023FF01B68FA6A9A4204DB7B685B68FA6A9A4211
S3152002400004DD4FF45E711A4802F070FEFB6A002B43
S3152002401004DA4FF45E71164802F070FE3A681846CA
S31520024020BB691B78D9B2BB6AC31AD154FB6A6FF03B
S315200240300042934204D140F279310D4802F066FEE5
S31520024040FB6A0133FB627AE77869FEF751FF034682
S31520024050012B30D17869FEF721FF034683F0010355
S31520024060DBB2002B06D100BFF4E700BF43C8022013
S31520024070D4B302207B681B68FA6A9A4204DB7B6807
S315200240805B68FA6A9A4204DD40F282310D4802F0F8
S315200240902DFEFB6A002B04DA40F28231094802F037
S315200240A02DFE3C681D467869FEF7AEFE03461A468B
S315200240B0BB6AEB1AE2543C37BD46BDE8F04002B07B
S315200240C0704700BFD4B302202DE9B04B87B000AFB2
S315200240D0F860C7E900127B681C687B685D68A542A8
S315200240E010DB28464FEAE071A0464FEAE8790246FD
S315200240F00B46B2EB080263EB090312F1010843F106
S31520024100000903E04FF000084FF000096B4B1B78C3
S3152002411083F00103DBB2002B04D040F28A316848D7
S3152002412002F004FE22464FEAE27366484FF000018F
S3152002413010EB020B41EB030C2A464FEAE27393453E
S315200241407CEB030304DA40F28E315D4802F0E6FD91
S3152002415043467B61002C04DA40F28F31584802F044
S31520024160DDFD3C61F868FEF7C3FE0346012B0CBF5A
S3152002417001230023DBB2002B02D17B69012B3ED126
S315200241803B699C4202DC3B699D4204DA40F2933150
S315200241904B4802F0ABFD3A683B6921465B1A5B004D
S315200241A01344002B04D140F29331454802F08EFD90
S315200241B03A683B6921465B1A5B001A44FB685B68D6
S315200241C00C331B68128862F30F03FA6852680C32AA
S315200241D013603B693C4A934204DD4FF465713848CB
S315200241E002F094FD3B6902333B617B69013B002B64
S315200241F004DA40F29531324802F090FD7B617B6908
S31520024200002B47DDF868FEF737FE0346002B01D167
S3152002421000BFF7E73B699C4202DC3B699D4204DA18
S3152002422040F29F31264802F061FD3A683B692146F9
S315200242305B1A5B001344002B04D140F29F312048C5
S3152002424002F044FD3A683B6921465B1A5B001A4438
S31520024250FB685B680C331B68128862F30F03FA68EB
S3152002426052680C3213603B69174A934204DD4FF4BD
S315200242706871134802F04AFD3B6902333B617B6950
S31520024280013B002B04DA40F2A1310D4802F046FD33
S315200242907B61B4E7F868FEF7A3FE0346002B09D03C
S315200242A0FB685B681B681A46134643F48052FB6818
S315200242B05B681A601C37BD46BDE8B08B44C8022035
S315200242C0D4B30220FEFFFF7FFDFFFF7F2DE9F04BD7
S315200242D088B000AFF860C7E900127B681C687B686B
S315200242E05D68A54210DB28464FEAE071A0464FEAF8
S315200242F0E87902460B46B2EB080263EB090312F198
S31520024300010843F1000903E04FF000084FF00009CD
S31520024310574B1B7883F00103DBB2002B04D040F20B
S31520024320AD31544802F002FD264622464FEAE27398
S3152002433051484FF0000110EB020B41EB030C2A46C9
S315200243404FEAE27393457CEB030304DA40F2B13180
S31520024350484802F0E3FC4346FB61002C04DA40F2B3
S31520024360B231444802F0DAFCBC61FB685B680C336C
S315200243707B61F868FEF7BCFD0346012B0CBF0123C7
S315200243800023DBB2002B02D1FB69012B27D1BB69AB
S315200243909C4202DCBB699D4204DA40F2B6313548C2
S315200243A002F0A4FC3A68BB699B1BD25C7B691A703B
S315200243B0BB696FF00042934204D140F2B7312D48D7
S315200243C002F0A4FCBB690133BB61FB69013B002BF4
S315200243D004DA4FF46E71274802F0A0FCFB61FB69F8
S315200243E0002B30DDF868FEF747FD0346002B01D18E
S315200243F000BFF7E7BB699C4202DCBB699D4204DA37
S3152002440040F2C1311B4802F071FC3A68BB699B1B22
S31520024410D25C7B691A70BB696FF00042934204D169
S3152002442040F2C231134802F071FCBB690133BB6111
S31520024430FB69013B002B04DA40F2C3310D4802F03E
S315200244406DFCFB61CBE7F868FEF7CAFD0346002B3D
S3152002445009D0FB685B681B681A46134643F48052F0
S31520024460FB685B681A602037BD46BDE8F08B00BF4B
S3152002447045C80220D4B30220FEFFFF7F2DE9F0417A
S3152002448086B000AFF860C7E90012274B1B7883F08D
S315200244900103DBB2002B04D040F2CF31234802F0D5
S315200244A045FC7B681B681E46F868FEF721FD03461D
S315200244B0002B0CBF01230023FB757B681C687B68DD
S315200244C05D68AC422CDC3A68A046A8EB06035B008A
S315200244D013443B61FB7D002B09D0FB685B680C33E0
S315200244E01B686FF30F03FA6852680C321360F86880
S315200244F0FEF7D4FC034683F00103DBB2002B01D185
S3152002450000BFF4E7FB685B680C331A683B6891B21C
S31520024510A8EB060223F81210AC4201D00134D2E7EE
S315200245201837BD46BDE8F08146C80220D4B3022022
S315200245302DE9F04188B000AFF860C7E900122A4B96
S315200245401B7883F00103DBB2002B04D04FF4797180
S31520024550264802F0EBFB7B681B681E46F868FEF7CE
S31520024560C7FC0346002B0CBF01230023DAB2FB68EB
S315200245705B681B68C3F30723DBB25BB2DB43DBB2A8
S31520024580DB09DBB21340FB77FB685B680C33BB614C
S315200245907B681C687B685D68AC4221DC3A68A04671
S315200245A0A8EB060313447B61FB7F002B02D0BB6979
S315200245B000221A70F868FEF771FC034683F00103A5
S315200245C0DBB2002B01D100BFF4E73A68BB691B7846
S315200245D0D9B2A8EB0603D154AC4201D00134DDE7AF
S315200245E02037BD46BDE8F08147C80220D4B3022059
S315200245F082B02DE9F04F97B002AF7863C7E90A126D
S31520024600FB6707F1200307F17C0292E8030083E8A7
S315200246100300FB6A1B683B63FB6A5B687B60FB6A81
S315200246205A68FB6A1B689A4212DBFB6A5B68194668
S315200246304FEAE172FB6A1B681D464FEAE5760B4696
S3152002464014465B1B64EB06045D1C44F1000603E082
S315200246504FF000054FF000066C4B1B7883F00103E8
S31520024660DBB2002B04D040F2F731694802F05EFB40
S31520024670786BFEF771FD0346002B14BF012300233E
S31520024680D8B27B6A5A687B6A1B689A4218DB7B6AB5
S315200246905B6819464FEAE172C7E902127B6A1B6818
S315200246A019464FEAE1720B461446D7E90212C91A95
S315200246B062EB04020B461446591C44F1000203E045
S315200246C04FF000014FF0000296420ABF8D420123AD
S315200246D00023DBB20343DBB2002B07D04D4B3B61F9
S315200246E04D4B7B61D7E9040102F0D0FF3B6B002BD7
S315200246F004DA4FF48061464802F010FB7B6A1B689D
S31520024700002B04DA4FF48061414802F007FB7B6AF2
S315200247105A687B6A1B689A422EDB7B6A5B6819465B
S315200247204FEAE1727B6A1B681D464FEAE5760B4625
S3152002473014465B1B64EB0604002B74F100031BDB9F
S315200247407B6A5A687B6A1B689A421ADB7B6A5B68B9
S3152002475019464FEAE1727B6A1B681D464FEAE576E7
S315200247600B4614465B1B64EB06042C494FF00002F1
S31520024770994272EB040304DA4FF48061244802F072
S31520024780CDFA7B6A1B68002B04DA4FF4806120483D
S3152002479002F0C4FABB6A9A463B6B3B647B687B6435
S315200247A007F140039B463B6A98467B6A1B68BB64BB
S315200247B07B6A5B68FB6407F1480399467B6A5A6801
S315200247C07B6A1B689A4207DB7B6A5B681A467B6AAE
S315200247D01B68D31A013300E000230193C7E9068937
S315200247E0FB690093434651465A46786BFFF7E0FA37
S315200247F0002387F83F3097F83F3000BF18465437DA
S31520024800BD46BDE8F04F02B0704700BF3DC802204A
S31520024810D4B30220BCB4022018B40220FEFFFF7FCC
S3152002482080B400AF284B01221A70284B01221A703D
S31520024830274B01221A70274B01221A70264B01227E
S315200248401A70264B01221A70254B01221A70254B0B
S3152002485001221A70244B01221A70244B01221A704B
S31520024860234B01221A70234B01221A70224B01225A
S315200248701A70224B01221A70214B01221A70214BE7
S3152002488001221A70204B01221A70204B01221A7023
S315200248901F4B01221A701F4B01221A701E4B012236
S315200248A01A701E4B01221A701D4B01221A701D4BC3
S315200248B001221A701C4B01221A701C4B01221A70FB
S315200248C0BD465DF8047B70472EC802202FC8022001
S315200248D030C8022031C8022032C8022033C8022042
S315200248E036C8022037C8022034C8022035C8022022
S315200248F038C8022039C802203AC802203BC8022002
S315200249003CC802203EC802203FC8022040C80220DE
S3152002491041C8022042C8022043C8022044C80220BD
S3152002492045C8022046C8022047C802203DC80220A8
S3152002493080B500AF034802F003FB034B184602F092
S3152002494047FB80BD1CB502208CB5022080B483B003
S3152002495000AF78607B681B686FF300031A467B689A
S315200249601A607B681B686FF342031A467B681A60DB
S315200249707B681B686FF3C4031A467B681A607B68E0
S315200249801B686FF35F131A467B681A600C37BD46A5
S315200249905DF8047B704700BF80B483B000AF7860B7
S315200249A07B681B686FF300031A467B681A607B6874
S315200249B01B686FF343031A467B681A607B681B6881
S315200249C06FF304131A467B681A607B681B686FF3C1
S315200249D05F131A467B681A600C37BD465DF8047B66
S315200249E0704700BF80B483B000AF78607B681B68D5
S315200249F06FF300031A467B681A607B681B6843F0D4
S31520024A0002031A467B681A607B681B686FF383036E
S31520024A101A467B681A607B681B686FF304131A4672
S31520024A207B681A607B681B686FF345131A467B689E
S31520024A301A607B681B686FF386131A467B681A60B6
S31520024A407B681B686FF3C7131A467B681A607B68FC
S31520024A501B686FF308231A467B681A607B681B68FB
S31520024A606FF34A231A467B681A607B681B686FF3CA
S31520024A70CC231A467B681A607B681B686FF35F3308
S31520024A801A467B681A600C37BD465DF8047B704770
S31520024A9080B586B000AF78607B681B687B617B69D6
S31520024AA03B613A690C23FB60FB68D31A1B681B6ABD
S31520024AB07A680121104698471837BD4680BD00BF47
S31520024AC080B500AF01210C4803F02EF80A4802F007
S31520024AD0D3FE0A4B01221A600949074802F0D6FE84
S31520024AE00849054802F0D4FE074802F029FA074B86
S31520024AF0184602F06DFA80BD90EE022050C80220C0
S31520024B0044010320914A022040B6022070B60220B8
S31520024B1080B586B000AF78607B681B687B617B6955
S31520024B203B613A690C23FB60FB68D31A1B681B6A3C
S31520024B307A680121104698471837BD4680BD00BFC6
S31520024B4080B500AF01210C4802F0EEFF0A4802F0C0
S31520024B5093FE0A4B01221A600949074802F096FE83
S31520024B600849054802F094FE074802F0E9F9074B86
S31520024B70184602F02DFA80BDACEE02205CC8022057
S31520024B8044010320114B022088B60220B8B6022027
S31520024B90994208BF90422DE9004808D3801A61EB5A
S31520024BA00301002871F100030EDBBDE80088121A0A
S31520024BB063EB0103B3F1004F08BF012A04D250422E
S31520024BC063EB4301BDE8008840F21111014802F06F
S31520024BD085F800BFBCB602202DE9F843154E002405
S31520024BE006F104083568D8F8007000F083F83368B7
S31520024BF09D42A5EB090204F101040FD0012C0BD032
S31520024C00012A03D8032C01D00224EBE700262F46E3
S31520024C1030463946BDE8F883A946E3E700228742B3
S31520024C2094BF2B466B1C161843F1000730463946B3
S31520024C30BDE8F8839CC802200F4B2DE9004880FB73
S31520024C4003BCBBF1000F7CF100030ADB1BF5FA70F3
S31520024C504CF100014FF47A72002304F051F8BDE8BA
S31520024C600088BBF5FA704CF1FF314FF47A720023BB
S31520024C7004F046F8BDE8008880778E0600F00ABF69
S31520024C800078704700230370704700BF0021024658
S31520024C90024B00F8041BFF2100F0DABFCCB602203B
S31520024CA038B5051D0446284600F0DEFF01232846B6
S31520024CB02370BDE8384001F02DB800BF0430002132
S31520024CC000F0D4BF4FF0FF3000F0ACB9EFF305800F
S31520024CD0C0B2103800F0A6B9044B054A4FF0007155
S31520024CE01960136843F002031360704704ED00E075
S31520024CF010E000E0EFF31082012383F310880C4BBF
S31520024D0099681B68DB0306D40A4B1868401A82F39B
S31520024D10108800217047074908680B6803F5D633C7
S31520024D2003F5D8730B6082F310880021704700BF09
S31520024D3010E000E0CCEE022010B4EFF31081012344
S31520024D4083F31088114A94681268D30319D5104C3C
S31520024D502368226802F5D63202F5D872226081F3E0
S31520024D6010886FF000410B4A884294BF1B185B18CB
S31520024D70136018B9084B4FF080621A605DF8044B35
S31520024D807047034B1B681B1BE9E700BF10E000E0DE
S31520024D90CCEE0220C8EE022004ED00E0014B1860A2
S31520024DA0FFF79ABF18EF0220431C24D0A1F1F1038A
S31520024DB00E2B9CBFC1EB01110901104A94BFC9B247
S31520024DC00021002803461154B8BF00F11F034242B6
S31520024DD002F01F0200F01F0058BF50421F289CBF3E
S31520024DE0012202FA00F04FEA6313054A88BF002027
S31520024DF042F823007047FFF76FBF00BF00E400E0D0
S31520024E0000E100E038B572B61D4A1E491E4D1F4B01
S31520024E1004201060002405205560946010600B6009
S31520024E20EFF31080012383F31088946812680B68CD
S31520024E30D2031ED41B1B80F31088154A1549164827
S31520024E4003F10043013B4FF0007413600C60002213
S31520024E500F2100F0E1F800221021104800F0DCF8C2
S31520024E60002383F3118862B6BFF34F8FBFF36F8F90
S31520024E7038BD0A6802F5D63202F5D8720A60DAE738
S31520024E8010E000E0CCEE0220AFAD0100B0AD010093
S31520024E90C8EE022004ED00E0C54C0220CD4C0220D3
S31520024EA0013808B505281DD8DFE800F0080D121CC8
S31520024EB017030F490F4A104801F0CAFE0F49104A3C
S31520024EC0104801F0C5FE1049104A0E4801F0C0FEF6
S31520024ED00F49104A0B4801F0BBFE0F490F4A0948F9
S31520024EE001F0B6FE0E490F4A064801F0B1FE00BF98
S31520024EF0F8B70220F4B60220C0CE022004B7022060
S31520024F00D4B60220F0CE022044B70220DCB602201C
S31520024F1088B70220E4B60220C0B70220ECB60220EF
S31520024F2034B80220FCB6022038B57346144D154A11
S31520024F30154C126CC3F380132B7010209047134B21
S31520024F4019682268914202D02A781B6892B1236896
S31520024F505B6BA3F1F1020E2A9DBFC3EB03131B0168
S31520024F60DBB2002383F3118862B6BFF34F8FBFF300
S31520024F706F8F38BD002BEAD002F096FBE7E700BF21
S31520024F8066C80220D0EE02206CC8022070C8022019
S31520024F9008B50B20FFF784FF38B57346194CC3F3C7
S31520024FA080132370FFF7A6FE174A13681B1A002BDD
S31520024FB022DA00F100400138144B1060DB6B144DED
S31520024FC00F209847134B19682A68914202D02278FB
S31520024FD01B6892B12B685B6BA3F1F1020E2A9DBF6F
S31520024FE0C3EB03131B01DBB2002383F3118862B6E2
S31520024FF0BFF34F8FBFF36F8F38BD002BEAD002F07D
S3152002500053FBE7E766C80220C8EE0220D0EE022054
S315200250106CC8022070C80220014B43F82100704759
S31520025020D0EE02202DE9F84F364BDFF8E4901E68C9
S31520025030D9F80020756BDFF8DC808346013006D074
S31520025040314B13F80B3003F0FF04002B43D1D8F871
S3152002505000A096F85570FF24FFB2002A46D090474A
S3152002506001232146C8F800B0304686F8553000F0B4
S315200250705BF8B4F5807F1DBFC4EB04142401E4B2AF
S31520025080002484F3118862B6BFF34F8FBFF36F8F6C
S315200250901E4B0BF10102584653F82230984772B63E
S315200250A0D9F8003003B198472946304600F03CF83B
S315200250B0A5F1F1030E2B9CBFC5EB05152D01C8F8F2
S315200250C000A098BFEDB286F8557088BF002585F3FB
S315200250D01188BDE8F88FD8F800A096F855702409F3
S315200250E0C4F58074FFB2002AB9D1B9E70123C8F802
S315200250F000B0FF2186F85530304600F015F810240E
S31520025100BFE700BF6CC8022000E400E018EF0220CF
S3152002511098C8022068C80220014B024A1A607047CA
S3152002512014EF0220F80A0320436B8B4219D070B485
S31520025130184E41633468A0420CD04CB1236C98427D
S3152002514010D02BB11A6C82420DD01346002BF9D106
S3152002515070BC7047046C002CFAD0636B8B4204DC63
S31520025160F6E770472346026C1A64636B8B420BDDAB
S31520025170224603E05D6B8D4203DD1A46136C002B3B
S31520025180F8D10364106401E004640446346070BC00
S31520025190704700BF70C802202DE9F04F394B3A4CB8
S315200251A01B68002283B006460F4615464FF0FF388D
S315200251B04FF0FF396FF0404C002B39D0D3E9120162
S315200251C08F4208BF86423BD393F92C20D3F850A0B6
S315200251D083F85450002A08BF012202EB0C01C3E9CE
S315200251E0128954F821001D6598424FF0010231D0F0
S315200251F054F8212042B3586B54F82120526B904226
S3152002520022DC54F82110CDE9006706E09A4223D029
S31520025210576B586B874203DB11460A6C002AF5D17D
S31520025220DDE900671A640B6453460122002BC5D1BF
S315200252304FF0FF314FF0FF308F4208BF8642C3D274
S31520025240EAB903B0BDE8F08F54F821201A6444F875
S315200252502130E9E75346AFE7186C0864DDE90067B9
S3152002526096469B4640B1436BDEF83420934203DBDD
S315200252700146006C0028F6D15B460246D2E7014A77
S315200252801360DEE774C8022070C802204FF48070D3
S3152002529000217047704700BF036913B1D0E90201AC
S315200252A070470020002170472DE9F8431F46036905
S315200252B01646089A002B3ED0234C43692168814228
S315200252C036D081694B61436900250BB181699961A9
S315200252D00023C0E90423836132B321680123C0E994
S315200252E00267037700292CD0D1E902239F4208BF07
S315200252F0964210D2416188612060012000F096F822
S31520025300BDE8F84300F0FCB8D3E902894F4508BF4F
S31520025310464503D319464B69002BF5D143614B69A8
S31520025320816103B198614861002DE6D1BDE8F88319
S3152002533023600125C9E70261002AF7D0024C1D46E7
S31520025340CBE74161D8E700BF80C8022008B50369D0
S3152002535093B1144A1368834210D0D0E905325361BF
S31520025360436933B100219A61C0E905110161012027
S3152002537008BD83610361FAE7184608BD59691160C1
S3152002538061B19A698A610022C3E905221A61012064
S3152002539000F04CF800F0B4F8012008BD99611961BB
S315200253A0F5E700BF80C802202DE9F047DFF86CA0A0
S315200253B0DAF8004074B3184BD3F8008006460F463D
S315200253C04046FF21D8F83490FFF7AEFE0025D4E9F7
S315200253D002239F4208BF964216D3DAF80020D4E968
S315200253E00413A24217BFA269CAF800305361636947
S315200253F020460BB1A2699A61C4E905552561884701
S31520025400DAF80040002CE2D149464046BDE8F04792
S31520025410FFF78ABEBDE8F0876CC8022080C802204A
S31520025420014801F0D5BD00BF04B9022000F1804336
S31520025430013B0C4A52F8232072B1D2E912010A4AE0
S3152002544052F823303BB1D3E902238B4208BF824272
S315200254503CBF1046194670474FF0FF304FF0FF31E0
S31520025460EDE700BF74C8022080C802202DE9F84368
S315200254701E4A1F4F1F48204D0023C7E90023FFF76E
S315200254808DFCFFF737FC002468602E68D5F804806F
S31520025490FFF730FC2B689E42A6EB090204F10104B9
S315200254A019D0012C15D0012A03D8032C01D00224AD
S315200254B0EBE74FF00008B146D7E900010F4C18EB95
S315200254C0000249EB0103C4E90023BDE8F843FFF7D4
S315200254D033BCB146D9E70022804594BF3346731CBC
S315200254E012EB000843F10009E6E700BFF9FFFFDFF0
S315200254F088C80220995502209CC8022090C8022002
