S01100007378313237365F6E732E7372656318
S31520020000609F0320B1990220DE990220DE99022008
S31520020010DE99022080B582B000AF07F110033B6063
S3152002002001237B603B469C4600F006F80BF0A0F8C5
S3152002003000F092FB00BFFDE790B583B000AFC7F892
S3152002004004C01E4B1B781946002003F035FB6FF3C4
S3152002005003046FF307142146012003F02DFB184BEE
S315200200601B781946022003F027FB0023154A4FF07E
S315200200704051002003F0D8FA0023124A4FF00051D3
S31520020080012003F0D1FA01236FF070424FF0804134
S31520020090032003F0C9FA01236FF070424FF060414A
S315200200A0042003F0C1FA0223064A0749052003F079
S315200200B0BBFA03F045FB0C37BD4690BDC0C30220F8
S315200200C0C4C30220FFFF030000000208F0B583B07C
S315200200D000AFC7E900017B681B681E467B681C6867
S315200200E07B685D68AC4210DC396823469A1B13464E
S315200200F05B0113441B010B444FF40071184609F0AF
S31520020100C5F8AC4201D00134EEE70C37BD46F0BD4E
S3152002011080B500AF084B1B7883F00103DBB2002BBE
S3152002012007D1054B00221A7008F050FF09F0A8F9F2
S3152002013000E000BF80BD00BF50DB022080B500AFCB
S315200201409B4B1B78002B40F0B181994B01221A70F0
S31520020150984B4FF0FF321A60974B00221A60974B4A
S3152002016062221A70964B43221A70964B20221A70DC
S31520020170954B46221A70954B53221A70944B954AE8
S315200201801A60954B00221A60944B4FF0FF321A6088
S31520020190934B944A1A60944B00221A60934B002286
S315200201A01A60934B01221A60924B4FF0FF321A606B
S315200201B0914B00221A6000F099F9904B4FF400728D
S315200201C01A608F4B02221A608E4A8F4B1A600120C8
S315200201D008F0D0FE06F0DEF88C4B1B881BB20133EA
S315200201E01AB28A4B1A8009F03FF907F01DFF884B95
S315200201F01B881BB201331AB2854B1A8008F0ECFB1E
S31520020200844B1B881BB201331AB2824B1A80824B53
S315200202101B881BB201331AB27F4B1A8007F05AFE93
S315200202207E4B1B881BB201331AB27C4B1A8008F014
S315200202307DFE7B4B1B881BB201331AB2784B1A8088
S3152002024007F034FE774B1B881BB201331AB2754B6B
S315200202501A8009F029F9744B1B881BB201331AB292
S31520020260714B1A8008F032FE08F024FE6F4B1B8871
S315200202701BB201331AB26D4B1A8005F04DFC6C4B42
S315200202801B881BB201331AB2694B1A8008F0ECFFA5
S31520020290684B1B881BB201331AB2664B1A8006F0D2
S315200202A0EFFA654B1B881BB201331AB2624B1A80D6
S315200202B006F0E8FC614B1B881BB201331AB25F4B76
S315200202C01A8006F0EFFB5E4B1B881BB201331AB273
S315200202D05B4B1A8005F00EFB5A4B1B881BB201336F
S315200202E01AB2584B1A8005F045FB574B1B881BB296
S315200202F001331AB2544B1A80544B1B881BB201335A
S315200203001AB2524B1A80524B1B881BB201331AB2B5
S315200203104F4B1A804F4B1B881BB201331AB24D4BDF
S315200203201A8005F01FFA05F095F94B4B1B881BB274
S3152002033001331AB2484B1A8003F058F901F052F8E9
S3152002034001F028F8454B1B881BB201331AB2434BE6
S315200203501A80434B1B881BB201331AB2404B1A80B8
S3152002036003F010F93F4B1B881BB201331AB23D4BE7
S315200203701A8000F0CDFF3C4B1B881BB201331AB208
S31520020380394B1A80394B1B881BB201331AB2374BB1
S315200203901A80374B1B881BB201331AB2344B1A8090
S315200203A000F024FF00F02CFA00F01EFA62E000BFF3
S315200203B050DB022038E10220D8E10220E0E10220CF
S315200203C0C4E10220D4E10220D5E1022022E102206A
S315200203D0D0E10220E0C30220CCE1022034E1022057
S315200203E0BCE10220E4C30220C8E10220DCE10220B3
S315200203F0B4E10220B0E10220C0E10220B0150320C0
S31520020400A8150320D0E20220AC150320D8DB022057
S315200204106CE10220A0E10220F0E1022064E1022048
S31520020420A8E102205AE10220A4E20220A2E102204F
S31520020430C0DB0220E2E1022020E1022046E1022086
S3152002044024E10220AADB0220B4DB022070DB022098
S3152002045084DB022086DB022088DB02206EDB022080
S31520020460A8DB022072DB02206CDB022052DB022098
S3152002047054DB02200E4B1B881BB201331AB20C4BE3
S315200204801A800C4B1B881BB201331AB2094B1A80F5
S3152002049000F030FF084B1B881BB201331AB2064B01
S315200204A01A8006F06DF906F0CFFA00E000BF80BD93
S315200204B056DB02205ADB022066DB022080B584B09E
S315200204C000AF094B7B6007F10803184608F050FD80
S315200204D0FFF734FEFFF79EFDFFF71AFE08F046FDF2
S315200204E01037BD4680BD00BFD0C3022098B500AFED
S315200204F0034B044C18462146FFF7E8FD98BD00BF82
S31520020500D0E20220C8C3022080B483B000AF786054
S315200205107B6883F311880C37BD465DF8047B7047F0
S3152002052080B582B000AFEFF311837B602020FFF706
S31520020530EBFF7B6800BF18460837BD4680BD00BF6B
S31520020540B0B582B000AF786005F094FA04460D4645
S31520020550786805F0BFFA02460B462046294605F082
S3152002056031FA03460C461846214605F0D7FA0837D3
S31520020570BD46B0BDF0B58FB00AAFF860B960C7E925
S315200205800023FB6800221A60FB6803F5935310339D
S31520020590F0221A60FB6803F5935314334FF480520A
S315200205A01A60FB6803F10802FB681A60FB6803F510
S315200205B0935310331D68FB6803F51C739C46FB6836
S315200205C003F5935314331E68FB68FA68126808927F
S315200205D006AC3A4692E8030084E803000A4A0592EA
S315200205E004930A4B03934FF0FF33029302230193A2
S315200205F04FF000430093002332466146284606F018
S3152002060037FA1437BD46F0BD59DB022025060220F3
S3152002061080B582B000AFC7F804C006F021FA0837C9
S31520020620BD4680BDB0B584B000AF786007F1200327
S31520020630BB6006F013FA124805F0A6FA00F020FD78
S3152002064000F038FB0346FB730E4B1B78002BF5D0CC
S3152002065000F01AF80B4B00221A70EFE70546012428
S3152002066000BF07F108039C46FFF7D2FF012C03D1F6
S315200206702B4618460AF076FB00BF1037BD46B0BDA2
S31520020680F0E6022058DB022090B589B000AF07F1D0
S315200206900803184600F0F8F90023BB760C4B1B78AA
S315200206A0FB76042363F307046FF30B246FF30F34F3
S315200206B0BC8302233B7102237B71BB88FB8307F138
S315200206C008030021184600F00FFA2437BD4690BDD4
S315200206D090F9022080B584B000AF78607B68002B49
S315200206E003D12F21184807F01BFB7B68DB8ABB81CD
S315200206F00223FB730123BB733B7B03F00103DBB2B3
S31520020700002B0CD07B7B03F00103DBB2002B03D042
S315200207100E4802F0FDFB02E00C4802F027FCC8203E
S31520020720FFF70EFF0A4802F021FC0A4802F01EFCDF
S31520020730786800F051FB03467B607B6800BF184651
S315200207401037BD4680BD00BFE8C30220A0FD0220AF
S3152002075068FE0220F0FC022080B582B000AF0AF0CB
S315200207600BFD0346DBB2FF2B03D94421184807F0C1
S31520020770FFFADAB2174B1A70174B1B68184600F0AD
S3152002078055F80246144B1A60144B1B68184600F0A3
S315200207904DF80246114B1A6001237B607B68052BBC
S315200207A010DC0D4B18687A6813465B001344DB0095
S315200207B0183B0B4A1344194600F076F87B6801333E
S315200207C07B60EBE7074805F0D1F90837BD4680BDC7
S315200207D0E8C3022090F902205CDB022060DB0220C3
S315200207E098F90220F0E6022080B400AF034B0122E2
S315200207F01A70BD465DF8047B704700BF59DB0220A4
S31520020800B0B500AF054805F0A7F9054C054D2246BF
S315200208102B4603210448FFF7ADFEB0BDF0E60220C9
S3152002082000C40220F8C3022018E7022080B582B055
S3152002083000AF78607B68002B03D10921074807F0B7
S315200208406FFA7B687A681A607B687A685A607B6876
S3152002085000BF18460837BD4680BD00BF0CC4022023
S3152002086080B584B000AF7860FFF75AFE0346BB60BE
S315200208707B68002B03D113210A4807F051FA7B68C3
S315200208801B687A689A4202D10123FB7301E0002396
S31520020890FB73B868FFF738FEFB7B00BF184610379C
S315200208A0BD4680BD0CC4022080B584B000AF7860FE
S315200208B03960FFF735FE0346FB603B68002B03D108
S315200208C02F211C4807F02CFA3B687A681A603B688D
S315200208D0002B03D13021174807F022FA7B68002B20
S315200208E003D13021134807F01BFA7B685A683B680C
S315200208F05A607B68002B03D131210E4807F010FA8B
S315200209007B683A685A603B68002B03D1322109483A
S3152002091007F006FA3B685B68002B03D132210548B3
S3152002092007F0FEF93A681A60F868FFF7EDFD10370E
S31520020930BD4680BD0CC4022080B584B000AF78606D
S31520020940FFF7EEFD0346FB607B68002B03D13B21BC
S31520020950104807F0E5F97B685B68002B03D13B2141
S315200209600C4807F0DDF97A6812681A607B681B6802
S31520020970002B03D13C21074807F0D2F97A68526846
S315200209805A60F868FFF7C0FD7B6800BF184610372B
S31520020990BD4680BD0CC4022080B586B000AFF8608B
S315200209A0B9607A60FFF7BCFD03467B6100233B6199
S315200209B0BB68002B03D14721144807F0B1F9BB6865
S315200209C01B687B607B68002B03D148210F4807F008
S315200209D0A7F97B681B683B613B69002B03D1492140
S315200209E00A4807F09DF93B69BA685A60BB683A69BA
S315200209F01A607869FFF788FDFB68BA681A60FB6897
S31520020A007A685A60F8681837BD4680BD0CC4022041
S31520020A1080B586B000AF7860FFF782FD0346FB60A3
S31520020A2000237B6100233B617B68002B03D181215C
S31520020A30144807F075F97B681B683B613A697B6845
S31520020A409A4216D07B696FF00042934203D18321EA
S31520020A500C4807F085F97B6901337B613B69002BE2
S31520020A6003D18421074807F05BF93B691B683B6188
S31520020A70E4E7F868FFF748FD7B6900BF1846183798
S31520020A80BD4680BD0CC4022080B483B000AF78601E
S31520020A907B6800221A607B6800225A600C37BD46AA
S31520020AA05DF8047B704700BFF0B583B000AFC7E99D
S31520020AB000017B681B681E467B681C687B685D6834
S31520020AC0AC420EDC396823469A1B13465B0013445C
S31520020AD0DB000B441846FFF7D7FFAC4201D00134A6
S31520020AE0F0E70C37BD46F0BD90B5D1B000AF3B1D47
S31520020AF018600A46FB1C1A700023C7F83831674B68
S31520020B001B681846FFF7ACFE0346002B634B196899
S31520020B1007F58C73D7F838211846FFF73DFFD7F82B
S31520020B2018315E4A1360D7F81C31C7F838315C4B4E
S31520020B301B68D7F838111846FFF7B6FED7F83831B2
S31520020B40002B03D13721574807F0EAF804F092FF29
S31520020B5003460C46D7F83821C2E90234D7F8383191
S31520020B6000221A74D7F838313A1D1268528A5A82EC
S31520020B70D7F838313A1D1268928A9A82FB1C1B7862
S31520020B80002B0CD03B1D1B685B7DC3F30303D9B23C
S31520020B90D7F83821537D61F3030353750AE0424B9C
S31520020BA01B7803F00F03D9B2D7F83821537D61F3AE
S31520020BB003035375D7F838313A1D1268D28ADA827E
S31520020BC00223C7F8343107F10C03384A1846114676
S31520020BD0FF231A4608F070FAD7F838315B8AA7F84D
S31520020BE01431D7F838319B8AA7F810310223C7F877
S31520020BF030310423C7F83C31D7F83831DB8AA7F8DD
S31520020C000C310223C7F82C3107F10C03C7F828311F
S31520020C10D7F82831B7F814211A8007F10C030233CA
S31520020C20C7F82431D7F82431B7F810211A8007F1F2
S31520020C300C030433C7F82031D7F82031B7F80C213A
S31520020C401A803B1D1B681B7DDBB2042B02D0052BB1
S31520020C5004D007E00623C7F83C3106E00623C7F88E
S31520020C603C3102E00423C7F83C3100BF104802F0B1
S31520020C704FF907F10C03D7F83C1118460AF084FA0B
S31520020C80094B1B780133DBB203F00F03DAB2064BB2
S31520020C901A7007F5A277BD4690BD00BF5CDB022025
S31520020CA060DB02201CC4022064DB022040FA022000
S31520020CB0F0FC022080B586B000AF00233B61002302
S31520020CC0FB75214A214922480AF05AFA0346012B8A
S31520020CD034D11F4B1B78FF2B0CBF01230023DAB222
S31520020CE01B4B19781B4B1B7899420CBF01230023FF
S31520020CF0DBB21343DBB2002B20D0174B19683B1D06
S31520020D003A691846FFF748FE7B68134A1360BB68A8
S31520020D103B61124B1B6839691846FFF7C5FD0F4B1D
S31520020D201B681846FFF774FE0346FB6039690848BC
S31520020D3000F034F903463B610123FB75FB7D00BFBE
S31520020D4018461837BD4680BD44FC022040FC0220CE
S31520020D5040FB022090F902205CDB022060DB0220AD
S31520020D6090B589B000AF786007F108031846FFF7FF
S31520020D708BFE7B68002B03D17921154806F0D0FF24
S31520020D807B68DB7CDBB2BB76124B1B78FB760123BE
S31520020D9063F307046FF30B246FF30F34BC837B6872
S31520020DA0002B03D17C210A4806F0BAFF7B685B7DC3
S31520020DB0C3F30303DAB27B7F62F303037B7707F184
S31520020DC0080301211846FFF78FFE2437BD4690BD42
S31520020DD01CC4022090F9022090B589B000AF786039
S31520020DE007F108031846FFF74FFE7B68002B03D155
S31520020DF084211C4806F094FF7B68DB7CDBB2BB7641
S31520020E00194B1B78FB76052363F307046FF30B2438
S31520020E106FF30F34BC837B685B7DC3F30303DAB2C3
S31520020E207B7F62F303037B777B68DB8AFB830F4836
S31520020E3002F06EF807F1080301211846FFF754FE67
S31520020E407868FFF779FD03467B60094B1B68796852
S31520020E501846FFF729FD7B6800BF18462437BD4692
S31520020E6090BD00BF1CC4022090F9022068FE022019
S31520020E705CDB022080B586B000AF78603980002323
S31520020E80FB6000237B61424B1B68FB60F868FFF71F
S31520020E90E7FC034683F00103DBB2002B75D0F8682A
S31520020EA0FFF7B6FD03463B61FB68002B03D19A216F
S31520020EB0384806F035FFFB681B687B613B69002BCF
S31520020EC063DD7B69002B03D19D21324806F028FF82
S31520020ED07B68002B03D19D212E4806F021FF7B69DA
S31520020EE0002B03D19E212B4806F01AFF7B68002B8C
S31520020EF003D19F21274806F013FF7B699B7CDAB238
S31520020F007B68DB7CDBB29A420CBF01230023DAB278
S31520020F107B691B7DDBB2042B0CBF01230023DBB2D2
S31520020F201340DAB27B695B7DC3F30303D9B27B68D4
S31520020F305B7DC3F30303DBB299420CBF012300237B
S31520020F40DBB21340DBB2002B0BD07869FFF7F4FC3F
S31520020F5003467B61104B1B6879691846FFF7A4FC90
S31520020F6013E03B69013B002B03DAA521094806F071
S31520020F70FFFE3B617B69002B03D1A621054806F0C3
S31520020F80CFFE7B691B687B6198E71837BD4680BD1B
S31520020F9060DB02201CC402205CDB022090B58BB0F1
S31520020FA000AF7860396002237B6202233B6204230E
S31520020FB0FB617B68BB617B6802337B613B68002BEC
S31520020FC003D1B7212C4806F0ABFE04F053FD0346AD
S31520020FD00C463A68C2E90234284B1B68002B03DB15
S31520020FE0264B1B68FF2B03DDB821234806F0C0FEE3
S31520020FF0224B1B68DAB23B681A743B68BA691288BC
S315200210005A823B687A6912889A827B691B78052BF9
S315200210102AD801A252F823F03110022039100220D8
S3152002102069100220691002203D100220571002206A
S315200210303868FFF795FE18E000BF16E07B68043398
S31520021040FB603B68FA681288DA823868FFF742FB4F
S3152002105003463B6009E07B6804333B613B691988A0
S315200210603868FFF707FF00E000BF00BF3B6800BFFC
S3152002107018462C37BD4690BD1CC4022044FC0220D3
S31520021080B0B584B000AF00237B600023FB604FF431
S315200210907A733B60524B1B687B607868FFF7E0FBF4
S315200210A0034683F00103DBB2002B00F095807868BB
S315200210B0FFF7AEFC0346BB607B68002B03D1E2211F
S315200210C0484806F02DFE7B681B68FB60BB68002B38
S315200210D040F38280FB68002B03D1EA21414806F0C7
S315200210E01FFE04F0C7FCFB68D3E902341A462346E6
S315200210F004F09CFC04460D464FF47A7004F0EAFC98
S3152002110002460B46A242AB4152DAFB68002B03D1C0
S31520021110EB21344806F004FEFB681B7DDBB2042B70
S315200211203BD1FB68002B03D1EC212E4806F0F8FDBB
S31520021130FB685B7DC3F30313DBB2042B0BD1F86888
S31520021140FFF7FAFB0346FB60274B1B68F968184634
S31520021150FFF7AAFB2CE0FB68002B03D1F0212148E4
S3152002116006F0DEFDFB685B7DC3F30313DBB20133BE
S31520021170DBB203F00F03D9B2FA68537D61F307138A
S315200211805375FB68002B03D1F121164806F0C8FDE2
S315200211900121F868FFF7A8FC0AE0F868FFF7CCFB04
S315200211A00346FB60104B1B68F9681846FFF77CFB69
S315200211B0BB68013B002B03DAF9210A4806F0D8FD69
S315200211C0BB60FB68002B03D1FA21064806F0A8FD76
S315200211D0FB681B68FB6079E71037BD46B0BD00BFD0
S315200211E060DB02201CC402205CDB022098B500AF23
S315200211F0064B074C18462146FFF756FC0548FFF7D3
S3152002120043FC0548FFF740FC98BD00BF98F9022031
S315200212102CC4022010FA022028FA0220B0B586B089
S3152002122000AF78607B68FF21184605F0E1FA1823A3
S31520021230FB607B683B61074B7B6107F10C031C4615
S31520021240054D21462A46FF2005F05AFA1837BD4693
S31520021250B0BD00BFA912022034C4022080B584B0DA
S3152002126000AF78607B68FB600D2001F06FFA0346C1
S31520021270002B05D00D2001F0A7FA034B01221A708C
S315200212801037BD4680BD00BF58DB022080B582B034
S3152002129000AF6346C7F804C01B68184605F0DAFAA1
S315200212A00837BD4680BD00BFB0B584B000AF7860B8
S315200212B007F12003FB607B68BB60BB68184605F01C
S315200212C0A1FABB681846FFF7C9FF012407F10803F4
S315200212D09C46FFF7DBFF012C07D002E005460024DF
S315200212E0F4E72B46184609F03DFD00BF1037BD46F0
S315200212F0B0BD00BF80B500AF0348FFF78FFF034B99
S3152002130001221A6080BD00BF48FC022068DB022051
S3152002131098B500AF094B0A4C1846214601F0F6FB58
S315200213200849064801F0BAFB0749084801F0B6FB0E
S315200213300749084801F0B2FB98BD00BF58FC0220BD
S315200213403CC40220F0FC0220A0FD022064FC022004
S3152002135068FE022070FC022080B485B000AF78605F
S3152002136007F10803FB607B68BB60094B1B68002BF7
S3152002137005D0FB681B6803F18052FB681A60BB68C4
S3152002138000BF18461437BD465DF8047B704700BF80
S31520021390A699022080B582B000AF0E48FFF7DCFF87
S315200213A003467B600C4A3B1D13600B4B1B681B6874
S315200213B01A460A4B1A60084B1B681B6803F0030384
S315200213C0002B03D03121064806F0E6FC0837BD463D
S315200213D080BD00BF00100240EC020320F002032071
S315200213E074C4022080B58CB000AF6D48FFF7B4FFFD
S315200213F003467B606B4A3B1D13606A4B1B681B6866
S315200214001A46694B1A60674B1B681B6803F0030375
S31520021410002B03D04F21654806F0BEFC624B1B68A9
S31520021420634A5360624B01221A81624A604B1A60F8
S315200214305D4B1B68604A53605F4B02221A815D4AEC
S315200214405D4B1A60584B1B685C4A53605B4B042207
S315200214501A81584A594B1A60534B1B68584A536093
S31520021460574B08221A81534A554B1A604E4B1B681A
S31520021470544A5360534B10221A814E4A514B1A60DA
S31520021480494B1B68504A53604F4B20221A81494AC6
S315200214904D4B1A60444B1B684C4A53604B4B4022BF
S315200214A01A81444A494B1A603F4B1B68484A53608B
S315200214B0474B80221A813F4A454B1A603A4B1B689A
S315200214C0444A5360434B4FF480721A81394A414B46
S315200214D01A60354B1B68404A53603F4B4FF40072EB
S315200214E01A81344A3C4B1A602F4B1B683B4A536085
S315200214F03A4B4FF480621A812E4A384B1A602A4B95
S315200215001B68374A5360364B4FF400621A81294AC8
S31520021510334B1A60244B1B68324A5360314B4FF4CB
S3152002152080521A81234A2F4B1A601F4B1B682E4A60
S3152002153053602D4B4FF400521A811E4A2A4B1A60D1
S31520021540194B1B68294A5360284B4FF480421A8153
S31520021550184A264B1A60144B1B68254A5360244BA3
S315200215604FF400421A81134A214B1A602148FFF791
S31520021570F3FE0346BB60204A07F1080313601E4BA5
S315200215801B681B681A461D4B1A601B4B1B681B687F
S3152002159003F00303002B33D05021044806F0FCFB52
S315200215A0000002427CFC022080FC0220D8C40220D9
S315200215B084FC0220CCC6022090FC02209CFC022045
S315200215C0A8FC0220B4FC0220C0FC0220CCFC022093
S315200215D0D8FC0220E4FC0220F0FC0220FCFC0220C3
S315200215E008FD022014FD022020FD02202CFD0220EF
S315200215F038FD02200004024244FD022048FD02205A
S31520021600604B1B68604A53605F4B01221A815F4A16
S315200216105D4B1A605B4B1B685D4A53605C4B022232
S315200216201A815A4A5A4B1A60564B1B68594A5360BA
S31520021630584B04221A81554A564B1A60514B1B6845
S31520021640554A5360544B08221A81504A524B1A600B
S315200216504C4B1B68514A5360504B10221A814B4AFD
S315200216604E4B1A60474B1B684D4A53604C4B202207
S315200216701A81464A4A4B1A60424B1B68494A5360B2
S31520021680484B40221A81414A464B1A603D4B1B6801
S31520021690454A5360444B80221A813C4A424B1A6087
S315200216A0384B1B68414A5360404B4FF480721A8173
S315200216B0364A3E4B1A60334B1B683D4A53603C4BBD
S315200216C04FF400721A81314A394B1A602D4B1B682E
S315200216D0384A5360374B4FF480621A812B4A354B76
S315200216E01A60284B1B68344A5360334B4FF400620E
S315200216F01A81264A304B1A60224B1B682F4A5360A6
S315200217002E4B4FF480521A81204A2C4B1A601D4BC5
S315200217101B682B4A53602A4B4FF400521A811B4AEC
S31520021720274B1A60174B1B68264A5360254B4FF4EA
S3152002173080421A81154A234B1A60124B1B68224A91
S315200217405360214B4FF400421A81104A1E4B1A60F5
S315200217501E48FFF701FE0346FB601D4A07F10C03F4
S3152002176013601B4B1B681B681A461A4B1A60184BD0
S315200217701B681B6803F00303002B2FD05121164848
S3152002178006F00AFB48FD02204CFD0220CCC60220B0
S3152002179058FD022064FD022070FD02207CFD0220FD
S315200217A088FD022094FD0220A0FD0220ACFD02202D
S315200217B0B8FD0220C4FD0220D0FD0220DCFD02205D
S315200217C0E8FD0220F4FD022000FE0220000802426B
S315200217D00CFE022010FE0220D8C40220604B1B6899
S315200217E0604A53605F4B01221A815F4A5D4B1A6041
S315200217F05B4B1B685D4A53605C4B02221A815A4A34
S315200218005A4B1A60564B1B68594A5360584B04224E
S315200218101A81554A564B1A60514B1B68554A5360DA
S31520021820544B08221A81504A524B1A604C4B1B6861
S31520021830514A5360504B10221A814B4A4E4B1A6022
S31520021840474B1B684D4A53604C4B20221A81464A0D
S315200218504A4B1A60424B1B68494A5360484B402206
S315200218601A81414A464B1A603D4B1B68454A5360D2
S31520021870444B80221A813C4A424B1A60384B1B68E1
S31520021880414A5360404B4FF480721A81364A3E4B8E
S315200218901A60334B1B683D4A53603C4B4FF400722F
S315200218A01A81314A394B1A602D4B1B68384A5360CC
S315200218B0374B4FF480621A812B4A354B1A60284BDC
S315200218C01B68344A5360334B4FF400621A81264A0E
S315200218D0304B1A60224B1B682F4A53602E4B4FF413
S315200218E080521A81204A2C4B1A601D4B1B682B4AA8
S315200218F053602A4B4FF400521A811B4A274B1A6017
S31520021900174B1B68264A5360254B4FF480421A8197
S31520021910154A234B1A60124B1B68224A5360214BED
S315200219204FF400421A81104A1E4B1A601E48FFF7D6
S3152002193013FD03463B611D4A07F1100313601B4B3F
S315200219401B681B681A461A4B1A60184B1B681B68C1
S3152002195003F00303002B2FD05221164806F01CFA5F
S3152002196010FE022014FE0220CCC6022020FE0220F7
S315200219702CFE022038FE022044FE022050FE0220C7
S315200219805CFE022068FE022074FE022080FE0220F7
S315200219908CFE022098FE0220A4FE0220B0FE022027
S315200219A0BCFE0220C8FE0220000C0242D4FE022007
S315200219B0D8FE0220D8C40220604B1B68604A5360BE
S315200219C05F4B01221A815F4A5D4B1A605B4B1B6893
S315200219D05D4A53605C4B02221A815A4A5A4B1A605C
S315200219E0564B1B68594A5360584B04221A81554A52
S315200219F0564B1A60514B1B68554A5360544B08226A
S31520021A001A81504A524B1A604C4B1B68514A5360FA
S31520021A10504B10221A814B4A4E4B1A60474B1B6879
S31520021A204D4A53604C4B20221A81464A4A4B1A6031
S31520021A30424B1B68494A5360484B40221A81414A0D
S31520021A40464B1A603D4B1B68454A5360444B8022E5
S31520021A501A813C4A424B1A60384B1B68414A5360F2
S31520021A60404B4FF480721A81364A3E4B1A60334BF2
S31520021A701B683D4A53603C4B4FF400721A81314A2F
S31520021A80394B1A602D4B1B68384A5360374B4FF43B
S31520021A9080621A812B4A354B1A60284B1B68344ABE
S31520021AA05360334B4FF400621A81264A304B1A6038
S31520021AB0224B1B682F4A53602E4B4FF480521A81B9
S31520021AC0204A2C4B1A601D4B1B682B4A53602A4B0B
S31520021AD04FF400521A811B4A274B1A60174B1B6878
S31520021AE0264A5360254B4FF480421A81154A234BCE
S31520021AF01A60124B1B68224A5360214B4FF4004254
S31520021B001A81104A1E4B1A601E48FFF725FC03460F
S31520021B107B611D4A07F1140313601B4B1B681B686C
S31520021B201A461A4B1A60184B1B681B6803F00303EC
S31520021B30002B2FD05321164806F02EF9D8FE02206C
S31520021B40DCFE0220CCC60220E8FE0220F4FE0220A1
S31520021B5000FF02200CFF022018FF022024FF022091
S31520021B6030FF02203CFF022048FF022054FF0220C1
S31520021B7060FF02206CFF022078FF022084FF0220F1
S31520021B8090FF0220001002429CFF0220A0FF0220AA
S31520021B90D8C40220604B1B68604A53605F4B012207
S31520021BA01A815F4A5D4B1A605B4B1B685D4A536024
S31520021BB05C4B02221A815A4A5A4B1A60564B1B68B0
S31520021BC0594A5360584B04221A81554A564B1A6079
S31520021BD0514B1B68554A5360544B08221A81504A6E
S31520021BE0524B1A604C4B1B68514A5360504B102281
S31520021BF01A814B4A4E4B1A60474B1B684D4A53601B
S31520021C004C4B20221A81464A4A4B1A60424B1B6889
S31520021C10494A5360484B40221A81414A464B1A6030
S31520021C203D4B1B68454A5360444B80221A813C4AED
S31520021C30424B1A60384B1B68414A5360404B4FF463
S31520021C4080721A81364A3E4B1A60334B1B683D4AD4
S31520021C5053603C4B4FF400721A81314A394B1A6059
S31520021C602D4B1B68384A5360374B4FF480621A81DA
S31520021C702B4A354B1A60284B1B68344A5360334B28
S31520021C804FF400621A81264A304B1A60224B1B6897
S31520021C902F4A53602E4B4FF480521A81204A2C4BE6
S31520021CA01A601D4B1B682B4A53602A4B4FF4005275
S31520021CB01A811B4A274B1A60174B1B68264A536008
S31520021CC0254B4FF480421A81154A234B1A60124B38
S31520021CD01B68224A5360214B4FF400421A81104A54
S31520021CE01E4B1A601E48FFF737FB0346BB611D4A8F
S31520021CF007F1180313601B4B1B681B681A461A4B05
S31520021D001A60184B1B681B6803F00303002B2FD0A5
S31520021D105421164806F040F8A0FF0220A4FF022014
S31520021D20CCC60220B0FF0220BCFF0220C8FF022040
S31520021D30D4FF0220E0FF0220ECFF0220F8FF02205F
S31520021D4004000320100003201C0003202800032087
S31520021D5034000320400003204C00032058000320B7
S31520021D60001402426400032068000320D8C4022023
S31520021D70604B1B68604A53605F4B01221A815F4A9F
S31520021D805D4B1A605B4B1B685D4A53605C4B0222BB
S31520021D901A815A4A5A4B1A60564B1B68594A536043
S31520021DA0584B04221A81554A564B1A60514B1B68CE
S31520021DB0554A5360544B08221A81504A524B1A6094
S31520021DC04C4B1B68514A5360504B10221A814B4A86
S31520021DD04E4B1A60474B1B684D4A53604C4B202290
S31520021DE01A81464A4A4B1A60424B1B68494A53603B
S31520021DF0484B40221A81414A464B1A603D4B1B688A
S31520021E00454A5360444B80221A813C4A424B1A600F
S31520021E10384B1B68414A5360404B4FF480721A81FB
S31520021E20364A3E4B1A60334B1B683D4A53603C4B45
S31520021E304FF400721A81314A394B1A602D4B1B68B6
S31520021E40384A5360374B4FF480621A812B4A354BFE
S31520021E501A60284B1B68344A5360334B4FF4006296
S31520021E601A81264A304B1A60224B1B682F4A53602E
S31520021E702E4B4FF480521A81204A2C4B1A601D4B4E
S31520021E801B682B4A53602A4B4FF400521A811B4A75
S31520021E90274B1A60174B1B68264A5360254B4FF473
S31520021EA080421A81154A234B1A60124B1B68224A1A
S31520021EB05360214B4FF400421A81104A1E4B1A607E
S31520021EC01E48FFF749FA0346FB611D4A07F11C0328
S31520021ED013601B4B1B681B681A461A4B1A60184B59
S31520021EE01B681B6803F00303002B2FD055211648CD
S31520021EF005F052FF680003206C000320CCC60220A6
S31520021F007800032084000320900003209C000320F5
S31520021F10A8000320B4000320C0000320CC00032025
S31520021F20D8000320E4000320F0000320FC00032055
S31520021F300801032014010320200103200018024275
S31520021F402C01032030010320D8C40220604B1B68D9
S31520021F50604A53605F4B01221A815F4A5D4B1A60C9
S31520021F605B4B1B685D4A53605C4B02221A815A4ABC
S31520021F705A4B1A60564B1B68594A5360584B0422D7
S31520021F801A81554A564B1A60514B1B68554A536063
S31520021F90544B08221A81504A524B1A604C4B1B68EA
S31520021FA0514A5360504B10221A814B4A4E4B1A60AB
S31520021FB0474B1B684D4A53604C4B20221A81464A96
S31520021FC04A4B1A60424B1B68494A5360484B40228F
S31520021FD01A81414A464B1A603D4B1B68454A53605B
S31520021FE0444B80221A813C4A424B1A60384B1B686A
S31520021FF0414A5360404B4FF480721A81364A3E4B17
S315200220001A60334B1B683D4A53603C4B4FF40072B7
S315200220101A81314A394B1A602D4B1B68384A536054
S31520022020374B4FF480621A812B4A354B1A60284B64
S315200220301B68344A5360334B4FF400621A81264A96
S31520022040304B1A60224B1B682F4A53602E4B4FF49B
S3152002205080521A81204A2C4B1A601D4B1B682B4A30
S3152002206053602A4B4FF400521A811B4A274B1A609F
S31520022070174B1B68264A5360254B4FF480421A8120
S31520022080154A234B1A60124B1B68224A5360214B76
S315200220904FF400421A81104A1E4B1A601E48FFF75F
S315200220A05BF903463B621D4A07F1200313601B4B73
S315200220B01B681B681A461A4B1A60184B1B681B684A
S315200220C003F00303002B2FD05621164805F064FE99
S315200220D03001032034010320CCC602204001032014
S315200220E04C010320580103206401032070010320C0
S315200220F07C0103208801032094010320A0010320F0
S31520022100AC010320B8010320C4010320D00103201F
S31520022110DC010320E8010320001C0242F401032013
S31520022120F8010320D8C40220884B1B68884A5360D2
S31520022130874B01221A81874A854B1A60834B1B687B
S31520022140854A5360844B02221A81824A824B1A6044
S315200221507E4B1B68814A5360804B04221A817D4A3A
S315200221607E4B1A60794B1B687D4A53607C4B082252
S315200221701A81784A7A4B1A60744B1B68794A5360E3
S31520022180784B10221A81734A764B1A606F4B1B6862
S31520022190754A5360744B20221A816E4A724B1A601A
S315200221A06A4B1B68714A5360704B40221A81694AF6
S315200221B06E4B1A60654B1B686D4A53606C4B8022CE
S315200221C01A81644A6A4B1A60604B1B68694A5360DB
S315200221D0684B4FF480721A815E4A664B1A605B4BDB
S315200221E01B68654A5360644B4FF400721A81594A40
S315200221F0614B1A60554B1B68604A53605F4B4FF424
S3152002220080621A81534A5D4B1A60504B1B685C4AA6
S3152002221053605B4B4FF400621A814E4A584B1A6048
S315200222204A4B1B68574A5360564B4FF480521A81C9
S31520022230484A544B1A60454B1B68534A5360524BCB
S315200222404FF400521A81434A4F4B1A603F4B1B6888
S315200222504E4A53604D4B4FF480421A813D4A4B4BB6
S315200222601A603A4B1B684A4A5360494B4FF4004264
S315200222701A81384A464B1A604648FFF76DF80346DC
S315200222807B62454A07F124031360434B1B681B6894
S315200222901A46424B1A60404B1B681B6803F0030325
S315200222A0002B04D04FF483713D4805F075FD3B4B5E
S315200222B01B68012219463B4801F054FA3A48FFF7B7
S315200222C04BF80346BB62394A07F128031360374BA2
S315200222D01B681B681A46364B1A60344B1B681B68F0
S315200222E003F00303002B04D04FF484712C4805F02D
S315200222F053FD2F4B1B68012219462E4801F032FA54
S315200223002D48FFF729F80346FB622C4A07F12C03D6
S3152002231013602A4B1B681B681A46294B1A60274BE7
S315200223201B681B6803F00303002B04D04FF485714E
S315200223301B4805F031FD224B1B6801221946214814
S3152002234001F010FA3037BD4680BD00BFF8010320E8
S31520022350FC010320CCC6022008020320140203201B
S31520022360200203202C0203203802032044020320E9
S31520022370500203205C020320680203207402032019
S31520022380800203208C02032098020320A402032049
S31520022390B002032000300140BC020320C002032009
S315200223A0D8C40220C402032000380040CC020320F5
S315200223B0D0020320D4020320003C0040DC0203208A
S315200223C0E0020320E402032080B58AB000AF034670
S315200223D0FB710B46BB7113467B71FB797B627B6A71
S315200223E01F2B03DD3C21904805F0AAFC8F4B80333E
S315200223F01B683B623A6A7B6A012101FA03F38B4925
S315200224008031096813431946884B80330A461A607D
S315200224107B6A1F2B03DD3D21834805F091FC834B0C
S3152002242014331B68FB61FA697B6A012101FA03F303
S31520022430DB431A4079797B6A01FA03F37B4914312B
S31520022440096813431946794B14330A461A607B6A84
S31520022450112B40F382807B6A142B02DD7B6A162BBA
S3152002246003DD3F21704805F06BFC704B1B68C3F3FC
S315200224704153DAB23B7E62F301033B763B7EC3F3E2
S315200224800103DBB21A467B6A153B194601238B40B0
S31520022490DBB2DB43DBB21340DAB2BB79002B02D0CC
S315200224A0BB79022B01D1012300E0002303F00303B1
S315200224B0DBB219467B6A153B01FA03F3DBB21343FF
S315200224C0DAB25A4B1B6802F00302D2B262F35653B7
S315200224D0564A13607B6A142B02DD7B6A162B03DDB8
S315200224E04121514805F02CFC504B04331B68C3F3A1
S315200224F04153DAB23B7D62F301033B753B7DC3F365
S315200225000103DBB21A467B6A153B194601238B402F
S31520022510DBB2DB43DBB21340DAB2BB79012B02D04A
S31520022520BB79022B01D1012300E0002303F0030330
S31520022530DBB219467B6A153B01FA03F3DBB213437E
S31520022540DAB23A4B04331B6802F00302D2B262F3C8
S315200225505653364A0432136062E07B6A102B03DD3F
S315200225604421314805F0ECFB304B1B68C3F31002C3
S315200225703B6962F310033B613B69C3F310031946BF
S315200225807B6A012202FA03F3DB4301EA0302BB79E7
S31520022590002B02D0BB79022B01D1012300E00023BC
S315200225A019467B6A01FA03F31A43204B1B68C2F3CE
S315200225B0100262F310031D4A13607B6A102B03DD9F
S315200225C04621194805F0BCFB184B04331B68C3F39C
S315200225D01002FB6862F31003FB60FB68C3F310036F
S315200225E019467B6A012202FA03F3DB4301EA03025C
S315200225F0BB79012B02D0BB79022B01D1012300E04A
S31520022600002319467B6A01FA03F31A43074B043364
S315200226101B68C2F3100262F31003044A04321360E9
S315200226202837BD4680BD00BFECC4022000F402401C
S3152002263080B586B000AF03460A46FB711346BB71CE
S31520022640FB797B617B691F2B03DD66213D4805F003
S3152002265077FB3D4B84331B683B613A697B690121D9
S3152002266001FA03F338498431096813431946364B74
S3152002267084330A461A607B69102B03DD67213148B1
S3152002268005F05EFB304B1B68C3F31002FB6862F356
S315200226901003FB60FB68C3F3100319467B69012212
S315200226A002FA03F3DB4301EA0302BB79002B02D0D1
S315200226B0BB79022B01D1012300E0002319467B6955
S315200226C001FA03F31A43204B1B68C2F3100262F38A
S315200226D010031D4A13607B69102B03DD69211948FB
S315200226E005F02EFB184B04331B68C3F31002BB689C
S315200226F062F31003BB60BB68C3F3100319467B6900
S31520022700012202FA03F3DB4301EA0302BB79012B1E
S3152002271002D0BB79022B01D1012300E00023194606
S315200227207B6901FA03F31A43074B04331B68C2F38E
S31520022730100262F31003044A043213601837BD46AE
S3152002274080BD00BFECC4022000F4024080B582B0F6
S3152002275000AF0346FB71FB79112B14D8FB79102BA2
S3152002276003D98921164805F003FB164B0C331B6847
S31520022770C3F310031A46FB7922FA03F3DBB203F002
S315200227800103DBB216E0FB79142B03D88B210C480C
S3152002279005F0EEFA0B4B0C331B68C3F34153DBB245
S315200227A01A46FB79153B22FA03F3DBB203F0010347
S315200227B0DBB200BF00BF18460837BD4680BD00BF4A
S315200227C0ECC4022000F4024080B584B000AF034678
S315200227D0FB71FB79112B24D8FB79102B03D9972176
S315200227E0264805F0C5FA264B0C331B68C3F31002A4
S315200227F0FB6862F31003FB60FB68C3F31003194600
S31520022800FB79012202FA03F341EA03021C4B0C3341
S315200228101B68C2F3100262F31003194A0C321360CA
S3152002282028E0FB79142B03D89921144805F0A0FA45
S31520022830134B0C331B68C3F34153DAB23B7A62F370
S3152002284001033B723B7AC3F30103DBB21A46FB79DF
S31520022850153B194601238B40DBB21343DAB2084BF0
S315200228600C331B6802F00302D2B262F35653044AB7
S315200228700C3213601037BD4680BD00BFECC4022067
S3152002288000F4024080B582B000AF03460A46FB80C0
S3152002289013467B71FB88802B42D0802B11D8082BC4
S315200228A036D0082B06D8022B2ED0042B2ED0012B65
S315200228B028D047E0202B2FD0402B2FD0102B29D0E9
S315200228C040E0B3F5006F33D0B3F5006F09D8B3F506
S315200228D0007F29D0B3F5806F28D0B3F5807F21D031
S315200228E030E0B3F5005F27D0B3F5005F03D8B3F528
S315200228F0805F1FD026E0B3F5804F1FD0B3F5004F7F
S315200229001ED01FE0002326E0012324E0022322E03A
S31520022910032320E004231EE005231CE006231AE0FD
S31520022920072318E0082316E0092314E00A2312E0FD
S315200229300B2310E00C230EE00D230CE00E230AE0FD
S315200229400F2308E07B79002B03D03521044805F0BC
S31520022950FFF94FF0FF3318460837BD4680BD00BF4A
S31520022960FCC4022080B483B000AF78600B46FB70B3
S31520022970FB78002B02D0054A7B681A607B6800220E
S315200229805A600C37BD465DF8047B7047CCC60220E0
S3152002299090B482B000AF78604FF060034FF000042D
S315200229A0184621460837BD4690BC704780B584B08C
S315200229B000AFF860B9607A60F86806F07BFD0346DE
S315200229C01A46BB685A60F86806F090FD03461A4616
S315200229D0BB681A811037BD4680BD00BF80B584B062
S315200229E000AFF860B9607A60BB685968F86806F08B
S315200229F09BFDBB681B891946F86806F0A5FD1037B2
S31520022A00BD4680BDB0B586B000AF7860396007F1AB
S31520022A100C0301211846FFF7A5FF07F10C033A68BC
S31520022A2019467868FFF7C2FF0C2006F031FC0546EE
S31520022A302B461C4607F10C0393E8070084E807009F
S31520022A402B4618461837BD46B0BD00BF80B584B0A8
S31520022A5000AFF860B9607A607A68B968F868FFF7FB
S31520022A60BDFF1037BD4680BD80B483B000AF78600D
S31520022A7039607B685A683B685B689A4207D17B68F3
S31520022A801A893B681B899A4201D1012300E000235F
S31520022A9018460C37BD465DF8047B704790B4ECB0FF
S31520022AA000AF3B1D18603B4619603B1D1A683B462A
S31520022AB01B689A420DD03B1D1B681C683B1D19687A
S31520022AC03B461A680B4607CA83E807003B1D1B686C
S31520022AD01C6007F5D877BD4690BC704780B483B09A
S31520022AE000AF78600B46FB700C37BD465DF8047B61
S31520022AF0704700BF80B483B000AF78600B46FB708E
S31520022B000C37BD465DF8047B704700BFF0B583B035
S31520022B1000AFC7E900017B681B681E467B681C68FC
S31520022B207B685D68AC420FDC396823469A1B1346E4
S31520022B305B0013449B000B4401211846FFF712FF4A
S31520022B40AC4201D00134EFE70C37BD46F0BD00BFE1
S31520022B5080B584B000AF7860214B1B7883F00103E7
S31520022B60DBB2002B03D052211E4805F009F97B68FF
S31520022B701B8901211846FFF785FE0346002B01DB40
S31520022B800F2B03DD5321174805F0F2F8FB607B6813
S31520022B905B68002B03D15521124805F0C1F87B68EA
S31520022BA05B681B681A46FB685B0022FA03F3DBB2FA
S31520022BB003F00303DBB2032B03D95521094805F0A1
S31520022BC0C7F8002B03D0012B03D1022302E00123F5
S31520022BD000E0002300BF18461037BD4680BD00BF67
S31520022BE074DB02200CC5022080B586B000AF786067
S31520022BF00B46FB70354B1B7883F00103DBB2002BAF
S31520022C0003D06121324805F0BBF87B681B8901217C
S31520022C101846FFF737FE0346002B01DB0F2B03DD99
S31520022C2066212B4805F0A4F87B61FB78002B02D0A5
S31520022C30FB78022B03D96821254805F089F8FB7811
S31520022C40022B21D17B685B68002B03D16A212048A5
S31520022C5005F066F87B6859680B461B683B613A6942
S31520022C607B695B00184603238340DB431A407B695A
S31520022C705B00184601238340084600681343184622
S31520022C800B4602461A601AE07B685B68002B03D16A
S31520022C906C210F4805F044F87B6859680B461B687F
S31520022CA0FB60FA687B695B00184603238340DB439B
S31520022CB008460068134018460B4602461A6001234E
S31520022CC000BF18461837BD4680BD00BF75DB0220FF
S31520022CD00CC5022080B584B000AF7860294B1B78E2
S31520022CE083F00103DBB2002B03D07621264805F0C0
S31520022CF047F87B681B8901211846FFF7C3FD034667
S31520022D00002B01DB0F2B03DD7A211F4805F030F85B
S31520022D10FB607B685B68002B03D17C211A4804F098
S31520022D20FFFF7B685B680C331B681A46FB685B00F7
S31520022D3022FA03F3DBB203F00303DBB2002B01D149
S31520022D40002319E07B685B68002B03D17E210E48A5
S31520022D5004F0E6FF7B685B680C331B681A46FB6847
S31520022D605B0022FA03F3DBB203F00303DBB2012B8F
S31520022D7001D1012300E0022300BF18461037BD46C9
S31520022D8080BD00BF76DB02200CC5022080B586B04E
S31520022D9000AF78600B46FB70494B1B7883F001032A
S31520022DA0DBB2002B03D08A21464804F0E9FF7B6878
S31520022DB01B8901211846FFF765FD0346002B01DB1F
S31520022DC00F2B03DD8F213F4804F0D2FF7B61FB7876
S31520022DD0022B03D991213B4804F0BAFFFB78002B42
S31520022DE002D0012B1ED041E07B685B68002B03D109
S31520022DF09321344804F094FF7B685B6803F10C024C
S31520022E0012683A6139697A69520010460322824071
S31520022E10D24303F10C0000680A4010460C330246E6
S31520022E201A6046E07B685B68002B03D19521254812
S31520022E3004F076FF7B685B6803F10C021268FA6085
S31520022E40F9687A695200104603228240D243114021
S31520022E507A69520010460122824003F10C00006872
S31520022E600A4310460C3302461A6022E07B685B68EE
S31520022E70002B03D19721134804F052FF7B685B682D
S31520022E8003F10C021268BA60B9687A6952001046D8
S31520022E9003228240D24311407A695200104602220E
S31520022EA0824003F10C0000680A4310460C330246A6
S31520022EB01A6000BF012300BF18461837BD4680BDE1
S31520022EC077DB02200CC5022080B584B000AF786083
S31520022ED07B681B89FB817B685B68002B03D1A4215D
S31520022EE00A4804F01DFF7B685B6810331B689AB2A0
S31520022EF0FB8913409BB2FA899A420CBF0123002315
S31520022F00DBB200BF18461037BD4680BD0CC5022075
S31520022F10B0B582B000AF78607868FFF719FE034635
S31520022F20022B05D00E4C0F4D2046294605F0AEFC4D
S31520022F307B685B68002B03D1BD210B4804F0F0FEB1
S31520022F407B685B6818331B687A68128962F30F0301
S31520022F507A685268183213600837BD46B0BD00BF82
S31520022F601CC5022050C502200CC50220B0B582B075
S31520022F7000AF78607868FFF7EBFD0346022B05D099
S31520022F800E4C0F4D2046294605F080FC7B685B6877
S31520022F90002B03D1D4210B4804F0C2FE7B685B6868
S31520022FA018331B687A68128962F31F437A6852685B
S31520022FB0183213600837BD46B0BD00BF58C502207F
S31520022FC050C502200CC50220B0B582B000AF786091
S31520022FD07868FFF7BDFD0346022B05D0154C164D2A
S31520022FE02046294605F052FC7B685B68002B03D1FC
S31520022FF0EB21124804F094FE7B685B68002B03D118
S31520023000EB210E4804F08CFE7B685B6814331B6848
S3152002301099B27B681A897B685B6814331B684A40BD
S3152002302092B262F30F037A68526814321360083739
S31520023030BD46B0BD8CC5022050C502200CC502205B
S3152002304080B584B000AF78607B681B89FB817B6882
S315200230505B68002B04D14FF480710B4804F060FEAC
S315200230607B685B681C331B689AB2FB8913409BB250
S31520023070FA899A420CBF01230023DBB200BF18460D
S315200230801037BD4680BD00BF0CC5022080B485B076
S3152002309000AF78600B467B807968788840F480336D
S315200230A0FB60FB68CB61C861FB68CB61CB69FB60C7
S315200230B0CB69FB601437BD465DF8047B704700BFC1
S315200230C0B0B582B000AF6346C7F804C01B68184685
S315200230D0FFF7B6FF034683F00103DBB2002B05D0D0
S315200230E0044C054D2046294605F0D0FB0837BD463F
S315200230F0B0BD00BFC0C50220F0C50220B0B584B065
S3152002310000AF786007F12003FB607B68BB60194B38
S315200231101B7883F00103DBB2002B04D04FF4A1719C
S31520023120154804F02DFEBB681846FFF789FF0346B3
S31520023130002B05D0114C124D2046294605F0A6FB40
S31520023140BB685B68002B04D14FF4A2710A4804F0D5
S31520023150E7FDBB685A68BB681B8919461046FFF70C
S3152002316095FF07F108039C46FFF7AAFF1037BD46D5
S31520023170B0BD00BF78DB02200CC50220F8C50220B4
S3152002318024C6022080B588B000AF78603960794BBA
S315200231901B7883F00103DBB2002B04D04FF4AC7111
S315200231A0754804F0EDFD7B681B8901211846FFF75F
S315200231B069FB0346002B01DB0F2B04DD4FF4AE71B6
S315200231C06D4804F0D5FDFB617B685B68002B04D15A
S315200231D04FF4AF71684804F0A3FD7B685B68303317
S315200231E01B689BB23B833A8BFB69012101FA03F3ED
S315200231F09BB2DB439BB2134099B23B681B799AB2CE
S31520023200FB6902FA03F39AB27B685B6830331B6868
S315200232100A4392B262F30F037A685268303213601D
S315200232207B685B68002B04D140F25F11524804F0A0
S3152002323077FD7B685B681B687B617A69FB695B004B
S31520023240194603238B40DB431A403B681B781946F9
S31520023250FB695B0001FA03F379684968096813433D
S3152002326019467B685B680A461A607B685B68002B96
S3152002327004D14FF4B071404804F052FD7B685B687C
S3152002328004331B689BB23B823A8AFB69012101FA0D
S3152002329003F39BB2DB439BB2134099B23B685B7844
S315200232A0012B0CBF01230023DBB29AB2FB6902FA7F
S315200232B003F39AB27B685B6804331B680A4392B2B3
S315200232C062F30F037A685268043213607B685B6884
S315200232D0002B04D140F26111274804F021FD7B68BE
S315200232E05B6808331B68FB60FA68FB695B0019465A
S315200232F003238B40DB431A403B689B781946FB69C4
S315200233005B0001FA03F379684968083109681343B7
S3152002331019467B685B6808330A461A607B685B68D5
S31520023320002B04D14FF4B171134804F0F9FC7B68E9
S315200233305B680C331B68BB60BA68FB695B00194685
S3152002334003238B40DB431A403B68DB781946FB6933
S315200233505B0001FA03F3796849680C310968134363
S3152002336019467B685B680C330A461A602037BD46CD
S3152002337080BD00BF79DB02200CC5022080B586B055
S3152002338000AF78600B46FB703F4B1B7883F001033E
S31520023390DBB2002B04D040F277113C4804F0F0FC5B
S315200233A07B681B8901211846FFF76CFA0346002B1E
S315200233B001DB0F2B04DD40F27B11344804F0D8FCEC
S315200233C07B617B69072B2DDC7B685B68002B04D134
S315200233D04FF4BF712D4804F0A3FC7B69072B04DD53
S315200233E04FF4BF71294804F0ABFC7B685B6820333D
S315200233F01B683B613A697B699B0019460F238B4008
S31520023400DB431A40FB78796989008B4079684968E1
S3152002341020310968134319467B685B6820330A46C4
S315200234201A602EE07B685B68002B04D14FF4C071D2
S31520023430164804F075FC7B69072B04DC4FF4C07137
S31520023440124804F07DFC7B685B6824331B68FB60B2
S31520023450FA687B69083B9B0019460F238B40DB43A6
S315200234601A40FB787969083989008B40796849685E
S3152002347024310968134319467B685B6824330A465C
S315200234801A601837BD4680BD7CDB02200CC502209F
S3152002349090B583B000AF7860134B1B7883F001039D
S315200234A0DBB2002B04D04FF4CB71104804F068FC39
S315200234B07B681B8901211846FFF7E4F903464FEA88
S315200234C0E374002B74F1000203DB172B74F1000264
S315200234D004DB4FF4CD71054804F04AFCDBB200BF91
S315200234E018460C37BD4690BD7ADB02200CC5022059
S315200234F090B585B000AF78600B46FB701346BB7063
S315200235001E4B1B7883F00103DBB2002B04D040F262
S31520023510A1111B4804F034FC7B681B890121184643
S31520023520FFF7B0F903464FEAE374002B74F1000269
S3152002353003DB172B74F1000204DB40F2A7111048BB
S3152002354004F016FCFB73FB78022B06D8BA78F978BE
S31520023550FB7B1846FEF738FF0DE0FB78022B04D8DA
S315200235604FF4D871064804F003FCFA78FB7B114627
S315200235701846FFF75DF81437BD4690BD7BDB022067
S315200235800CC5022080B400AF0F4B01221A700F4BDC
S3152002359001221A700E4B01221A700E4B01221A704A
S315200235A00D4B01221A700D4B01221A700C4B01226F
S315200235B01A700C4B01221A700B4B01221A70BD464F
S315200235C05DF8047B704700BF74DB022075DB0220A6
S315200235D076DB022077DB022078DB022079DB0220F1
S315200235E07CDB02207ADB02207BDB022080B500AF67
S315200235F0034804F0CFFC034B184604F013FD80BDAC
S315200236005CC60220CCC6022080B582B000AF7860AC
S315200236100B46FB70FB78002B03D07B68184602F022
S31520023620D5F80837BD4680BD80B588B000AFB960F1
S315200236307A601A460346FB731346BB7307F11403DB
S3152002364000211846FFF7E0FF07F11803FB61F8692E
S3152002365002F096F8BB68BB61164B08331B68FA7BEF
S3152002366062F30703134A08321360FB691A68114B87
S315200236700C331B68C2F35A1262F35F130D4A0C32E3
S315200236801360BB687B617A697B6813447B617B69C3
S31520023690BA7B02F00702D2B262F343037B617B69F3
S315200236A043F001037B61034B10337A691A6020379A
S315200236B0BD4680BD90ED00E080B586B000AF0346E2
S315200236C03971FB713B793B7207F108037B61FB7908
S315200236D0032B17D8FB79032B03D92C21164804F088
S315200236E02FFB164B30331B68FB60FB797A69127805
S315200236F007F118010B4403F80C2C104B3033FA68EF
S315200237001A6016E0FB79032B03D82E210A4804F00F
S3152002371017FB0A4B34331B683B61FB797A691278B3
S3152002372007F118010B4403F80C2C044B34333A6985
S315200237301A601837BD4680BD04C7022090ED00E00E
S3152002374080B400AF064B04331B681A46134643F077
S315200237500102034B04331A60BD465DF8047B7047B1
S3152002376090ED00E080B485B000AFF860B9601346F2
S31520023770FB71FB79002B02D0054AFB681A60FB68B5
S31520023780BA685A601437BD465DF8047B704700BF9D
S31520023790CCC8022090B482B000AF78604FF04003CC
S315200237A04FF00004184621460837BD4690BC7047A4
S315200237B080B483B000AF78600B46FB700C37BD46F1
S315200237C05DF8047B704700BF80B582B000AF786099
S315200237D039604E4B1B7883F00103DBB2002B03D0FA
S315200237E048214B4804F0CCFA3B685B78012B03D97D
S315200237F04A21474804F0ACFA3B685B78002B14D187
S315200238007B685B681B681A46134643F004027B6892
S315200238105B681A607B685B681B681A46134643F42A
S3152002382080727B685B681A600FE07B685B681B6846
S315200238306FF382037A68526813607B685B681B6841
S315200238406FF308237A68526813603B681B78032B50
S3152002385003D953212E4804F07BFA3B681B78012BAF
S315200238601DD0012B02D3022B34D053E07B685B6838
S315200238701B686FF3CF337A68526813607B685B6884
S315200238801B686FF38E337A68526813607B685B68B5
S315200238901B686FF38A237A685268136056E07B6846
S315200238A05B681B686FF3CF337A68526813607B6854
S315200238B05B681B686FF38E337A68526813607B6885
S315200238C05B681B681A46134643F480627B685B6812
S315200238D01A603BE07B685B681B681A46134643F412
S315200238E000427B685B681A607B685B681B686FF3C3
S315200238F08E337A68526813607B685B681B686FF345
S315200239008A237A685268136020E000BF8ADB02208D
S3152002391014C702207B685B681B681A46134643F469
S3152002392000427B685B681A607B685B681B681A4684
S31520023930134643F480427B685B681A607B685B6847
S315200239401B686FF38A237A685268136000BF3B684C
S315200239509B78012B0CBF01230023DAB27B685B68BC
S315200239601B6802F00102D2B262F3CB237A68526854
S3152002397013603B68DB78002B0CBF01230023DAB2ED
S315200239807B685B681B6802F00102D2B262F34103D4
S315200239907A68526813603B681B79012B0CBF01239E
S315200239A00023DAB27B685B681B6802F00102D2B29E
S315200239B062F300037A68526813603B685B79002BD6
S315200239C00CBF01230023DAB27B685B681B6802F016
S315200239D00102D2B262F349237A68526813603B68C5
S315200239E09B791A463C4B9A5C7B685B681B6802F0A3
S315200239F00702D2B262F3C5037A68526813603B6843
S31520023A00DB79012B0CBF01230023DAB27B685B68CA
S31520023A101B6802F00102D2B262F3C7137A685268B7
S31520023A2013603B689A7A7B685B6804331B6802F0F2
S31520023A300102D2B262F341037A68526804321360F9
S31520023A403B689A7A7B685B6804331B6802F0010242
S31520023A50D2B262F3C7137A685268043213603B68A3
S31520023A60DA7A7B685B6804331B6802F00102D2B201
S31520023A7062F300037A685268043213603B68DA7A8A
S31520023A807B685B6804331B6802F00102D2B262F3E0
S31520023A9086137A685268043213603B681A7B7B6805
S31520023AA05B6804331B6802F00102D2B262F30C3364
S31520023AB07A685268043213607B685B6810331B682D
S31520023AC03A68128962F30F037A68526810321360D9
S31520023AD00837BD4680BD00BF64C9022080B582B0CA
S31520023AE000AF78600B4B1B7883F00103DBB2002B0F
S31520023AF003D07D21084804F043F97B685B681B6884
S31520023B001A46134643F040027B685B681A60083700
S31520023B10BD4680BD8BDB022014C7022080B582B051
S31520023B2000AF78600A4B1B7883F00103DBB2002BCF
S31520023B3003D08621074804F023F97B685B681B685B
S31520023B406FF386137A68526813600837BD4680BDC4
S31520023B508CDB022014C7022080B582B000AF7860C9
S31520023B600A4B1B7883F00103DBB2002B03D08F2193
S31520023B70074804F005F97B685B681B68C3F380136A
S31520023B80DBB200BF18460837BD4680BD8DDB02205A
S31520023B9014C7022080B582B000AF78600B467B80C6
S31520023BA00C4B1B7883F00103DBB2002B03D0982148
S31520023BB0094804F0E5F87B685B680C331B687A8851
S31520023BC062F30F037A6852680C3213600837BD46D7
S31520023BD080BD00BF8EDB022014C7022080B483B0D2
S31520023BE000AF78607B685B680C331B689BB200BFB2
S31520023BF018460C37BD465DF8047B704780B584B005
S31520023C0000AF78600B46FB700A4B1B7883F00103EA
S31520023C10DBB2002B03D0AC21074804F0B1F87B6855
S31520023C205B680C33FB60FB68FA781A701037BD4666
S31520023C3080BD00BF8FDB022014C7022080B582B070
S31520023C4000AF78607868FFF7C9FF0346FF2B03D9D8
S31520023C50B921044804F08CF8DBB200BF18460837B5
S31520023C60BD4680BD14C7022080B582B000AF786001
S31520023C70786800F02DF80346002B08D0786800F00B
S31520023C8015F8034683F00103DBB2002B05D17868D1
S31520023C9000F036F80346002B01D0012300E0002372
S31520023CA000BF18460837BD4680BD00BF80B483B02A
S31520023CB000AF78607B685B6808331B68C3F34003F8
S31520023CC0DBB200BF18460C37BD465DF8047B704751
S31520023CD080B483B000AF78607B685B6808331B686A
S31520023CE0DBB203F00103DBB2002B0CBF012300235E
S31520023CF0DBB200BF18460C37BD465DF8047B704721
S31520023D0080B483B000AF78607B685B6808331B6839
S31520023D10C3F3C013DBB200BF18460C37BD465DF8AD
S31520023D20047B704780B582B000AF7860184B1B7851
S31520023D3083F00103DBB2002B03D0E621154804F001
S31520023D401FF87B685B681B68DBB203F00403DBB2F7
S31520023D50002B14BF01230023DAB27B685B681B6841
S31520023D60C3F30723DBB203F00103DBB2002B14BF3C
S31520023D7001230023DBB21340DBB2002B01D0002348
S31520023D8000E0012300BF18460837BD4680BD00BFAC
S31520023D9092DB022014C7022080B582B000AF786081
S31520023DA01A4B1B7883F00103DBB2002B03D0F321DD
S31520023DB0174803F0E5FF7B685B681B68C3F307239C
S31520023DC0DBB25BB2002B0EDB7B685B681B68C3F33E
S31520023DD00723DBB203F00403DBB2002B01D100235D
S31520023DE00FE001230DE07B685B681B68C3F30723A2
S31520023DF0DBB203F04003DBB2002B01D1022300E049
S31520023E00032300BF18460837BD4680BD93DB022038
S31520023E1014C7022080B483B000AF78607B685B68E9
S31520023E201B68C3F34033DBB200BF18460C37BD46CE
S31520023E305DF8047B704700BF80B483B000AF786022
S31520023E407B685B6808331B68C3F30013DBB200BFD1
S31520023E5018460C37BD465DF8047B704780B483B0A4
S31520023E6000AF78607B685B6808331B68C3F3401336
S31520023E70DBB200BF18460C37BD465DF8047B70479F
S31520023E8080B483B000AF78607B685B6808331B68B8
S31520023E90C3F38013DBB200BF18460C37BD465DF86C
S31520023EA0047B704780B483B000AF78607B685B6820
S31520023EB008331B68C3F30023DBB200BF18460C3756
S31520023EC0BD465DF8047B704780B584B000AF78604C
S31520023ED00E4B1B7883F00103DBB2002B04D04FF488
S31520023EE09E710B4803F04CFF07F10803184601F0B8
S31520023EF093FC7B685B680C331B68FB817B685B6881
S31520023F0008331B68BB601037BD4680BD90DB02209C
S31520023F1014C7022080B582B000AF7860104B1B78A0
S31520023F2083F00103DBB2002B04D04FF4A4710D48B9
S31520023F3003F026FF7B685B681B686FF34D337A6854
S31520023F40526813607B685B681B681A46134643F403
S31520023F5000527B685B681A600837BD4680BD00BF89
S31520023F6091DB022014C7022080B483B000AF7860B0
S31520023F707B685B681B68C3F3C023DBB200BF1846AD
S31520023F800C37BD465DF8047B704700BF80B582B012
S31520023F9000AF78600F4B1B7883F00103DBB2002B56
S31520023FA004D04FF4AD710C4803F0EAFE7B685B68DF
S31520023FB01B68C3F30723DBB203F00803DBB2002B33
S31520023FC001D0012300E0002300BF18460837BD4672
S31520023FD080BD00BF94DB022014C70220B0B586B094
S31520023FE000AFF860C7E90012BB60354B1B7883F03F
S31520023FF00103DBB2002B04D04FF4B471314803F035
S31520024000BFFEF868FFF7C2FF0346002B05D02E4CF1
S315200240102E4D2046294604F039FCF868FFF7FAFEB1
S315200240200346002B02D0F868FFF774FFF868FFF703
S31520024030B3FE0346032B09D1FB685B681B681A464D
S31520024040134643F48042FB685B681A60F868FFF700
S315200240503BFFF868FFF780FD034683F00103DBB2DE
S31520024060002B02D0F868FFF739FDD7E90012F8686D
S3152002407001F046F8F868FFF719FE0346002B01D136
S3152002408000BFF7E7F868FFF73BFE034683F001031C
S31520024090DBB2002B01D100BFF4E7F868FFF77CFE04
S315200240A00346012B01D0002B02D1F868FFF70CFF43
S315200240B00023FB75FB7D00BF18461837BD46B0BDF1
S315200240C095DB022014C7022024C7022058C70220EB
S315200240D0B0B586B000AFF860C7E90012BB60364BB8
S315200240E01B7883F00103DBB2002B04D040F2991136
S315200240F0324803F045FEF868FFF748FF0346012BD6
S3152002410005D02F4C2F4D2046294604F0BFFBF868D8
S31520024110FFF780FE0346002B02D0F868FFF7FAFE6F
S31520024120F868FFF739FE0346032B09D1FB685B6863
S315200241301B681A46134643F48042FB685B681A6082
S31520024140F868FFF7C1FEF868FFF706FD034683F01D
S315200241500103DBB2002B02D0F868FFF7BFFCD7E9D8
S315200241600012F86800F0CAFEF868FFF79FFD0346C2
S31520024170002B01D100BFF7E7F868FFF7C1FD034620
S3152002418083F00103DBB2002B01D100BFF4E7F8680C
S31520024190FFF702FE0346012B01D0002B04D1F8685B
S315200241A0FFF792FE0123FB750023FB75FB7D00BF03
S315200241B018461837BD46B0BD96DB022014C702202A
S315200241C060C7022058C7022080B584B000AF78604D
S315200241D00B46FB70364B1B7883F00103DBB2002BB8
S315200241E004D04FF4E571334803F0CAFD7B685B685F
S315200241F00C33FB607868FFF70DFE0346002B02D0D6
S315200242007868FFF787FE7868FFF7C6FD0346032B1B
S3152002421009D17B685B681B681A46134643F48042C1
S315200242207B685B681A607868FFF796FC034683F022
S315200242300103DBB2002B02D07868FFF74FFC7B68C4
S315200242405B681B68C3F30723DBB223F07F03DBB271
S31520024250002B09D07B685B681B681A46134643F419
S3152002426080427B685B681A60FB68FA781A70786805
S31520024270FFF71CFD0346002B01D100BFF7E7786844
S31520024280FFF73EFD034683F00103DBB2002B01D18B
S3152002429000BFF4E77868FFF77FFD0346012B01D0C4
S315200242A0002B02D17868FFF70FFE1037BD4680BD7E
S315200242B097DB022014C70220B0B588B000AFF860A1
S315200242C0C7E90012BB60544B1B7883F00103DBB2B3
S315200242D0002B04D04FF4FC71504803F051FDF868CE
S315200242E0FFF754FE0346002B05D04D4C4D4D20467C
S315200242F0294604F0CBFAFB685B680C33FB61F8684D
S31520024300FFF7E6FC0346002B04D1FB691B78DBB2E0
S31520024310FB76F4E7F868FFF77DFD0346002B02D013
S31520024320F868FFF7F7FDF868FFF716FC034683F0F7
S315200243300103DBB2002B02D0F868FFF7CFFBFB6844
S315200243405B681B68C3F30723DBB223F07F03DBB270
S31520024350002B0DD0F868FFF7E1FBFB685B681B6852
S315200243606FF38E33FA6852681360F868FFF7B6FB6C
S31520024370D7E90012F86800F0F5FFFB685B681B6856
S31520024380C3F30723DBB223F07F03DBB2002B1ED05D
S31520024390F868FFF7C3FBFB685B681B681A4613467F
S315200243A043F48042FB685B681A60F868FFF796FB65
S315200243B0FB685B680C337B61F868FFF789FC034670
S315200243C0002B04D17B691B78DBB2FB74F4E7F86817
S315200243D0FFF796FC034683F00103DBB2002B01D1E3
S315200243E000BFF4E7F868FFF715FD03461C46F86898
S315200243F0FFF722FD03462340DBB2002B04D0F868E8
S31520024400FFF788FD0123BB740023BB74BB7C00BF6E
S3152002441018462037BD46B0BD98DB022014C70220BD
S3152002442094C7022058C70220B0B586B000AFF86004
S31520024430C7E90012BB602B4B1B7883F00103DBB26A
S31520024440002B04D040F23E21274803F099FCF8685D
S31520024450FFF79CFD0346012B05D0244C244D204614
S31520024460294604F013FAF868FFF7D4FC0346002B1A
S3152002447002D0F868FFF74EFDF868FFF76DFB03469A
S3152002448083F00103DBB2002B02D0F868FFF726FB8C
S31520024490D7E90012F86800F00BFFF868FFF730FC46
S315200244A0034683F00103DBB2002B01D100BFF4E700
S315200244B0F868FFF7AFFC03461C46F868FFF7BCFC1A
S315200244C003462340DBB2002B04D0F868FFF722FD17
S315200244D00123FB750023FB75FB7D00BF18461837A9
S315200244E0BD46B0BD9ADB022014C70220C8C70220EF
S315200244F058C7022090B585B000AF7860364B1B783E
S3152002450083F00103DBB2002B04D040F25F21334853
S3152002451003F036FC7B685B680C33FB607868FFF738
S3152002452079FC0346002B02D07868FFF7F3FC786803
S31520024530FFF712FB034683F00103DBB2002B02D006
S315200245407868FFF7CBFAFB6800221A707868FFF7C3
S31520024550BFFB034683F00103DBB2002B01D100BF70
S31520024560F4E7FB681B78DBB27B727868FFF752FCB4
S315200245700346002B0FD07868FFF7AAFB034683F089
S315200245800103DBB2002B01D100BFF4E77B685B6835
S315200245900C331B687B817868FFF7B2FB034683F0F6
S315200245A00103DBB2002B01D100BFF4E77868FFF7E5
S315200245B031FC03461C467868FFF73EFC034623403F
S315200245C0DBB2002B02D07868FFF7A4FC7B7A00BF0F
S315200245D018461437BD4690BD9BDB022014C7022025
S315200245E082B090B58FB002AF7861C7E902127B64C0
S315200245F03B4607F1440292E8030083E80300FB6886
S315200246001B68FA6852684549097881F00101C9B2E6
S31520024610002904D040F28D21414803F0B1FB79688C
S315200246200968F9627968486879680968884203DB0B
S3152002463079684968B96203E0796809680139B9621B
S315200246407B629A4201DB3A6201E0013B3B62786976
S31520024650FFF7E0FB0346002B02D07869FFF75AFCEE
S315200246607869FFF779FA034683F00103DBB2002B60
S3152002467002D07869FFF732FA7869FFF775FC0346AC
S31520024680002B0AD0FB6C01937B6800933B68D7E929
S315200246900212786900F0DAF809E0FB6C01937B6874
S315200246A000933B68D7E90212786900F09BFA786991
S315200246B0FFF7B0FB0346002B0FD07869FFF708FB04
S315200246C0034683F00103DBB2002B01D100BFF4E7DE
S315200246D07B695B680C331B68FB837869FFF710FBE9
S315200246E0034683F00103DBB2002B01D100BFF4E7BE
S315200246F07869FFF78FFB03461C467869FFF79CFB18
S3152002470003462340DBB2002B02D07869FFF702FC76
S315200247103437BD46BDE8904002B070479CDB02208C
S3152002472014C7022090B585B000AF78600B46FB70A7
S31520024730444B1B7883F00103DBB2002B04D04FF4E9
S315200247402F71414803F01CFB7B685B680C33FB60CE
S315200247507868FFF75FFB0346002B02D07868FFF7E5
S31520024760D9FB7868FFF7F8F9034683F00103DBB239
S31520024770002B02D07868FFF7B1F97868FFF7F4FBCF
S315200247800346002B04D04FF433712F4803F0FEFA70
S31520024790FB68FA781A707868FFF73CFB0346002B11
S315200247A009D07B685B681B681A46134643F480521D
S315200247B07B685B681A607868FFF78AFA034683F09B
S315200247C00103DBB2002B01D100BFF4E7FB681B78A3
S315200247D0DBB27B727868FFF71DFB0346002B0FD0F6
S315200247E07868FFF775FA034683F00103DBB2002BE4
S315200247F001D100BFF4E77B685B680C331B687B81C1
S315200248007868FFF77DFA034683F00103DBB2002BBB
S3152002481001D100BFF4E77868FFF7FCFA03461C468D
S315200248207868FFF709FB03462340DBB2002B02D050
S315200248307868FFF76FFB7B7A00BF18461437BD46B0
S3152002484090BD00BF9DDB022014C7022082B0F0B5C6
S315200248508FB000AF7861C7E902127B653B4607F14C
S31520024860540292E8030083E80300FB681C68FB6895
S315200248705D68A44B1B7883F00103DBB2002B04D0C6
S3152002488040F2F721A04803F07BFA7B681B68BB62E3
S315200248907B685A687B681B689A4203DB7B685B6885
S315200248A07B6203E07B681B68013B7B623C62A5421C
S315200248B001DBFD6102E02346013BFB61FB6D3B63AD
S315200248C0002C04DA40F2FE218F4803F051FA7C6371
S315200248D07B681B68002B04DA40F2FF218A4803F02A
S315200248E047FA7B681B68FB627869FFF71BFA034667
S315200248F0012B0CBF01230023DBB2002B02D13B6B21
S31520024900012B3CD17B6B9C4202DC7B6B9D4204DA01
S3152002491040F203317C4803F013FABA687B6B2146D6
S315200249205B1A1344002B04D140F20331764803F07C
S31520024930F7F9BA687B6B21465B1A1A447B695B6876
S315200249400C331B68128862F30F037A6952680C32A1
S3152002495013607B6B6D4A934204DD4FF441716A48C2
S3152002496003F0FEF97B6B02337B633B6B013B002B2F
S3152002497004DA40F20531644803F0FAF93B633B6BF3
S31520024980002B43D17869FFF745FA0346002B09D05D
S315200249907B695B681B681A46134643F480527B691F
S315200249A05B681A607869FFF793F9034683F001037F
S315200249B0DBB2002B01D100BFF4E77B681B68FA6AE1
S315200249C09A4204DB7B685B68FA6A9A4204DD4FF4FA
S315200249D045714D4803F0B4F93A68FB6A796809686B
S315200249E05B1A1344002B04D14FF44571464803F059
S315200249F097F97B695B680C3318683A68FB6A7968B1
S31520024A0009685B1A134482B21A80E0E03B6B002BE2
S31520024A1040F3A4807869FFF749F90346002B01D1B8
S31520024A2000BFF7E77B6B9C4202DC7B6B9D4204DA7C
S31520024A3040F22131344803F083F9BA687B6B214670
S31520024A405B1A1344002B04D140F221312E4803F085
S31520024A5067F9BA687B6B21465B1A1A447B695B68E5
S31520024A600C331B68128862F30F037A6952680C3280
S31520024A7013607B6B254A934204DD40F222312248A1
S31520024A8003F06EF97B6B02337B633B6B013B002B9E
S31520024A9004DA40F223311C4803F06AF93B633B6B8C
S31520024AA0002B0CBF01230023DEB27869FFF7B2F98F
S31520024AB003463340DBB2002B09D07B695B681B6857
S31520024AC01A46134643F480527B695B681A607869FA
S31520024AD0FFF7FEF8034683F00103DBB2002B01D178
S31520024AE000BFF4E77B681B68FA6A9A4204DB7B689C
S31520024AF05B68FA6A9A420BDD40F22F31024803F0D4
S31520024B001FF900BF9EDB022014C70220FDFFFF7F94
S31520024B103A68FB6A796809685B1A1344002B04D148
S31520024B2040F22F312D4803F0FBF87B695B680C338A
S31520024B3018683A68FB6A796809685B1A134482B274
S31520024B401A80FB6A264A934204DD40F23131234819
S31520024B5003F006F9FB6A0233FB6257E77869FFF72F
S31520024B60E1F80346012B32D17869FFF7B1F8034603
S31520024B7083F00103DBB2002B01D100BFF4E77B688F
S31520024B801B68FA6A9A4204DB7B685B68FA6A9A4275
S31520024B9004DD40F23B31114803F0D2F83A68FB6A51
S31520024BA0796809685B1A1344002B04D140F23B3121
S31520024BB00A4803F0B5F87B695B680C3318683A68D3
S31520024BC0FB6A796809685B1A134482B21A803C37F9
S31520024BD0BD46BDE8F04002B0704700BF14C70220B0
S31520024BE0FDFFFF7F82B0F0B58FB000AF7861C7E9D5
S31520024BF002127B653B4607F1540292E8030083E8E2
S31520024C000300FB681C68FB685D68A54B1B7883F074
S31520024C100103DBB2002B04D04FF45171A14803F0FB
S31520024C20AFF87B681B68BB627B685A687B681B6827
S31520024C309A4203DB7B685B687B6203E07B681B68C6
S31520024C40013B7B623C62A54201DBFD6102E0234619
S31520024C50013BFB61FB6D3B63002C04DA40F24B31D6
S31520024C60904803F085F87C637B681B68002B04DA86
S31520024C704FF453718B4803F07BF87B681B68FB6209
S31520024C807B695B680C33BB617869FFF74BF8034697
S31520024C90012B0CBF01230023DBB2002B02D13B6B7D
S31520024CA0012B28D17B6B9C4202DC7B6B9D4204DA72
S31520024CB04FF454717B4803F043F8BA68796B3B6A28
S31520024CC0CB1AD25CBB691A707B6B6FF0004293429F
S31520024CD004D140F25131734803F042F87B6B013321
S31520024CE07B633B6B013B002B04DA40F252316D4869
S31520024CF003F03EF83B633B6B002B3AD17869FFF712
S31520024D0089F80346002B09D07B695B681B681A4623
S31520024D10134643F480527B695B681A607869FEF712
S31520024D20D7FF034683F00103DBB2002B01D100BF7C
S31520024D30F4E77B681B68FA6A9A4204DB7B685B6845
S31520024D40FA6A9A4204DD4FF45871564802F0F8FF87
S31520024D50FB6A002B04DA4FF45871524802F0F8FF2E
S31520024D603A681846BB691B78D9B2BB6AC31AD154B2
S31520024D70BBE03B6B002B40F381807869FEF796FF00
S31520024D800346002B01D100BFF7E77B6B9C4202DC76
S31520024D907B6B9D4204DA40F26A31424802F0D0FF30
S31520024DA0BA68796B3B6ACB1AD25CBB691A707B6B89
S31520024DB06FF00042934204D140F26B31394802F03F
S31520024DC0CFFF7B6B01337B633B6B013B002B04DA0A
S31520024DD04FF45B71334802F0CBFF3B633B6B002BF6
S31520024DE00CBF01230023DEB27869FFF713F80346CE
S31520024DF03340DBB2002B09D07B695B681B681A46FD
S31520024E00134643F480527B695B681A607869FEF721
S31520024E105FFF034683F00103DBB2002B01D100BF03
S31520024E20F4E77B681B68FA6A9A4204DB7B685B6854
S31520024E30FA6A9A4204DD4FF45E711A4802F080FF44
S31520024E40FB6A002B04DA4FF45E71164802F080FFEB
S31520024E503A681846BB691B78D9B2BB6AC31AD154C1
S31520024E60FB6A6FF00042934204D140F279310D4839
S31520024E7002F076FFFB6A0133FB627AE77869FEF776
S31520024E8051FF0346012B30D17869FEF721FF0346F5
S31520024E9083F00103DBB2002B06D100BFF4E700BF8B
S31520024EA09FDB022014C702207B681B68FA6A9A429B
S31520024EB004DB7B685B68FA6A9A4204DD40F282313F
S31520024EC00D4802F03DFFFB6A002B04DA40F28231E4
S31520024ED0094802F03DFF3C681D467869FEF7AEFEA2
S31520024EE003461A46BB6AEB1AE2543C37BD46BDE876
S31520024EF0F04002B0704700BF14C702202DE9B04B24
S31520024F0087B000AFF860C7E900127B681C687B682F
S31520024F105D68A54210DB28464FEAE071A0464FEABB
S31520024F20E87902460B46B2EB080263EB090312F15B
S31520024F30010843F1000903E04FF000084FF0000991
S31520024F406B4B1B7883F00103DBB2002B04D040F2BB
S31520024F508A31684802F014FF22464FEAE273664815
S31520024F604FF0000110EB020B41EB030C2A464FEAED
S31520024F70E27393457CEB030304DA40F28E315D48FB
S31520024F8002F0F6FE43467B61002C04DA40F28F31B2
S31520024F90584802F0EDFE3C61F868FEF7C3FE034670
S31520024FA0012B0CBF01230023DBB2002B02D17B692C
S31520024FB0012B3ED13B699C4202DC3B699D4204DACD
S31520024FC040F293314B4802F0BBFE3A683B692146D8
S31520024FD05B1A5B001344002B04D140F293314548FF
S31520024FE002F09EFE3A683B6921465B1A5B001A4430
S31520024FF0FB685B680C331B68128862F30F03FA683E
S3152002500052680C3213603B693C4A934204DD4FF4EA
S315200250106571384802F0A4FE3B6902333B617B6925
S31520025020013B002B04DA40F29531324802F0A0FE11
S315200250307B617B69002B47DDF868FEF737FE034666
S31520025040002B01D100BFF7E73B699C4202DC3B699A
S315200250509D4204DA40F29F31264802F071FE3A68F8
S315200250603B6921465B1A5B001344002B04D140F2B4
S315200250709F31204802F054FE3A683B6921465B1A6A
S315200250805B001A44FB685B680C331B68128862F368
S315200250900F03FA6852680C3213603B69174A93422F
S315200250A004DD4FF46871134802F05AFE3B6902335D
S315200250B03B617B69013B002B04DA40F2A1310D48AA
S315200250C002F056FE7B61B4E7F868FEF7A3FE0346BC
S315200250D0002B09D0FB685B681B681A46134643F40B
S315200250E08052FB685B681A601C37BD46BDE8B08BF0
S315200250F0A0DB022014C70220FEFFFF7FFDFFFF7FF9
S315200251002DE9F04B88B000AFF860C7E900127B6842
S315200251101C687B685D68A54210DB28464FEAE07171
S31520025120A0464FEAE87902460B46B2EB080263EB49
S31520025130090312F1010843F1000903E04FF00008C8
S315200251404FF00009574B1B7883F00103DBB2002B8B
S3152002515004D040F2AD31544802F012FE26462246D1
S315200251604FEAE27351484FF0000110EB020B41EB7C
S31520025170030C2A464FEAE27393457CEB030304DAD7
S3152002518040F2B131484802F0F3FD4346FB61002C60
S3152002519004DA40F2B231444802F0EAFDBC61FB680F
S315200251A05B680C337B61F868FEF7BCFD0346012B76
S315200251B00CBF01230023DBB2002B02D1FB69012B9A
S315200251C027D1BB699C4202DCBB699D4204DA40F2CC
S315200251D0B631354802F0B4FD3A68BB699B1BD25CF6
S315200251E07B691A70BB696FF00042934204D140F288
S315200251F0B7312D4802F0B4FDBB690133BB61FB69AF
S31520025200013B002B04DA4FF46E71274802F0B0FD01
S31520025210FB61FB69002B30DDF868FEF747FD03468C
S31520025220002B01D100BFF7E7BB699C4202DCBB69B8
S315200252309D4204DA40F2C1311B4802F081FD3A68F0
S31520025240BB699B1BD25C7B691A70BB696FF00042FB
S31520025250934204D140F2C231134802F081FDBB6968
S315200252600133BB61FB69013B002B04DA40F2C331F7
S315200252700D4802F07DFDFB61CBE7F868FEF7CAFD1B
S315200252800346002B09D0FB685B681B681A46134647
S3152002529043F48052FB685B681A602037BD46BDE83E
S315200252A0F08B00BFA1DB022014C70220FEFFFF7F86
S315200252B02DE9F04186B000AFF860C7E90012274B0E
S315200252C01B7883F00103DBB2002B04D040F2CF31EE
S315200252D0234802F055FD7B681B681E46F868FEF7D8
S315200252E021FD0346002B0CBF01230023FB757B689F
S315200252F01C687B685D68AC422CDC3A68A046A8EB49
S3152002530006035B0013443B61FB7D002B09D0FB683F
S315200253105B680C331B686FF30F03FA6852680C3212
S315200253201360F868FEF7D4FC034683F00103DBB270
S31520025330002B01D100BFF4E7FB685B680C331A68C7
S315200253403B6891B2A8EB060223F81210AC4201D0B8
S315200253500134D2E71837BD46BDE8F081A2DB022030
S3152002536014C702202DE9F04188B000AFF860C7E9E2
S3152002537000122A4B1B7883F00103DBB2002B04D0E8
S315200253804FF47971264802F0FBFC7B681B681E46A7
S31520025390F868FEF7C7FC0346002B0CBF0123002347
S315200253A0DAB2FB685B681B68C3F30723DBB25BB226
S315200253B0DB43DBB2DB09DBB21340FB77FB685B68BE
S315200253C00C33BB617B681C687B685D68AC4221DC60
S315200253D03A68A046A8EB060313447B61FB7F002BA9
S315200253E002D0BB6900221A70F868FEF771FC0346E8
S315200253F083F00103DBB2002B01D100BFF4E73A6848
S31520025400BB691B78D9B2A8EB0603D154AC4201D0B2
S315200254100134DDE72037BD46BDE8F081A3DB02205B
S3152002542014C7022082B02DE9F04F97B002AF7863FD
S31520025430C7E90A12FB6707F1200307F17C0292E80B
S31520025440030083E80300FB6A1B683B63FB6A5B6815
S315200254507B60FB6A5A68FB6A1B689A4212DBFB6A0C
S315200254605B6819464FEAE172FB6A1B681D464FEAE2
S31520025470E5760B4614465B1B64EB06045D1C44F181
S31520025480000603E04FF000054FF000066C4B1B7838
S3152002549083F00103DBB2002B04D040F2F7316948D6
S315200254A002F06EFC786BFEF771FD0346002B14BFEB
S315200254B001230023D8B27B6A5A687B6A1B689A4208
S315200254C018DB7B6A5B6819464FEAE172C7E902126A
S315200254D07B6A1B6819464FEAE1720B461446D7E9E6
S315200254E00212C91A62EB04020B461446591C44F1F5
S315200254F0000203E04FF000014FF0000296420ABF7D
